{"abi":[{"inputs":[{"internalType":"address","name":"_validator","type":"address"}],"stateMutability":"nonpayable","type":"constructor"},{"anonymous":false,"inputs":[{"indexed":false,"internalType":"address","name":"sender","type":"address"},{"indexed":false,"internalType":"address","name":"nftContract","type":"address"},{"indexed":false,"internalType":"uint256","name":"tokenId","type":"uint256"},{"indexed":false,"internalType":"string","name":"chainRoute","type":"string"}],"name":"BridgeDeposited","type":"event"},{"anonymous":false,"inputs":[{"indexed":false,"internalType":"address","name":"receiver","type":"address"},{"indexed":false,"internalType":"address","name":"nftContract","type":"address"},{"indexed":false,"internalType":"uint256","name":"tokenId","type":"uint256"},{"indexed":false,"internalType":"string","name":"chainRoute","type":"string"}],"name":"BridgeWithdrawn","type":"event"},{"inputs":[{"internalType":"address","name":"nftContract","type":"address"},{"internalType":"uint256","name":"tokenId","type":"uint256"},{"internalType":"string","name":"chainRoute","type":"string"},{"internalType":"uint256","name":"nonce","type":"uint256"}],"name":"deposit","outputs":[],"stateMutability":"nonpayable","type":"function"},{"inputs":[{"internalType":"bytes32","name":"","type":"bytes32"}],"name":"deposited","outputs":[{"internalType":"bool","name":"","type":"bool"}],"stateMutability":"view","type":"function"},{"inputs":[{"internalType":"address","name":"owner","type":"address"},{"internalType":"address","name":"nftContract","type":"address"},{"internalType":"uint256","name":"tokenId","type":"uint256"},{"internalType":"string","name":"chainRoute","type":"string"},{"internalType":"uint256","name":"nonce","type":"uint256"}],"name":"hashMessage","outputs":[{"internalType":"bytes32","name":"","type":"bytes32"}],"stateMutability":"pure","type":"function"},{"inputs":[{"internalType":"address","name":"","type":"address"},{"internalType":"address","name":"","type":"address"},{"internalType":"uint256","name":"","type":"uint256"},{"internalType":"bytes","name":"","type":"bytes"}],"name":"onERC721Received","outputs":[{"internalType":"bytes4","name":"","type":"bytes4"}],"stateMutability":"nonpayable","type":"function"},{"inputs":[],"name":"validator","outputs":[{"internalType":"address","name":"","type":"address"}],"stateMutability":"view","type":"function"},{"inputs":[{"internalType":"address","name":"receiver","type":"address"},{"internalType":"address","name":"nftContract","type":"address"},{"internalType":"uint256","name":"tokenId","type":"uint256"},{"internalType":"string","name":"chainRoute","type":"string"},{"internalType":"uint256","name":"nonce","type":"uint256"},{"internalType":"uint8","name":"v","type":"uint8"},{"internalType":"bytes32","name":"r","type":"bytes32"},{"internalType":"bytes32","name":"s","type":"bytes32"}],"name":"withdraw","outputs":[],"stateMutability":"nonpayable","type":"function"},{"inputs":[{"internalType":"bytes32","name":"","type":"bytes32"}],"name":"withdrew","outputs":[{"internalType":"bool","name":"","type":"bool"}],"stateMutability":"view","type":"function"}],"devdoc":{"kind":"dev","methods":{"onERC721Received(address,address,uint256,bytes)":{"details":"See {IERC721Receiver-onERC721Received}. Always returns `IERC721Receiver.onERC721Received.selector`."}},"version":1},"evm":{"assembly":"    /* \"Bridge721.sol\":506:2900  contract Bridge721 is ERC721Holder {... */\n  mstore(0x40, 0x80)\n    /* \"Bridge721.sol\":882:1030  constructor(address _validator) {... */\n  callvalue\n  dup1\n  iszero\n  tag_1\n  jumpi\n  0x00\n  dup1\n  revert\ntag_1:\n  pop\n  mload(0x40)\n  sub(codesize, bytecodeSize)\n  dup1\n  bytecodeSize\n  dup4\n  codecopy\n  dup2\n  dup2\n  add\n  0x40\n  mstore\n  dup2\n  add\n  swap1\n  tag_2\n  swap2\n  swap1\n  tag_3\n  jump\t// in\ntag_2:\n    /* \"Bridge721.sol\":955:956  0 */\n  0x00\n    /* \"Bridge721.sol\":933:957  _validator != address(0) */\n  0xffffffffffffffffffffffffffffffffffffffff\n  and\n    /* \"Bridge721.sol\":933:943  _validator */\n  dup2\n    /* \"Bridge721.sol\":933:957  _validator != address(0) */\n  0xffffffffffffffffffffffffffffffffffffffff\n  and\n  sub\n    /* \"Bridge721.sol\":925:987  require(_validator != address(0), 'Invalid validator address') */\n  tag_6\n  jumpi\n  mload(0x40)\n  0x08c379a000000000000000000000000000000000000000000000000000000000\n  dup2\n  mstore\n  0x04\n  add\n  tag_7\n  swap1\n  tag_8\n  jump\t// in\ntag_7:\n  mload(0x40)\n  dup1\n  swap2\n  sub\n  swap1\n  revert\ntag_6:\n    /* \"Bridge721.sol\":1012:1022  _validator */\n  dup1\n    /* \"Bridge721.sol\":1000:1009  validator */\n  0x00\n  dup1\n    /* \"Bridge721.sol\":1000:1022  validator = _validator */\n  0x0100\n  exp\n  dup2\n  sload\n  dup2\n  0xffffffffffffffffffffffffffffffffffffffff\n  mul\n  not\n  and\n  swap1\n  dup4\n  0xffffffffffffffffffffffffffffffffffffffff\n  and\n  mul\n  or\n  swap1\n  sstore\n  pop\n    /* \"Bridge721.sol\":882:1030  constructor(address _validator) {... */\n  pop\n    /* \"Bridge721.sol\":506:2900  contract Bridge721 is ERC721Holder {... */\n  jump(tag_9)\n    /* \"#utility.yul\":88:205   */\ntag_11:\n    /* \"#utility.yul\":197:198   */\n  0x00\n    /* \"#utility.yul\":194:195   */\n  dup1\n    /* \"#utility.yul\":187:199   */\n  revert\n    /* \"#utility.yul\":334:460   */\ntag_13:\n    /* \"#utility.yul\":371:378   */\n  0x00\n    /* \"#utility.yul\":411:453   */\n  0xffffffffffffffffffffffffffffffffffffffff\n    /* \"#utility.yul\":404:409   */\n  dup3\n    /* \"#utility.yul\":400:454   */\n  and\n    /* \"#utility.yul\":389:454   */\n  swap1\n  pop\n    /* \"#utility.yul\":334:460   */\n  swap2\n  swap1\n  pop\n  jump\t// out\n    /* \"#utility.yul\":466:562   */\ntag_14:\n    /* \"#utility.yul\":503:510   */\n  0x00\n    /* \"#utility.yul\":532:556   */\n  tag_26\n    /* \"#utility.yul\":550:555   */\n  dup3\n    /* \"#utility.yul\":532:556   */\n  tag_13\n  jump\t// in\ntag_26:\n    /* \"#utility.yul\":521:556   */\n  swap1\n  pop\n    /* \"#utility.yul\":466:562   */\n  swap2\n  swap1\n  pop\n  jump\t// out\n    /* \"#utility.yul\":568:690   */\ntag_15:\n    /* \"#utility.yul\":641:665   */\n  tag_28\n    /* \"#utility.yul\":659:664   */\n  dup2\n    /* \"#utility.yul\":641:665   */\n  tag_14\n  jump\t// in\ntag_28:\n    /* \"#utility.yul\":634:639   */\n  dup2\n    /* \"#utility.yul\":631:666   */\n  eq\n    /* \"#utility.yul\":621:684   */\n  tag_29\n  jumpi\n    /* \"#utility.yul\":680:681   */\n  0x00\n    /* \"#utility.yul\":677:678   */\n  dup1\n    /* \"#utility.yul\":670:682   */\n  revert\n    /* \"#utility.yul\":621:684   */\ntag_29:\n    /* \"#utility.yul\":568:690   */\n  pop\n  jump\t// out\n    /* \"#utility.yul\":696:839   */\ntag_16:\n    /* \"#utility.yul\":753:758   */\n  0x00\n    /* \"#utility.yul\":784:790   */\n  dup2\n    /* \"#utility.yul\":778:791   */\n  mload\n    /* \"#utility.yul\":769:791   */\n  swap1\n  pop\n    /* \"#utility.yul\":800:833   */\n  tag_31\n    /* \"#utility.yul\":827:832   */\n  dup2\n    /* \"#utility.yul\":800:833   */\n  tag_15\n  jump\t// in\ntag_31:\n    /* \"#utility.yul\":696:839   */\n  swap3\n  swap2\n  pop\n  pop\n  jump\t// out\n    /* \"#utility.yul\":845:1196   */\ntag_3:\n    /* \"#utility.yul\":915:921   */\n  0x00\n    /* \"#utility.yul\":964:966   */\n  0x20\n    /* \"#utility.yul\":952:961   */\n  dup3\n    /* \"#utility.yul\":943:950   */\n  dup5\n    /* \"#utility.yul\":939:962   */\n  sub\n    /* \"#utility.yul\":935:967   */\n  slt\n    /* \"#utility.yul\":932:1051   */\n  iszero\n  tag_33\n  jumpi\n    /* \"#utility.yul\":970:1049   */\n  tag_34\n  tag_11\n  jump\t// in\ntag_34:\n    /* \"#utility.yul\":932:1051   */\ntag_33:\n    /* \"#utility.yul\":1090:1091   */\n  0x00\n    /* \"#utility.yul\":1115:1179   */\n  tag_35\n    /* \"#utility.yul\":1171:1178   */\n  dup5\n    /* \"#utility.yul\":1162:1168   */\n  dup3\n    /* \"#utility.yul\":1151:1160   */\n  dup6\n    /* \"#utility.yul\":1147:1169   */\n  add\n    /* \"#utility.yul\":1115:1179   */\n  tag_16\n  jump\t// in\ntag_35:\n    /* \"#utility.yul\":1105:1179   */\n  swap2\n  pop\n    /* \"#utility.yul\":1061:1189   */\n  pop\n    /* \"#utility.yul\":845:1196   */\n  swap3\n  swap2\n  pop\n  pop\n  jump\t// out\n    /* \"#utility.yul\":1202:1371   */\ntag_17:\n    /* \"#utility.yul\":1286:1297   */\n  0x00\n    /* \"#utility.yul\":1320:1326   */\n  dup3\n    /* \"#utility.yul\":1315:1318   */\n  dup3\n    /* \"#utility.yul\":1308:1327   */\n  mstore\n    /* \"#utility.yul\":1360:1364   */\n  0x20\n    /* \"#utility.yul\":1355:1358   */\n  dup3\n    /* \"#utility.yul\":1351:1365   */\n  add\n    /* \"#utility.yul\":1336:1365   */\n  swap1\n  pop\n    /* \"#utility.yul\":1202:1371   */\n  swap3\n  swap2\n  pop\n  pop\n  jump\t// out\n    /* \"#utility.yul\":1377:1552   */\ntag_18:\n    /* \"#utility.yul\":1517:1544   */\n  0x496e76616c69642076616c696461746f72206164647265737300000000000000\n    /* \"#utility.yul\":1513:1514   */\n  0x00\n    /* \"#utility.yul\":1505:1511   */\n  dup3\n    /* \"#utility.yul\":1501:1515   */\n  add\n    /* \"#utility.yul\":1494:1545   */\n  mstore\n    /* \"#utility.yul\":1377:1552   */\n  pop\n  jump\t// out\n    /* \"#utility.yul\":1558:1924   */\ntag_19:\n    /* \"#utility.yul\":1700:1703   */\n  0x00\n    /* \"#utility.yul\":1721:1788   */\n  tag_39\n    /* \"#utility.yul\":1785:1787   */\n  0x19\n    /* \"#utility.yul\":1780:1783   */\n  dup4\n    /* \"#utility.yul\":1721:1788   */\n  tag_17\n  jump\t// in\ntag_39:\n    /* \"#utility.yul\":1714:1788   */\n  swap2\n  pop\n    /* \"#utility.yul\":1797:1890   */\n  tag_40\n    /* \"#utility.yul\":1886:1889   */\n  dup3\n    /* \"#utility.yul\":1797:1890   */\n  tag_18\n  jump\t// in\ntag_40:\n    /* \"#utility.yul\":1915:1917   */\n  0x20\n    /* \"#utility.yul\":1910:1913   */\n  dup3\n    /* \"#utility.yul\":1906:1918   */\n  add\n    /* \"#utility.yul\":1899:1918   */\n  swap1\n  pop\n    /* \"#utility.yul\":1558:1924   */\n  swap2\n  swap1\n  pop\n  jump\t// out\n    /* \"#utility.yul\":1930:2349   */\ntag_8:\n    /* \"#utility.yul\":2096:2100   */\n  0x00\n    /* \"#utility.yul\":2134:2136   */\n  0x20\n    /* \"#utility.yul\":2123:2132   */\n  dup3\n    /* \"#utility.yul\":2119:2137   */\n  add\n    /* \"#utility.yul\":2111:2137   */\n  swap1\n  pop\n    /* \"#utility.yul\":2183:2192   */\n  dup2\n    /* \"#utility.yul\":2177:2181   */\n  dup2\n    /* \"#utility.yul\":2173:2193   */\n  sub\n    /* \"#utility.yul\":2169:2170   */\n  0x00\n    /* \"#utility.yul\":2158:2167   */\n  dup4\n    /* \"#utility.yul\":2154:2171   */\n  add\n    /* \"#utility.yul\":2147:2194   */\n  mstore\n    /* \"#utility.yul\":2211:2342   */\n  tag_42\n    /* \"#utility.yul\":2337:2341   */\n  dup2\n    /* \"#utility.yul\":2211:2342   */\n  tag_19\n  jump\t// in\ntag_42:\n    /* \"#utility.yul\":2203:2342   */\n  swap1\n  pop\n    /* \"#utility.yul\":1930:2349   */\n  swap2\n  swap1\n  pop\n  jump\t// out\n    /* \"Bridge721.sol\":506:2900  contract Bridge721 is ERC721Holder {... */\ntag_9:\n  dataSize(sub_0)\n  dup1\n  dataOffset(sub_0)\n  0x00\n  codecopy\n  0x00\n  return\nstop\n\nsub_0: assembly {\n        /* \"Bridge721.sol\":506:2900  contract Bridge721 is ERC721Holder {... */\n      mstore(0x40, 0x80)\n      callvalue\n      dup1\n      iszero\n      tag_1\n      jumpi\n      0x00\n      dup1\n      revert\n    tag_1:\n      pop\n      jumpi(tag_2, lt(calldatasize, 0x04))\n      shr(0xe0, calldataload(0x00))\n      dup1\n      0x3a5381b5\n      gt\n      tag_10\n      jumpi\n      dup1\n      0x3a5381b5\n      eq\n      tag_6\n      jumpi\n      dup1\n      0x52d5e799\n      eq\n      tag_7\n      jumpi\n      dup1\n      0xf76d9d34\n      eq\n      tag_8\n      jumpi\n      dup1\n      0xfccc8978\n      eq\n      tag_9\n      jumpi\n      jump(tag_2)\n    tag_10:\n      dup1\n      0x150b7a02\n      eq\n      tag_3\n      jumpi\n      dup1\n      0x1f36edcd\n      eq\n      tag_4\n      jumpi\n      dup1\n      0x2762c75a\n      eq\n      tag_5\n      jumpi\n    tag_2:\n      0x00\n      dup1\n      revert\n        /* \"@openzeppelin/contracts/token/ERC721/utils/ERC721Holder.sol\":588:788   */\n    tag_3:\n      tag_11\n      0x04\n      dup1\n      calldatasize\n      sub\n      dup2\n      add\n      swap1\n      tag_12\n      swap2\n      swap1\n      tag_13\n      jump\t// in\n    tag_12:\n      tag_14\n      jump\t// in\n    tag_11:\n      mload(0x40)\n      tag_15\n      swap2\n      swap1\n      tag_16\n      jump\t// in\n    tag_15:\n      mload(0x40)\n      dup1\n      swap2\n      sub\n      swap1\n      return\n        /* \"Bridge721.sol\":785:826  mapping(bytes32 => bool) public deposited */\n    tag_4:\n      tag_17\n      0x04\n      dup1\n      calldatasize\n      sub\n      dup2\n      add\n      swap1\n      tag_18\n      swap2\n      swap1\n      tag_19\n      jump\t// in\n    tag_18:\n      tag_20\n      jump\t// in\n    tag_17:\n      mload(0x40)\n      tag_21\n      swap2\n      swap1\n      tag_22\n      jump\t// in\n    tag_21:\n      mload(0x40)\n      dup1\n      swap2\n      sub\n      swap1\n      return\n        /* \"Bridge721.sol\":1038:1576  function deposit(... */\n    tag_5:\n      tag_23\n      0x04\n      dup1\n      calldatasize\n      sub\n      dup2\n      add\n      swap1\n      tag_24\n      swap2\n      swap1\n      tag_25\n      jump\t// in\n    tag_24:\n      tag_26\n      jump\t// in\n    tag_23:\n      stop\n        /* \"Bridge721.sol\":754:778  address public validator */\n    tag_6:\n      tag_27\n      tag_28\n      jump\t// in\n    tag_27:\n      mload(0x40)\n      tag_29\n      swap2\n      swap1\n      tag_30\n      jump\t// in\n    tag_29:\n      mload(0x40)\n      dup1\n      swap2\n      sub\n      swap1\n      return\n        /* \"Bridge721.sol\":833:873  mapping(bytes32 => bool) public withdrew */\n    tag_7:\n      tag_31\n      0x04\n      dup1\n      calldatasize\n      sub\n      dup2\n      add\n      swap1\n      tag_32\n      swap2\n      swap1\n      tag_19\n      jump\t// in\n    tag_32:\n      tag_33\n      jump\t// in\n    tag_31:\n      mload(0x40)\n      tag_34\n      swap2\n      swap1\n      tag_22\n      jump\t// in\n    tag_34:\n      mload(0x40)\n      dup1\n      swap2\n      sub\n      swap1\n      return\n        /* \"Bridge721.sol\":1584:2561  function withdraw(... */\n    tag_8:\n      tag_35\n      0x04\n      dup1\n      calldatasize\n      sub\n      dup2\n      add\n      swap1\n      tag_36\n      swap2\n      swap1\n      tag_37\n      jump\t// in\n    tag_36:\n      tag_38\n      jump\t// in\n    tag_35:\n      stop\n        /* \"Bridge721.sol\":2569:2897  function hashMessage(... */\n    tag_9:\n      tag_39\n      0x04\n      dup1\n      calldatasize\n      sub\n      dup2\n      add\n      swap1\n      tag_40\n      swap2\n      swap1\n      tag_41\n      jump\t// in\n    tag_40:\n      tag_42\n      jump\t// in\n    tag_39:\n      mload(0x40)\n      tag_43\n      swap2\n      swap1\n      tag_44\n      jump\t// in\n    tag_43:\n      mload(0x40)\n      dup1\n      swap2\n      sub\n      swap1\n      return\n        /* \"@openzeppelin/contracts/token/ERC721/utils/ERC721Holder.sol\":588:788   */\n    tag_14:\n        /* \"@openzeppelin/contracts/token/ERC721/utils/ERC721Holder.sol\":726:732   */\n      0x00\n        /* \"@openzeppelin/contracts/token/ERC721/utils/ERC721Holder.sol\":751:781   */\n      shl(0xe0, 0x150b7a02)\n        /* \"@openzeppelin/contracts/token/ERC721/utils/ERC721Holder.sol\":744:781   */\n      swap1\n      pop\n        /* \"@openzeppelin/contracts/token/ERC721/utils/ERC721Holder.sol\":588:788   */\n      swap5\n      swap4\n      pop\n      pop\n      pop\n      pop\n      jump\t// out\n        /* \"Bridge721.sol\":785:826  mapping(bytes32 => bool) public deposited */\n    tag_20:\n      mstore(0x20, 0x01)\n      dup1\n      0x00\n      mstore\n      keccak256(0x00, 0x40)\n      0x00\n      swap2\n      pop\n      sload\n      swap1\n      0x0100\n      exp\n      swap1\n      div\n      0xff\n      and\n      dup2\n      jump\t// out\n        /* \"Bridge721.sol\":1038:1576  function deposit(... */\n    tag_26:\n        /* \"Bridge721.sol\":1195:1207  bytes32 hash */\n      0x00\n        /* \"Bridge721.sol\":1210:1274  hashMessage(msg.sender, nftContract, tokenId, chainRoute, nonce) */\n      tag_47\n        /* \"Bridge721.sol\":1222:1232  msg.sender */\n      caller\n        /* \"Bridge721.sol\":1234:1245  nftContract */\n      dup7\n        /* \"Bridge721.sol\":1247:1254  tokenId */\n      dup7\n        /* \"Bridge721.sol\":1256:1266  chainRoute */\n      dup7\n        /* \"Bridge721.sol\":1268:1273  nonce */\n      dup7\n        /* \"Bridge721.sol\":1210:1221  hashMessage */\n      tag_42\n        /* \"Bridge721.sol\":1210:1274  hashMessage(msg.sender, nftContract, tokenId, chainRoute, nonce) */\n      jump\t// in\n    tag_47:\n        /* \"Bridge721.sol\":1195:1274  bytes32 hash = hashMessage(msg.sender, nftContract, tokenId, chainRoute, nonce) */\n      swap1\n      pop\n        /* \"Bridge721.sol\":1296:1305  deposited */\n      0x01\n        /* \"Bridge721.sol\":1296:1311  deposited[hash] */\n      0x00\n        /* \"Bridge721.sol\":1306:1310  hash */\n      dup3\n        /* \"Bridge721.sol\":1296:1311  deposited[hash] */\n      dup2\n      mstore\n      0x20\n      add\n      swap1\n      dup2\n      mstore\n      0x20\n      add\n      0x00\n      keccak256\n      0x00\n      swap1\n      sload\n      swap1\n      0x0100\n      exp\n      swap1\n      div\n      0xff\n      and\n        /* \"Bridge721.sol\":1295:1311  !deposited[hash] */\n      iszero\n        /* \"Bridge721.sol\":1287:1330  require(!deposited[hash], 'Duplicate hash') */\n      tag_48\n      jumpi\n      mload(0x40)\n      0x08c379a000000000000000000000000000000000000000000000000000000000\n      dup2\n      mstore\n      0x04\n      add\n      tag_49\n      swap1\n      tag_50\n      jump\t// in\n    tag_49:\n      mload(0x40)\n      dup1\n      swap2\n      sub\n      swap1\n      revert\n    tag_48:\n        /* \"Bridge721.sol\":1359:1363  true */\n      0x01\n        /* \"Bridge721.sol\":1341:1350  deposited */\n      dup1\n        /* \"Bridge721.sol\":1341:1356  deposited[hash] */\n      0x00\n        /* \"Bridge721.sol\":1351:1355  hash */\n      dup4\n        /* \"Bridge721.sol\":1341:1356  deposited[hash] */\n      dup2\n      mstore\n      0x20\n      add\n      swap1\n      dup2\n      mstore\n      0x20\n      add\n      0x00\n      keccak256\n      0x00\n        /* \"Bridge721.sol\":1341:1363  deposited[hash] = true */\n      0x0100\n      exp\n      dup2\n      sload\n      dup2\n      0xff\n      mul\n      not\n      and\n      swap1\n      dup4\n      iszero\n      iszero\n      mul\n      or\n      swap1\n      sstore\n      pop\n        /* \"Bridge721.sol\":1376:1395  ERC721 _nftContract */\n      0x00\n        /* \"Bridge721.sol\":1405:1416  nftContract */\n      dup6\n        /* \"Bridge721.sol\":1376:1417  ERC721 _nftContract = ERC721(nftContract) */\n      swap1\n      pop\n        /* \"Bridge721.sol\":1428:1440  _nftContract */\n      dup1\n        /* \"Bridge721.sol\":1428:1453  _nftContract.transferFrom */\n      0xffffffffffffffffffffffffffffffffffffffff\n      and\n      0x23b872dd\n        /* \"Bridge721.sol\":1454:1464  msg.sender */\n      caller\n        /* \"Bridge721.sol\":1474:1478  this */\n      address\n        /* \"Bridge721.sol\":1481:1488  tokenId */\n      dup9\n        /* \"Bridge721.sol\":1428:1489  _nftContract.transferFrom(msg.sender, address(this), tokenId) */\n      mload(0x40)\n      dup5\n      0xffffffff\n      and\n      0xe0\n      shl\n      dup2\n      mstore\n      0x04\n      add\n      tag_51\n      swap4\n      swap3\n      swap2\n      swap1\n      tag_52\n      jump\t// in\n    tag_51:\n      0x00\n      mload(0x40)\n      dup1\n      dup4\n      sub\n      dup2\n      0x00\n      dup8\n      dup1\n      extcodesize\n      iszero\n      dup1\n      iszero\n      tag_53\n      jumpi\n      0x00\n      dup1\n      revert\n    tag_53:\n      pop\n      gas\n      call\n      iszero\n      dup1\n      iszero\n      tag_55\n      jumpi\n      returndatasize\n      0x00\n      dup1\n      returndatacopy\n      revert(0x00, returndatasize)\n    tag_55:\n      pop\n      pop\n      pop\n      pop\n        /* \"Bridge721.sol\":1507:1568  BridgeDeposited(msg.sender, nftContract, tokenId, chainRoute) */\n      0x534b566e715955349c8aa6c19c88ebca14175a2337cba8e1f378d23ac0015adf\n        /* \"Bridge721.sol\":1523:1533  msg.sender */\n      caller\n        /* \"Bridge721.sol\":1535:1546  nftContract */\n      dup8\n        /* \"Bridge721.sol\":1548:1555  tokenId */\n      dup8\n        /* \"Bridge721.sol\":1557:1567  chainRoute */\n      dup8\n        /* \"Bridge721.sol\":1507:1568  BridgeDeposited(msg.sender, nftContract, tokenId, chainRoute) */\n      mload(0x40)\n      tag_56\n      swap5\n      swap4\n      swap3\n      swap2\n      swap1\n      tag_57\n      jump\t// in\n    tag_56:\n      mload(0x40)\n      dup1\n      swap2\n      sub\n      swap1\n      log1\n        /* \"Bridge721.sol\":1184:1576  {... */\n      pop\n      pop\n        /* \"Bridge721.sol\":1038:1576  function deposit(... */\n      pop\n      pop\n      pop\n      pop\n      jump\t// out\n        /* \"Bridge721.sol\":754:778  address public validator */\n    tag_28:\n      0x00\n      dup1\n      sload\n      swap1\n      0x0100\n      exp\n      swap1\n      div\n      0xffffffffffffffffffffffffffffffffffffffff\n      and\n      dup2\n      jump\t// out\n        /* \"Bridge721.sol\":833:873  mapping(bytes32 => bool) public withdrew */\n    tag_33:\n      mstore(0x20, 0x02)\n      dup1\n      0x00\n      mstore\n      keccak256(0x00, 0x40)\n      0x00\n      swap2\n      pop\n      sload\n      swap1\n      0x0100\n      exp\n      swap1\n      div\n      0xff\n      and\n      dup2\n      jump\t// out\n        /* \"Bridge721.sol\":1584:2561  function withdraw(... */\n    tag_38:\n        /* \"Bridge721.sol\":1827:1839  bytes32 hash */\n      0x00\n        /* \"Bridge721.sol\":1842:1904  hashMessage(receiver, nftContract, tokenId, chainRoute, nonce) */\n      tag_59\n        /* \"Bridge721.sol\":1854:1862  receiver */\n      dup10\n        /* \"Bridge721.sol\":1864:1875  nftContract */\n      dup10\n        /* \"Bridge721.sol\":1877:1884  tokenId */\n      dup10\n        /* \"Bridge721.sol\":1886:1896  chainRoute */\n      dup10\n        /* \"Bridge721.sol\":1898:1903  nonce */\n      dup10\n        /* \"Bridge721.sol\":1842:1853  hashMessage */\n      tag_42\n        /* \"Bridge721.sol\":1842:1904  hashMessage(receiver, nftContract, tokenId, chainRoute, nonce) */\n      jump\t// in\n    tag_59:\n        /* \"Bridge721.sol\":1827:1904  bytes32 hash = hashMessage(receiver, nftContract, tokenId, chainRoute, nonce) */\n      swap1\n      pop\n        /* \"Bridge721.sol\":1917:1931  address signer */\n      0x00\n        /* \"Bridge721.sol\":1934:1992  ECDSA.recover(ECDSA.toEthSignedMessageHash(hash), v, r, s) */\n      tag_60\n        /* \"Bridge721.sol\":1948:1982  ECDSA.toEthSignedMessageHash(hash) */\n      tag_61\n        /* \"Bridge721.sol\":1977:1981  hash */\n      dup4\n        /* \"Bridge721.sol\":1948:1976  ECDSA.toEthSignedMessageHash */\n      tag_62\n        /* \"Bridge721.sol\":1948:1982  ECDSA.toEthSignedMessageHash(hash) */\n      jump\t// in\n    tag_61:\n        /* \"Bridge721.sol\":1984:1985  v */\n      dup7\n        /* \"Bridge721.sol\":1987:1988  r */\n      dup7\n        /* \"Bridge721.sol\":1990:1991  s */\n      dup7\n        /* \"Bridge721.sol\":1934:1947  ECDSA.recover */\n      tag_63\n        /* \"Bridge721.sol\":1934:1992  ECDSA.recover(ECDSA.toEthSignedMessageHash(hash), v, r, s) */\n      jump\t// in\n    tag_60:\n        /* \"Bridge721.sol\":1917:1992  address signer = ECDSA.recover(ECDSA.toEthSignedMessageHash(hash), v, r, s) */\n      swap1\n      pop\n        /* \"Bridge721.sol\":2021:2030  validator */\n      0x00\n      dup1\n      sload\n      swap1\n      0x0100\n      exp\n      swap1\n      div\n      0xffffffffffffffffffffffffffffffffffffffff\n      and\n        /* \"Bridge721.sol\":2011:2030  signer == validator */\n      0xffffffffffffffffffffffffffffffffffffffff\n      and\n        /* \"Bridge721.sol\":2011:2017  signer */\n      dup2\n        /* \"Bridge721.sol\":2011:2030  signer == validator */\n      0xffffffffffffffffffffffffffffffffffffffff\n      and\n      eq\n        /* \"Bridge721.sol\":2003:2063  require(signer == validator, 'Invalid validator signature.') */\n      tag_64\n      jumpi\n      mload(0x40)\n      0x08c379a000000000000000000000000000000000000000000000000000000000\n      dup2\n      mstore\n      0x04\n      add\n      tag_65\n      swap1\n      tag_66\n      jump\t// in\n    tag_65:\n      mload(0x40)\n      dup1\n      swap2\n      sub\n      swap1\n      revert\n    tag_64:\n        /* \"Bridge721.sol\":2233:2237  true */\n      0x01\n        /* \"Bridge721.sol\":2214:2237  deposited[hash] == true */\n      iszero\n      iszero\n        /* \"Bridge721.sol\":2214:2223  deposited */\n      0x01\n        /* \"Bridge721.sol\":2214:2229  deposited[hash] */\n      0x00\n        /* \"Bridge721.sol\":2224:2228  hash */\n      dup5\n        /* \"Bridge721.sol\":2214:2229  deposited[hash] */\n      dup2\n      mstore\n      0x20\n      add\n      swap1\n      dup2\n      mstore\n      0x20\n      add\n      0x00\n      keccak256\n      0x00\n      swap1\n      sload\n      swap1\n      0x0100\n      exp\n      swap1\n      div\n      0xff\n      and\n        /* \"Bridge721.sol\":2214:2237  deposited[hash] == true */\n      iszero\n      iszero\n      eq\n        /* \"Bridge721.sol\":2206:2258  require(deposited[hash] == true, 'Invalid receiver') */\n      tag_67\n      jumpi\n      mload(0x40)\n      0x08c379a000000000000000000000000000000000000000000000000000000000\n      dup2\n      mstore\n      0x04\n      add\n      tag_68\n      swap1\n      tag_69\n      jump\t// in\n    tag_68:\n      mload(0x40)\n      dup1\n      swap2\n      sub\n      swap1\n      revert\n    tag_67:\n        /* \"Bridge721.sol\":2280:2288  withdrew */\n      0x02\n        /* \"Bridge721.sol\":2280:2294  withdrew[hash] */\n      0x00\n        /* \"Bridge721.sol\":2289:2293  hash */\n      dup4\n        /* \"Bridge721.sol\":2280:2294  withdrew[hash] */\n      dup2\n      mstore\n      0x20\n      add\n      swap1\n      dup2\n      mstore\n      0x20\n      add\n      0x00\n      keccak256\n      0x00\n      swap1\n      sload\n      swap1\n      0x0100\n      exp\n      swap1\n      div\n      0xff\n      and\n        /* \"Bridge721.sol\":2279:2294  !withdrew[hash] */\n      iszero\n        /* \"Bridge721.sol\":2271:2316  require(!withdrew[hash], 'Already withdrawn') */\n      tag_70\n      jumpi\n      mload(0x40)\n      0x08c379a000000000000000000000000000000000000000000000000000000000\n      dup2\n      mstore\n      0x04\n      add\n      tag_71\n      swap1\n      tag_72\n      jump\t// in\n    tag_71:\n      mload(0x40)\n      dup1\n      swap2\n      sub\n      swap1\n      revert\n    tag_70:\n        /* \"Bridge721.sol\":2344:2348  true */\n      0x01\n        /* \"Bridge721.sol\":2327:2335  withdrew */\n      0x02\n        /* \"Bridge721.sol\":2327:2341  withdrew[hash] */\n      0x00\n        /* \"Bridge721.sol\":2336:2340  hash */\n      dup5\n        /* \"Bridge721.sol\":2327:2341  withdrew[hash] */\n      dup2\n      mstore\n      0x20\n      add\n      swap1\n      dup2\n      mstore\n      0x20\n      add\n      0x00\n      keccak256\n      0x00\n        /* \"Bridge721.sol\":2327:2348  withdrew[hash] = true */\n      0x0100\n      exp\n      dup2\n      sload\n      dup2\n      0xff\n      mul\n      not\n      and\n      swap1\n      dup4\n      iszero\n      iszero\n      mul\n      or\n      swap1\n      sstore\n      pop\n        /* \"Bridge721.sol\":2361:2380  ERC721 _nftContract */\n      0x00\n        /* \"Bridge721.sol\":2390:2401  nftContract */\n      dup10\n        /* \"Bridge721.sol\":2361:2402  ERC721 _nftContract = ERC721(nftContract) */\n      swap1\n      pop\n        /* \"Bridge721.sol\":2413:2425  _nftContract */\n      dup1\n        /* \"Bridge721.sol\":2413:2442  _nftContract.safeTransferFrom */\n      0xffffffffffffffffffffffffffffffffffffffff\n      and\n      0x42842e0e\n        /* \"Bridge721.sol\":2451:2455  this */\n      address\n        /* \"Bridge721.sol\":2458:2466  receiver */\n      dup14\n        /* \"Bridge721.sol\":2468:2475  tokenId */\n      dup13\n        /* \"Bridge721.sol\":2413:2476  _nftContract.safeTransferFrom(address(this), receiver, tokenId) */\n      mload(0x40)\n      dup5\n      0xffffffff\n      and\n      0xe0\n      shl\n      dup2\n      mstore\n      0x04\n      add\n      tag_73\n      swap4\n      swap3\n      swap2\n      swap1\n      tag_52\n      jump\t// in\n    tag_73:\n      0x00\n      mload(0x40)\n      dup1\n      dup4\n      sub\n      dup2\n      0x00\n      dup8\n      dup1\n      extcodesize\n      iszero\n      dup1\n      iszero\n      tag_74\n      jumpi\n      0x00\n      dup1\n      revert\n    tag_74:\n      pop\n      gas\n      call\n      iszero\n      dup1\n      iszero\n      tag_76\n      jumpi\n      returndatasize\n      0x00\n      dup1\n      returndatacopy\n      revert(0x00, returndatasize)\n    tag_76:\n      pop\n      pop\n      pop\n      pop\n        /* \"Bridge721.sol\":2494:2553  BridgeWithdrawn(receiver, nftContract, tokenId, chainRoute) */\n      0x94eaf86d28baaa735aa1a5e0e062fba702f5d8e2b72d8c93f38bf45efb6c1051\n        /* \"Bridge721.sol\":2510:2518  receiver */\n      dup12\n        /* \"Bridge721.sol\":2520:2531  nftContract */\n      dup12\n        /* \"Bridge721.sol\":2533:2540  tokenId */\n      dup12\n        /* \"Bridge721.sol\":2542:2552  chainRoute */\n      dup12\n        /* \"Bridge721.sol\":2494:2553  BridgeWithdrawn(receiver, nftContract, tokenId, chainRoute) */\n      mload(0x40)\n      tag_77\n      swap5\n      swap4\n      swap3\n      swap2\n      swap1\n      tag_57\n      jump\t// in\n    tag_77:\n      mload(0x40)\n      dup1\n      swap2\n      sub\n      swap1\n      log1\n        /* \"Bridge721.sol\":1816:2561  {... */\n      pop\n      pop\n      pop\n        /* \"Bridge721.sol\":1584:2561  function withdraw(... */\n      pop\n      pop\n      pop\n      pop\n      pop\n      pop\n      pop\n      pop\n      jump\t// out\n        /* \"Bridge721.sol\":2569:2897  function hashMessage(... */\n    tag_42:\n        /* \"Bridge721.sol\":2757:2764  bytes32 */\n      0x00\n        /* \"Bridge721.sol\":2777:2789  bytes32 hash */\n      dup1\n        /* \"Bridge721.sol\":2819:2824  owner */\n      dup7\n        /* \"Bridge721.sol\":2826:2837  nftContract */\n      dup7\n        /* \"Bridge721.sol\":2839:2846  tokenId */\n      dup7\n        /* \"Bridge721.sol\":2848:2858  chainRoute */\n      dup7\n        /* \"Bridge721.sol\":2860:2865  nonce */\n      dup7\n        /* \"Bridge721.sol\":2802:2866  abi.encodePacked(owner, nftContract, tokenId, chainRoute, nonce) */\n      add(0x20, mload(0x40))\n      tag_79\n      swap6\n      swap5\n      swap4\n      swap3\n      swap2\n      swap1\n      tag_80\n      jump\t// in\n    tag_79:\n      mload(0x40)\n      0x20\n      dup2\n      dup4\n      sub\n      sub\n      dup2\n      mstore\n      swap1\n      0x40\n      mstore\n        /* \"Bridge721.sol\":2792:2867  keccak256(abi.encodePacked(owner, nftContract, tokenId, chainRoute, nonce)) */\n      dup1\n      mload\n      swap1\n      0x20\n      add\n      keccak256\n        /* \"Bridge721.sol\":2777:2867  bytes32 hash = keccak256(abi.encodePacked(owner, nftContract, tokenId, chainRoute, nonce)) */\n      swap1\n      pop\n        /* \"Bridge721.sol\":2885:2889  hash */\n      dup1\n        /* \"Bridge721.sol\":2878:2889  return hash */\n      swap2\n      pop\n      pop\n        /* \"Bridge721.sol\":2569:2897  function hashMessage(... */\n      swap6\n      swap5\n      pop\n      pop\n      pop\n      pop\n      pop\n      jump\t// out\n        /* \"@openzeppelin/contracts/utils/cryptography/ECDSA.sol\":8012:8277   */\n    tag_62:\n        /* \"@openzeppelin/contracts/utils/cryptography/ECDSA.sol\":8081:8088   */\n      0x00\n        /* \"@openzeppelin/contracts/utils/cryptography/ECDSA.sol\":8264:8268   */\n      dup2\n        /* \"@openzeppelin/contracts/utils/cryptography/ECDSA.sol\":8211:8269   */\n      add(0x20, mload(0x40))\n      tag_82\n      swap2\n      swap1\n      tag_83\n      jump\t// in\n    tag_82:\n      mload(0x40)\n      0x20\n      dup2\n      dup4\n      sub\n      sub\n      dup2\n      mstore\n      swap1\n      0x40\n      mstore\n        /* \"@openzeppelin/contracts/utils/cryptography/ECDSA.sol\":8201:8270   */\n      dup1\n      mload\n      swap1\n      0x20\n      add\n      keccak256\n        /* \"@openzeppelin/contracts/utils/cryptography/ECDSA.sol\":8194:8270   */\n      swap1\n      pop\n        /* \"@openzeppelin/contracts/utils/cryptography/ECDSA.sol\":8012:8277   */\n      swap2\n      swap1\n      pop\n      jump\t// out\n        /* \"@openzeppelin/contracts/utils/cryptography/ECDSA.sol\":7452:7722   */\n    tag_63:\n        /* \"@openzeppelin/contracts/utils/cryptography/ECDSA.sol\":7575:7582   */\n      0x00\n        /* \"@openzeppelin/contracts/utils/cryptography/ECDSA.sol\":7595:7612   */\n      dup1\n        /* \"@openzeppelin/contracts/utils/cryptography/ECDSA.sol\":7614:7632   */\n      0x00\n        /* \"@openzeppelin/contracts/utils/cryptography/ECDSA.sol\":7636:7661   */\n      tag_85\n        /* \"@openzeppelin/contracts/utils/cryptography/ECDSA.sol\":7647:7651   */\n      dup8\n        /* \"@openzeppelin/contracts/utils/cryptography/ECDSA.sol\":7653:7654   */\n      dup8\n        /* \"@openzeppelin/contracts/utils/cryptography/ECDSA.sol\":7656:7657   */\n      dup8\n        /* \"@openzeppelin/contracts/utils/cryptography/ECDSA.sol\":7659:7660   */\n      dup8\n        /* \"@openzeppelin/contracts/utils/cryptography/ECDSA.sol\":7636:7646   */\n      tag_86\n        /* \"@openzeppelin/contracts/utils/cryptography/ECDSA.sol\":7636:7661   */\n      jump\t// in\n    tag_85:\n        /* \"@openzeppelin/contracts/utils/cryptography/ECDSA.sol\":7594:7661   */\n      swap2\n      pop\n      swap2\n      pop\n        /* \"@openzeppelin/contracts/utils/cryptography/ECDSA.sol\":7671:7689   */\n      tag_87\n        /* \"@openzeppelin/contracts/utils/cryptography/ECDSA.sol\":7683:7688   */\n      dup2\n        /* \"@openzeppelin/contracts/utils/cryptography/ECDSA.sol\":7671:7682   */\n      tag_88\n        /* \"@openzeppelin/contracts/utils/cryptography/ECDSA.sol\":7671:7689   */\n      jump\t// in\n    tag_87:\n        /* \"@openzeppelin/contracts/utils/cryptography/ECDSA.sol\":7706:7715   */\n      dup2\n        /* \"@openzeppelin/contracts/utils/cryptography/ECDSA.sol\":7699:7715   */\n      swap3\n      pop\n      pop\n      pop\n        /* \"@openzeppelin/contracts/utils/cryptography/ECDSA.sol\":7452:7722   */\n      swap5\n      swap4\n      pop\n      pop\n      pop\n      pop\n      jump\t// out\n        /* \"@openzeppelin/contracts/utils/cryptography/ECDSA.sol\":5716:7319   */\n    tag_86:\n        /* \"@openzeppelin/contracts/utils/cryptography/ECDSA.sol\":5842:5849   */\n      0x00\n        /* \"@openzeppelin/contracts/utils/cryptography/ECDSA.sol\":5851:5863   */\n      dup1\n        /* \"@openzeppelin/contracts/utils/cryptography/ECDSA.sol\":6766:6832   */\n      0x7fffffffffffffffffffffffffffffff5d576e7357a4501ddfe92f46681b20a0\n        /* \"@openzeppelin/contracts/utils/cryptography/ECDSA.sol\":6761:6762   */\n      dup4\n        /* \"@openzeppelin/contracts/utils/cryptography/ECDSA.sol\":6753:6763   */\n      0x00\n      shr\n        /* \"@openzeppelin/contracts/utils/cryptography/ECDSA.sol\":6753:6832   */\n      gt\n        /* \"@openzeppelin/contracts/utils/cryptography/ECDSA.sol\":6749:6910   */\n      iszero\n      tag_90\n      jumpi\n        /* \"@openzeppelin/contracts/utils/cryptography/ECDSA.sol\":6864:6865   */\n      0x00\n        /* \"@openzeppelin/contracts/utils/cryptography/ECDSA.sol\":6868:6898   */\n      0x03\n        /* \"@openzeppelin/contracts/utils/cryptography/ECDSA.sol\":6848:6899   */\n      swap2\n      pop\n      swap2\n      pop\n      jump(tag_89)\n        /* \"@openzeppelin/contracts/utils/cryptography/ECDSA.sol\":6749:6910   */\n    tag_90:\n        /* \"@openzeppelin/contracts/utils/cryptography/ECDSA.sol\":6928:6930   */\n      0x1b\n        /* \"@openzeppelin/contracts/utils/cryptography/ECDSA.sol\":6923:6924   */\n      dup6\n        /* \"@openzeppelin/contracts/utils/cryptography/ECDSA.sol\":6923:6930   */\n      0xff\n      and\n      eq\n      iszero\n        /* \"@openzeppelin/contracts/utils/cryptography/ECDSA.sol\":6923:6941   */\n      dup1\n      iszero\n      tag_91\n      jumpi\n      pop\n        /* \"@openzeppelin/contracts/utils/cryptography/ECDSA.sol\":6939:6941   */\n      0x1c\n        /* \"@openzeppelin/contracts/utils/cryptography/ECDSA.sol\":6934:6935   */\n      dup6\n        /* \"@openzeppelin/contracts/utils/cryptography/ECDSA.sol\":6934:6941   */\n      0xff\n      and\n      eq\n      iszero\n        /* \"@openzeppelin/contracts/utils/cryptography/ECDSA.sol\":6923:6941   */\n    tag_91:\n        /* \"@openzeppelin/contracts/utils/cryptography/ECDSA.sol\":6919:7019   */\n      iszero\n      tag_92\n      jumpi\n        /* \"@openzeppelin/contracts/utils/cryptography/ECDSA.sol\":6973:6974   */\n      0x00\n        /* \"@openzeppelin/contracts/utils/cryptography/ECDSA.sol\":6977:7007   */\n      0x04\n        /* \"@openzeppelin/contracts/utils/cryptography/ECDSA.sol\":6957:7008   */\n      swap2\n      pop\n      swap2\n      pop\n      jump(tag_89)\n        /* \"@openzeppelin/contracts/utils/cryptography/ECDSA.sol\":6919:7019   */\n    tag_92:\n        /* \"@openzeppelin/contracts/utils/cryptography/ECDSA.sol\":7113:7127   */\n      0x00\n        /* \"@openzeppelin/contracts/utils/cryptography/ECDSA.sol\":7130:7154   */\n      0x01\n        /* \"@openzeppelin/contracts/utils/cryptography/ECDSA.sol\":7140:7144   */\n      dup8\n        /* \"@openzeppelin/contracts/utils/cryptography/ECDSA.sol\":7146:7147   */\n      dup8\n        /* \"@openzeppelin/contracts/utils/cryptography/ECDSA.sol\":7149:7150   */\n      dup8\n        /* \"@openzeppelin/contracts/utils/cryptography/ECDSA.sol\":7152:7153   */\n      dup8\n        /* \"@openzeppelin/contracts/utils/cryptography/ECDSA.sol\":7130:7154   */\n      mload(0x40)\n      0x00\n      dup2\n      mstore\n      0x20\n      add\n      0x40\n      mstore\n      mload(0x40)\n      tag_93\n      swap5\n      swap4\n      swap3\n      swap2\n      swap1\n      tag_94\n      jump\t// in\n    tag_93:\n      0x20\n      mload(0x40)\n      0x20\n      dup2\n      sub\n      swap1\n      dup1\n      dup5\n      sub\n      swap1\n      dup6\n      gas\n      staticcall\n      iszero\n      dup1\n      iszero\n      tag_96\n      jumpi\n      returndatasize\n      0x00\n      dup1\n      returndatacopy\n      revert(0x00, returndatasize)\n    tag_96:\n      pop\n      pop\n      pop\n      mload(sub(mload(0x40), 0x20))\n        /* \"@openzeppelin/contracts/utils/cryptography/ECDSA.sol\":7113:7154   */\n      swap1\n      pop\n        /* \"@openzeppelin/contracts/utils/cryptography/ECDSA.sol\":7186:7187   */\n      0x00\n        /* \"@openzeppelin/contracts/utils/cryptography/ECDSA.sol\":7168:7188   */\n      0xffffffffffffffffffffffffffffffffffffffff\n      and\n        /* \"@openzeppelin/contracts/utils/cryptography/ECDSA.sol\":7168:7174   */\n      dup2\n        /* \"@openzeppelin/contracts/utils/cryptography/ECDSA.sol\":7168:7188   */\n      0xffffffffffffffffffffffffffffffffffffffff\n      and\n      sub\n        /* \"@openzeppelin/contracts/utils/cryptography/ECDSA.sol\":7164:7265   */\n      tag_97\n      jumpi\n        /* \"@openzeppelin/contracts/utils/cryptography/ECDSA.sol\":7220:7221   */\n      0x00\n        /* \"@openzeppelin/contracts/utils/cryptography/ECDSA.sol\":7224:7253   */\n      0x01\n        /* \"@openzeppelin/contracts/utils/cryptography/ECDSA.sol\":7204:7254   */\n      swap3\n      pop\n      swap3\n      pop\n      pop\n      jump(tag_89)\n        /* \"@openzeppelin/contracts/utils/cryptography/ECDSA.sol\":7164:7265   */\n    tag_97:\n        /* \"@openzeppelin/contracts/utils/cryptography/ECDSA.sol\":7283:7289   */\n      dup1\n        /* \"@openzeppelin/contracts/utils/cryptography/ECDSA.sol\":7291:7311   */\n      0x00\n        /* \"@openzeppelin/contracts/utils/cryptography/ECDSA.sol\":7275:7312   */\n      swap3\n      pop\n      swap3\n      pop\n      pop\n        /* \"@openzeppelin/contracts/utils/cryptography/ECDSA.sol\":5716:7319   */\n    tag_89:\n      swap5\n      pop\n      swap5\n      swap3\n      pop\n      pop\n      pop\n      jump\t// out\n        /* \"@openzeppelin/contracts/utils/cryptography/ECDSA.sol\":548:1179   */\n    tag_88:\n        /* \"@openzeppelin/contracts/utils/cryptography/ECDSA.sol\":625:645   */\n      0x00\n        /* \"@openzeppelin/contracts/utils/cryptography/ECDSA.sol\":616:645   */\n      0x04\n      dup2\n      gt\n      iszero\n      tag_99\n      jumpi\n      tag_100\n      tag_101\n      jump\t// in\n    tag_100:\n    tag_99:\n        /* \"@openzeppelin/contracts/utils/cryptography/ECDSA.sol\":616:621   */\n      dup2\n        /* \"@openzeppelin/contracts/utils/cryptography/ECDSA.sol\":616:645   */\n      0x04\n      dup2\n      gt\n      iszero\n      tag_102\n      jumpi\n      tag_103\n      tag_101\n      jump\t// in\n    tag_103:\n    tag_102:\n      sub\n        /* \"@openzeppelin/contracts/utils/cryptography/ECDSA.sol\":612:1173   */\n      iszero\n        /* \"@openzeppelin/contracts/utils/cryptography/ECDSA.sol\":661:668   */\n      tag_98\n        /* \"@openzeppelin/contracts/utils/cryptography/ECDSA.sol\":612:1173   */\n      jumpi\n        /* \"@openzeppelin/contracts/utils/cryptography/ECDSA.sol\":721:750   */\n      0x01\n        /* \"@openzeppelin/contracts/utils/cryptography/ECDSA.sol\":712:750   */\n      0x04\n      dup2\n      gt\n      iszero\n      tag_106\n      jumpi\n      tag_107\n      tag_101\n      jump\t// in\n    tag_107:\n    tag_106:\n        /* \"@openzeppelin/contracts/utils/cryptography/ECDSA.sol\":712:717   */\n      dup2\n        /* \"@openzeppelin/contracts/utils/cryptography/ECDSA.sol\":712:750   */\n      0x04\n      dup2\n      gt\n      iszero\n      tag_108\n      jumpi\n      tag_109\n      tag_101\n      jump\t// in\n    tag_109:\n    tag_108:\n      sub\n        /* \"@openzeppelin/contracts/utils/cryptography/ECDSA.sol\":708:1173   */\n      tag_110\n      jumpi\n        /* \"@openzeppelin/contracts/utils/cryptography/ECDSA.sol\":766:800   */\n      mload(0x40)\n      0x08c379a000000000000000000000000000000000000000000000000000000000\n      dup2\n      mstore\n      0x04\n      add\n      tag_111\n      swap1\n      tag_112\n      jump\t// in\n    tag_111:\n      mload(0x40)\n      dup1\n      swap2\n      sub\n      swap1\n      revert\n        /* \"@openzeppelin/contracts/utils/cryptography/ECDSA.sol\":708:1173   */\n    tag_110:\n        /* \"@openzeppelin/contracts/utils/cryptography/ECDSA.sol\":830:865   */\n      0x02\n        /* \"@openzeppelin/contracts/utils/cryptography/ECDSA.sol\":821:865   */\n      0x04\n      dup2\n      gt\n      iszero\n      tag_114\n      jumpi\n      tag_115\n      tag_101\n      jump\t// in\n    tag_115:\n    tag_114:\n        /* \"@openzeppelin/contracts/utils/cryptography/ECDSA.sol\":821:826   */\n      dup2\n        /* \"@openzeppelin/contracts/utils/cryptography/ECDSA.sol\":821:865   */\n      0x04\n      dup2\n      gt\n      iszero\n      tag_116\n      jumpi\n      tag_117\n      tag_101\n      jump\t// in\n    tag_117:\n    tag_116:\n      sub\n        /* \"@openzeppelin/contracts/utils/cryptography/ECDSA.sol\":817:1173   */\n      tag_118\n      jumpi\n        /* \"@openzeppelin/contracts/utils/cryptography/ECDSA.sol\":881:922   */\n      mload(0x40)\n      0x08c379a000000000000000000000000000000000000000000000000000000000\n      dup2\n      mstore\n      0x04\n      add\n      tag_119\n      swap1\n      tag_120\n      jump\t// in\n    tag_119:\n      mload(0x40)\n      dup1\n      swap2\n      sub\n      swap1\n      revert\n        /* \"@openzeppelin/contracts/utils/cryptography/ECDSA.sol\":817:1173   */\n    tag_118:\n        /* \"@openzeppelin/contracts/utils/cryptography/ECDSA.sol\":952:982   */\n      0x03\n        /* \"@openzeppelin/contracts/utils/cryptography/ECDSA.sol\":943:982   */\n      0x04\n      dup2\n      gt\n      iszero\n      tag_122\n      jumpi\n      tag_123\n      tag_101\n      jump\t// in\n    tag_123:\n    tag_122:\n        /* \"@openzeppelin/contracts/utils/cryptography/ECDSA.sol\":943:948   */\n      dup2\n        /* \"@openzeppelin/contracts/utils/cryptography/ECDSA.sol\":943:982   */\n      0x04\n      dup2\n      gt\n      iszero\n      tag_124\n      jumpi\n      tag_125\n      tag_101\n      jump\t// in\n    tag_125:\n    tag_124:\n      sub\n        /* \"@openzeppelin/contracts/utils/cryptography/ECDSA.sol\":939:1173   */\n      tag_126\n      jumpi\n        /* \"@openzeppelin/contracts/utils/cryptography/ECDSA.sol\":998:1042   */\n      mload(0x40)\n      0x08c379a000000000000000000000000000000000000000000000000000000000\n      dup2\n      mstore\n      0x04\n      add\n      tag_127\n      swap1\n      tag_128\n      jump\t// in\n    tag_127:\n      mload(0x40)\n      dup1\n      swap2\n      sub\n      swap1\n      revert\n        /* \"@openzeppelin/contracts/utils/cryptography/ECDSA.sol\":939:1173   */\n    tag_126:\n        /* \"@openzeppelin/contracts/utils/cryptography/ECDSA.sol\":1072:1102   */\n      0x04\n        /* \"@openzeppelin/contracts/utils/cryptography/ECDSA.sol\":1063:1102   */\n      dup1\n      dup2\n      gt\n      iszero\n      tag_130\n      jumpi\n      tag_131\n      tag_101\n      jump\t// in\n    tag_131:\n    tag_130:\n        /* \"@openzeppelin/contracts/utils/cryptography/ECDSA.sol\":1063:1068   */\n      dup2\n        /* \"@openzeppelin/contracts/utils/cryptography/ECDSA.sol\":1063:1102   */\n      0x04\n      dup2\n      gt\n      iszero\n      tag_132\n      jumpi\n      tag_133\n      tag_101\n      jump\t// in\n    tag_133:\n    tag_132:\n      sub\n        /* \"@openzeppelin/contracts/utils/cryptography/ECDSA.sol\":1059:1173   */\n      tag_134\n      jumpi\n        /* \"@openzeppelin/contracts/utils/cryptography/ECDSA.sol\":1118:1162   */\n      mload(0x40)\n      0x08c379a000000000000000000000000000000000000000000000000000000000\n      dup2\n      mstore\n      0x04\n      add\n      tag_135\n      swap1\n      tag_136\n      jump\t// in\n    tag_135:\n      mload(0x40)\n      dup1\n      swap2\n      sub\n      swap1\n      revert\n        /* \"@openzeppelin/contracts/utils/cryptography/ECDSA.sol\":1059:1173   */\n    tag_134:\n        /* \"@openzeppelin/contracts/utils/cryptography/ECDSA.sol\":548:1179   */\n    tag_98:\n      pop\n      jump\t// out\n        /* \"#utility.yul\":7:82   */\n    tag_137:\n        /* \"#utility.yul\":40:46   */\n      0x00\n        /* \"#utility.yul\":73:75   */\n      0x40\n        /* \"#utility.yul\":67:76   */\n      mload\n        /* \"#utility.yul\":57:76   */\n      swap1\n      pop\n        /* \"#utility.yul\":7:82   */\n      swap1\n      jump\t// out\n        /* \"#utility.yul\":88:205   */\n    tag_138:\n        /* \"#utility.yul\":197:198   */\n      0x00\n        /* \"#utility.yul\":194:195   */\n      dup1\n        /* \"#utility.yul\":187:199   */\n      revert\n        /* \"#utility.yul\":211:328   */\n    tag_139:\n        /* \"#utility.yul\":320:321   */\n      0x00\n        /* \"#utility.yul\":317:318   */\n      dup1\n        /* \"#utility.yul\":310:322   */\n      revert\n        /* \"#utility.yul\":334:460   */\n    tag_140:\n        /* \"#utility.yul\":371:378   */\n      0x00\n        /* \"#utility.yul\":411:453   */\n      0xffffffffffffffffffffffffffffffffffffffff\n        /* \"#utility.yul\":404:409   */\n      dup3\n        /* \"#utility.yul\":400:454   */\n      and\n        /* \"#utility.yul\":389:454   */\n      swap1\n      pop\n        /* \"#utility.yul\":334:460   */\n      swap2\n      swap1\n      pop\n      jump\t// out\n        /* \"#utility.yul\":466:562   */\n    tag_141:\n        /* \"#utility.yul\":503:510   */\n      0x00\n        /* \"#utility.yul\":532:556   */\n      tag_212\n        /* \"#utility.yul\":550:555   */\n      dup3\n        /* \"#utility.yul\":532:556   */\n      tag_140\n      jump\t// in\n    tag_212:\n        /* \"#utility.yul\":521:556   */\n      swap1\n      pop\n        /* \"#utility.yul\":466:562   */\n      swap2\n      swap1\n      pop\n      jump\t// out\n        /* \"#utility.yul\":568:690   */\n    tag_142:\n        /* \"#utility.yul\":641:665   */\n      tag_214\n        /* \"#utility.yul\":659:664   */\n      dup2\n        /* \"#utility.yul\":641:665   */\n      tag_141\n      jump\t// in\n    tag_214:\n        /* \"#utility.yul\":634:639   */\n      dup2\n        /* \"#utility.yul\":631:666   */\n      eq\n        /* \"#utility.yul\":621:684   */\n      tag_215\n      jumpi\n        /* \"#utility.yul\":680:681   */\n      0x00\n        /* \"#utility.yul\":677:678   */\n      dup1\n        /* \"#utility.yul\":670:682   */\n      revert\n        /* \"#utility.yul\":621:684   */\n    tag_215:\n        /* \"#utility.yul\":568:690   */\n      pop\n      jump\t// out\n        /* \"#utility.yul\":696:835   */\n    tag_143:\n        /* \"#utility.yul\":742:747   */\n      0x00\n        /* \"#utility.yul\":780:786   */\n      dup2\n        /* \"#utility.yul\":767:787   */\n      calldataload\n        /* \"#utility.yul\":758:787   */\n      swap1\n      pop\n        /* \"#utility.yul\":796:829   */\n      tag_217\n        /* \"#utility.yul\":823:828   */\n      dup2\n        /* \"#utility.yul\":796:829   */\n      tag_142\n      jump\t// in\n    tag_217:\n        /* \"#utility.yul\":696:835   */\n      swap3\n      swap2\n      pop\n      pop\n      jump\t// out\n        /* \"#utility.yul\":841:918   */\n    tag_144:\n        /* \"#utility.yul\":878:885   */\n      0x00\n        /* \"#utility.yul\":907:912   */\n      dup2\n        /* \"#utility.yul\":896:912   */\n      swap1\n      pop\n        /* \"#utility.yul\":841:918   */\n      swap2\n      swap1\n      pop\n      jump\t// out\n        /* \"#utility.yul\":924:1046   */\n    tag_145:\n        /* \"#utility.yul\":997:1021   */\n      tag_220\n        /* \"#utility.yul\":1015:1020   */\n      dup2\n        /* \"#utility.yul\":997:1021   */\n      tag_144\n      jump\t// in\n    tag_220:\n        /* \"#utility.yul\":990:995   */\n      dup2\n        /* \"#utility.yul\":987:1022   */\n      eq\n        /* \"#utility.yul\":977:1040   */\n      tag_221\n      jumpi\n        /* \"#utility.yul\":1036:1037   */\n      0x00\n        /* \"#utility.yul\":1033:1034   */\n      dup1\n        /* \"#utility.yul\":1026:1038   */\n      revert\n        /* \"#utility.yul\":977:1040   */\n    tag_221:\n        /* \"#utility.yul\":924:1046   */\n      pop\n      jump\t// out\n        /* \"#utility.yul\":1052:1191   */\n    tag_146:\n        /* \"#utility.yul\":1098:1103   */\n      0x00\n        /* \"#utility.yul\":1136:1142   */\n      dup2\n        /* \"#utility.yul\":1123:1143   */\n      calldataload\n        /* \"#utility.yul\":1114:1143   */\n      swap1\n      pop\n        /* \"#utility.yul\":1152:1185   */\n      tag_223\n        /* \"#utility.yul\":1179:1184   */\n      dup2\n        /* \"#utility.yul\":1152:1185   */\n      tag_145\n      jump\t// in\n    tag_223:\n        /* \"#utility.yul\":1052:1191   */\n      swap3\n      swap2\n      pop\n      pop\n      jump\t// out\n        /* \"#utility.yul\":1197:1314   */\n    tag_147:\n        /* \"#utility.yul\":1306:1307   */\n      0x00\n        /* \"#utility.yul\":1303:1304   */\n      dup1\n        /* \"#utility.yul\":1296:1308   */\n      revert\n        /* \"#utility.yul\":1320:1437   */\n    tag_148:\n        /* \"#utility.yul\":1429:1430   */\n      0x00\n        /* \"#utility.yul\":1426:1427   */\n      dup1\n        /* \"#utility.yul\":1419:1431   */\n      revert\n        /* \"#utility.yul\":1443:1545   */\n    tag_149:\n        /* \"#utility.yul\":1484:1490   */\n      0x00\n        /* \"#utility.yul\":1535:1537   */\n      0x1f\n        /* \"#utility.yul\":1531:1538   */\n      not\n        /* \"#utility.yul\":1526:1528   */\n      0x1f\n        /* \"#utility.yul\":1519:1524   */\n      dup4\n        /* \"#utility.yul\":1515:1529   */\n      add\n        /* \"#utility.yul\":1511:1539   */\n      and\n        /* \"#utility.yul\":1501:1539   */\n      swap1\n      pop\n        /* \"#utility.yul\":1443:1545   */\n      swap2\n      swap1\n      pop\n      jump\t// out\n        /* \"#utility.yul\":1551:1731   */\n    tag_150:\n        /* \"#utility.yul\":1599:1676   */\n      0x4e487b7100000000000000000000000000000000000000000000000000000000\n        /* \"#utility.yul\":1596:1597   */\n      0x00\n        /* \"#utility.yul\":1589:1677   */\n      mstore\n        /* \"#utility.yul\":1696:1700   */\n      0x41\n        /* \"#utility.yul\":1693:1694   */\n      0x04\n        /* \"#utility.yul\":1686:1701   */\n      mstore\n        /* \"#utility.yul\":1720:1724   */\n      0x24\n        /* \"#utility.yul\":1717:1718   */\n      0x00\n        /* \"#utility.yul\":1710:1725   */\n      revert\n        /* \"#utility.yul\":1737:2018   */\n    tag_151:\n        /* \"#utility.yul\":1820:1847   */\n      tag_229\n        /* \"#utility.yul\":1842:1846   */\n      dup3\n        /* \"#utility.yul\":1820:1847   */\n      tag_149\n      jump\t// in\n    tag_229:\n        /* \"#utility.yul\":1812:1818   */\n      dup2\n        /* \"#utility.yul\":1808:1848   */\n      add\n        /* \"#utility.yul\":1950:1956   */\n      dup2\n        /* \"#utility.yul\":1938:1948   */\n      dup2\n        /* \"#utility.yul\":1935:1957   */\n      lt\n        /* \"#utility.yul\":1914:1932   */\n      0xffffffffffffffff\n        /* \"#utility.yul\":1902:1912   */\n      dup3\n        /* \"#utility.yul\":1899:1933   */\n      gt\n        /* \"#utility.yul\":1896:1958   */\n      or\n        /* \"#utility.yul\":1893:1981   */\n      iszero\n      tag_230\n      jumpi\n        /* \"#utility.yul\":1961:1979   */\n      tag_231\n      tag_150\n      jump\t// in\n    tag_231:\n        /* \"#utility.yul\":1893:1981   */\n    tag_230:\n        /* \"#utility.yul\":2001:2011   */\n      dup1\n        /* \"#utility.yul\":1997:1999   */\n      0x40\n        /* \"#utility.yul\":1990:2012   */\n      mstore\n        /* \"#utility.yul\":1780:2018   */\n      pop\n        /* \"#utility.yul\":1737:2018   */\n      pop\n      pop\n      jump\t// out\n        /* \"#utility.yul\":2024:2153   */\n    tag_152:\n        /* \"#utility.yul\":2058:2064   */\n      0x00\n        /* \"#utility.yul\":2085:2105   */\n      tag_233\n      tag_137\n      jump\t// in\n    tag_233:\n        /* \"#utility.yul\":2075:2105   */\n      swap1\n      pop\n        /* \"#utility.yul\":2114:2147   */\n      tag_234\n        /* \"#utility.yul\":2142:2146   */\n      dup3\n        /* \"#utility.yul\":2134:2140   */\n      dup3\n        /* \"#utility.yul\":2114:2147   */\n      tag_151\n      jump\t// in\n    tag_234:\n        /* \"#utility.yul\":2024:2153   */\n      swap2\n      swap1\n      pop\n      jump\t// out\n        /* \"#utility.yul\":2159:2466   */\n    tag_153:\n        /* \"#utility.yul\":2220:2224   */\n      0x00\n        /* \"#utility.yul\":2310:2328   */\n      0xffffffffffffffff\n        /* \"#utility.yul\":2302:2308   */\n      dup3\n        /* \"#utility.yul\":2299:2329   */\n      gt\n        /* \"#utility.yul\":2296:2352   */\n      iszero\n      tag_236\n      jumpi\n        /* \"#utility.yul\":2332:2350   */\n      tag_237\n      tag_150\n      jump\t// in\n    tag_237:\n        /* \"#utility.yul\":2296:2352   */\n    tag_236:\n        /* \"#utility.yul\":2370:2399   */\n      tag_238\n        /* \"#utility.yul\":2392:2398   */\n      dup3\n        /* \"#utility.yul\":2370:2399   */\n      tag_149\n      jump\t// in\n    tag_238:\n        /* \"#utility.yul\":2362:2399   */\n      swap1\n      pop\n        /* \"#utility.yul\":2454:2458   */\n      0x20\n        /* \"#utility.yul\":2448:2452   */\n      dup2\n        /* \"#utility.yul\":2444:2459   */\n      add\n        /* \"#utility.yul\":2436:2459   */\n      swap1\n      pop\n        /* \"#utility.yul\":2159:2466   */\n      swap2\n      swap1\n      pop\n      jump\t// out\n        /* \"#utility.yul\":2472:2626   */\n    tag_154:\n        /* \"#utility.yul\":2556:2562   */\n      dup3\n        /* \"#utility.yul\":2551:2554   */\n      dup2\n        /* \"#utility.yul\":2546:2549   */\n      dup4\n        /* \"#utility.yul\":2533:2563   */\n      calldatacopy\n        /* \"#utility.yul\":2618:2619   */\n      0x00\n        /* \"#utility.yul\":2609:2615   */\n      dup4\n        /* \"#utility.yul\":2604:2607   */\n      dup4\n        /* \"#utility.yul\":2600:2616   */\n      add\n        /* \"#utility.yul\":2593:2620   */\n      mstore\n        /* \"#utility.yul\":2472:2626   */\n      pop\n      pop\n      pop\n      jump\t// out\n        /* \"#utility.yul\":2632:3042   */\n    tag_155:\n        /* \"#utility.yul\":2709:2714   */\n      0x00\n        /* \"#utility.yul\":2734:2799   */\n      tag_241\n        /* \"#utility.yul\":2750:2798   */\n      tag_242\n        /* \"#utility.yul\":2791:2797   */\n      dup5\n        /* \"#utility.yul\":2750:2798   */\n      tag_153\n      jump\t// in\n    tag_242:\n        /* \"#utility.yul\":2734:2799   */\n      tag_152\n      jump\t// in\n    tag_241:\n        /* \"#utility.yul\":2725:2799   */\n      swap1\n      pop\n        /* \"#utility.yul\":2822:2828   */\n      dup3\n        /* \"#utility.yul\":2815:2820   */\n      dup2\n        /* \"#utility.yul\":2808:2829   */\n      mstore\n        /* \"#utility.yul\":2860:2864   */\n      0x20\n        /* \"#utility.yul\":2853:2858   */\n      dup2\n        /* \"#utility.yul\":2849:2865   */\n      add\n        /* \"#utility.yul\":2898:2901   */\n      dup5\n        /* \"#utility.yul\":2889:2895   */\n      dup5\n        /* \"#utility.yul\":2884:2887   */\n      dup5\n        /* \"#utility.yul\":2880:2896   */\n      add\n        /* \"#utility.yul\":2877:2902   */\n      gt\n        /* \"#utility.yul\":2874:2986   */\n      iszero\n      tag_243\n      jumpi\n        /* \"#utility.yul\":2905:2984   */\n      tag_244\n      tag_148\n      jump\t// in\n    tag_244:\n        /* \"#utility.yul\":2874:2986   */\n    tag_243:\n        /* \"#utility.yul\":2995:3036   */\n      tag_245\n        /* \"#utility.yul\":3029:3035   */\n      dup5\n        /* \"#utility.yul\":3024:3027   */\n      dup3\n        /* \"#utility.yul\":3019:3022   */\n      dup6\n        /* \"#utility.yul\":2995:3036   */\n      tag_154\n      jump\t// in\n    tag_245:\n        /* \"#utility.yul\":2715:3042   */\n      pop\n        /* \"#utility.yul\":2632:3042   */\n      swap4\n      swap3\n      pop\n      pop\n      pop\n      jump\t// out\n        /* \"#utility.yul\":3061:3399   */\n    tag_156:\n        /* \"#utility.yul\":3116:3121   */\n      0x00\n        /* \"#utility.yul\":3165:3168   */\n      dup3\n        /* \"#utility.yul\":3158:3162   */\n      0x1f\n        /* \"#utility.yul\":3150:3156   */\n      dup4\n        /* \"#utility.yul\":3146:3163   */\n      add\n        /* \"#utility.yul\":3142:3169   */\n      slt\n        /* \"#utility.yul\":3132:3254   */\n      tag_247\n      jumpi\n        /* \"#utility.yul\":3173:3252   */\n      tag_248\n      tag_147\n      jump\t// in\n    tag_248:\n        /* \"#utility.yul\":3132:3254   */\n    tag_247:\n        /* \"#utility.yul\":3290:3296   */\n      dup2\n        /* \"#utility.yul\":3277:3297   */\n      calldataload\n        /* \"#utility.yul\":3315:3393   */\n      tag_249\n        /* \"#utility.yul\":3389:3392   */\n      dup5\n        /* \"#utility.yul\":3381:3387   */\n      dup3\n        /* \"#utility.yul\":3374:3378   */\n      0x20\n        /* \"#utility.yul\":3366:3372   */\n      dup7\n        /* \"#utility.yul\":3362:3379   */\n      add\n        /* \"#utility.yul\":3315:3393   */\n      tag_155\n      jump\t// in\n    tag_249:\n        /* \"#utility.yul\":3306:3393   */\n      swap2\n      pop\n        /* \"#utility.yul\":3122:3399   */\n      pop\n        /* \"#utility.yul\":3061:3399   */\n      swap3\n      swap2\n      pop\n      pop\n      jump\t// out\n        /* \"#utility.yul\":3405:4348   */\n    tag_13:\n        /* \"#utility.yul\":3500:3506   */\n      0x00\n        /* \"#utility.yul\":3508:3514   */\n      dup1\n        /* \"#utility.yul\":3516:3522   */\n      0x00\n        /* \"#utility.yul\":3524:3530   */\n      dup1\n        /* \"#utility.yul\":3573:3576   */\n      0x80\n        /* \"#utility.yul\":3561:3570   */\n      dup6\n        /* \"#utility.yul\":3552:3559   */\n      dup8\n        /* \"#utility.yul\":3548:3571   */\n      sub\n        /* \"#utility.yul\":3544:3577   */\n      slt\n        /* \"#utility.yul\":3541:3661   */\n      iszero\n      tag_251\n      jumpi\n        /* \"#utility.yul\":3580:3659   */\n      tag_252\n      tag_138\n      jump\t// in\n    tag_252:\n        /* \"#utility.yul\":3541:3661   */\n    tag_251:\n        /* \"#utility.yul\":3700:3701   */\n      0x00\n        /* \"#utility.yul\":3725:3778   */\n      tag_253\n        /* \"#utility.yul\":3770:3777   */\n      dup8\n        /* \"#utility.yul\":3761:3767   */\n      dup3\n        /* \"#utility.yul\":3750:3759   */\n      dup9\n        /* \"#utility.yul\":3746:3768   */\n      add\n        /* \"#utility.yul\":3725:3778   */\n      tag_143\n      jump\t// in\n    tag_253:\n        /* \"#utility.yul\":3715:3778   */\n      swap5\n      pop\n        /* \"#utility.yul\":3671:3788   */\n      pop\n        /* \"#utility.yul\":3827:3829   */\n      0x20\n        /* \"#utility.yul\":3853:3906   */\n      tag_254\n        /* \"#utility.yul\":3898:3905   */\n      dup8\n        /* \"#utility.yul\":3889:3895   */\n      dup3\n        /* \"#utility.yul\":3878:3887   */\n      dup9\n        /* \"#utility.yul\":3874:3896   */\n      add\n        /* \"#utility.yul\":3853:3906   */\n      tag_143\n      jump\t// in\n    tag_254:\n        /* \"#utility.yul\":3843:3906   */\n      swap4\n      pop\n        /* \"#utility.yul\":3798:3916   */\n      pop\n        /* \"#utility.yul\":3955:3957   */\n      0x40\n        /* \"#utility.yul\":3981:4034   */\n      tag_255\n        /* \"#utility.yul\":4026:4033   */\n      dup8\n        /* \"#utility.yul\":4017:4023   */\n      dup3\n        /* \"#utility.yul\":4006:4015   */\n      dup9\n        /* \"#utility.yul\":4002:4024   */\n      add\n        /* \"#utility.yul\":3981:4034   */\n      tag_146\n      jump\t// in\n    tag_255:\n        /* \"#utility.yul\":3971:4034   */\n      swap3\n      pop\n        /* \"#utility.yul\":3926:4044   */\n      pop\n        /* \"#utility.yul\":4111:4113   */\n      0x60\n        /* \"#utility.yul\":4100:4109   */\n      dup6\n        /* \"#utility.yul\":4096:4114   */\n      add\n        /* \"#utility.yul\":4083:4115   */\n      calldataload\n        /* \"#utility.yul\":4142:4160   */\n      0xffffffffffffffff\n        /* \"#utility.yul\":4134:4140   */\n      dup2\n        /* \"#utility.yul\":4131:4161   */\n      gt\n        /* \"#utility.yul\":4128:4245   */\n      iszero\n      tag_256\n      jumpi\n        /* \"#utility.yul\":4164:4243   */\n      tag_257\n      tag_139\n      jump\t// in\n    tag_257:\n        /* \"#utility.yul\":4128:4245   */\n    tag_256:\n        /* \"#utility.yul\":4269:4331   */\n      tag_258\n        /* \"#utility.yul\":4323:4330   */\n      dup8\n        /* \"#utility.yul\":4314:4320   */\n      dup3\n        /* \"#utility.yul\":4303:4312   */\n      dup9\n        /* \"#utility.yul\":4299:4321   */\n      add\n        /* \"#utility.yul\":4269:4331   */\n      tag_156\n      jump\t// in\n    tag_258:\n        /* \"#utility.yul\":4259:4331   */\n      swap2\n      pop\n        /* \"#utility.yul\":4054:4341   */\n      pop\n        /* \"#utility.yul\":3405:4348   */\n      swap3\n      swap6\n      swap2\n      swap5\n      pop\n      swap3\n      pop\n      jump\t// out\n        /* \"#utility.yul\":4354:4503   */\n    tag_157:\n        /* \"#utility.yul\":4390:4397   */\n      0x00\n        /* \"#utility.yul\":4430:4496   */\n      0xffffffff00000000000000000000000000000000000000000000000000000000\n        /* \"#utility.yul\":4423:4428   */\n      dup3\n        /* \"#utility.yul\":4419:4497   */\n      and\n        /* \"#utility.yul\":4408:4497   */\n      swap1\n      pop\n        /* \"#utility.yul\":4354:4503   */\n      swap2\n      swap1\n      pop\n      jump\t// out\n        /* \"#utility.yul\":4509:4624   */\n    tag_158:\n        /* \"#utility.yul\":4594:4617   */\n      tag_261\n        /* \"#utility.yul\":4611:4616   */\n      dup2\n        /* \"#utility.yul\":4594:4617   */\n      tag_157\n      jump\t// in\n    tag_261:\n        /* \"#utility.yul\":4589:4592   */\n      dup3\n        /* \"#utility.yul\":4582:4618   */\n      mstore\n        /* \"#utility.yul\":4509:4624   */\n      pop\n      pop\n      jump\t// out\n        /* \"#utility.yul\":4630:4848   */\n    tag_16:\n        /* \"#utility.yul\":4721:4725   */\n      0x00\n        /* \"#utility.yul\":4759:4761   */\n      0x20\n        /* \"#utility.yul\":4748:4757   */\n      dup3\n        /* \"#utility.yul\":4744:4762   */\n      add\n        /* \"#utility.yul\":4736:4762   */\n      swap1\n      pop\n        /* \"#utility.yul\":4772:4841   */\n      tag_263\n        /* \"#utility.yul\":4838:4839   */\n      0x00\n        /* \"#utility.yul\":4827:4836   */\n      dup4\n        /* \"#utility.yul\":4823:4840   */\n      add\n        /* \"#utility.yul\":4814:4820   */\n      dup5\n        /* \"#utility.yul\":4772:4841   */\n      tag_158\n      jump\t// in\n    tag_263:\n        /* \"#utility.yul\":4630:4848   */\n      swap3\n      swap2\n      pop\n      pop\n      jump\t// out\n        /* \"#utility.yul\":4854:4931   */\n    tag_159:\n        /* \"#utility.yul\":4891:4898   */\n      0x00\n        /* \"#utility.yul\":4920:4925   */\n      dup2\n        /* \"#utility.yul\":4909:4925   */\n      swap1\n      pop\n        /* \"#utility.yul\":4854:4931   */\n      swap2\n      swap1\n      pop\n      jump\t// out\n        /* \"#utility.yul\":4937:5059   */\n    tag_160:\n        /* \"#utility.yul\":5010:5034   */\n      tag_266\n        /* \"#utility.yul\":5028:5033   */\n      dup2\n        /* \"#utility.yul\":5010:5034   */\n      tag_159\n      jump\t// in\n    tag_266:\n        /* \"#utility.yul\":5003:5008   */\n      dup2\n        /* \"#utility.yul\":5000:5035   */\n      eq\n        /* \"#utility.yul\":4990:5053   */\n      tag_267\n      jumpi\n        /* \"#utility.yul\":5049:5050   */\n      0x00\n        /* \"#utility.yul\":5046:5047   */\n      dup1\n        /* \"#utility.yul\":5039:5051   */\n      revert\n        /* \"#utility.yul\":4990:5053   */\n    tag_267:\n        /* \"#utility.yul\":4937:5059   */\n      pop\n      jump\t// out\n        /* \"#utility.yul\":5065:5204   */\n    tag_161:\n        /* \"#utility.yul\":5111:5116   */\n      0x00\n        /* \"#utility.yul\":5149:5155   */\n      dup2\n        /* \"#utility.yul\":5136:5156   */\n      calldataload\n        /* \"#utility.yul\":5127:5156   */\n      swap1\n      pop\n        /* \"#utility.yul\":5165:5198   */\n      tag_269\n        /* \"#utility.yul\":5192:5197   */\n      dup2\n        /* \"#utility.yul\":5165:5198   */\n      tag_160\n      jump\t// in\n    tag_269:\n        /* \"#utility.yul\":5065:5204   */\n      swap3\n      swap2\n      pop\n      pop\n      jump\t// out\n        /* \"#utility.yul\":5210:5539   */\n    tag_19:\n        /* \"#utility.yul\":5269:5275   */\n      0x00\n        /* \"#utility.yul\":5318:5320   */\n      0x20\n        /* \"#utility.yul\":5306:5315   */\n      dup3\n        /* \"#utility.yul\":5297:5304   */\n      dup5\n        /* \"#utility.yul\":5293:5316   */\n      sub\n        /* \"#utility.yul\":5289:5321   */\n      slt\n        /* \"#utility.yul\":5286:5405   */\n      iszero\n      tag_271\n      jumpi\n        /* \"#utility.yul\":5324:5403   */\n      tag_272\n      tag_138\n      jump\t// in\n    tag_272:\n        /* \"#utility.yul\":5286:5405   */\n    tag_271:\n        /* \"#utility.yul\":5444:5445   */\n      0x00\n        /* \"#utility.yul\":5469:5522   */\n      tag_273\n        /* \"#utility.yul\":5514:5521   */\n      dup5\n        /* \"#utility.yul\":5505:5511   */\n      dup3\n        /* \"#utility.yul\":5494:5503   */\n      dup6\n        /* \"#utility.yul\":5490:5512   */\n      add\n        /* \"#utility.yul\":5469:5522   */\n      tag_161\n      jump\t// in\n    tag_273:\n        /* \"#utility.yul\":5459:5522   */\n      swap2\n      pop\n        /* \"#utility.yul\":5415:5532   */\n      pop\n        /* \"#utility.yul\":5210:5539   */\n      swap3\n      swap2\n      pop\n      pop\n      jump\t// out\n        /* \"#utility.yul\":5545:5635   */\n    tag_162:\n        /* \"#utility.yul\":5579:5586   */\n      0x00\n        /* \"#utility.yul\":5622:5627   */\n      dup2\n        /* \"#utility.yul\":5615:5628   */\n      iszero\n        /* \"#utility.yul\":5608:5629   */\n      iszero\n        /* \"#utility.yul\":5597:5629   */\n      swap1\n      pop\n        /* \"#utility.yul\":5545:5635   */\n      swap2\n      swap1\n      pop\n      jump\t// out\n        /* \"#utility.yul\":5641:5750   */\n    tag_163:\n        /* \"#utility.yul\":5722:5743   */\n      tag_276\n        /* \"#utility.yul\":5737:5742   */\n      dup2\n        /* \"#utility.yul\":5722:5743   */\n      tag_162\n      jump\t// in\n    tag_276:\n        /* \"#utility.yul\":5717:5720   */\n      dup3\n        /* \"#utility.yul\":5710:5744   */\n      mstore\n        /* \"#utility.yul\":5641:5750   */\n      pop\n      pop\n      jump\t// out\n        /* \"#utility.yul\":5756:5966   */\n    tag_22:\n        /* \"#utility.yul\":5843:5847   */\n      0x00\n        /* \"#utility.yul\":5881:5883   */\n      0x20\n        /* \"#utility.yul\":5870:5879   */\n      dup3\n        /* \"#utility.yul\":5866:5884   */\n      add\n        /* \"#utility.yul\":5858:5884   */\n      swap1\n      pop\n        /* \"#utility.yul\":5894:5959   */\n      tag_278\n        /* \"#utility.yul\":5956:5957   */\n      0x00\n        /* \"#utility.yul\":5945:5954   */\n      dup4\n        /* \"#utility.yul\":5941:5958   */\n      add\n        /* \"#utility.yul\":5932:5938   */\n      dup5\n        /* \"#utility.yul\":5894:5959   */\n      tag_163\n      jump\t// in\n    tag_278:\n        /* \"#utility.yul\":5756:5966   */\n      swap3\n      swap2\n      pop\n      pop\n      jump\t// out\n        /* \"#utility.yul\":5972:6280   */\n    tag_164:\n        /* \"#utility.yul\":6034:6038   */\n      0x00\n        /* \"#utility.yul\":6124:6142   */\n      0xffffffffffffffff\n        /* \"#utility.yul\":6116:6122   */\n      dup3\n        /* \"#utility.yul\":6113:6143   */\n      gt\n        /* \"#utility.yul\":6110:6166   */\n      iszero\n      tag_280\n      jumpi\n        /* \"#utility.yul\":6146:6164   */\n      tag_281\n      tag_150\n      jump\t// in\n    tag_281:\n        /* \"#utility.yul\":6110:6166   */\n    tag_280:\n        /* \"#utility.yul\":6184:6213   */\n      tag_282\n        /* \"#utility.yul\":6206:6212   */\n      dup3\n        /* \"#utility.yul\":6184:6213   */\n      tag_149\n      jump\t// in\n    tag_282:\n        /* \"#utility.yul\":6176:6213   */\n      swap1\n      pop\n        /* \"#utility.yul\":6268:6272   */\n      0x20\n        /* \"#utility.yul\":6262:6266   */\n      dup2\n        /* \"#utility.yul\":6258:6273   */\n      add\n        /* \"#utility.yul\":6250:6273   */\n      swap1\n      pop\n        /* \"#utility.yul\":5972:6280   */\n      swap2\n      swap1\n      pop\n      jump\t// out\n        /* \"#utility.yul\":6286:6698   */\n    tag_165:\n        /* \"#utility.yul\":6364:6369   */\n      0x00\n        /* \"#utility.yul\":6389:6455   */\n      tag_284\n        /* \"#utility.yul\":6405:6454   */\n      tag_285\n        /* \"#utility.yul\":6447:6453   */\n      dup5\n        /* \"#utility.yul\":6405:6454   */\n      tag_164\n      jump\t// in\n    tag_285:\n        /* \"#utility.yul\":6389:6455   */\n      tag_152\n      jump\t// in\n    tag_284:\n        /* \"#utility.yul\":6380:6455   */\n      swap1\n      pop\n        /* \"#utility.yul\":6478:6484   */\n      dup3\n        /* \"#utility.yul\":6471:6476   */\n      dup2\n        /* \"#utility.yul\":6464:6485   */\n      mstore\n        /* \"#utility.yul\":6516:6520   */\n      0x20\n        /* \"#utility.yul\":6509:6514   */\n      dup2\n        /* \"#utility.yul\":6505:6521   */\n      add\n        /* \"#utility.yul\":6554:6557   */\n      dup5\n        /* \"#utility.yul\":6545:6551   */\n      dup5\n        /* \"#utility.yul\":6540:6543   */\n      dup5\n        /* \"#utility.yul\":6536:6552   */\n      add\n        /* \"#utility.yul\":6533:6558   */\n      gt\n        /* \"#utility.yul\":6530:6642   */\n      iszero\n      tag_286\n      jumpi\n        /* \"#utility.yul\":6561:6640   */\n      tag_287\n      tag_148\n      jump\t// in\n    tag_287:\n        /* \"#utility.yul\":6530:6642   */\n    tag_286:\n        /* \"#utility.yul\":6651:6692   */\n      tag_288\n        /* \"#utility.yul\":6685:6691   */\n      dup5\n        /* \"#utility.yul\":6680:6683   */\n      dup3\n        /* \"#utility.yul\":6675:6678   */\n      dup6\n        /* \"#utility.yul\":6651:6692   */\n      tag_154\n      jump\t// in\n    tag_288:\n        /* \"#utility.yul\":6370:6698   */\n      pop\n        /* \"#utility.yul\":6286:6698   */\n      swap4\n      swap3\n      pop\n      pop\n      pop\n      jump\t// out\n        /* \"#utility.yul\":6718:7058   */\n    tag_166:\n        /* \"#utility.yul\":6774:6779   */\n      0x00\n        /* \"#utility.yul\":6823:6826   */\n      dup3\n        /* \"#utility.yul\":6816:6820   */\n      0x1f\n        /* \"#utility.yul\":6808:6814   */\n      dup4\n        /* \"#utility.yul\":6804:6821   */\n      add\n        /* \"#utility.yul\":6800:6827   */\n      slt\n        /* \"#utility.yul\":6790:6912   */\n      tag_290\n      jumpi\n        /* \"#utility.yul\":6831:6910   */\n      tag_291\n      tag_147\n      jump\t// in\n    tag_291:\n        /* \"#utility.yul\":6790:6912   */\n    tag_290:\n        /* \"#utility.yul\":6948:6954   */\n      dup2\n        /* \"#utility.yul\":6935:6955   */\n      calldataload\n        /* \"#utility.yul\":6973:7052   */\n      tag_292\n        /* \"#utility.yul\":7048:7051   */\n      dup5\n        /* \"#utility.yul\":7040:7046   */\n      dup3\n        /* \"#utility.yul\":7033:7037   */\n      0x20\n        /* \"#utility.yul\":7025:7031   */\n      dup7\n        /* \"#utility.yul\":7021:7038   */\n      add\n        /* \"#utility.yul\":6973:7052   */\n      tag_165\n      jump\t// in\n    tag_292:\n        /* \"#utility.yul\":6964:7052   */\n      swap2\n      pop\n        /* \"#utility.yul\":6780:7058   */\n      pop\n        /* \"#utility.yul\":6718:7058   */\n      swap3\n      swap2\n      pop\n      pop\n      jump\t// out\n        /* \"#utility.yul\":7064:8009   */\n    tag_25:\n        /* \"#utility.yul\":7160:7166   */\n      0x00\n        /* \"#utility.yul\":7168:7174   */\n      dup1\n        /* \"#utility.yul\":7176:7182   */\n      0x00\n        /* \"#utility.yul\":7184:7190   */\n      dup1\n        /* \"#utility.yul\":7233:7236   */\n      0x80\n        /* \"#utility.yul\":7221:7230   */\n      dup6\n        /* \"#utility.yul\":7212:7219   */\n      dup8\n        /* \"#utility.yul\":7208:7231   */\n      sub\n        /* \"#utility.yul\":7204:7237   */\n      slt\n        /* \"#utility.yul\":7201:7321   */\n      iszero\n      tag_294\n      jumpi\n        /* \"#utility.yul\":7240:7319   */\n      tag_295\n      tag_138\n      jump\t// in\n    tag_295:\n        /* \"#utility.yul\":7201:7321   */\n    tag_294:\n        /* \"#utility.yul\":7360:7361   */\n      0x00\n        /* \"#utility.yul\":7385:7438   */\n      tag_296\n        /* \"#utility.yul\":7430:7437   */\n      dup8\n        /* \"#utility.yul\":7421:7427   */\n      dup3\n        /* \"#utility.yul\":7410:7419   */\n      dup9\n        /* \"#utility.yul\":7406:7428   */\n      add\n        /* \"#utility.yul\":7385:7438   */\n      tag_143\n      jump\t// in\n    tag_296:\n        /* \"#utility.yul\":7375:7438   */\n      swap5\n      pop\n        /* \"#utility.yul\":7331:7448   */\n      pop\n        /* \"#utility.yul\":7487:7489   */\n      0x20\n        /* \"#utility.yul\":7513:7566   */\n      tag_297\n        /* \"#utility.yul\":7558:7565   */\n      dup8\n        /* \"#utility.yul\":7549:7555   */\n      dup3\n        /* \"#utility.yul\":7538:7547   */\n      dup9\n        /* \"#utility.yul\":7534:7556   */\n      add\n        /* \"#utility.yul\":7513:7566   */\n      tag_146\n      jump\t// in\n    tag_297:\n        /* \"#utility.yul\":7503:7566   */\n      swap4\n      pop\n        /* \"#utility.yul\":7458:7576   */\n      pop\n        /* \"#utility.yul\":7643:7645   */\n      0x40\n        /* \"#utility.yul\":7632:7641   */\n      dup6\n        /* \"#utility.yul\":7628:7646   */\n      add\n        /* \"#utility.yul\":7615:7647   */\n      calldataload\n        /* \"#utility.yul\":7674:7692   */\n      0xffffffffffffffff\n        /* \"#utility.yul\":7666:7672   */\n      dup2\n        /* \"#utility.yul\":7663:7693   */\n      gt\n        /* \"#utility.yul\":7660:7777   */\n      iszero\n      tag_298\n      jumpi\n        /* \"#utility.yul\":7696:7775   */\n      tag_299\n      tag_139\n      jump\t// in\n    tag_299:\n        /* \"#utility.yul\":7660:7777   */\n    tag_298:\n        /* \"#utility.yul\":7801:7864   */\n      tag_300\n        /* \"#utility.yul\":7856:7863   */\n      dup8\n        /* \"#utility.yul\":7847:7853   */\n      dup3\n        /* \"#utility.yul\":7836:7845   */\n      dup9\n        /* \"#utility.yul\":7832:7854   */\n      add\n        /* \"#utility.yul\":7801:7864   */\n      tag_166\n      jump\t// in\n    tag_300:\n        /* \"#utility.yul\":7791:7864   */\n      swap3\n      pop\n        /* \"#utility.yul\":7586:7874   */\n      pop\n        /* \"#utility.yul\":7913:7915   */\n      0x60\n        /* \"#utility.yul\":7939:7992   */\n      tag_301\n        /* \"#utility.yul\":7984:7991   */\n      dup8\n        /* \"#utility.yul\":7975:7981   */\n      dup3\n        /* \"#utility.yul\":7964:7973   */\n      dup9\n        /* \"#utility.yul\":7960:7982   */\n      add\n        /* \"#utility.yul\":7939:7992   */\n      tag_146\n      jump\t// in\n    tag_301:\n        /* \"#utility.yul\":7929:7992   */\n      swap2\n      pop\n        /* \"#utility.yul\":7884:8002   */\n      pop\n        /* \"#utility.yul\":7064:8009   */\n      swap3\n      swap6\n      swap2\n      swap5\n      pop\n      swap3\n      pop\n      jump\t// out\n        /* \"#utility.yul\":8015:8133   */\n    tag_167:\n        /* \"#utility.yul\":8102:8126   */\n      tag_303\n        /* \"#utility.yul\":8120:8125   */\n      dup2\n        /* \"#utility.yul\":8102:8126   */\n      tag_141\n      jump\t// in\n    tag_303:\n        /* \"#utility.yul\":8097:8100   */\n      dup3\n        /* \"#utility.yul\":8090:8127   */\n      mstore\n        /* \"#utility.yul\":8015:8133   */\n      pop\n      pop\n      jump\t// out\n        /* \"#utility.yul\":8139:8361   */\n    tag_30:\n        /* \"#utility.yul\":8232:8236   */\n      0x00\n        /* \"#utility.yul\":8270:8272   */\n      0x20\n        /* \"#utility.yul\":8259:8268   */\n      dup3\n        /* \"#utility.yul\":8255:8273   */\n      add\n        /* \"#utility.yul\":8247:8273   */\n      swap1\n      pop\n        /* \"#utility.yul\":8283:8354   */\n      tag_305\n        /* \"#utility.yul\":8351:8352   */\n      0x00\n        /* \"#utility.yul\":8340:8349   */\n      dup4\n        /* \"#utility.yul\":8336:8353   */\n      add\n        /* \"#utility.yul\":8327:8333   */\n      dup5\n        /* \"#utility.yul\":8283:8354   */\n      tag_167\n      jump\t// in\n    tag_305:\n        /* \"#utility.yul\":8139:8361   */\n      swap3\n      swap2\n      pop\n      pop\n      jump\t// out\n        /* \"#utility.yul\":8367:8453   */\n    tag_168:\n        /* \"#utility.yul\":8402:8409   */\n      0x00\n        /* \"#utility.yul\":8442:8446   */\n      0xff\n        /* \"#utility.yul\":8435:8440   */\n      dup3\n        /* \"#utility.yul\":8431:8447   */\n      and\n        /* \"#utility.yul\":8420:8447   */\n      swap1\n      pop\n        /* \"#utility.yul\":8367:8453   */\n      swap2\n      swap1\n      pop\n      jump\t// out\n        /* \"#utility.yul\":8459:8577   */\n    tag_169:\n        /* \"#utility.yul\":8530:8552   */\n      tag_308\n        /* \"#utility.yul\":8546:8551   */\n      dup2\n        /* \"#utility.yul\":8530:8552   */\n      tag_168\n      jump\t// in\n    tag_308:\n        /* \"#utility.yul\":8523:8528   */\n      dup2\n        /* \"#utility.yul\":8520:8553   */\n      eq\n        /* \"#utility.yul\":8510:8571   */\n      tag_309\n      jumpi\n        /* \"#utility.yul\":8567:8568   */\n      0x00\n        /* \"#utility.yul\":8564:8565   */\n      dup1\n        /* \"#utility.yul\":8557:8569   */\n      revert\n        /* \"#utility.yul\":8510:8571   */\n    tag_309:\n        /* \"#utility.yul\":8459:8577   */\n      pop\n      jump\t// out\n        /* \"#utility.yul\":8583:8718   */\n    tag_170:\n        /* \"#utility.yul\":8627:8632   */\n      0x00\n        /* \"#utility.yul\":8665:8671   */\n      dup2\n        /* \"#utility.yul\":8652:8672   */\n      calldataload\n        /* \"#utility.yul\":8643:8672   */\n      swap1\n      pop\n        /* \"#utility.yul\":8681:8712   */\n      tag_311\n        /* \"#utility.yul\":8706:8711   */\n      dup2\n        /* \"#utility.yul\":8681:8712   */\n      tag_169\n      jump\t// in\n    tag_311:\n        /* \"#utility.yul\":8583:8718   */\n      swap3\n      swap2\n      pop\n      pop\n      jump\t// out\n        /* \"#utility.yul\":8724:10249   */\n    tag_37:\n        /* \"#utility.yul\":8854:8860   */\n      0x00\n        /* \"#utility.yul\":8862:8868   */\n      dup1\n        /* \"#utility.yul\":8870:8876   */\n      0x00\n        /* \"#utility.yul\":8878:8884   */\n      dup1\n        /* \"#utility.yul\":8886:8892   */\n      0x00\n        /* \"#utility.yul\":8894:8900   */\n      dup1\n        /* \"#utility.yul\":8902:8908   */\n      0x00\n        /* \"#utility.yul\":8910:8916   */\n      dup1\n        /* \"#utility.yul\":8959:8962   */\n      0x0100\n        /* \"#utility.yul\":8947:8956   */\n      dup10\n        /* \"#utility.yul\":8938:8945   */\n      dup12\n        /* \"#utility.yul\":8934:8957   */\n      sub\n        /* \"#utility.yul\":8930:8963   */\n      slt\n        /* \"#utility.yul\":8927:9047   */\n      iszero\n      tag_313\n      jumpi\n        /* \"#utility.yul\":8966:9045   */\n      tag_314\n      tag_138\n      jump\t// in\n    tag_314:\n        /* \"#utility.yul\":8927:9047   */\n    tag_313:\n        /* \"#utility.yul\":9086:9087   */\n      0x00\n        /* \"#utility.yul\":9111:9164   */\n      tag_315\n        /* \"#utility.yul\":9156:9163   */\n      dup12\n        /* \"#utility.yul\":9147:9153   */\n      dup3\n        /* \"#utility.yul\":9136:9145   */\n      dup13\n        /* \"#utility.yul\":9132:9154   */\n      add\n        /* \"#utility.yul\":9111:9164   */\n      tag_143\n      jump\t// in\n    tag_315:\n        /* \"#utility.yul\":9101:9164   */\n      swap9\n      pop\n        /* \"#utility.yul\":9057:9174   */\n      pop\n        /* \"#utility.yul\":9213:9215   */\n      0x20\n        /* \"#utility.yul\":9239:9292   */\n      tag_316\n        /* \"#utility.yul\":9284:9291   */\n      dup12\n        /* \"#utility.yul\":9275:9281   */\n      dup3\n        /* \"#utility.yul\":9264:9273   */\n      dup13\n        /* \"#utility.yul\":9260:9282   */\n      add\n        /* \"#utility.yul\":9239:9292   */\n      tag_143\n      jump\t// in\n    tag_316:\n        /* \"#utility.yul\":9229:9292   */\n      swap8\n      pop\n        /* \"#utility.yul\":9184:9302   */\n      pop\n        /* \"#utility.yul\":9341:9343   */\n      0x40\n        /* \"#utility.yul\":9367:9420   */\n      tag_317\n        /* \"#utility.yul\":9412:9419   */\n      dup12\n        /* \"#utility.yul\":9403:9409   */\n      dup3\n        /* \"#utility.yul\":9392:9401   */\n      dup13\n        /* \"#utility.yul\":9388:9410   */\n      add\n        /* \"#utility.yul\":9367:9420   */\n      tag_146\n      jump\t// in\n    tag_317:\n        /* \"#utility.yul\":9357:9420   */\n      swap7\n      pop\n        /* \"#utility.yul\":9312:9430   */\n      pop\n        /* \"#utility.yul\":9497:9499   */\n      0x60\n        /* \"#utility.yul\":9486:9495   */\n      dup10\n        /* \"#utility.yul\":9482:9500   */\n      add\n        /* \"#utility.yul\":9469:9501   */\n      calldataload\n        /* \"#utility.yul\":9528:9546   */\n      0xffffffffffffffff\n        /* \"#utility.yul\":9520:9526   */\n      dup2\n        /* \"#utility.yul\":9517:9547   */\n      gt\n        /* \"#utility.yul\":9514:9631   */\n      iszero\n      tag_318\n      jumpi\n        /* \"#utility.yul\":9550:9629   */\n      tag_319\n      tag_139\n      jump\t// in\n    tag_319:\n        /* \"#utility.yul\":9514:9631   */\n    tag_318:\n        /* \"#utility.yul\":9655:9718   */\n      tag_320\n        /* \"#utility.yul\":9710:9717   */\n      dup12\n        /* \"#utility.yul\":9701:9707   */\n      dup3\n        /* \"#utility.yul\":9690:9699   */\n      dup13\n        /* \"#utility.yul\":9686:9708   */\n      add\n        /* \"#utility.yul\":9655:9718   */\n      tag_166\n      jump\t// in\n    tag_320:\n        /* \"#utility.yul\":9645:9718   */\n      swap6\n      pop\n        /* \"#utility.yul\":9440:9728   */\n      pop\n        /* \"#utility.yul\":9767:9770   */\n      0x80\n        /* \"#utility.yul\":9794:9847   */\n      tag_321\n        /* \"#utility.yul\":9839:9846   */\n      dup12\n        /* \"#utility.yul\":9830:9836   */\n      dup3\n        /* \"#utility.yul\":9819:9828   */\n      dup13\n        /* \"#utility.yul\":9815:9837   */\n      add\n        /* \"#utility.yul\":9794:9847   */\n      tag_146\n      jump\t// in\n    tag_321:\n        /* \"#utility.yul\":9784:9847   */\n      swap5\n      pop\n        /* \"#utility.yul\":9738:9857   */\n      pop\n        /* \"#utility.yul\":9896:9899   */\n      0xa0\n        /* \"#utility.yul\":9923:9974   */\n      tag_322\n        /* \"#utility.yul\":9966:9973   */\n      dup12\n        /* \"#utility.yul\":9957:9963   */\n      dup3\n        /* \"#utility.yul\":9946:9955   */\n      dup13\n        /* \"#utility.yul\":9942:9964   */\n      add\n        /* \"#utility.yul\":9923:9974   */\n      tag_170\n      jump\t// in\n    tag_322:\n        /* \"#utility.yul\":9913:9974   */\n      swap4\n      pop\n        /* \"#utility.yul\":9867:9984   */\n      pop\n        /* \"#utility.yul\":10023:10026   */\n      0xc0\n        /* \"#utility.yul\":10050:10103   */\n      tag_323\n        /* \"#utility.yul\":10095:10102   */\n      dup12\n        /* \"#utility.yul\":10086:10092   */\n      dup3\n        /* \"#utility.yul\":10075:10084   */\n      dup13\n        /* \"#utility.yul\":10071:10093   */\n      add\n        /* \"#utility.yul\":10050:10103   */\n      tag_161\n      jump\t// in\n    tag_323:\n        /* \"#utility.yul\":10040:10103   */\n      swap3\n      pop\n        /* \"#utility.yul\":9994:10113   */\n      pop\n        /* \"#utility.yul\":10152:10155   */\n      0xe0\n        /* \"#utility.yul\":10179:10232   */\n      tag_324\n        /* \"#utility.yul\":10224:10231   */\n      dup12\n        /* \"#utility.yul\":10215:10221   */\n      dup3\n        /* \"#utility.yul\":10204:10213   */\n      dup13\n        /* \"#utility.yul\":10200:10222   */\n      add\n        /* \"#utility.yul\":10179:10232   */\n      tag_161\n      jump\t// in\n    tag_324:\n        /* \"#utility.yul\":10169:10232   */\n      swap2\n      pop\n        /* \"#utility.yul\":10123:10242   */\n      pop\n        /* \"#utility.yul\":8724:10249   */\n      swap3\n      swap6\n      swap9\n      pop\n      swap3\n      swap6\n      swap9\n      swap1\n      swap4\n      swap7\n      pop\n      jump\t// out\n        /* \"#utility.yul\":10255:11346   */\n    tag_41:\n        /* \"#utility.yul\":10360:10366   */\n      0x00\n        /* \"#utility.yul\":10368:10374   */\n      dup1\n        /* \"#utility.yul\":10376:10382   */\n      0x00\n        /* \"#utility.yul\":10384:10390   */\n      dup1\n        /* \"#utility.yul\":10392:10398   */\n      0x00\n        /* \"#utility.yul\":10441:10444   */\n      0xa0\n        /* \"#utility.yul\":10429:10438   */\n      dup7\n        /* \"#utility.yul\":10420:10427   */\n      dup9\n        /* \"#utility.yul\":10416:10439   */\n      sub\n        /* \"#utility.yul\":10412:10445   */\n      slt\n        /* \"#utility.yul\":10409:10529   */\n      iszero\n      tag_326\n      jumpi\n        /* \"#utility.yul\":10448:10527   */\n      tag_327\n      tag_138\n      jump\t// in\n    tag_327:\n        /* \"#utility.yul\":10409:10529   */\n    tag_326:\n        /* \"#utility.yul\":10568:10569   */\n      0x00\n        /* \"#utility.yul\":10593:10646   */\n      tag_328\n        /* \"#utility.yul\":10638:10645   */\n      dup9\n        /* \"#utility.yul\":10629:10635   */\n      dup3\n        /* \"#utility.yul\":10618:10627   */\n      dup10\n        /* \"#utility.yul\":10614:10636   */\n      add\n        /* \"#utility.yul\":10593:10646   */\n      tag_143\n      jump\t// in\n    tag_328:\n        /* \"#utility.yul\":10583:10646   */\n      swap6\n      pop\n        /* \"#utility.yul\":10539:10656   */\n      pop\n        /* \"#utility.yul\":10695:10697   */\n      0x20\n        /* \"#utility.yul\":10721:10774   */\n      tag_329\n        /* \"#utility.yul\":10766:10773   */\n      dup9\n        /* \"#utility.yul\":10757:10763   */\n      dup3\n        /* \"#utility.yul\":10746:10755   */\n      dup10\n        /* \"#utility.yul\":10742:10764   */\n      add\n        /* \"#utility.yul\":10721:10774   */\n      tag_143\n      jump\t// in\n    tag_329:\n        /* \"#utility.yul\":10711:10774   */\n      swap5\n      pop\n        /* \"#utility.yul\":10666:10784   */\n      pop\n        /* \"#utility.yul\":10823:10825   */\n      0x40\n        /* \"#utility.yul\":10849:10902   */\n      tag_330\n        /* \"#utility.yul\":10894:10901   */\n      dup9\n        /* \"#utility.yul\":10885:10891   */\n      dup3\n        /* \"#utility.yul\":10874:10883   */\n      dup10\n        /* \"#utility.yul\":10870:10892   */\n      add\n        /* \"#utility.yul\":10849:10902   */\n      tag_146\n      jump\t// in\n    tag_330:\n        /* \"#utility.yul\":10839:10902   */\n      swap4\n      pop\n        /* \"#utility.yul\":10794:10912   */\n      pop\n        /* \"#utility.yul\":10979:10981   */\n      0x60\n        /* \"#utility.yul\":10968:10977   */\n      dup7\n        /* \"#utility.yul\":10964:10982   */\n      add\n        /* \"#utility.yul\":10951:10983   */\n      calldataload\n        /* \"#utility.yul\":11010:11028   */\n      0xffffffffffffffff\n        /* \"#utility.yul\":11002:11008   */\n      dup2\n        /* \"#utility.yul\":10999:11029   */\n      gt\n        /* \"#utility.yul\":10996:11113   */\n      iszero\n      tag_331\n      jumpi\n        /* \"#utility.yul\":11032:11111   */\n      tag_332\n      tag_139\n      jump\t// in\n    tag_332:\n        /* \"#utility.yul\":10996:11113   */\n    tag_331:\n        /* \"#utility.yul\":11137:11200   */\n      tag_333\n        /* \"#utility.yul\":11192:11199   */\n      dup9\n        /* \"#utility.yul\":11183:11189   */\n      dup3\n        /* \"#utility.yul\":11172:11181   */\n      dup10\n        /* \"#utility.yul\":11168:11190   */\n      add\n        /* \"#utility.yul\":11137:11200   */\n      tag_166\n      jump\t// in\n    tag_333:\n        /* \"#utility.yul\":11127:11200   */\n      swap3\n      pop\n        /* \"#utility.yul\":10922:11210   */\n      pop\n        /* \"#utility.yul\":11249:11252   */\n      0x80\n        /* \"#utility.yul\":11276:11329   */\n      tag_334\n        /* \"#utility.yul\":11321:11328   */\n      dup9\n        /* \"#utility.yul\":11312:11318   */\n      dup3\n        /* \"#utility.yul\":11301:11310   */\n      dup10\n        /* \"#utility.yul\":11297:11319   */\n      add\n        /* \"#utility.yul\":11276:11329   */\n      tag_146\n      jump\t// in\n    tag_334:\n        /* \"#utility.yul\":11266:11329   */\n      swap2\n      pop\n        /* \"#utility.yul\":11220:11339   */\n      pop\n        /* \"#utility.yul\":10255:11346   */\n      swap3\n      swap6\n      pop\n      swap3\n      swap6\n      swap1\n      swap4\n      pop\n      jump\t// out\n        /* \"#utility.yul\":11352:11470   */\n    tag_171:\n        /* \"#utility.yul\":11439:11463   */\n      tag_336\n        /* \"#utility.yul\":11457:11462   */\n      dup2\n        /* \"#utility.yul\":11439:11463   */\n      tag_159\n      jump\t// in\n    tag_336:\n        /* \"#utility.yul\":11434:11437   */\n      dup3\n        /* \"#utility.yul\":11427:11464   */\n      mstore\n        /* \"#utility.yul\":11352:11470   */\n      pop\n      pop\n      jump\t// out\n        /* \"#utility.yul\":11476:11698   */\n    tag_44:\n        /* \"#utility.yul\":11569:11573   */\n      0x00\n        /* \"#utility.yul\":11607:11609   */\n      0x20\n        /* \"#utility.yul\":11596:11605   */\n      dup3\n        /* \"#utility.yul\":11592:11610   */\n      add\n        /* \"#utility.yul\":11584:11610   */\n      swap1\n      pop\n        /* \"#utility.yul\":11620:11691   */\n      tag_338\n        /* \"#utility.yul\":11688:11689   */\n      0x00\n        /* \"#utility.yul\":11677:11686   */\n      dup4\n        /* \"#utility.yul\":11673:11690   */\n      add\n        /* \"#utility.yul\":11664:11670   */\n      dup5\n        /* \"#utility.yul\":11620:11691   */\n      tag_171\n      jump\t// in\n    tag_338:\n        /* \"#utility.yul\":11476:11698   */\n      swap3\n      swap2\n      pop\n      pop\n      jump\t// out\n        /* \"#utility.yul\":11704:11873   */\n    tag_172:\n        /* \"#utility.yul\":11788:11799   */\n      0x00\n        /* \"#utility.yul\":11822:11828   */\n      dup3\n        /* \"#utility.yul\":11817:11820   */\n      dup3\n        /* \"#utility.yul\":11810:11829   */\n      mstore\n        /* \"#utility.yul\":11862:11866   */\n      0x20\n        /* \"#utility.yul\":11857:11860   */\n      dup3\n        /* \"#utility.yul\":11853:11867   */\n      add\n        /* \"#utility.yul\":11838:11867   */\n      swap1\n      pop\n        /* \"#utility.yul\":11704:11873   */\n      swap3\n      swap2\n      pop\n      pop\n      jump\t// out\n        /* \"#utility.yul\":11879:12043   */\n    tag_173:\n        /* \"#utility.yul\":12019:12035   */\n      0x4475706c69636174652068617368000000000000000000000000000000000000\n        /* \"#utility.yul\":12015:12016   */\n      0x00\n        /* \"#utility.yul\":12007:12013   */\n      dup3\n        /* \"#utility.yul\":12003:12017   */\n      add\n        /* \"#utility.yul\":11996:12036   */\n      mstore\n        /* \"#utility.yul\":11879:12043   */\n      pop\n      jump\t// out\n        /* \"#utility.yul\":12049:12415   */\n    tag_174:\n        /* \"#utility.yul\":12191:12194   */\n      0x00\n        /* \"#utility.yul\":12212:12279   */\n      tag_342\n        /* \"#utility.yul\":12276:12278   */\n      0x0e\n        /* \"#utility.yul\":12271:12274   */\n      dup4\n        /* \"#utility.yul\":12212:12279   */\n      tag_172\n      jump\t// in\n    tag_342:\n        /* \"#utility.yul\":12205:12279   */\n      swap2\n      pop\n        /* \"#utility.yul\":12288:12381   */\n      tag_343\n        /* \"#utility.yul\":12377:12380   */\n      dup3\n        /* \"#utility.yul\":12288:12381   */\n      tag_173\n      jump\t// in\n    tag_343:\n        /* \"#utility.yul\":12406:12408   */\n      0x20\n        /* \"#utility.yul\":12401:12404   */\n      dup3\n        /* \"#utility.yul\":12397:12409   */\n      add\n        /* \"#utility.yul\":12390:12409   */\n      swap1\n      pop\n        /* \"#utility.yul\":12049:12415   */\n      swap2\n      swap1\n      pop\n      jump\t// out\n        /* \"#utility.yul\":12421:12840   */\n    tag_50:\n        /* \"#utility.yul\":12587:12591   */\n      0x00\n        /* \"#utility.yul\":12625:12627   */\n      0x20\n        /* \"#utility.yul\":12614:12623   */\n      dup3\n        /* \"#utility.yul\":12610:12628   */\n      add\n        /* \"#utility.yul\":12602:12628   */\n      swap1\n      pop\n        /* \"#utility.yul\":12674:12683   */\n      dup2\n        /* \"#utility.yul\":12668:12672   */\n      dup2\n        /* \"#utility.yul\":12664:12684   */\n      sub\n        /* \"#utility.yul\":12660:12661   */\n      0x00\n        /* \"#utility.yul\":12649:12658   */\n      dup4\n        /* \"#utility.yul\":12645:12662   */\n      add\n        /* \"#utility.yul\":12638:12685   */\n      mstore\n        /* \"#utility.yul\":12702:12833   */\n      tag_345\n        /* \"#utility.yul\":12828:12832   */\n      dup2\n        /* \"#utility.yul\":12702:12833   */\n      tag_174\n      jump\t// in\n    tag_345:\n        /* \"#utility.yul\":12694:12833   */\n      swap1\n      pop\n        /* \"#utility.yul\":12421:12840   */\n      swap2\n      swap1\n      pop\n      jump\t// out\n        /* \"#utility.yul\":12846:12964   */\n    tag_175:\n        /* \"#utility.yul\":12933:12957   */\n      tag_347\n        /* \"#utility.yul\":12951:12956   */\n      dup2\n        /* \"#utility.yul\":12933:12957   */\n      tag_144\n      jump\t// in\n    tag_347:\n        /* \"#utility.yul\":12928:12931   */\n      dup3\n        /* \"#utility.yul\":12921:12958   */\n      mstore\n        /* \"#utility.yul\":12846:12964   */\n      pop\n      pop\n      jump\t// out\n        /* \"#utility.yul\":12970:13412   */\n    tag_52:\n        /* \"#utility.yul\":13119:13123   */\n      0x00\n        /* \"#utility.yul\":13157:13159   */\n      0x60\n        /* \"#utility.yul\":13146:13155   */\n      dup3\n        /* \"#utility.yul\":13142:13160   */\n      add\n        /* \"#utility.yul\":13134:13160   */\n      swap1\n      pop\n        /* \"#utility.yul\":13170:13241   */\n      tag_349\n        /* \"#utility.yul\":13238:13239   */\n      0x00\n        /* \"#utility.yul\":13227:13236   */\n      dup4\n        /* \"#utility.yul\":13223:13240   */\n      add\n        /* \"#utility.yul\":13214:13220   */\n      dup7\n        /* \"#utility.yul\":13170:13241   */\n      tag_167\n      jump\t// in\n    tag_349:\n        /* \"#utility.yul\":13251:13323   */\n      tag_350\n        /* \"#utility.yul\":13319:13321   */\n      0x20\n        /* \"#utility.yul\":13308:13317   */\n      dup4\n        /* \"#utility.yul\":13304:13322   */\n      add\n        /* \"#utility.yul\":13295:13301   */\n      dup6\n        /* \"#utility.yul\":13251:13323   */\n      tag_167\n      jump\t// in\n    tag_350:\n        /* \"#utility.yul\":13333:13405   */\n      tag_351\n        /* \"#utility.yul\":13401:13403   */\n      0x40\n        /* \"#utility.yul\":13390:13399   */\n      dup4\n        /* \"#utility.yul\":13386:13404   */\n      add\n        /* \"#utility.yul\":13377:13383   */\n      dup5\n        /* \"#utility.yul\":13333:13405   */\n      tag_175\n      jump\t// in\n    tag_351:\n        /* \"#utility.yul\":12970:13412   */\n      swap5\n      swap4\n      pop\n      pop\n      pop\n      pop\n      jump\t// out\n        /* \"#utility.yul\":13418:13517   */\n    tag_176:\n        /* \"#utility.yul\":13470:13476   */\n      0x00\n        /* \"#utility.yul\":13504:13509   */\n      dup2\n        /* \"#utility.yul\":13498:13510   */\n      mload\n        /* \"#utility.yul\":13488:13510   */\n      swap1\n      pop\n        /* \"#utility.yul\":13418:13517   */\n      swap2\n      swap1\n      pop\n      jump\t// out\n        /* \"#utility.yul\":13523:13830   */\n    tag_177:\n        /* \"#utility.yul\":13591:13592   */\n      0x00\n        /* \"#utility.yul\":13601:13714   */\n    tag_354:\n        /* \"#utility.yul\":13615:13621   */\n      dup4\n        /* \"#utility.yul\":13612:13613   */\n      dup2\n        /* \"#utility.yul\":13609:13622   */\n      lt\n        /* \"#utility.yul\":13601:13714   */\n      iszero\n      tag_356\n      jumpi\n        /* \"#utility.yul\":13700:13701   */\n      dup1\n        /* \"#utility.yul\":13695:13698   */\n      dup3\n        /* \"#utility.yul\":13691:13702   */\n      add\n        /* \"#utility.yul\":13685:13703   */\n      mload\n        /* \"#utility.yul\":13681:13682   */\n      dup2\n        /* \"#utility.yul\":13676:13679   */\n      dup5\n        /* \"#utility.yul\":13672:13683   */\n      add\n        /* \"#utility.yul\":13665:13704   */\n      mstore\n        /* \"#utility.yul\":13637:13639   */\n      0x20\n        /* \"#utility.yul\":13634:13635   */\n      dup2\n        /* \"#utility.yul\":13630:13640   */\n      add\n        /* \"#utility.yul\":13625:13640   */\n      swap1\n      pop\n        /* \"#utility.yul\":13601:13714   */\n      jump(tag_354)\n    tag_356:\n        /* \"#utility.yul\":13732:13738   */\n      dup4\n        /* \"#utility.yul\":13729:13730   */\n      dup2\n        /* \"#utility.yul\":13726:13739   */\n      gt\n        /* \"#utility.yul\":13723:13824   */\n      iszero\n      tag_357\n      jumpi\n        /* \"#utility.yul\":13812:13813   */\n      0x00\n        /* \"#utility.yul\":13803:13809   */\n      dup5\n        /* \"#utility.yul\":13798:13801   */\n      dup5\n        /* \"#utility.yul\":13794:13810   */\n      add\n        /* \"#utility.yul\":13787:13814   */\n      mstore\n        /* \"#utility.yul\":13723:13824   */\n    tag_357:\n        /* \"#utility.yul\":13572:13830   */\n      pop\n        /* \"#utility.yul\":13523:13830   */\n      pop\n      pop\n      pop\n      jump\t// out\n        /* \"#utility.yul\":13836:14200   */\n    tag_178:\n        /* \"#utility.yul\":13924:13927   */\n      0x00\n        /* \"#utility.yul\":13952:13991   */\n      tag_359\n        /* \"#utility.yul\":13985:13990   */\n      dup3\n        /* \"#utility.yul\":13952:13991   */\n      tag_176\n      jump\t// in\n    tag_359:\n        /* \"#utility.yul\":14007:14078   */\n      tag_360\n        /* \"#utility.yul\":14071:14077   */\n      dup2\n        /* \"#utility.yul\":14066:14069   */\n      dup6\n        /* \"#utility.yul\":14007:14078   */\n      tag_172\n      jump\t// in\n    tag_360:\n        /* \"#utility.yul\":14000:14078   */\n      swap4\n      pop\n        /* \"#utility.yul\":14087:14139   */\n      tag_361\n        /* \"#utility.yul\":14132:14138   */\n      dup2\n        /* \"#utility.yul\":14127:14130   */\n      dup6\n        /* \"#utility.yul\":14120:14124   */\n      0x20\n        /* \"#utility.yul\":14113:14118   */\n      dup7\n        /* \"#utility.yul\":14109:14125   */\n      add\n        /* \"#utility.yul\":14087:14139   */\n      tag_177\n      jump\t// in\n    tag_361:\n        /* \"#utility.yul\":14164:14193   */\n      tag_362\n        /* \"#utility.yul\":14186:14192   */\n      dup2\n        /* \"#utility.yul\":14164:14193   */\n      tag_149\n      jump\t// in\n    tag_362:\n        /* \"#utility.yul\":14159:14162   */\n      dup5\n        /* \"#utility.yul\":14155:14194   */\n      add\n        /* \"#utility.yul\":14148:14194   */\n      swap2\n      pop\n        /* \"#utility.yul\":13928:14200   */\n      pop\n        /* \"#utility.yul\":13836:14200   */\n      swap3\n      swap2\n      pop\n      pop\n      jump\t// out\n        /* \"#utility.yul\":14206:14850   */\n    tag_57:\n        /* \"#utility.yul\":14403:14407   */\n      0x00\n        /* \"#utility.yul\":14441:14444   */\n      0x80\n        /* \"#utility.yul\":14430:14439   */\n      dup3\n        /* \"#utility.yul\":14426:14445   */\n      add\n        /* \"#utility.yul\":14418:14445   */\n      swap1\n      pop\n        /* \"#utility.yul\":14455:14526   */\n      tag_364\n        /* \"#utility.yul\":14523:14524   */\n      0x00\n        /* \"#utility.yul\":14512:14521   */\n      dup4\n        /* \"#utility.yul\":14508:14525   */\n      add\n        /* \"#utility.yul\":14499:14505   */\n      dup8\n        /* \"#utility.yul\":14455:14526   */\n      tag_167\n      jump\t// in\n    tag_364:\n        /* \"#utility.yul\":14536:14608   */\n      tag_365\n        /* \"#utility.yul\":14604:14606   */\n      0x20\n        /* \"#utility.yul\":14593:14602   */\n      dup4\n        /* \"#utility.yul\":14589:14607   */\n      add\n        /* \"#utility.yul\":14580:14586   */\n      dup7\n        /* \"#utility.yul\":14536:14608   */\n      tag_167\n      jump\t// in\n    tag_365:\n        /* \"#utility.yul\":14618:14690   */\n      tag_366\n        /* \"#utility.yul\":14686:14688   */\n      0x40\n        /* \"#utility.yul\":14675:14684   */\n      dup4\n        /* \"#utility.yul\":14671:14689   */\n      add\n        /* \"#utility.yul\":14662:14668   */\n      dup6\n        /* \"#utility.yul\":14618:14690   */\n      tag_175\n      jump\t// in\n    tag_366:\n        /* \"#utility.yul\":14737:14746   */\n      dup2\n        /* \"#utility.yul\":14731:14735   */\n      dup2\n        /* \"#utility.yul\":14727:14747   */\n      sub\n        /* \"#utility.yul\":14722:14724   */\n      0x60\n        /* \"#utility.yul\":14711:14720   */\n      dup4\n        /* \"#utility.yul\":14707:14725   */\n      add\n        /* \"#utility.yul\":14700:14748   */\n      mstore\n        /* \"#utility.yul\":14765:14843   */\n      tag_367\n        /* \"#utility.yul\":14838:14842   */\n      dup2\n        /* \"#utility.yul\":14829:14835   */\n      dup5\n        /* \"#utility.yul\":14765:14843   */\n      tag_178\n      jump\t// in\n    tag_367:\n        /* \"#utility.yul\":14757:14843   */\n      swap1\n      pop\n        /* \"#utility.yul\":14206:14850   */\n      swap6\n      swap5\n      pop\n      pop\n      pop\n      pop\n      pop\n      jump\t// out\n        /* \"#utility.yul\":14856:15034   */\n    tag_179:\n        /* \"#utility.yul\":14996:15026   */\n      0x496e76616c69642076616c696461746f72207369676e61747572652e00000000\n        /* \"#utility.yul\":14992:14993   */\n      0x00\n        /* \"#utility.yul\":14984:14990   */\n      dup3\n        /* \"#utility.yul\":14980:14994   */\n      add\n        /* \"#utility.yul\":14973:15027   */\n      mstore\n        /* \"#utility.yul\":14856:15034   */\n      pop\n      jump\t// out\n        /* \"#utility.yul\":15040:15406   */\n    tag_180:\n        /* \"#utility.yul\":15182:15185   */\n      0x00\n        /* \"#utility.yul\":15203:15270   */\n      tag_370\n        /* \"#utility.yul\":15267:15269   */\n      0x1c\n        /* \"#utility.yul\":15262:15265   */\n      dup4\n        /* \"#utility.yul\":15203:15270   */\n      tag_172\n      jump\t// in\n    tag_370:\n        /* \"#utility.yul\":15196:15270   */\n      swap2\n      pop\n        /* \"#utility.yul\":15279:15372   */\n      tag_371\n        /* \"#utility.yul\":15368:15371   */\n      dup3\n        /* \"#utility.yul\":15279:15372   */\n      tag_179\n      jump\t// in\n    tag_371:\n        /* \"#utility.yul\":15397:15399   */\n      0x20\n        /* \"#utility.yul\":15392:15395   */\n      dup3\n        /* \"#utility.yul\":15388:15400   */\n      add\n        /* \"#utility.yul\":15381:15400   */\n      swap1\n      pop\n        /* \"#utility.yul\":15040:15406   */\n      swap2\n      swap1\n      pop\n      jump\t// out\n        /* \"#utility.yul\":15412:15831   */\n    tag_66:\n        /* \"#utility.yul\":15578:15582   */\n      0x00\n        /* \"#utility.yul\":15616:15618   */\n      0x20\n        /* \"#utility.yul\":15605:15614   */\n      dup3\n        /* \"#utility.yul\":15601:15619   */\n      add\n        /* \"#utility.yul\":15593:15619   */\n      swap1\n      pop\n        /* \"#utility.yul\":15665:15674   */\n      dup2\n        /* \"#utility.yul\":15659:15663   */\n      dup2\n        /* \"#utility.yul\":15655:15675   */\n      sub\n        /* \"#utility.yul\":15651:15652   */\n      0x00\n        /* \"#utility.yul\":15640:15649   */\n      dup4\n        /* \"#utility.yul\":15636:15653   */\n      add\n        /* \"#utility.yul\":15629:15676   */\n      mstore\n        /* \"#utility.yul\":15693:15824   */\n      tag_373\n        /* \"#utility.yul\":15819:15823   */\n      dup2\n        /* \"#utility.yul\":15693:15824   */\n      tag_180\n      jump\t// in\n    tag_373:\n        /* \"#utility.yul\":15685:15824   */\n      swap1\n      pop\n        /* \"#utility.yul\":15412:15831   */\n      swap2\n      swap1\n      pop\n      jump\t// out\n        /* \"#utility.yul\":15837:16003   */\n    tag_181:\n        /* \"#utility.yul\":15977:15995   */\n      0x496e76616c696420726563656976657200000000000000000000000000000000\n        /* \"#utility.yul\":15973:15974   */\n      0x00\n        /* \"#utility.yul\":15965:15971   */\n      dup3\n        /* \"#utility.yul\":15961:15975   */\n      add\n        /* \"#utility.yul\":15954:15996   */\n      mstore\n        /* \"#utility.yul\":15837:16003   */\n      pop\n      jump\t// out\n        /* \"#utility.yul\":16009:16375   */\n    tag_182:\n        /* \"#utility.yul\":16151:16154   */\n      0x00\n        /* \"#utility.yul\":16172:16239   */\n      tag_376\n        /* \"#utility.yul\":16236:16238   */\n      0x10\n        /* \"#utility.yul\":16231:16234   */\n      dup4\n        /* \"#utility.yul\":16172:16239   */\n      tag_172\n      jump\t// in\n    tag_376:\n        /* \"#utility.yul\":16165:16239   */\n      swap2\n      pop\n        /* \"#utility.yul\":16248:16341   */\n      tag_377\n        /* \"#utility.yul\":16337:16340   */\n      dup3\n        /* \"#utility.yul\":16248:16341   */\n      tag_181\n      jump\t// in\n    tag_377:\n        /* \"#utility.yul\":16366:16368   */\n      0x20\n        /* \"#utility.yul\":16361:16364   */\n      dup3\n        /* \"#utility.yul\":16357:16369   */\n      add\n        /* \"#utility.yul\":16350:16369   */\n      swap1\n      pop\n        /* \"#utility.yul\":16009:16375   */\n      swap2\n      swap1\n      pop\n      jump\t// out\n        /* \"#utility.yul\":16381:16800   */\n    tag_69:\n        /* \"#utility.yul\":16547:16551   */\n      0x00\n        /* \"#utility.yul\":16585:16587   */\n      0x20\n        /* \"#utility.yul\":16574:16583   */\n      dup3\n        /* \"#utility.yul\":16570:16588   */\n      add\n        /* \"#utility.yul\":16562:16588   */\n      swap1\n      pop\n        /* \"#utility.yul\":16634:16643   */\n      dup2\n        /* \"#utility.yul\":16628:16632   */\n      dup2\n        /* \"#utility.yul\":16624:16644   */\n      sub\n        /* \"#utility.yul\":16620:16621   */\n      0x00\n        /* \"#utility.yul\":16609:16618   */\n      dup4\n        /* \"#utility.yul\":16605:16622   */\n      add\n        /* \"#utility.yul\":16598:16645   */\n      mstore\n        /* \"#utility.yul\":16662:16793   */\n      tag_379\n        /* \"#utility.yul\":16788:16792   */\n      dup2\n        /* \"#utility.yul\":16662:16793   */\n      tag_182\n      jump\t// in\n    tag_379:\n        /* \"#utility.yul\":16654:16793   */\n      swap1\n      pop\n        /* \"#utility.yul\":16381:16800   */\n      swap2\n      swap1\n      pop\n      jump\t// out\n        /* \"#utility.yul\":16806:16973   */\n    tag_183:\n        /* \"#utility.yul\":16946:16965   */\n      0x416c72656164792077697468647261776e000000000000000000000000000000\n        /* \"#utility.yul\":16942:16943   */\n      0x00\n        /* \"#utility.yul\":16934:16940   */\n      dup3\n        /* \"#utility.yul\":16930:16944   */\n      add\n        /* \"#utility.yul\":16923:16966   */\n      mstore\n        /* \"#utility.yul\":16806:16973   */\n      pop\n      jump\t// out\n        /* \"#utility.yul\":16979:17345   */\n    tag_184:\n        /* \"#utility.yul\":17121:17124   */\n      0x00\n        /* \"#utility.yul\":17142:17209   */\n      tag_382\n        /* \"#utility.yul\":17206:17208   */\n      0x11\n        /* \"#utility.yul\":17201:17204   */\n      dup4\n        /* \"#utility.yul\":17142:17209   */\n      tag_172\n      jump\t// in\n    tag_382:\n        /* \"#utility.yul\":17135:17209   */\n      swap2\n      pop\n        /* \"#utility.yul\":17218:17311   */\n      tag_383\n        /* \"#utility.yul\":17307:17310   */\n      dup3\n        /* \"#utility.yul\":17218:17311   */\n      tag_183\n      jump\t// in\n    tag_383:\n        /* \"#utility.yul\":17336:17338   */\n      0x20\n        /* \"#utility.yul\":17331:17334   */\n      dup3\n        /* \"#utility.yul\":17327:17339   */\n      add\n        /* \"#utility.yul\":17320:17339   */\n      swap1\n      pop\n        /* \"#utility.yul\":16979:17345   */\n      swap2\n      swap1\n      pop\n      jump\t// out\n        /* \"#utility.yul\":17351:17770   */\n    tag_72:\n        /* \"#utility.yul\":17517:17521   */\n      0x00\n        /* \"#utility.yul\":17555:17557   */\n      0x20\n        /* \"#utility.yul\":17544:17553   */\n      dup3\n        /* \"#utility.yul\":17540:17558   */\n      add\n        /* \"#utility.yul\":17532:17558   */\n      swap1\n      pop\n        /* \"#utility.yul\":17604:17613   */\n      dup2\n        /* \"#utility.yul\":17598:17602   */\n      dup2\n        /* \"#utility.yul\":17594:17614   */\n      sub\n        /* \"#utility.yul\":17590:17591   */\n      0x00\n        /* \"#utility.yul\":17579:17588   */\n      dup4\n        /* \"#utility.yul\":17575:17592   */\n      add\n        /* \"#utility.yul\":17568:17615   */\n      mstore\n        /* \"#utility.yul\":17632:17763   */\n      tag_385\n        /* \"#utility.yul\":17758:17762   */\n      dup2\n        /* \"#utility.yul\":17632:17763   */\n      tag_184\n      jump\t// in\n    tag_385:\n        /* \"#utility.yul\":17624:17763   */\n      swap1\n      pop\n        /* \"#utility.yul\":17351:17770   */\n      swap2\n      swap1\n      pop\n      jump\t// out\n        /* \"#utility.yul\":17776:17870   */\n    tag_185:\n        /* \"#utility.yul\":17809:17817   */\n      0x00\n        /* \"#utility.yul\":17857:17862   */\n      dup2\n        /* \"#utility.yul\":17853:17855   */\n      0x60\n        /* \"#utility.yul\":17849:17863   */\n      shl\n        /* \"#utility.yul\":17828:17863   */\n      swap1\n      pop\n        /* \"#utility.yul\":17776:17870   */\n      swap2\n      swap1\n      pop\n      jump\t// out\n        /* \"#utility.yul\":17876:17970   */\n    tag_186:\n        /* \"#utility.yul\":17915:17922   */\n      0x00\n        /* \"#utility.yul\":17944:17964   */\n      tag_388\n        /* \"#utility.yul\":17958:17963   */\n      dup3\n        /* \"#utility.yul\":17944:17964   */\n      tag_185\n      jump\t// in\n    tag_388:\n        /* \"#utility.yul\":17933:17964   */\n      swap1\n      pop\n        /* \"#utility.yul\":17876:17970   */\n      swap2\n      swap1\n      pop\n      jump\t// out\n        /* \"#utility.yul\":17976:18076   */\n    tag_187:\n        /* \"#utility.yul\":18015:18022   */\n      0x00\n        /* \"#utility.yul\":18044:18070   */\n      tag_390\n        /* \"#utility.yul\":18064:18069   */\n      dup3\n        /* \"#utility.yul\":18044:18070   */\n      tag_186\n      jump\t// in\n    tag_390:\n        /* \"#utility.yul\":18033:18070   */\n      swap1\n      pop\n        /* \"#utility.yul\":17976:18076   */\n      swap2\n      swap1\n      pop\n      jump\t// out\n        /* \"#utility.yul\":18082:18239   */\n    tag_188:\n        /* \"#utility.yul\":18187:18232   */\n      tag_392\n        /* \"#utility.yul\":18207:18231   */\n      tag_393\n        /* \"#utility.yul\":18225:18230   */\n      dup3\n        /* \"#utility.yul\":18207:18231   */\n      tag_141\n      jump\t// in\n    tag_393:\n        /* \"#utility.yul\":18187:18232   */\n      tag_187\n      jump\t// in\n    tag_392:\n        /* \"#utility.yul\":18182:18185   */\n      dup3\n        /* \"#utility.yul\":18175:18233   */\n      mstore\n        /* \"#utility.yul\":18082:18239   */\n      pop\n      pop\n      jump\t// out\n        /* \"#utility.yul\":18245:18324   */\n    tag_189:\n        /* \"#utility.yul\":18284:18291   */\n      0x00\n        /* \"#utility.yul\":18313:18318   */\n      dup2\n        /* \"#utility.yul\":18302:18318   */\n      swap1\n      pop\n        /* \"#utility.yul\":18245:18324   */\n      swap2\n      swap1\n      pop\n      jump\t// out\n        /* \"#utility.yul\":18330:18487   */\n    tag_190:\n        /* \"#utility.yul\":18435:18480   */\n      tag_396\n        /* \"#utility.yul\":18455:18479   */\n      tag_397\n        /* \"#utility.yul\":18473:18478   */\n      dup3\n        /* \"#utility.yul\":18455:18479   */\n      tag_144\n      jump\t// in\n    tag_397:\n        /* \"#utility.yul\":18435:18480   */\n      tag_189\n      jump\t// in\n    tag_396:\n        /* \"#utility.yul\":18430:18433   */\n      dup3\n        /* \"#utility.yul\":18423:18481   */\n      mstore\n        /* \"#utility.yul\":18330:18487   */\n      pop\n      pop\n      jump\t// out\n        /* \"#utility.yul\":18493:18641   */\n    tag_191:\n        /* \"#utility.yul\":18595:18606   */\n      0x00\n        /* \"#utility.yul\":18632:18635   */\n      dup2\n        /* \"#utility.yul\":18617:18635   */\n      swap1\n      pop\n        /* \"#utility.yul\":18493:18641   */\n      swap3\n      swap2\n      pop\n      pop\n      jump\t// out\n        /* \"#utility.yul\":18647:19024   */\n    tag_192:\n        /* \"#utility.yul\":18753:18756   */\n      0x00\n        /* \"#utility.yul\":18781:18820   */\n      tag_400\n        /* \"#utility.yul\":18814:18819   */\n      dup3\n        /* \"#utility.yul\":18781:18820   */\n      tag_176\n      jump\t// in\n    tag_400:\n        /* \"#utility.yul\":18836:18925   */\n      tag_401\n        /* \"#utility.yul\":18918:18924   */\n      dup2\n        /* \"#utility.yul\":18913:18916   */\n      dup6\n        /* \"#utility.yul\":18836:18925   */\n      tag_191\n      jump\t// in\n    tag_401:\n        /* \"#utility.yul\":18829:18925   */\n      swap4\n      pop\n        /* \"#utility.yul\":18934:18986   */\n      tag_402\n        /* \"#utility.yul\":18979:18985   */\n      dup2\n        /* \"#utility.yul\":18974:18977   */\n      dup6\n        /* \"#utility.yul\":18967:18971   */\n      0x20\n        /* \"#utility.yul\":18960:18965   */\n      dup7\n        /* \"#utility.yul\":18956:18972   */\n      add\n        /* \"#utility.yul\":18934:18986   */\n      tag_177\n      jump\t// in\n    tag_402:\n        /* \"#utility.yul\":19011:19017   */\n      dup1\n        /* \"#utility.yul\":19006:19009   */\n      dup5\n        /* \"#utility.yul\":19002:19018   */\n      add\n        /* \"#utility.yul\":18995:19018   */\n      swap2\n      pop\n        /* \"#utility.yul\":18757:19024   */\n      pop\n        /* \"#utility.yul\":18647:19024   */\n      swap3\n      swap2\n      pop\n      pop\n      jump\t// out\n        /* \"#utility.yul\":19030:19869   */\n    tag_80:\n        /* \"#utility.yul\":19274:19277   */\n      0x00\n        /* \"#utility.yul\":19289:19364   */\n      tag_404\n        /* \"#utility.yul\":19360:19363   */\n      dup3\n        /* \"#utility.yul\":19351:19357   */\n      dup9\n        /* \"#utility.yul\":19289:19364   */\n      tag_188\n      jump\t// in\n    tag_404:\n        /* \"#utility.yul\":19389:19391   */\n      0x14\n        /* \"#utility.yul\":19384:19387   */\n      dup3\n        /* \"#utility.yul\":19380:19392   */\n      add\n        /* \"#utility.yul\":19373:19392   */\n      swap2\n      pop\n        /* \"#utility.yul\":19402:19477   */\n      tag_405\n        /* \"#utility.yul\":19473:19476   */\n      dup3\n        /* \"#utility.yul\":19464:19470   */\n      dup8\n        /* \"#utility.yul\":19402:19477   */\n      tag_188\n      jump\t// in\n    tag_405:\n        /* \"#utility.yul\":19502:19504   */\n      0x14\n        /* \"#utility.yul\":19497:19500   */\n      dup3\n        /* \"#utility.yul\":19493:19505   */\n      add\n        /* \"#utility.yul\":19486:19505   */\n      swap2\n      pop\n        /* \"#utility.yul\":19515:19590   */\n      tag_406\n        /* \"#utility.yul\":19586:19589   */\n      dup3\n        /* \"#utility.yul\":19577:19583   */\n      dup7\n        /* \"#utility.yul\":19515:19590   */\n      tag_190\n      jump\t// in\n    tag_406:\n        /* \"#utility.yul\":19615:19617   */\n      0x20\n        /* \"#utility.yul\":19610:19613   */\n      dup3\n        /* \"#utility.yul\":19606:19618   */\n      add\n        /* \"#utility.yul\":19599:19618   */\n      swap2\n      pop\n        /* \"#utility.yul\":19635:19730   */\n      tag_407\n        /* \"#utility.yul\":19726:19729   */\n      dup3\n        /* \"#utility.yul\":19717:19723   */\n      dup6\n        /* \"#utility.yul\":19635:19730   */\n      tag_192\n      jump\t// in\n    tag_407:\n        /* \"#utility.yul\":19628:19730   */\n      swap2\n      pop\n        /* \"#utility.yul\":19740:19815   */\n      tag_408\n        /* \"#utility.yul\":19811:19814   */\n      dup3\n        /* \"#utility.yul\":19802:19808   */\n      dup5\n        /* \"#utility.yul\":19740:19815   */\n      tag_190\n      jump\t// in\n    tag_408:\n        /* \"#utility.yul\":19840:19842   */\n      0x20\n        /* \"#utility.yul\":19835:19838   */\n      dup3\n        /* \"#utility.yul\":19831:19843   */\n      add\n        /* \"#utility.yul\":19824:19843   */\n      swap2\n      pop\n        /* \"#utility.yul\":19860:19863   */\n      dup2\n        /* \"#utility.yul\":19853:19863   */\n      swap1\n      pop\n        /* \"#utility.yul\":19030:19869   */\n      swap7\n      swap6\n      pop\n      pop\n      pop\n      pop\n      pop\n      pop\n      jump\t// out\n        /* \"#utility.yul\":19875:20089   */\n    tag_193:\n        /* \"#utility.yul\":20015:20081   */\n      0x19457468657265756d205369676e6564204d6573736167653a0a333200000000\n        /* \"#utility.yul\":20011:20012   */\n      0x00\n        /* \"#utility.yul\":20003:20009   */\n      dup3\n        /* \"#utility.yul\":19999:20013   */\n      add\n        /* \"#utility.yul\":19992:20082   */\n      mstore\n        /* \"#utility.yul\":19875:20089   */\n      pop\n      jump\t// out\n        /* \"#utility.yul\":20095:20497   */\n    tag_194:\n        /* \"#utility.yul\":20255:20258   */\n      0x00\n        /* \"#utility.yul\":20276:20361   */\n      tag_411\n        /* \"#utility.yul\":20358:20360   */\n      0x1c\n        /* \"#utility.yul\":20353:20356   */\n      dup4\n        /* \"#utility.yul\":20276:20361   */\n      tag_191\n      jump\t// in\n    tag_411:\n        /* \"#utility.yul\":20269:20361   */\n      swap2\n      pop\n        /* \"#utility.yul\":20370:20463   */\n      tag_412\n        /* \"#utility.yul\":20459:20462   */\n      dup3\n        /* \"#utility.yul\":20370:20463   */\n      tag_193\n      jump\t// in\n    tag_412:\n        /* \"#utility.yul\":20488:20490   */\n      0x1c\n        /* \"#utility.yul\":20483:20486   */\n      dup3\n        /* \"#utility.yul\":20479:20491   */\n      add\n        /* \"#utility.yul\":20472:20491   */\n      swap1\n      pop\n        /* \"#utility.yul\":20095:20497   */\n      swap2\n      swap1\n      pop\n      jump\t// out\n        /* \"#utility.yul\":20503:20582   */\n    tag_195:\n        /* \"#utility.yul\":20542:20549   */\n      0x00\n        /* \"#utility.yul\":20571:20576   */\n      dup2\n        /* \"#utility.yul\":20560:20576   */\n      swap1\n      pop\n        /* \"#utility.yul\":20503:20582   */\n      swap2\n      swap1\n      pop\n      jump\t// out\n        /* \"#utility.yul\":20588:20745   */\n    tag_196:\n        /* \"#utility.yul\":20693:20738   */\n      tag_415\n        /* \"#utility.yul\":20713:20737   */\n      tag_416\n        /* \"#utility.yul\":20731:20736   */\n      dup3\n        /* \"#utility.yul\":20713:20737   */\n      tag_159\n      jump\t// in\n    tag_416:\n        /* \"#utility.yul\":20693:20738   */\n      tag_195\n      jump\t// in\n    tag_415:\n        /* \"#utility.yul\":20688:20691   */\n      dup3\n        /* \"#utility.yul\":20681:20739   */\n      mstore\n        /* \"#utility.yul\":20588:20745   */\n      pop\n      pop\n      jump\t// out\n        /* \"#utility.yul\":20751:21273   */\n    tag_83:\n        /* \"#utility.yul\":20964:20967   */\n      0x00\n        /* \"#utility.yul\":20986:21134   */\n      tag_418\n        /* \"#utility.yul\":21130:21133   */\n      dup3\n        /* \"#utility.yul\":20986:21134   */\n      tag_194\n      jump\t// in\n    tag_418:\n        /* \"#utility.yul\":20979:21134   */\n      swap2\n      pop\n        /* \"#utility.yul\":21144:21219   */\n      tag_419\n        /* \"#utility.yul\":21215:21218   */\n      dup3\n        /* \"#utility.yul\":21206:21212   */\n      dup5\n        /* \"#utility.yul\":21144:21219   */\n      tag_196\n      jump\t// in\n    tag_419:\n        /* \"#utility.yul\":21244:21246   */\n      0x20\n        /* \"#utility.yul\":21239:21242   */\n      dup3\n        /* \"#utility.yul\":21235:21247   */\n      add\n        /* \"#utility.yul\":21228:21247   */\n      swap2\n      pop\n        /* \"#utility.yul\":21264:21267   */\n      dup2\n        /* \"#utility.yul\":21257:21267   */\n      swap1\n      pop\n        /* \"#utility.yul\":20751:21273   */\n      swap3\n      swap2\n      pop\n      pop\n      jump\t// out\n        /* \"#utility.yul\":21279:21391   */\n    tag_197:\n        /* \"#utility.yul\":21362:21384   */\n      tag_421\n        /* \"#utility.yul\":21378:21383   */\n      dup2\n        /* \"#utility.yul\":21362:21384   */\n      tag_168\n      jump\t// in\n    tag_421:\n        /* \"#utility.yul\":21357:21360   */\n      dup3\n        /* \"#utility.yul\":21350:21385   */\n      mstore\n        /* \"#utility.yul\":21279:21391   */\n      pop\n      pop\n      jump\t// out\n        /* \"#utility.yul\":21397:21942   */\n    tag_94:\n        /* \"#utility.yul\":21570:21574   */\n      0x00\n        /* \"#utility.yul\":21608:21611   */\n      0x80\n        /* \"#utility.yul\":21597:21606   */\n      dup3\n        /* \"#utility.yul\":21593:21612   */\n      add\n        /* \"#utility.yul\":21585:21612   */\n      swap1\n      pop\n        /* \"#utility.yul\":21622:21693   */\n      tag_423\n        /* \"#utility.yul\":21690:21691   */\n      0x00\n        /* \"#utility.yul\":21679:21688   */\n      dup4\n        /* \"#utility.yul\":21675:21692   */\n      add\n        /* \"#utility.yul\":21666:21672   */\n      dup8\n        /* \"#utility.yul\":21622:21693   */\n      tag_171\n      jump\t// in\n    tag_423:\n        /* \"#utility.yul\":21703:21771   */\n      tag_424\n        /* \"#utility.yul\":21767:21769   */\n      0x20\n        /* \"#utility.yul\":21756:21765   */\n      dup4\n        /* \"#utility.yul\":21752:21770   */\n      add\n        /* \"#utility.yul\":21743:21749   */\n      dup7\n        /* \"#utility.yul\":21703:21771   */\n      tag_197\n      jump\t// in\n    tag_424:\n        /* \"#utility.yul\":21781:21853   */\n      tag_425\n        /* \"#utility.yul\":21849:21851   */\n      0x40\n        /* \"#utility.yul\":21838:21847   */\n      dup4\n        /* \"#utility.yul\":21834:21852   */\n      add\n        /* \"#utility.yul\":21825:21831   */\n      dup6\n        /* \"#utility.yul\":21781:21853   */\n      tag_171\n      jump\t// in\n    tag_425:\n        /* \"#utility.yul\":21863:21935   */\n      tag_426\n        /* \"#utility.yul\":21931:21933   */\n      0x60\n        /* \"#utility.yul\":21920:21929   */\n      dup4\n        /* \"#utility.yul\":21916:21934   */\n      add\n        /* \"#utility.yul\":21907:21913   */\n      dup5\n        /* \"#utility.yul\":21863:21935   */\n      tag_171\n      jump\t// in\n    tag_426:\n        /* \"#utility.yul\":21397:21942   */\n      swap6\n      swap5\n      pop\n      pop\n      pop\n      pop\n      pop\n      jump\t// out\n        /* \"#utility.yul\":21948:22128   */\n    tag_101:\n        /* \"#utility.yul\":21996:22073   */\n      0x4e487b7100000000000000000000000000000000000000000000000000000000\n        /* \"#utility.yul\":21993:21994   */\n      0x00\n        /* \"#utility.yul\":21986:22074   */\n      mstore\n        /* \"#utility.yul\":22093:22097   */\n      0x21\n        /* \"#utility.yul\":22090:22091   */\n      0x04\n        /* \"#utility.yul\":22083:22098   */\n      mstore\n        /* \"#utility.yul\":22117:22121   */\n      0x24\n        /* \"#utility.yul\":22114:22115   */\n      0x00\n        /* \"#utility.yul\":22107:22122   */\n      revert\n        /* \"#utility.yul\":22134:22308   */\n    tag_198:\n        /* \"#utility.yul\":22274:22300   */\n      0x45434453413a20696e76616c6964207369676e61747572650000000000000000\n        /* \"#utility.yul\":22270:22271   */\n      0x00\n        /* \"#utility.yul\":22262:22268   */\n      dup3\n        /* \"#utility.yul\":22258:22272   */\n      add\n        /* \"#utility.yul\":22251:22301   */\n      mstore\n        /* \"#utility.yul\":22134:22308   */\n      pop\n      jump\t// out\n        /* \"#utility.yul\":22314:22680   */\n    tag_199:\n        /* \"#utility.yul\":22456:22459   */\n      0x00\n        /* \"#utility.yul\":22477:22544   */\n      tag_430\n        /* \"#utility.yul\":22541:22543   */\n      0x18\n        /* \"#utility.yul\":22536:22539   */\n      dup4\n        /* \"#utility.yul\":22477:22544   */\n      tag_172\n      jump\t// in\n    tag_430:\n        /* \"#utility.yul\":22470:22544   */\n      swap2\n      pop\n        /* \"#utility.yul\":22553:22646   */\n      tag_431\n        /* \"#utility.yul\":22642:22645   */\n      dup3\n        /* \"#utility.yul\":22553:22646   */\n      tag_198\n      jump\t// in\n    tag_431:\n        /* \"#utility.yul\":22671:22673   */\n      0x20\n        /* \"#utility.yul\":22666:22669   */\n      dup3\n        /* \"#utility.yul\":22662:22674   */\n      add\n        /* \"#utility.yul\":22655:22674   */\n      swap1\n      pop\n        /* \"#utility.yul\":22314:22680   */\n      swap2\n      swap1\n      pop\n      jump\t// out\n        /* \"#utility.yul\":22686:23105   */\n    tag_112:\n        /* \"#utility.yul\":22852:22856   */\n      0x00\n        /* \"#utility.yul\":22890:22892   */\n      0x20\n        /* \"#utility.yul\":22879:22888   */\n      dup3\n        /* \"#utility.yul\":22875:22893   */\n      add\n        /* \"#utility.yul\":22867:22893   */\n      swap1\n      pop\n        /* \"#utility.yul\":22939:22948   */\n      dup2\n        /* \"#utility.yul\":22933:22937   */\n      dup2\n        /* \"#utility.yul\":22929:22949   */\n      sub\n        /* \"#utility.yul\":22925:22926   */\n      0x00\n        /* \"#utility.yul\":22914:22923   */\n      dup4\n        /* \"#utility.yul\":22910:22927   */\n      add\n        /* \"#utility.yul\":22903:22950   */\n      mstore\n        /* \"#utility.yul\":22967:23098   */\n      tag_433\n        /* \"#utility.yul\":23093:23097   */\n      dup2\n        /* \"#utility.yul\":22967:23098   */\n      tag_199\n      jump\t// in\n    tag_433:\n        /* \"#utility.yul\":22959:23098   */\n      swap1\n      pop\n        /* \"#utility.yul\":22686:23105   */\n      swap2\n      swap1\n      pop\n      jump\t// out\n        /* \"#utility.yul\":23111:23292   */\n    tag_200:\n        /* \"#utility.yul\":23251:23284   */\n      0x45434453413a20696e76616c6964207369676e6174757265206c656e67746800\n        /* \"#utility.yul\":23247:23248   */\n      0x00\n        /* \"#utility.yul\":23239:23245   */\n      dup3\n        /* \"#utility.yul\":23235:23249   */\n      add\n        /* \"#utility.yul\":23228:23285   */\n      mstore\n        /* \"#utility.yul\":23111:23292   */\n      pop\n      jump\t// out\n        /* \"#utility.yul\":23298:23664   */\n    tag_201:\n        /* \"#utility.yul\":23440:23443   */\n      0x00\n        /* \"#utility.yul\":23461:23528   */\n      tag_436\n        /* \"#utility.yul\":23525:23527   */\n      0x1f\n        /* \"#utility.yul\":23520:23523   */\n      dup4\n        /* \"#utility.yul\":23461:23528   */\n      tag_172\n      jump\t// in\n    tag_436:\n        /* \"#utility.yul\":23454:23528   */\n      swap2\n      pop\n        /* \"#utility.yul\":23537:23630   */\n      tag_437\n        /* \"#utility.yul\":23626:23629   */\n      dup3\n        /* \"#utility.yul\":23537:23630   */\n      tag_200\n      jump\t// in\n    tag_437:\n        /* \"#utility.yul\":23655:23657   */\n      0x20\n        /* \"#utility.yul\":23650:23653   */\n      dup3\n        /* \"#utility.yul\":23646:23658   */\n      add\n        /* \"#utility.yul\":23639:23658   */\n      swap1\n      pop\n        /* \"#utility.yul\":23298:23664   */\n      swap2\n      swap1\n      pop\n      jump\t// out\n        /* \"#utility.yul\":23670:24089   */\n    tag_120:\n        /* \"#utility.yul\":23836:23840   */\n      0x00\n        /* \"#utility.yul\":23874:23876   */\n      0x20\n        /* \"#utility.yul\":23863:23872   */\n      dup3\n        /* \"#utility.yul\":23859:23877   */\n      add\n        /* \"#utility.yul\":23851:23877   */\n      swap1\n      pop\n        /* \"#utility.yul\":23923:23932   */\n      dup2\n        /* \"#utility.yul\":23917:23921   */\n      dup2\n        /* \"#utility.yul\":23913:23933   */\n      sub\n        /* \"#utility.yul\":23909:23910   */\n      0x00\n        /* \"#utility.yul\":23898:23907   */\n      dup4\n        /* \"#utility.yul\":23894:23911   */\n      add\n        /* \"#utility.yul\":23887:23934   */\n      mstore\n        /* \"#utility.yul\":23951:24082   */\n      tag_439\n        /* \"#utility.yul\":24077:24081   */\n      dup2\n        /* \"#utility.yul\":23951:24082   */\n      tag_201\n      jump\t// in\n    tag_439:\n        /* \"#utility.yul\":23943:24082   */\n      swap1\n      pop\n        /* \"#utility.yul\":23670:24089   */\n      swap2\n      swap1\n      pop\n      jump\t// out\n        /* \"#utility.yul\":24095:24316   */\n    tag_202:\n        /* \"#utility.yul\":24235:24269   */\n      0x45434453413a20696e76616c6964207369676e6174757265202773272076616c\n        /* \"#utility.yul\":24231:24232   */\n      0x00\n        /* \"#utility.yul\":24223:24229   */\n      dup3\n        /* \"#utility.yul\":24219:24233   */\n      add\n        /* \"#utility.yul\":24212:24270   */\n      mstore\n        /* \"#utility.yul\":24304:24308   */\n      0x7565000000000000000000000000000000000000000000000000000000000000\n        /* \"#utility.yul\":24299:24301   */\n      0x20\n        /* \"#utility.yul\":24291:24297   */\n      dup3\n        /* \"#utility.yul\":24287:24302   */\n      add\n        /* \"#utility.yul\":24280:24309   */\n      mstore\n        /* \"#utility.yul\":24095:24316   */\n      pop\n      jump\t// out\n        /* \"#utility.yul\":24322:24688   */\n    tag_203:\n        /* \"#utility.yul\":24464:24467   */\n      0x00\n        /* \"#utility.yul\":24485:24552   */\n      tag_442\n        /* \"#utility.yul\":24549:24551   */\n      0x22\n        /* \"#utility.yul\":24544:24547   */\n      dup4\n        /* \"#utility.yul\":24485:24552   */\n      tag_172\n      jump\t// in\n    tag_442:\n        /* \"#utility.yul\":24478:24552   */\n      swap2\n      pop\n        /* \"#utility.yul\":24561:24654   */\n      tag_443\n        /* \"#utility.yul\":24650:24653   */\n      dup3\n        /* \"#utility.yul\":24561:24654   */\n      tag_202\n      jump\t// in\n    tag_443:\n        /* \"#utility.yul\":24679:24681   */\n      0x40\n        /* \"#utility.yul\":24674:24677   */\n      dup3\n        /* \"#utility.yul\":24670:24682   */\n      add\n        /* \"#utility.yul\":24663:24682   */\n      swap1\n      pop\n        /* \"#utility.yul\":24322:24688   */\n      swap2\n      swap1\n      pop\n      jump\t// out\n        /* \"#utility.yul\":24694:25113   */\n    tag_128:\n        /* \"#utility.yul\":24860:24864   */\n      0x00\n        /* \"#utility.yul\":24898:24900   */\n      0x20\n        /* \"#utility.yul\":24887:24896   */\n      dup3\n        /* \"#utility.yul\":24883:24901   */\n      add\n        /* \"#utility.yul\":24875:24901   */\n      swap1\n      pop\n        /* \"#utility.yul\":24947:24956   */\n      dup2\n        /* \"#utility.yul\":24941:24945   */\n      dup2\n        /* \"#utility.yul\":24937:24957   */\n      sub\n        /* \"#utility.yul\":24933:24934   */\n      0x00\n        /* \"#utility.yul\":24922:24931   */\n      dup4\n        /* \"#utility.yul\":24918:24935   */\n      add\n        /* \"#utility.yul\":24911:24958   */\n      mstore\n        /* \"#utility.yul\":24975:25106   */\n      tag_445\n        /* \"#utility.yul\":25101:25105   */\n      dup2\n        /* \"#utility.yul\":24975:25106   */\n      tag_203\n      jump\t// in\n    tag_445:\n        /* \"#utility.yul\":24967:25106   */\n      swap1\n      pop\n        /* \"#utility.yul\":24694:25113   */\n      swap2\n      swap1\n      pop\n      jump\t// out\n        /* \"#utility.yul\":25119:25340   */\n    tag_204:\n        /* \"#utility.yul\":25259:25293   */\n      0x45434453413a20696e76616c6964207369676e6174757265202776272076616c\n        /* \"#utility.yul\":25255:25256   */\n      0x00\n        /* \"#utility.yul\":25247:25253   */\n      dup3\n        /* \"#utility.yul\":25243:25257   */\n      add\n        /* \"#utility.yul\":25236:25294   */\n      mstore\n        /* \"#utility.yul\":25328:25332   */\n      0x7565000000000000000000000000000000000000000000000000000000000000\n        /* \"#utility.yul\":25323:25325   */\n      0x20\n        /* \"#utility.yul\":25315:25321   */\n      dup3\n        /* \"#utility.yul\":25311:25326   */\n      add\n        /* \"#utility.yul\":25304:25333   */\n      mstore\n        /* \"#utility.yul\":25119:25340   */\n      pop\n      jump\t// out\n        /* \"#utility.yul\":25346:25712   */\n    tag_205:\n        /* \"#utility.yul\":25488:25491   */\n      0x00\n        /* \"#utility.yul\":25509:25576   */\n      tag_448\n        /* \"#utility.yul\":25573:25575   */\n      0x22\n        /* \"#utility.yul\":25568:25571   */\n      dup4\n        /* \"#utility.yul\":25509:25576   */\n      tag_172\n      jump\t// in\n    tag_448:\n        /* \"#utility.yul\":25502:25576   */\n      swap2\n      pop\n        /* \"#utility.yul\":25585:25678   */\n      tag_449\n        /* \"#utility.yul\":25674:25677   */\n      dup3\n        /* \"#utility.yul\":25585:25678   */\n      tag_204\n      jump\t// in\n    tag_449:\n        /* \"#utility.yul\":25703:25705   */\n      0x40\n        /* \"#utility.yul\":25698:25701   */\n      dup3\n        /* \"#utility.yul\":25694:25706   */\n      add\n        /* \"#utility.yul\":25687:25706   */\n      swap1\n      pop\n        /* \"#utility.yul\":25346:25712   */\n      swap2\n      swap1\n      pop\n      jump\t// out\n        /* \"#utility.yul\":25718:26137   */\n    tag_136:\n        /* \"#utility.yul\":25884:25888   */\n      0x00\n        /* \"#utility.yul\":25922:25924   */\n      0x20\n        /* \"#utility.yul\":25911:25920   */\n      dup3\n        /* \"#utility.yul\":25907:25925   */\n      add\n        /* \"#utility.yul\":25899:25925   */\n      swap1\n      pop\n        /* \"#utility.yul\":25971:25980   */\n      dup2\n        /* \"#utility.yul\":25965:25969   */\n      dup2\n        /* \"#utility.yul\":25961:25981   */\n      sub\n        /* \"#utility.yul\":25957:25958   */\n      0x00\n        /* \"#utility.yul\":25946:25955   */\n      dup4\n        /* \"#utility.yul\":25942:25959   */\n      add\n        /* \"#utility.yul\":25935:25982   */\n      mstore\n        /* \"#utility.yul\":25999:26130   */\n      tag_451\n        /* \"#utility.yul\":26125:26129   */\n      dup2\n        /* \"#utility.yul\":25999:26130   */\n      tag_205\n      jump\t// in\n    tag_451:\n        /* \"#utility.yul\":25991:26130   */\n      swap1\n      pop\n        /* \"#utility.yul\":25718:26137   */\n      swap2\n      swap1\n      pop\n      jump\t// out\n\n    auxdata: 0xa2646970667358221220fdd9c63e552dad0839f7c9d737e2896f2d08a97e3d6ff9a6ba0bc438376d871b64736f6c634300080d0033\n}\n","bytecode":{"linkReferences":{},"object":"60806040523480156200001157600080fd5b50604051620018ee380380620018ee83398181016040528101906200003791906200015a565b600073ffffffffffffffffffffffffffffffffffffffff168173ffffffffffffffffffffffffffffffffffffffff1603620000a9576040517f08c379a0000000000000000000000000000000000000000000000000000000008152600401620000a090620001ed565b60405180910390fd5b806000806101000a81548173ffffffffffffffffffffffffffffffffffffffff021916908373ffffffffffffffffffffffffffffffffffffffff160217905550506200020f565b600080fd5b600073ffffffffffffffffffffffffffffffffffffffff82169050919050565b60006200012282620000f5565b9050919050565b620001348162000115565b81146200014057600080fd5b50565b600081519050620001548162000129565b92915050565b600060208284031215620001735762000172620000f0565b5b6000620001838482850162000143565b91505092915050565b600082825260208201905092915050565b7f496e76616c69642076616c696461746f72206164647265737300000000000000600082015250565b6000620001d56019836200018c565b9150620001e2826200019d565b602082019050919050565b600060208201905081810360008301526200020881620001c6565b9050919050565b6116cf806200021f6000396000f3fe608060405234801561001057600080fd5b506004361061007d5760003560e01c80633a5381b51161005b5780633a5381b5146100fe57806352d5e7991461011c578063f76d9d341461014c578063fccc8978146101685761007d565b8063150b7a02146100825780631f36edcd146100b25780632762c75a146100e2575b600080fd5b61009c60048036038101906100979190610b31565b610198565b6040516100a99190610bef565b60405180910390f35b6100cc60048036038101906100c79190610c40565b6101ac565b6040516100d99190610c88565b60405180910390f35b6100fc60048036038101906100f79190610d44565b6101cc565b005b610106610322565b6040516101139190610dd6565b60405180910390f35b61013660048036038101906101319190610c40565b610346565b6040516101439190610c88565b60405180910390f35b61016660048036038101906101619190610e2a565b610366565b005b610182600480360381019061017d9190610efc565b6105cf565b60405161018f9190610fa2565b60405180910390f35b600063150b7a0260e01b9050949350505050565b60016020528060005260406000206000915054906101000a900460ff1681565b60006101db33868686866105cf565b90506001600082815260200190815260200160002060009054906101000a900460ff161561023e576040517f08c379a00000000000000000000000000000000000000000000000000000000081526004016102359061101a565b60405180910390fd5b600180600083815260200190815260200160002060006101000a81548160ff02191690831515021790555060008590508073ffffffffffffffffffffffffffffffffffffffff166323b872dd3330886040518463ffffffff1660e01b81526004016102ab93929190611049565b600060405180830381600087803b1580156102c557600080fd5b505af11580156102d9573d6000803e3d6000fd5b505050507f534b566e715955349c8aa6c19c88ebca14175a2337cba8e1f378d23ac0015adf3387878760405161031294939291906110f7565b60405180910390a1505050505050565b60008054906101000a900473ffffffffffffffffffffffffffffffffffffffff1681565b60026020528060005260406000206000915054906101000a900460ff1681565b600061037589898989896105cf565b9050600061038d61038583610610565b868686610640565b905060008054906101000a900473ffffffffffffffffffffffffffffffffffffffff1673ffffffffffffffffffffffffffffffffffffffff168173ffffffffffffffffffffffffffffffffffffffff161461041d576040517f08c379a00000000000000000000000000000000000000000000000000000000081526004016104149061118f565b60405180910390fd5b600115156001600084815260200190815260200160002060009054906101000a900460ff16151514610484576040517f08c379a000000000000000000000000000000000000000000000000000000000815260040161047b906111fb565b60405180910390fd5b6002600083815260200190815260200160002060009054906101000a900460ff16156104e5576040517f08c379a00000000000000000000000000000000000000000000000000000000081526004016104dc90611267565b60405180910390fd5b60016002600084815260200190815260200160002060006101000a81548160ff02191690831515021790555060008990508073ffffffffffffffffffffffffffffffffffffffff166342842e0e308d8c6040518463ffffffff1660e01b815260040161055393929190611049565b600060405180830381600087803b15801561056d57600080fd5b505af1158015610581573d6000803e3d6000fd5b505050507f94eaf86d28baaa735aa1a5e0e062fba702f5d8e2b72d8c93f38bf45efb6c10518b8b8b8b6040516105ba94939291906110f7565b60405180910390a15050505050505050505050565b60008086868686866040516020016105eb95949392919061132c565b6040516020818303038152906040528051906020012090508091505095945050505050565b60008160405160200161062391906113f4565b604051602081830303815290604052805190602001209050919050565b60008060006106518787878761066b565b9150915061065e81610777565b8192505050949350505050565b6000807f7fffffffffffffffffffffffffffffff5d576e7357a4501ddfe92f46681b20a08360001c11156106a657600060039150915061076e565b601b8560ff16141580156106be5750601c8560ff1614155b156106d057600060049150915061076e565b6000600187878787604051600081526020016040526040516106f59493929190611429565b6020604051602081039080840390855afa158015610717573d6000803e3d6000fd5b505050602060405103519050600073ffffffffffffffffffffffffffffffffffffffff168173ffffffffffffffffffffffffffffffffffffffff16036107655760006001925092505061076e565b80600092509250505b94509492505050565b6000600481111561078b5761078a61146e565b5b81600481111561079e5761079d61146e565b5b031561094057600160048111156107b8576107b761146e565b5b8160048111156107cb576107ca61146e565b5b0361080b576040517f08c379a0000000000000000000000000000000000000000000000000000000008152600401610802906114e9565b60405180910390fd5b6002600481111561081f5761081e61146e565b5b8160048111156108325761083161146e565b5b03610872576040517f08c379a000000000000000000000000000000000000000000000000000000000815260040161086990611555565b60405180910390fd5b600360048111156108865761088561146e565b5b8160048111156108995761089861146e565b5b036108d9576040517f08c379a00000000000000000000000000000000000000000000000000000000081526004016108d0906115e7565b60405180910390fd5b6004808111156108ec576108eb61146e565b5b8160048111156108ff576108fe61146e565b5b0361093f576040517f08c379a000000000000000000000000000000000000000000000000000000000815260040161093690611679565b60405180910390fd5b5b50565b6000604051905090565b600080fd5b600080fd5b600073ffffffffffffffffffffffffffffffffffffffff82169050919050565b600061098282610957565b9050919050565b61099281610977565b811461099d57600080fd5b50565b6000813590506109af81610989565b92915050565b6000819050919050565b6109c8816109b5565b81146109d357600080fd5b50565b6000813590506109e5816109bf565b92915050565b600080fd5b600080fd5b6000601f19601f8301169050919050565b7f4e487b7100000000000000000000000000000000000000000000000000000000600052604160045260246000fd5b610a3e826109f5565b810181811067ffffffffffffffff82111715610a5d57610a5c610a06565b5b80604052505050565b6000610a70610943565b9050610a7c8282610a35565b919050565b600067ffffffffffffffff821115610a9c57610a9b610a06565b5b610aa5826109f5565b9050602081019050919050565b82818337600083830152505050565b6000610ad4610acf84610a81565b610a66565b905082815260208101848484011115610af057610aef6109f0565b5b610afb848285610ab2565b509392505050565b600082601f830112610b1857610b176109eb565b5b8135610b28848260208601610ac1565b91505092915050565b60008060008060808587031215610b4b57610b4a61094d565b5b6000610b59878288016109a0565b9450506020610b6a878288016109a0565b9350506040610b7b878288016109d6565b925050606085013567ffffffffffffffff811115610b9c57610b9b610952565b5b610ba887828801610b03565b91505092959194509250565b60007fffffffff0000000000000000000000000000000000000000000000000000000082169050919050565b610be981610bb4565b82525050565b6000602082019050610c046000830184610be0565b92915050565b6000819050919050565b610c1d81610c0a565b8114610c2857600080fd5b50565b600081359050610c3a81610c14565b92915050565b600060208284031215610c5657610c5561094d565b5b6000610c6484828501610c2b565b91505092915050565b60008115159050919050565b610c8281610c6d565b82525050565b6000602082019050610c9d6000830184610c79565b92915050565b600067ffffffffffffffff821115610cbe57610cbd610a06565b5b610cc7826109f5565b9050602081019050919050565b6000610ce7610ce284610ca3565b610a66565b905082815260208101848484011115610d0357610d026109f0565b5b610d0e848285610ab2565b509392505050565b600082601f830112610d2b57610d2a6109eb565b5b8135610d3b848260208601610cd4565b91505092915050565b60008060008060808587031215610d5e57610d5d61094d565b5b6000610d6c878288016109a0565b9450506020610d7d878288016109d6565b935050604085013567ffffffffffffffff811115610d9e57610d9d610952565b5b610daa87828801610d16565b9250506060610dbb878288016109d6565b91505092959194509250565b610dd081610977565b82525050565b6000602082019050610deb6000830184610dc7565b92915050565b600060ff82169050919050565b610e0781610df1565b8114610e1257600080fd5b50565b600081359050610e2481610dfe565b92915050565b600080600080600080600080610100898b031215610e4b57610e4a61094d565b5b6000610e598b828c016109a0565b9850506020610e6a8b828c016109a0565b9750506040610e7b8b828c016109d6565b965050606089013567ffffffffffffffff811115610e9c57610e9b610952565b5b610ea88b828c01610d16565b9550506080610eb98b828c016109d6565b94505060a0610eca8b828c01610e15565b93505060c0610edb8b828c01610c2b565b92505060e0610eec8b828c01610c2b565b9150509295985092959890939650565b600080600080600060a08688031215610f1857610f1761094d565b5b6000610f26888289016109a0565b9550506020610f37888289016109a0565b9450506040610f48888289016109d6565b935050606086013567ffffffffffffffff811115610f6957610f68610952565b5b610f7588828901610d16565b9250506080610f86888289016109d6565b9150509295509295909350565b610f9c81610c0a565b82525050565b6000602082019050610fb76000830184610f93565b92915050565b600082825260208201905092915050565b7f4475706c69636174652068617368000000000000000000000000000000000000600082015250565b6000611004600e83610fbd565b915061100f82610fce565b602082019050919050565b6000602082019050818103600083015261103381610ff7565b9050919050565b611043816109b5565b82525050565b600060608201905061105e6000830186610dc7565b61106b6020830185610dc7565b611078604083018461103a565b949350505050565b600081519050919050565b60005b838110156110a957808201518184015260208101905061108e565b838111156110b8576000848401525b50505050565b60006110c982611080565b6110d38185610fbd565b93506110e381856020860161108b565b6110ec816109f5565b840191505092915050565b600060808201905061110c6000830187610dc7565b6111196020830186610dc7565b611126604083018561103a565b818103606083015261113881846110be565b905095945050505050565b7f496e76616c69642076616c696461746f72207369676e61747572652e00000000600082015250565b6000611179601c83610fbd565b915061118482611143565b602082019050919050565b600060208201905081810360008301526111a88161116c565b9050919050565b7f496e76616c696420726563656976657200000000000000000000000000000000600082015250565b60006111e5601083610fbd565b91506111f0826111af565b602082019050919050565b60006020820190508181036000830152611214816111d8565b9050919050565b7f416c72656164792077697468647261776e000000000000000000000000000000600082015250565b6000611251601183610fbd565b915061125c8261121b565b602082019050919050565b6000602082019050818103600083015261128081611244565b9050919050565b60008160601b9050919050565b600061129f82611287565b9050919050565b60006112b182611294565b9050919050565b6112c96112c482610977565b6112a6565b82525050565b6000819050919050565b6112ea6112e5826109b5565b6112cf565b82525050565b600081905092915050565b600061130682611080565b61131081856112f0565b935061132081856020860161108b565b80840191505092915050565b600061133882886112b8565b60148201915061134882876112b8565b60148201915061135882866112d9565b60208201915061136882856112fb565b915061137482846112d9565b6020820191508190509695505050505050565b7f19457468657265756d205369676e6564204d6573736167653a0a333200000000600082015250565b60006113bd601c836112f0565b91506113c882611387565b601c82019050919050565b6000819050919050565b6113ee6113e982610c0a565b6113d3565b82525050565b60006113ff826113b0565b915061140b82846113dd565b60208201915081905092915050565b61142381610df1565b82525050565b600060808201905061143e6000830187610f93565b61144b602083018661141a565b6114586040830185610f93565b6114656060830184610f93565b95945050505050565b7f4e487b7100000000000000000000000000000000000000000000000000000000600052602160045260246000fd5b7f45434453413a20696e76616c6964207369676e61747572650000000000000000600082015250565b60006114d3601883610fbd565b91506114de8261149d565b602082019050919050565b60006020820190508181036000830152611502816114c6565b9050919050565b7f45434453413a20696e76616c6964207369676e6174757265206c656e67746800600082015250565b600061153f601f83610fbd565b915061154a82611509565b602082019050919050565b6000602082019050818103600083015261156e81611532565b9050919050565b7f45434453413a20696e76616c6964207369676e6174757265202773272076616c60008201527f7565000000000000000000000000000000000000000000000000000000000000602082015250565b60006115d1602283610fbd565b91506115dc82611575565b604082019050919050565b60006020820190508181036000830152611600816115c4565b9050919050565b7f45434453413a20696e76616c6964207369676e6174757265202776272076616c60008201527f7565000000000000000000000000000000000000000000000000000000000000602082015250565b6000611663602283610fbd565b915061166e82611607565b604082019050919050565b6000602082019050818103600083015261169281611656565b905091905056fea2646970667358221220fdd9c63e552dad0839f7c9d737e2896f2d08a97e3d6ff9a6ba0bc438376d871b64736f6c634300080d0033","opcodes":"PUSH1 0x80 PUSH1 0x40 MSTORE CALLVALUE DUP1 ISZERO PUSH3 0x11 JUMPI PUSH1 0x0 DUP1 REVERT JUMPDEST POP PUSH1 0x40 MLOAD PUSH3 0x18EE CODESIZE SUB DUP1 PUSH3 0x18EE DUP4 CODECOPY DUP2 DUP2 ADD PUSH1 0x40 MSTORE DUP2 ADD SWAP1 PUSH3 0x37 SWAP2 SWAP1 PUSH3 0x15A JUMP JUMPDEST PUSH1 0x0 PUSH20 0xFFFFFFFFFFFFFFFFFFFFFFFFFFFFFFFFFFFFFFFF AND DUP2 PUSH20 0xFFFFFFFFFFFFFFFFFFFFFFFFFFFFFFFFFFFFFFFF AND SUB PUSH3 0xA9 JUMPI PUSH1 0x40 MLOAD PUSH32 0x8C379A000000000000000000000000000000000000000000000000000000000 DUP2 MSTORE PUSH1 0x4 ADD PUSH3 0xA0 SWAP1 PUSH3 0x1ED JUMP JUMPDEST PUSH1 0x40 MLOAD DUP1 SWAP2 SUB SWAP1 REVERT JUMPDEST DUP1 PUSH1 0x0 DUP1 PUSH2 0x100 EXP DUP2 SLOAD DUP2 PUSH20 0xFFFFFFFFFFFFFFFFFFFFFFFFFFFFFFFFFFFFFFFF MUL NOT AND SWAP1 DUP4 PUSH20 0xFFFFFFFFFFFFFFFFFFFFFFFFFFFFFFFFFFFFFFFF AND MUL OR SWAP1 SSTORE POP POP PUSH3 0x20F JUMP JUMPDEST PUSH1 0x0 DUP1 REVERT JUMPDEST PUSH1 0x0 PUSH20 0xFFFFFFFFFFFFFFFFFFFFFFFFFFFFFFFFFFFFFFFF DUP3 AND SWAP1 POP SWAP2 SWAP1 POP JUMP JUMPDEST PUSH1 0x0 PUSH3 0x122 DUP3 PUSH3 0xF5 JUMP JUMPDEST SWAP1 POP SWAP2 SWAP1 POP JUMP JUMPDEST PUSH3 0x134 DUP2 PUSH3 0x115 JUMP JUMPDEST DUP2 EQ PUSH3 0x140 JUMPI PUSH1 0x0 DUP1 REVERT JUMPDEST POP JUMP JUMPDEST PUSH1 0x0 DUP2 MLOAD SWAP1 POP PUSH3 0x154 DUP2 PUSH3 0x129 JUMP JUMPDEST SWAP3 SWAP2 POP POP JUMP JUMPDEST PUSH1 0x0 PUSH1 0x20 DUP3 DUP5 SUB SLT ISZERO PUSH3 0x173 JUMPI PUSH3 0x172 PUSH3 0xF0 JUMP JUMPDEST JUMPDEST PUSH1 0x0 PUSH3 0x183 DUP5 DUP3 DUP6 ADD PUSH3 0x143 JUMP JUMPDEST SWAP2 POP POP SWAP3 SWAP2 POP POP JUMP JUMPDEST PUSH1 0x0 DUP3 DUP3 MSTORE PUSH1 0x20 DUP3 ADD SWAP1 POP SWAP3 SWAP2 POP POP JUMP JUMPDEST PUSH32 0x496E76616C69642076616C696461746F72206164647265737300000000000000 PUSH1 0x0 DUP3 ADD MSTORE POP JUMP JUMPDEST PUSH1 0x0 PUSH3 0x1D5 PUSH1 0x19 DUP4 PUSH3 0x18C JUMP JUMPDEST SWAP2 POP PUSH3 0x1E2 DUP3 PUSH3 0x19D JUMP JUMPDEST PUSH1 0x20 DUP3 ADD SWAP1 POP SWAP2 SWAP1 POP JUMP JUMPDEST PUSH1 0x0 PUSH1 0x20 DUP3 ADD SWAP1 POP DUP2 DUP2 SUB PUSH1 0x0 DUP4 ADD MSTORE PUSH3 0x208 DUP2 PUSH3 0x1C6 JUMP JUMPDEST SWAP1 POP SWAP2 SWAP1 POP JUMP JUMPDEST PUSH2 0x16CF DUP1 PUSH3 0x21F PUSH1 0x0 CODECOPY PUSH1 0x0 RETURN INVALID PUSH1 0x80 PUSH1 0x40 MSTORE CALLVALUE DUP1 ISZERO PUSH2 0x10 JUMPI PUSH1 0x0 DUP1 REVERT JUMPDEST POP PUSH1 0x4 CALLDATASIZE LT PUSH2 0x7D JUMPI PUSH1 0x0 CALLDATALOAD PUSH1 0xE0 SHR DUP1 PUSH4 0x3A5381B5 GT PUSH2 0x5B JUMPI DUP1 PUSH4 0x3A5381B5 EQ PUSH2 0xFE JUMPI DUP1 PUSH4 0x52D5E799 EQ PUSH2 0x11C JUMPI DUP1 PUSH4 0xF76D9D34 EQ PUSH2 0x14C JUMPI DUP1 PUSH4 0xFCCC8978 EQ PUSH2 0x168 JUMPI PUSH2 0x7D JUMP JUMPDEST DUP1 PUSH4 0x150B7A02 EQ PUSH2 0x82 JUMPI DUP1 PUSH4 0x1F36EDCD EQ PUSH2 0xB2 JUMPI DUP1 PUSH4 0x2762C75A EQ PUSH2 0xE2 JUMPI JUMPDEST PUSH1 0x0 DUP1 REVERT JUMPDEST PUSH2 0x9C PUSH1 0x4 DUP1 CALLDATASIZE SUB DUP2 ADD SWAP1 PUSH2 0x97 SWAP2 SWAP1 PUSH2 0xB31 JUMP JUMPDEST PUSH2 0x198 JUMP JUMPDEST PUSH1 0x40 MLOAD PUSH2 0xA9 SWAP2 SWAP1 PUSH2 0xBEF JUMP JUMPDEST PUSH1 0x40 MLOAD DUP1 SWAP2 SUB SWAP1 RETURN JUMPDEST PUSH2 0xCC PUSH1 0x4 DUP1 CALLDATASIZE SUB DUP2 ADD SWAP1 PUSH2 0xC7 SWAP2 SWAP1 PUSH2 0xC40 JUMP JUMPDEST PUSH2 0x1AC JUMP JUMPDEST PUSH1 0x40 MLOAD PUSH2 0xD9 SWAP2 SWAP1 PUSH2 0xC88 JUMP JUMPDEST PUSH1 0x40 MLOAD DUP1 SWAP2 SUB SWAP1 RETURN JUMPDEST PUSH2 0xFC PUSH1 0x4 DUP1 CALLDATASIZE SUB DUP2 ADD SWAP1 PUSH2 0xF7 SWAP2 SWAP1 PUSH2 0xD44 JUMP JUMPDEST PUSH2 0x1CC JUMP JUMPDEST STOP JUMPDEST PUSH2 0x106 PUSH2 0x322 JUMP JUMPDEST PUSH1 0x40 MLOAD PUSH2 0x113 SWAP2 SWAP1 PUSH2 0xDD6 JUMP JUMPDEST PUSH1 0x40 MLOAD DUP1 SWAP2 SUB SWAP1 RETURN JUMPDEST PUSH2 0x136 PUSH1 0x4 DUP1 CALLDATASIZE SUB DUP2 ADD SWAP1 PUSH2 0x131 SWAP2 SWAP1 PUSH2 0xC40 JUMP JUMPDEST PUSH2 0x346 JUMP JUMPDEST PUSH1 0x40 MLOAD PUSH2 0x143 SWAP2 SWAP1 PUSH2 0xC88 JUMP JUMPDEST PUSH1 0x40 MLOAD DUP1 SWAP2 SUB SWAP1 RETURN JUMPDEST PUSH2 0x166 PUSH1 0x4 DUP1 CALLDATASIZE SUB DUP2 ADD SWAP1 PUSH2 0x161 SWAP2 SWAP1 PUSH2 0xE2A JUMP JUMPDEST PUSH2 0x366 JUMP JUMPDEST STOP JUMPDEST PUSH2 0x182 PUSH1 0x4 DUP1 CALLDATASIZE SUB DUP2 ADD SWAP1 PUSH2 0x17D SWAP2 SWAP1 PUSH2 0xEFC JUMP JUMPDEST PUSH2 0x5CF JUMP JUMPDEST PUSH1 0x40 MLOAD PUSH2 0x18F SWAP2 SWAP1 PUSH2 0xFA2 JUMP JUMPDEST PUSH1 0x40 MLOAD DUP1 SWAP2 SUB SWAP1 RETURN JUMPDEST PUSH1 0x0 PUSH4 0x150B7A02 PUSH1 0xE0 SHL SWAP1 POP SWAP5 SWAP4 POP POP POP POP JUMP JUMPDEST PUSH1 0x1 PUSH1 0x20 MSTORE DUP1 PUSH1 0x0 MSTORE PUSH1 0x40 PUSH1 0x0 KECCAK256 PUSH1 0x0 SWAP2 POP SLOAD SWAP1 PUSH2 0x100 EXP SWAP1 DIV PUSH1 0xFF AND DUP2 JUMP JUMPDEST PUSH1 0x0 PUSH2 0x1DB CALLER DUP7 DUP7 DUP7 DUP7 PUSH2 0x5CF JUMP JUMPDEST SWAP1 POP PUSH1 0x1 PUSH1 0x0 DUP3 DUP2 MSTORE PUSH1 0x20 ADD SWAP1 DUP2 MSTORE PUSH1 0x20 ADD PUSH1 0x0 KECCAK256 PUSH1 0x0 SWAP1 SLOAD SWAP1 PUSH2 0x100 EXP SWAP1 DIV PUSH1 0xFF AND ISZERO PUSH2 0x23E JUMPI PUSH1 0x40 MLOAD PUSH32 0x8C379A000000000000000000000000000000000000000000000000000000000 DUP2 MSTORE PUSH1 0x4 ADD PUSH2 0x235 SWAP1 PUSH2 0x101A JUMP JUMPDEST PUSH1 0x40 MLOAD DUP1 SWAP2 SUB SWAP1 REVERT JUMPDEST PUSH1 0x1 DUP1 PUSH1 0x0 DUP4 DUP2 MSTORE PUSH1 0x20 ADD SWAP1 DUP2 MSTORE PUSH1 0x20 ADD PUSH1 0x0 KECCAK256 PUSH1 0x0 PUSH2 0x100 EXP DUP2 SLOAD DUP2 PUSH1 0xFF MUL NOT AND SWAP1 DUP4 ISZERO ISZERO MUL OR SWAP1 SSTORE POP PUSH1 0x0 DUP6 SWAP1 POP DUP1 PUSH20 0xFFFFFFFFFFFFFFFFFFFFFFFFFFFFFFFFFFFFFFFF AND PUSH4 0x23B872DD CALLER ADDRESS DUP9 PUSH1 0x40 MLOAD DUP5 PUSH4 0xFFFFFFFF AND PUSH1 0xE0 SHL DUP2 MSTORE PUSH1 0x4 ADD PUSH2 0x2AB SWAP4 SWAP3 SWAP2 SWAP1 PUSH2 0x1049 JUMP JUMPDEST PUSH1 0x0 PUSH1 0x40 MLOAD DUP1 DUP4 SUB DUP2 PUSH1 0x0 DUP8 DUP1 EXTCODESIZE ISZERO DUP1 ISZERO PUSH2 0x2C5 JUMPI PUSH1 0x0 DUP1 REVERT JUMPDEST POP GAS CALL ISZERO DUP1 ISZERO PUSH2 0x2D9 JUMPI RETURNDATASIZE PUSH1 0x0 DUP1 RETURNDATACOPY RETURNDATASIZE PUSH1 0x0 REVERT JUMPDEST POP POP POP POP PUSH32 0x534B566E715955349C8AA6C19C88EBCA14175A2337CBA8E1F378D23AC0015ADF CALLER DUP8 DUP8 DUP8 PUSH1 0x40 MLOAD PUSH2 0x312 SWAP5 SWAP4 SWAP3 SWAP2 SWAP1 PUSH2 0x10F7 JUMP JUMPDEST PUSH1 0x40 MLOAD DUP1 SWAP2 SUB SWAP1 LOG1 POP POP POP POP POP POP JUMP JUMPDEST PUSH1 0x0 DUP1 SLOAD SWAP1 PUSH2 0x100 EXP SWAP1 DIV PUSH20 0xFFFFFFFFFFFFFFFFFFFFFFFFFFFFFFFFFFFFFFFF AND DUP2 JUMP JUMPDEST PUSH1 0x2 PUSH1 0x20 MSTORE DUP1 PUSH1 0x0 MSTORE PUSH1 0x40 PUSH1 0x0 KECCAK256 PUSH1 0x0 SWAP2 POP SLOAD SWAP1 PUSH2 0x100 EXP SWAP1 DIV PUSH1 0xFF AND DUP2 JUMP JUMPDEST PUSH1 0x0 PUSH2 0x375 DUP10 DUP10 DUP10 DUP10 DUP10 PUSH2 0x5CF JUMP JUMPDEST SWAP1 POP PUSH1 0x0 PUSH2 0x38D PUSH2 0x385 DUP4 PUSH2 0x610 JUMP JUMPDEST DUP7 DUP7 DUP7 PUSH2 0x640 JUMP JUMPDEST SWAP1 POP PUSH1 0x0 DUP1 SLOAD SWAP1 PUSH2 0x100 EXP SWAP1 DIV PUSH20 0xFFFFFFFFFFFFFFFFFFFFFFFFFFFFFFFFFFFFFFFF AND PUSH20 0xFFFFFFFFFFFFFFFFFFFFFFFFFFFFFFFFFFFFFFFF AND DUP2 PUSH20 0xFFFFFFFFFFFFFFFFFFFFFFFFFFFFFFFFFFFFFFFF AND EQ PUSH2 0x41D JUMPI PUSH1 0x40 MLOAD PUSH32 0x8C379A000000000000000000000000000000000000000000000000000000000 DUP2 MSTORE PUSH1 0x4 ADD PUSH2 0x414 SWAP1 PUSH2 0x118F JUMP JUMPDEST PUSH1 0x40 MLOAD DUP1 SWAP2 SUB SWAP1 REVERT JUMPDEST PUSH1 0x1 ISZERO ISZERO PUSH1 0x1 PUSH1 0x0 DUP5 DUP2 MSTORE PUSH1 0x20 ADD SWAP1 DUP2 MSTORE PUSH1 0x20 ADD PUSH1 0x0 KECCAK256 PUSH1 0x0 SWAP1 SLOAD SWAP1 PUSH2 0x100 EXP SWAP1 DIV PUSH1 0xFF AND ISZERO ISZERO EQ PUSH2 0x484 JUMPI PUSH1 0x40 MLOAD PUSH32 0x8C379A000000000000000000000000000000000000000000000000000000000 DUP2 MSTORE PUSH1 0x4 ADD PUSH2 0x47B SWAP1 PUSH2 0x11FB JUMP JUMPDEST PUSH1 0x40 MLOAD DUP1 SWAP2 SUB SWAP1 REVERT JUMPDEST PUSH1 0x2 PUSH1 0x0 DUP4 DUP2 MSTORE PUSH1 0x20 ADD SWAP1 DUP2 MSTORE PUSH1 0x20 ADD PUSH1 0x0 KECCAK256 PUSH1 0x0 SWAP1 SLOAD SWAP1 PUSH2 0x100 EXP SWAP1 DIV PUSH1 0xFF AND ISZERO PUSH2 0x4E5 JUMPI PUSH1 0x40 MLOAD PUSH32 0x8C379A000000000000000000000000000000000000000000000000000000000 DUP2 MSTORE PUSH1 0x4 ADD PUSH2 0x4DC SWAP1 PUSH2 0x1267 JUMP JUMPDEST PUSH1 0x40 MLOAD DUP1 SWAP2 SUB SWAP1 REVERT JUMPDEST PUSH1 0x1 PUSH1 0x2 PUSH1 0x0 DUP5 DUP2 MSTORE PUSH1 0x20 ADD SWAP1 DUP2 MSTORE PUSH1 0x20 ADD PUSH1 0x0 KECCAK256 PUSH1 0x0 PUSH2 0x100 EXP DUP2 SLOAD DUP2 PUSH1 0xFF MUL NOT AND SWAP1 DUP4 ISZERO ISZERO MUL OR SWAP1 SSTORE POP PUSH1 0x0 DUP10 SWAP1 POP DUP1 PUSH20 0xFFFFFFFFFFFFFFFFFFFFFFFFFFFFFFFFFFFFFFFF AND PUSH4 0x42842E0E ADDRESS DUP14 DUP13 PUSH1 0x40 MLOAD DUP5 PUSH4 0xFFFFFFFF AND PUSH1 0xE0 SHL DUP2 MSTORE PUSH1 0x4 ADD PUSH2 0x553 SWAP4 SWAP3 SWAP2 SWAP1 PUSH2 0x1049 JUMP JUMPDEST PUSH1 0x0 PUSH1 0x40 MLOAD DUP1 DUP4 SUB DUP2 PUSH1 0x0 DUP8 DUP1 EXTCODESIZE ISZERO DUP1 ISZERO PUSH2 0x56D JUMPI PUSH1 0x0 DUP1 REVERT JUMPDEST POP GAS CALL ISZERO DUP1 ISZERO PUSH2 0x581 JUMPI RETURNDATASIZE PUSH1 0x0 DUP1 RETURNDATACOPY RETURNDATASIZE PUSH1 0x0 REVERT JUMPDEST POP POP POP POP PUSH32 0x94EAF86D28BAAA735AA1A5E0E062FBA702F5D8E2B72D8C93F38BF45EFB6C1051 DUP12 DUP12 DUP12 DUP12 PUSH1 0x40 MLOAD PUSH2 0x5BA SWAP5 SWAP4 SWAP3 SWAP2 SWAP1 PUSH2 0x10F7 JUMP JUMPDEST PUSH1 0x40 MLOAD DUP1 SWAP2 SUB SWAP1 LOG1 POP POP POP POP POP POP POP POP POP POP POP JUMP JUMPDEST PUSH1 0x0 DUP1 DUP7 DUP7 DUP7 DUP7 DUP7 PUSH1 0x40 MLOAD PUSH1 0x20 ADD PUSH2 0x5EB SWAP6 SWAP5 SWAP4 SWAP3 SWAP2 SWAP1 PUSH2 0x132C JUMP JUMPDEST PUSH1 0x40 MLOAD PUSH1 0x20 DUP2 DUP4 SUB SUB DUP2 MSTORE SWAP1 PUSH1 0x40 MSTORE DUP1 MLOAD SWAP1 PUSH1 0x20 ADD KECCAK256 SWAP1 POP DUP1 SWAP2 POP POP SWAP6 SWAP5 POP POP POP POP POP JUMP JUMPDEST PUSH1 0x0 DUP2 PUSH1 0x40 MLOAD PUSH1 0x20 ADD PUSH2 0x623 SWAP2 SWAP1 PUSH2 0x13F4 JUMP JUMPDEST PUSH1 0x40 MLOAD PUSH1 0x20 DUP2 DUP4 SUB SUB DUP2 MSTORE SWAP1 PUSH1 0x40 MSTORE DUP1 MLOAD SWAP1 PUSH1 0x20 ADD KECCAK256 SWAP1 POP SWAP2 SWAP1 POP JUMP JUMPDEST PUSH1 0x0 DUP1 PUSH1 0x0 PUSH2 0x651 DUP8 DUP8 DUP8 DUP8 PUSH2 0x66B JUMP JUMPDEST SWAP2 POP SWAP2 POP PUSH2 0x65E DUP2 PUSH2 0x777 JUMP JUMPDEST DUP2 SWAP3 POP POP POP SWAP5 SWAP4 POP POP POP POP JUMP JUMPDEST PUSH1 0x0 DUP1 PUSH32 0x7FFFFFFFFFFFFFFFFFFFFFFFFFFFFFFF5D576E7357A4501DDFE92F46681B20A0 DUP4 PUSH1 0x0 SHR GT ISZERO PUSH2 0x6A6 JUMPI PUSH1 0x0 PUSH1 0x3 SWAP2 POP SWAP2 POP PUSH2 0x76E JUMP JUMPDEST PUSH1 0x1B DUP6 PUSH1 0xFF AND EQ ISZERO DUP1 ISZERO PUSH2 0x6BE JUMPI POP PUSH1 0x1C DUP6 PUSH1 0xFF AND EQ ISZERO JUMPDEST ISZERO PUSH2 0x6D0 JUMPI PUSH1 0x0 PUSH1 0x4 SWAP2 POP SWAP2 POP PUSH2 0x76E JUMP JUMPDEST PUSH1 0x0 PUSH1 0x1 DUP8 DUP8 DUP8 DUP8 PUSH1 0x40 MLOAD PUSH1 0x0 DUP2 MSTORE PUSH1 0x20 ADD PUSH1 0x40 MSTORE PUSH1 0x40 MLOAD PUSH2 0x6F5 SWAP5 SWAP4 SWAP3 SWAP2 SWAP1 PUSH2 0x1429 JUMP JUMPDEST PUSH1 0x20 PUSH1 0x40 MLOAD PUSH1 0x20 DUP2 SUB SWAP1 DUP1 DUP5 SUB SWAP1 DUP6 GAS STATICCALL ISZERO DUP1 ISZERO PUSH2 0x717 JUMPI RETURNDATASIZE PUSH1 0x0 DUP1 RETURNDATACOPY RETURNDATASIZE PUSH1 0x0 REVERT JUMPDEST POP POP POP PUSH1 0x20 PUSH1 0x40 MLOAD SUB MLOAD SWAP1 POP PUSH1 0x0 PUSH20 0xFFFFFFFFFFFFFFFFFFFFFFFFFFFFFFFFFFFFFFFF AND DUP2 PUSH20 0xFFFFFFFFFFFFFFFFFFFFFFFFFFFFFFFFFFFFFFFF AND SUB PUSH2 0x765 JUMPI PUSH1 0x0 PUSH1 0x1 SWAP3 POP SWAP3 POP POP PUSH2 0x76E JUMP JUMPDEST DUP1 PUSH1 0x0 SWAP3 POP SWAP3 POP POP JUMPDEST SWAP5 POP SWAP5 SWAP3 POP POP POP JUMP JUMPDEST PUSH1 0x0 PUSH1 0x4 DUP2 GT ISZERO PUSH2 0x78B JUMPI PUSH2 0x78A PUSH2 0x146E JUMP JUMPDEST JUMPDEST DUP2 PUSH1 0x4 DUP2 GT ISZERO PUSH2 0x79E JUMPI PUSH2 0x79D PUSH2 0x146E JUMP JUMPDEST JUMPDEST SUB ISZERO PUSH2 0x940 JUMPI PUSH1 0x1 PUSH1 0x4 DUP2 GT ISZERO PUSH2 0x7B8 JUMPI PUSH2 0x7B7 PUSH2 0x146E JUMP JUMPDEST JUMPDEST DUP2 PUSH1 0x4 DUP2 GT ISZERO PUSH2 0x7CB JUMPI PUSH2 0x7CA PUSH2 0x146E JUMP JUMPDEST JUMPDEST SUB PUSH2 0x80B JUMPI PUSH1 0x40 MLOAD PUSH32 0x8C379A000000000000000000000000000000000000000000000000000000000 DUP2 MSTORE PUSH1 0x4 ADD PUSH2 0x802 SWAP1 PUSH2 0x14E9 JUMP JUMPDEST PUSH1 0x40 MLOAD DUP1 SWAP2 SUB SWAP1 REVERT JUMPDEST PUSH1 0x2 PUSH1 0x4 DUP2 GT ISZERO PUSH2 0x81F JUMPI PUSH2 0x81E PUSH2 0x146E JUMP JUMPDEST JUMPDEST DUP2 PUSH1 0x4 DUP2 GT ISZERO PUSH2 0x832 JUMPI PUSH2 0x831 PUSH2 0x146E JUMP JUMPDEST JUMPDEST SUB PUSH2 0x872 JUMPI PUSH1 0x40 MLOAD PUSH32 0x8C379A000000000000000000000000000000000000000000000000000000000 DUP2 MSTORE PUSH1 0x4 ADD PUSH2 0x869 SWAP1 PUSH2 0x1555 JUMP JUMPDEST PUSH1 0x40 MLOAD DUP1 SWAP2 SUB SWAP1 REVERT JUMPDEST PUSH1 0x3 PUSH1 0x4 DUP2 GT ISZERO PUSH2 0x886 JUMPI PUSH2 0x885 PUSH2 0x146E JUMP JUMPDEST JUMPDEST DUP2 PUSH1 0x4 DUP2 GT ISZERO PUSH2 0x899 JUMPI PUSH2 0x898 PUSH2 0x146E JUMP JUMPDEST JUMPDEST SUB PUSH2 0x8D9 JUMPI PUSH1 0x40 MLOAD PUSH32 0x8C379A000000000000000000000000000000000000000000000000000000000 DUP2 MSTORE PUSH1 0x4 ADD PUSH2 0x8D0 SWAP1 PUSH2 0x15E7 JUMP JUMPDEST PUSH1 0x40 MLOAD DUP1 SWAP2 SUB SWAP1 REVERT JUMPDEST PUSH1 0x4 DUP1 DUP2 GT ISZERO PUSH2 0x8EC JUMPI PUSH2 0x8EB PUSH2 0x146E JUMP JUMPDEST JUMPDEST DUP2 PUSH1 0x4 DUP2 GT ISZERO PUSH2 0x8FF JUMPI PUSH2 0x8FE PUSH2 0x146E JUMP JUMPDEST JUMPDEST SUB PUSH2 0x93F JUMPI PUSH1 0x40 MLOAD PUSH32 0x8C379A000000000000000000000000000000000000000000000000000000000 DUP2 MSTORE PUSH1 0x4 ADD PUSH2 0x936 SWAP1 PUSH2 0x1679 JUMP JUMPDEST PUSH1 0x40 MLOAD DUP1 SWAP2 SUB SWAP1 REVERT JUMPDEST JUMPDEST POP JUMP JUMPDEST PUSH1 0x0 PUSH1 0x40 MLOAD SWAP1 POP SWAP1 JUMP JUMPDEST PUSH1 0x0 DUP1 REVERT JUMPDEST PUSH1 0x0 DUP1 REVERT JUMPDEST PUSH1 0x0 PUSH20 0xFFFFFFFFFFFFFFFFFFFFFFFFFFFFFFFFFFFFFFFF DUP3 AND SWAP1 POP SWAP2 SWAP1 POP JUMP JUMPDEST PUSH1 0x0 PUSH2 0x982 DUP3 PUSH2 0x957 JUMP JUMPDEST SWAP1 POP SWAP2 SWAP1 POP JUMP JUMPDEST PUSH2 0x992 DUP2 PUSH2 0x977 JUMP JUMPDEST DUP2 EQ PUSH2 0x99D JUMPI PUSH1 0x0 DUP1 REVERT JUMPDEST POP JUMP JUMPDEST PUSH1 0x0 DUP2 CALLDATALOAD SWAP1 POP PUSH2 0x9AF DUP2 PUSH2 0x989 JUMP JUMPDEST SWAP3 SWAP2 POP POP JUMP JUMPDEST PUSH1 0x0 DUP2 SWAP1 POP SWAP2 SWAP1 POP JUMP JUMPDEST PUSH2 0x9C8 DUP2 PUSH2 0x9B5 JUMP JUMPDEST DUP2 EQ PUSH2 0x9D3 JUMPI PUSH1 0x0 DUP1 REVERT JUMPDEST POP JUMP JUMPDEST PUSH1 0x0 DUP2 CALLDATALOAD SWAP1 POP PUSH2 0x9E5 DUP2 PUSH2 0x9BF JUMP JUMPDEST SWAP3 SWAP2 POP POP JUMP JUMPDEST PUSH1 0x0 DUP1 REVERT JUMPDEST PUSH1 0x0 DUP1 REVERT JUMPDEST PUSH1 0x0 PUSH1 0x1F NOT PUSH1 0x1F DUP4 ADD AND SWAP1 POP SWAP2 SWAP1 POP JUMP JUMPDEST PUSH32 0x4E487B7100000000000000000000000000000000000000000000000000000000 PUSH1 0x0 MSTORE PUSH1 0x41 PUSH1 0x4 MSTORE PUSH1 0x24 PUSH1 0x0 REVERT JUMPDEST PUSH2 0xA3E DUP3 PUSH2 0x9F5 JUMP JUMPDEST DUP2 ADD DUP2 DUP2 LT PUSH8 0xFFFFFFFFFFFFFFFF DUP3 GT OR ISZERO PUSH2 0xA5D JUMPI PUSH2 0xA5C PUSH2 0xA06 JUMP JUMPDEST JUMPDEST DUP1 PUSH1 0x40 MSTORE POP POP POP JUMP JUMPDEST PUSH1 0x0 PUSH2 0xA70 PUSH2 0x943 JUMP JUMPDEST SWAP1 POP PUSH2 0xA7C DUP3 DUP3 PUSH2 0xA35 JUMP JUMPDEST SWAP2 SWAP1 POP JUMP JUMPDEST PUSH1 0x0 PUSH8 0xFFFFFFFFFFFFFFFF DUP3 GT ISZERO PUSH2 0xA9C JUMPI PUSH2 0xA9B PUSH2 0xA06 JUMP JUMPDEST JUMPDEST PUSH2 0xAA5 DUP3 PUSH2 0x9F5 JUMP JUMPDEST SWAP1 POP PUSH1 0x20 DUP2 ADD SWAP1 POP SWAP2 SWAP1 POP JUMP JUMPDEST DUP3 DUP2 DUP4 CALLDATACOPY PUSH1 0x0 DUP4 DUP4 ADD MSTORE POP POP POP JUMP JUMPDEST PUSH1 0x0 PUSH2 0xAD4 PUSH2 0xACF DUP5 PUSH2 0xA81 JUMP JUMPDEST PUSH2 0xA66 JUMP JUMPDEST SWAP1 POP DUP3 DUP2 MSTORE PUSH1 0x20 DUP2 ADD DUP5 DUP5 DUP5 ADD GT ISZERO PUSH2 0xAF0 JUMPI PUSH2 0xAEF PUSH2 0x9F0 JUMP JUMPDEST JUMPDEST PUSH2 0xAFB DUP5 DUP3 DUP6 PUSH2 0xAB2 JUMP JUMPDEST POP SWAP4 SWAP3 POP POP POP JUMP JUMPDEST PUSH1 0x0 DUP3 PUSH1 0x1F DUP4 ADD SLT PUSH2 0xB18 JUMPI PUSH2 0xB17 PUSH2 0x9EB JUMP JUMPDEST JUMPDEST DUP2 CALLDATALOAD PUSH2 0xB28 DUP5 DUP3 PUSH1 0x20 DUP7 ADD PUSH2 0xAC1 JUMP JUMPDEST SWAP2 POP POP SWAP3 SWAP2 POP POP JUMP JUMPDEST PUSH1 0x0 DUP1 PUSH1 0x0 DUP1 PUSH1 0x80 DUP6 DUP8 SUB SLT ISZERO PUSH2 0xB4B JUMPI PUSH2 0xB4A PUSH2 0x94D JUMP JUMPDEST JUMPDEST PUSH1 0x0 PUSH2 0xB59 DUP8 DUP3 DUP9 ADD PUSH2 0x9A0 JUMP JUMPDEST SWAP5 POP POP PUSH1 0x20 PUSH2 0xB6A DUP8 DUP3 DUP9 ADD PUSH2 0x9A0 JUMP JUMPDEST SWAP4 POP POP PUSH1 0x40 PUSH2 0xB7B DUP8 DUP3 DUP9 ADD PUSH2 0x9D6 JUMP JUMPDEST SWAP3 POP POP PUSH1 0x60 DUP6 ADD CALLDATALOAD PUSH8 0xFFFFFFFFFFFFFFFF DUP2 GT ISZERO PUSH2 0xB9C JUMPI PUSH2 0xB9B PUSH2 0x952 JUMP JUMPDEST JUMPDEST PUSH2 0xBA8 DUP8 DUP3 DUP9 ADD PUSH2 0xB03 JUMP JUMPDEST SWAP2 POP POP SWAP3 SWAP6 SWAP2 SWAP5 POP SWAP3 POP JUMP JUMPDEST PUSH1 0x0 PUSH32 0xFFFFFFFF00000000000000000000000000000000000000000000000000000000 DUP3 AND SWAP1 POP SWAP2 SWAP1 POP JUMP JUMPDEST PUSH2 0xBE9 DUP2 PUSH2 0xBB4 JUMP JUMPDEST DUP3 MSTORE POP POP JUMP JUMPDEST PUSH1 0x0 PUSH1 0x20 DUP3 ADD SWAP1 POP PUSH2 0xC04 PUSH1 0x0 DUP4 ADD DUP5 PUSH2 0xBE0 JUMP JUMPDEST SWAP3 SWAP2 POP POP JUMP JUMPDEST PUSH1 0x0 DUP2 SWAP1 POP SWAP2 SWAP1 POP JUMP JUMPDEST PUSH2 0xC1D DUP2 PUSH2 0xC0A JUMP JUMPDEST DUP2 EQ PUSH2 0xC28 JUMPI PUSH1 0x0 DUP1 REVERT JUMPDEST POP JUMP JUMPDEST PUSH1 0x0 DUP2 CALLDATALOAD SWAP1 POP PUSH2 0xC3A DUP2 PUSH2 0xC14 JUMP JUMPDEST SWAP3 SWAP2 POP POP JUMP JUMPDEST PUSH1 0x0 PUSH1 0x20 DUP3 DUP5 SUB SLT ISZERO PUSH2 0xC56 JUMPI PUSH2 0xC55 PUSH2 0x94D JUMP JUMPDEST JUMPDEST PUSH1 0x0 PUSH2 0xC64 DUP5 DUP3 DUP6 ADD PUSH2 0xC2B JUMP JUMPDEST SWAP2 POP POP SWAP3 SWAP2 POP POP JUMP JUMPDEST PUSH1 0x0 DUP2 ISZERO ISZERO SWAP1 POP SWAP2 SWAP1 POP JUMP JUMPDEST PUSH2 0xC82 DUP2 PUSH2 0xC6D JUMP JUMPDEST DUP3 MSTORE POP POP JUMP JUMPDEST PUSH1 0x0 PUSH1 0x20 DUP3 ADD SWAP1 POP PUSH2 0xC9D PUSH1 0x0 DUP4 ADD DUP5 PUSH2 0xC79 JUMP JUMPDEST SWAP3 SWAP2 POP POP JUMP JUMPDEST PUSH1 0x0 PUSH8 0xFFFFFFFFFFFFFFFF DUP3 GT ISZERO PUSH2 0xCBE JUMPI PUSH2 0xCBD PUSH2 0xA06 JUMP JUMPDEST JUMPDEST PUSH2 0xCC7 DUP3 PUSH2 0x9F5 JUMP JUMPDEST SWAP1 POP PUSH1 0x20 DUP2 ADD SWAP1 POP SWAP2 SWAP1 POP JUMP JUMPDEST PUSH1 0x0 PUSH2 0xCE7 PUSH2 0xCE2 DUP5 PUSH2 0xCA3 JUMP JUMPDEST PUSH2 0xA66 JUMP JUMPDEST SWAP1 POP DUP3 DUP2 MSTORE PUSH1 0x20 DUP2 ADD DUP5 DUP5 DUP5 ADD GT ISZERO PUSH2 0xD03 JUMPI PUSH2 0xD02 PUSH2 0x9F0 JUMP JUMPDEST JUMPDEST PUSH2 0xD0E DUP5 DUP3 DUP6 PUSH2 0xAB2 JUMP JUMPDEST POP SWAP4 SWAP3 POP POP POP JUMP JUMPDEST PUSH1 0x0 DUP3 PUSH1 0x1F DUP4 ADD SLT PUSH2 0xD2B JUMPI PUSH2 0xD2A PUSH2 0x9EB JUMP JUMPDEST JUMPDEST DUP2 CALLDATALOAD PUSH2 0xD3B DUP5 DUP3 PUSH1 0x20 DUP7 ADD PUSH2 0xCD4 JUMP JUMPDEST SWAP2 POP POP SWAP3 SWAP2 POP POP JUMP JUMPDEST PUSH1 0x0 DUP1 PUSH1 0x0 DUP1 PUSH1 0x80 DUP6 DUP8 SUB SLT ISZERO PUSH2 0xD5E JUMPI PUSH2 0xD5D PUSH2 0x94D JUMP JUMPDEST JUMPDEST PUSH1 0x0 PUSH2 0xD6C DUP8 DUP3 DUP9 ADD PUSH2 0x9A0 JUMP JUMPDEST SWAP5 POP POP PUSH1 0x20 PUSH2 0xD7D DUP8 DUP3 DUP9 ADD PUSH2 0x9D6 JUMP JUMPDEST SWAP4 POP POP PUSH1 0x40 DUP6 ADD CALLDATALOAD PUSH8 0xFFFFFFFFFFFFFFFF DUP2 GT ISZERO PUSH2 0xD9E JUMPI PUSH2 0xD9D PUSH2 0x952 JUMP JUMPDEST JUMPDEST PUSH2 0xDAA DUP8 DUP3 DUP9 ADD PUSH2 0xD16 JUMP JUMPDEST SWAP3 POP POP PUSH1 0x60 PUSH2 0xDBB DUP8 DUP3 DUP9 ADD PUSH2 0x9D6 JUMP JUMPDEST SWAP2 POP POP SWAP3 SWAP6 SWAP2 SWAP5 POP SWAP3 POP JUMP JUMPDEST PUSH2 0xDD0 DUP2 PUSH2 0x977 JUMP JUMPDEST DUP3 MSTORE POP POP JUMP JUMPDEST PUSH1 0x0 PUSH1 0x20 DUP3 ADD SWAP1 POP PUSH2 0xDEB PUSH1 0x0 DUP4 ADD DUP5 PUSH2 0xDC7 JUMP JUMPDEST SWAP3 SWAP2 POP POP JUMP JUMPDEST PUSH1 0x0 PUSH1 0xFF DUP3 AND SWAP1 POP SWAP2 SWAP1 POP JUMP JUMPDEST PUSH2 0xE07 DUP2 PUSH2 0xDF1 JUMP JUMPDEST DUP2 EQ PUSH2 0xE12 JUMPI PUSH1 0x0 DUP1 REVERT JUMPDEST POP JUMP JUMPDEST PUSH1 0x0 DUP2 CALLDATALOAD SWAP1 POP PUSH2 0xE24 DUP2 PUSH2 0xDFE JUMP JUMPDEST SWAP3 SWAP2 POP POP JUMP JUMPDEST PUSH1 0x0 DUP1 PUSH1 0x0 DUP1 PUSH1 0x0 DUP1 PUSH1 0x0 DUP1 PUSH2 0x100 DUP10 DUP12 SUB SLT ISZERO PUSH2 0xE4B JUMPI PUSH2 0xE4A PUSH2 0x94D JUMP JUMPDEST JUMPDEST PUSH1 0x0 PUSH2 0xE59 DUP12 DUP3 DUP13 ADD PUSH2 0x9A0 JUMP JUMPDEST SWAP9 POP POP PUSH1 0x20 PUSH2 0xE6A DUP12 DUP3 DUP13 ADD PUSH2 0x9A0 JUMP JUMPDEST SWAP8 POP POP PUSH1 0x40 PUSH2 0xE7B DUP12 DUP3 DUP13 ADD PUSH2 0x9D6 JUMP JUMPDEST SWAP7 POP POP PUSH1 0x60 DUP10 ADD CALLDATALOAD PUSH8 0xFFFFFFFFFFFFFFFF DUP2 GT ISZERO PUSH2 0xE9C JUMPI PUSH2 0xE9B PUSH2 0x952 JUMP JUMPDEST JUMPDEST PUSH2 0xEA8 DUP12 DUP3 DUP13 ADD PUSH2 0xD16 JUMP JUMPDEST SWAP6 POP POP PUSH1 0x80 PUSH2 0xEB9 DUP12 DUP3 DUP13 ADD PUSH2 0x9D6 JUMP JUMPDEST SWAP5 POP POP PUSH1 0xA0 PUSH2 0xECA DUP12 DUP3 DUP13 ADD PUSH2 0xE15 JUMP JUMPDEST SWAP4 POP POP PUSH1 0xC0 PUSH2 0xEDB DUP12 DUP3 DUP13 ADD PUSH2 0xC2B JUMP JUMPDEST SWAP3 POP POP PUSH1 0xE0 PUSH2 0xEEC DUP12 DUP3 DUP13 ADD PUSH2 0xC2B JUMP JUMPDEST SWAP2 POP POP SWAP3 SWAP6 SWAP9 POP SWAP3 SWAP6 SWAP9 SWAP1 SWAP4 SWAP7 POP JUMP JUMPDEST PUSH1 0x0 DUP1 PUSH1 0x0 DUP1 PUSH1 0x0 PUSH1 0xA0 DUP7 DUP9 SUB SLT ISZERO PUSH2 0xF18 JUMPI PUSH2 0xF17 PUSH2 0x94D JUMP JUMPDEST JUMPDEST PUSH1 0x0 PUSH2 0xF26 DUP9 DUP3 DUP10 ADD PUSH2 0x9A0 JUMP JUMPDEST SWAP6 POP POP PUSH1 0x20 PUSH2 0xF37 DUP9 DUP3 DUP10 ADD PUSH2 0x9A0 JUMP JUMPDEST SWAP5 POP POP PUSH1 0x40 PUSH2 0xF48 DUP9 DUP3 DUP10 ADD PUSH2 0x9D6 JUMP JUMPDEST SWAP4 POP POP PUSH1 0x60 DUP7 ADD CALLDATALOAD PUSH8 0xFFFFFFFFFFFFFFFF DUP2 GT ISZERO PUSH2 0xF69 JUMPI PUSH2 0xF68 PUSH2 0x952 JUMP JUMPDEST JUMPDEST PUSH2 0xF75 DUP9 DUP3 DUP10 ADD PUSH2 0xD16 JUMP JUMPDEST SWAP3 POP POP PUSH1 0x80 PUSH2 0xF86 DUP9 DUP3 DUP10 ADD PUSH2 0x9D6 JUMP JUMPDEST SWAP2 POP POP SWAP3 SWAP6 POP SWAP3 SWAP6 SWAP1 SWAP4 POP JUMP JUMPDEST PUSH2 0xF9C DUP2 PUSH2 0xC0A JUMP JUMPDEST DUP3 MSTORE POP POP JUMP JUMPDEST PUSH1 0x0 PUSH1 0x20 DUP3 ADD SWAP1 POP PUSH2 0xFB7 PUSH1 0x0 DUP4 ADD DUP5 PUSH2 0xF93 JUMP JUMPDEST SWAP3 SWAP2 POP POP JUMP JUMPDEST PUSH1 0x0 DUP3 DUP3 MSTORE PUSH1 0x20 DUP3 ADD SWAP1 POP SWAP3 SWAP2 POP POP JUMP JUMPDEST PUSH32 0x4475706C69636174652068617368000000000000000000000000000000000000 PUSH1 0x0 DUP3 ADD MSTORE POP JUMP JUMPDEST PUSH1 0x0 PUSH2 0x1004 PUSH1 0xE DUP4 PUSH2 0xFBD JUMP JUMPDEST SWAP2 POP PUSH2 0x100F DUP3 PUSH2 0xFCE JUMP JUMPDEST PUSH1 0x20 DUP3 ADD SWAP1 POP SWAP2 SWAP1 POP JUMP JUMPDEST PUSH1 0x0 PUSH1 0x20 DUP3 ADD SWAP1 POP DUP2 DUP2 SUB PUSH1 0x0 DUP4 ADD MSTORE PUSH2 0x1033 DUP2 PUSH2 0xFF7 JUMP JUMPDEST SWAP1 POP SWAP2 SWAP1 POP JUMP JUMPDEST PUSH2 0x1043 DUP2 PUSH2 0x9B5 JUMP JUMPDEST DUP3 MSTORE POP POP JUMP JUMPDEST PUSH1 0x0 PUSH1 0x60 DUP3 ADD SWAP1 POP PUSH2 0x105E PUSH1 0x0 DUP4 ADD DUP7 PUSH2 0xDC7 JUMP JUMPDEST PUSH2 0x106B PUSH1 0x20 DUP4 ADD DUP6 PUSH2 0xDC7 JUMP JUMPDEST PUSH2 0x1078 PUSH1 0x40 DUP4 ADD DUP5 PUSH2 0x103A JUMP JUMPDEST SWAP5 SWAP4 POP POP POP POP JUMP JUMPDEST PUSH1 0x0 DUP2 MLOAD SWAP1 POP SWAP2 SWAP1 POP JUMP JUMPDEST PUSH1 0x0 JUMPDEST DUP4 DUP2 LT ISZERO PUSH2 0x10A9 JUMPI DUP1 DUP3 ADD MLOAD DUP2 DUP5 ADD MSTORE PUSH1 0x20 DUP2 ADD SWAP1 POP PUSH2 0x108E JUMP JUMPDEST DUP4 DUP2 GT ISZERO PUSH2 0x10B8 JUMPI PUSH1 0x0 DUP5 DUP5 ADD MSTORE JUMPDEST POP POP POP POP JUMP JUMPDEST PUSH1 0x0 PUSH2 0x10C9 DUP3 PUSH2 0x1080 JUMP JUMPDEST PUSH2 0x10D3 DUP2 DUP6 PUSH2 0xFBD JUMP JUMPDEST SWAP4 POP PUSH2 0x10E3 DUP2 DUP6 PUSH1 0x20 DUP7 ADD PUSH2 0x108B JUMP JUMPDEST PUSH2 0x10EC DUP2 PUSH2 0x9F5 JUMP JUMPDEST DUP5 ADD SWAP2 POP POP SWAP3 SWAP2 POP POP JUMP JUMPDEST PUSH1 0x0 PUSH1 0x80 DUP3 ADD SWAP1 POP PUSH2 0x110C PUSH1 0x0 DUP4 ADD DUP8 PUSH2 0xDC7 JUMP JUMPDEST PUSH2 0x1119 PUSH1 0x20 DUP4 ADD DUP7 PUSH2 0xDC7 JUMP JUMPDEST PUSH2 0x1126 PUSH1 0x40 DUP4 ADD DUP6 PUSH2 0x103A JUMP JUMPDEST DUP2 DUP2 SUB PUSH1 0x60 DUP4 ADD MSTORE PUSH2 0x1138 DUP2 DUP5 PUSH2 0x10BE JUMP JUMPDEST SWAP1 POP SWAP6 SWAP5 POP POP POP POP POP JUMP JUMPDEST PUSH32 0x496E76616C69642076616C696461746F72207369676E61747572652E00000000 PUSH1 0x0 DUP3 ADD MSTORE POP JUMP JUMPDEST PUSH1 0x0 PUSH2 0x1179 PUSH1 0x1C DUP4 PUSH2 0xFBD JUMP JUMPDEST SWAP2 POP PUSH2 0x1184 DUP3 PUSH2 0x1143 JUMP JUMPDEST PUSH1 0x20 DUP3 ADD SWAP1 POP SWAP2 SWAP1 POP JUMP JUMPDEST PUSH1 0x0 PUSH1 0x20 DUP3 ADD SWAP1 POP DUP2 DUP2 SUB PUSH1 0x0 DUP4 ADD MSTORE PUSH2 0x11A8 DUP2 PUSH2 0x116C JUMP JUMPDEST SWAP1 POP SWAP2 SWAP1 POP JUMP JUMPDEST PUSH32 0x496E76616C696420726563656976657200000000000000000000000000000000 PUSH1 0x0 DUP3 ADD MSTORE POP JUMP JUMPDEST PUSH1 0x0 PUSH2 0x11E5 PUSH1 0x10 DUP4 PUSH2 0xFBD JUMP JUMPDEST SWAP2 POP PUSH2 0x11F0 DUP3 PUSH2 0x11AF JUMP JUMPDEST PUSH1 0x20 DUP3 ADD SWAP1 POP SWAP2 SWAP1 POP JUMP JUMPDEST PUSH1 0x0 PUSH1 0x20 DUP3 ADD SWAP1 POP DUP2 DUP2 SUB PUSH1 0x0 DUP4 ADD MSTORE PUSH2 0x1214 DUP2 PUSH2 0x11D8 JUMP JUMPDEST SWAP1 POP SWAP2 SWAP1 POP JUMP JUMPDEST PUSH32 0x416C72656164792077697468647261776E000000000000000000000000000000 PUSH1 0x0 DUP3 ADD MSTORE POP JUMP JUMPDEST PUSH1 0x0 PUSH2 0x1251 PUSH1 0x11 DUP4 PUSH2 0xFBD JUMP JUMPDEST SWAP2 POP PUSH2 0x125C DUP3 PUSH2 0x121B JUMP JUMPDEST PUSH1 0x20 DUP3 ADD SWAP1 POP SWAP2 SWAP1 POP JUMP JUMPDEST PUSH1 0x0 PUSH1 0x20 DUP3 ADD SWAP1 POP DUP2 DUP2 SUB PUSH1 0x0 DUP4 ADD MSTORE PUSH2 0x1280 DUP2 PUSH2 0x1244 JUMP JUMPDEST SWAP1 POP SWAP2 SWAP1 POP JUMP JUMPDEST PUSH1 0x0 DUP2 PUSH1 0x60 SHL SWAP1 POP SWAP2 SWAP1 POP JUMP JUMPDEST PUSH1 0x0 PUSH2 0x129F DUP3 PUSH2 0x1287 JUMP JUMPDEST SWAP1 POP SWAP2 SWAP1 POP JUMP JUMPDEST PUSH1 0x0 PUSH2 0x12B1 DUP3 PUSH2 0x1294 JUMP JUMPDEST SWAP1 POP SWAP2 SWAP1 POP JUMP JUMPDEST PUSH2 0x12C9 PUSH2 0x12C4 DUP3 PUSH2 0x977 JUMP JUMPDEST PUSH2 0x12A6 JUMP JUMPDEST DUP3 MSTORE POP POP JUMP JUMPDEST PUSH1 0x0 DUP2 SWAP1 POP SWAP2 SWAP1 POP JUMP JUMPDEST PUSH2 0x12EA PUSH2 0x12E5 DUP3 PUSH2 0x9B5 JUMP JUMPDEST PUSH2 0x12CF JUMP JUMPDEST DUP3 MSTORE POP POP JUMP JUMPDEST PUSH1 0x0 DUP2 SWAP1 POP SWAP3 SWAP2 POP POP JUMP JUMPDEST PUSH1 0x0 PUSH2 0x1306 DUP3 PUSH2 0x1080 JUMP JUMPDEST PUSH2 0x1310 DUP2 DUP6 PUSH2 0x12F0 JUMP JUMPDEST SWAP4 POP PUSH2 0x1320 DUP2 DUP6 PUSH1 0x20 DUP7 ADD PUSH2 0x108B JUMP JUMPDEST DUP1 DUP5 ADD SWAP2 POP POP SWAP3 SWAP2 POP POP JUMP JUMPDEST PUSH1 0x0 PUSH2 0x1338 DUP3 DUP9 PUSH2 0x12B8 JUMP JUMPDEST PUSH1 0x14 DUP3 ADD SWAP2 POP PUSH2 0x1348 DUP3 DUP8 PUSH2 0x12B8 JUMP JUMPDEST PUSH1 0x14 DUP3 ADD SWAP2 POP PUSH2 0x1358 DUP3 DUP7 PUSH2 0x12D9 JUMP JUMPDEST PUSH1 0x20 DUP3 ADD SWAP2 POP PUSH2 0x1368 DUP3 DUP6 PUSH2 0x12FB JUMP JUMPDEST SWAP2 POP PUSH2 0x1374 DUP3 DUP5 PUSH2 0x12D9 JUMP JUMPDEST PUSH1 0x20 DUP3 ADD SWAP2 POP DUP2 SWAP1 POP SWAP7 SWAP6 POP POP POP POP POP POP JUMP JUMPDEST PUSH32 0x19457468657265756D205369676E6564204D6573736167653A0A333200000000 PUSH1 0x0 DUP3 ADD MSTORE POP JUMP JUMPDEST PUSH1 0x0 PUSH2 0x13BD PUSH1 0x1C DUP4 PUSH2 0x12F0 JUMP JUMPDEST SWAP2 POP PUSH2 0x13C8 DUP3 PUSH2 0x1387 JUMP JUMPDEST PUSH1 0x1C DUP3 ADD SWAP1 POP SWAP2 SWAP1 POP JUMP JUMPDEST PUSH1 0x0 DUP2 SWAP1 POP SWAP2 SWAP1 POP JUMP JUMPDEST PUSH2 0x13EE PUSH2 0x13E9 DUP3 PUSH2 0xC0A JUMP JUMPDEST PUSH2 0x13D3 JUMP JUMPDEST DUP3 MSTORE POP POP JUMP JUMPDEST PUSH1 0x0 PUSH2 0x13FF DUP3 PUSH2 0x13B0 JUMP JUMPDEST SWAP2 POP PUSH2 0x140B DUP3 DUP5 PUSH2 0x13DD JUMP JUMPDEST PUSH1 0x20 DUP3 ADD SWAP2 POP DUP2 SWAP1 POP SWAP3 SWAP2 POP POP JUMP JUMPDEST PUSH2 0x1423 DUP2 PUSH2 0xDF1 JUMP JUMPDEST DUP3 MSTORE POP POP JUMP JUMPDEST PUSH1 0x0 PUSH1 0x80 DUP3 ADD SWAP1 POP PUSH2 0x143E PUSH1 0x0 DUP4 ADD DUP8 PUSH2 0xF93 JUMP JUMPDEST PUSH2 0x144B PUSH1 0x20 DUP4 ADD DUP7 PUSH2 0x141A JUMP JUMPDEST PUSH2 0x1458 PUSH1 0x40 DUP4 ADD DUP6 PUSH2 0xF93 JUMP JUMPDEST PUSH2 0x1465 PUSH1 0x60 DUP4 ADD DUP5 PUSH2 0xF93 JUMP JUMPDEST SWAP6 SWAP5 POP POP POP POP POP JUMP JUMPDEST PUSH32 0x4E487B7100000000000000000000000000000000000000000000000000000000 PUSH1 0x0 MSTORE PUSH1 0x21 PUSH1 0x4 MSTORE PUSH1 0x24 PUSH1 0x0 REVERT JUMPDEST PUSH32 0x45434453413A20696E76616C6964207369676E61747572650000000000000000 PUSH1 0x0 DUP3 ADD MSTORE POP JUMP JUMPDEST PUSH1 0x0 PUSH2 0x14D3 PUSH1 0x18 DUP4 PUSH2 0xFBD JUMP JUMPDEST SWAP2 POP PUSH2 0x14DE DUP3 PUSH2 0x149D JUMP JUMPDEST PUSH1 0x20 DUP3 ADD SWAP1 POP SWAP2 SWAP1 POP JUMP JUMPDEST PUSH1 0x0 PUSH1 0x20 DUP3 ADD SWAP1 POP DUP2 DUP2 SUB PUSH1 0x0 DUP4 ADD MSTORE PUSH2 0x1502 DUP2 PUSH2 0x14C6 JUMP JUMPDEST SWAP1 POP SWAP2 SWAP1 POP JUMP JUMPDEST PUSH32 0x45434453413A20696E76616C6964207369676E6174757265206C656E67746800 PUSH1 0x0 DUP3 ADD MSTORE POP JUMP JUMPDEST PUSH1 0x0 PUSH2 0x153F PUSH1 0x1F DUP4 PUSH2 0xFBD JUMP JUMPDEST SWAP2 POP PUSH2 0x154A DUP3 PUSH2 0x1509 JUMP JUMPDEST PUSH1 0x20 DUP3 ADD SWAP1 POP SWAP2 SWAP1 POP JUMP JUMPDEST PUSH1 0x0 PUSH1 0x20 DUP3 ADD SWAP1 POP DUP2 DUP2 SUB PUSH1 0x0 DUP4 ADD MSTORE PUSH2 0x156E DUP2 PUSH2 0x1532 JUMP JUMPDEST SWAP1 POP SWAP2 SWAP1 POP JUMP JUMPDEST PUSH32 0x45434453413A20696E76616C6964207369676E6174757265202773272076616C PUSH1 0x0 DUP3 ADD MSTORE PUSH32 0x7565000000000000000000000000000000000000000000000000000000000000 PUSH1 0x20 DUP3 ADD MSTORE POP JUMP JUMPDEST PUSH1 0x0 PUSH2 0x15D1 PUSH1 0x22 DUP4 PUSH2 0xFBD JUMP JUMPDEST SWAP2 POP PUSH2 0x15DC DUP3 PUSH2 0x1575 JUMP JUMPDEST PUSH1 0x40 DUP3 ADD SWAP1 POP SWAP2 SWAP1 POP JUMP JUMPDEST PUSH1 0x0 PUSH1 0x20 DUP3 ADD SWAP1 POP DUP2 DUP2 SUB PUSH1 0x0 DUP4 ADD MSTORE PUSH2 0x1600 DUP2 PUSH2 0x15C4 JUMP JUMPDEST SWAP1 POP SWAP2 SWAP1 POP JUMP JUMPDEST PUSH32 0x45434453413A20696E76616C6964207369676E6174757265202776272076616C PUSH1 0x0 DUP3 ADD MSTORE PUSH32 0x7565000000000000000000000000000000000000000000000000000000000000 PUSH1 0x20 DUP3 ADD MSTORE POP JUMP JUMPDEST PUSH1 0x0 PUSH2 0x1663 PUSH1 0x22 DUP4 PUSH2 0xFBD JUMP JUMPDEST SWAP2 POP PUSH2 0x166E DUP3 PUSH2 0x1607 JUMP JUMPDEST PUSH1 0x40 DUP3 ADD SWAP1 POP SWAP2 SWAP1 POP JUMP JUMPDEST PUSH1 0x0 PUSH1 0x20 DUP3 ADD SWAP1 POP DUP2 DUP2 SUB PUSH1 0x0 DUP4 ADD MSTORE PUSH2 0x1692 DUP2 PUSH2 0x1656 JUMP JUMPDEST SWAP1 POP SWAP2 SWAP1 POP JUMP INVALID LOG2 PUSH5 0x6970667358 0x22 SLT KECCAK256 REVERT 0xD9 0xC6 RETURNDATACOPY SSTORE 0x2D 0xAD ADDMOD CODECOPY 0xF7 0xC9 0xD7 CALLDATACOPY 0xE2 DUP10 PUSH16 0x2D08A97E3D6FF9A6BA0BC438376D871B PUSH5 0x736F6C6343 STOP ADDMOD 0xD STOP CALLER "},"gasEstimates":{"creation":{"codeDepositCost":"1167800","executionCost":"infinite","totalCost":"infinite"},"external":{"deposit(address,uint256,string,uint256)":"infinite","deposited(bytes32)":"2819","hashMessage(address,address,uint256,string,uint256)":"infinite","onERC721Received(address,address,uint256,bytes)":"infinite","validator()":"2511","withdraw(address,address,uint256,string,uint256,uint8,bytes32,bytes32)":"infinite","withdrew(bytes32)":"2818"}},"methodIdentifiers":{"deposit(address,uint256,string,uint256)":"2762c75a","deposited(bytes32)":"1f36edcd","hashMessage(address,address,uint256,string,uint256)":"fccc8978","onERC721Received(address,address,uint256,bytes)":"150b7a02","validator()":"3a5381b5","withdraw(address,address,uint256,string,uint256,uint8,bytes32,bytes32)":"f76d9d34","withdrew(bytes32)":"52d5e799"}},"storageLayout":{"storage":[{"astId":28,"contract":"Bridge721.sol:Bridge721","label":"validator","offset":0,"slot":"0","type":"t_address"},{"astId":32,"contract":"Bridge721.sol:Bridge721","label":"deposited","offset":0,"slot":"1","type":"t_mapping(t_bytes32,t_bool)"},{"astId":36,"contract":"Bridge721.sol:Bridge721","label":"withdrew","offset":0,"slot":"2","type":"t_mapping(t_bytes32,t_bool)"}],"types":{"t_address":{"encoding":"inplace","label":"address","numberOfBytes":"20"},"t_bool":{"encoding":"inplace","label":"bool","numberOfBytes":"1"},"t_bytes32":{"encoding":"inplace","label":"bytes32","numberOfBytes":"32"},"t_mapping(t_bytes32,t_bool)":{"encoding":"mapping","key":"t_bytes32","label":"mapping(bytes32 => bool)","numberOfBytes":"32","value":"t_bool"}}},"userdoc":{"kind":"user","methods":{},"version":1}}