{"abi":[{"inputs":[],"stateMutability":"nonpayable","type":"constructor"},{"anonymous":false,"inputs":[{"indexed":true,"internalType":"address","name":"owner","type":"address"},{"indexed":true,"internalType":"address","name":"approved","type":"address"},{"indexed":true,"internalType":"uint256","name":"tokenId","type":"uint256"}],"name":"Approval","type":"event"},{"anonymous":false,"inputs":[{"indexed":true,"internalType":"address","name":"owner","type":"address"},{"indexed":true,"internalType":"address","name":"operator","type":"address"},{"indexed":false,"internalType":"bool","name":"approved","type":"bool"}],"name":"ApprovalForAll","type":"event"},{"anonymous":false,"inputs":[{"indexed":false,"internalType":"address","name":"operator","type":"address"},{"indexed":false,"internalType":"address","name":"from","type":"address"},{"indexed":false,"internalType":"uint256","name":"tokenId","type":"uint256"},{"indexed":false,"internalType":"bytes","name":"data","type":"bytes"}],"name":"NftReceived","type":"event"},{"anonymous":false,"inputs":[{"indexed":true,"internalType":"address","name":"from","type":"address"},{"indexed":true,"internalType":"address","name":"to","type":"address"},{"indexed":true,"internalType":"uint256","name":"tokenId","type":"uint256"}],"name":"Transfer","type":"event"},{"inputs":[{"internalType":"address","name":"to","type":"address"},{"internalType":"uint256","name":"tokenId","type":"uint256"}],"name":"approve","outputs":[],"stateMutability":"nonpayable","type":"function"},{"inputs":[{"internalType":"address","name":"owner","type":"address"}],"name":"balanceOf","outputs":[{"internalType":"uint256","name":"","type":"uint256"}],"stateMutability":"view","type":"function"},{"inputs":[{"internalType":"uint256","name":"tokenId","type":"uint256"}],"name":"burn","outputs":[],"stateMutability":"nonpayable","type":"function"},{"inputs":[{"internalType":"uint256","name":"tokenId","type":"uint256"}],"name":"getApproved","outputs":[{"internalType":"address","name":"","type":"address"}],"stateMutability":"view","type":"function"},{"inputs":[{"internalType":"address","name":"owner","type":"address"},{"internalType":"address","name":"operator","type":"address"}],"name":"isApprovedForAll","outputs":[{"internalType":"bool","name":"","type":"bool"}],"stateMutability":"view","type":"function"},{"inputs":[{"internalType":"address","name":"recipient","type":"address"},{"internalType":"string","name":"tokenURI","type":"string"}],"name":"mint","outputs":[{"internalType":"uint256","name":"","type":"uint256"}],"stateMutability":"nonpayable","type":"function"},{"inputs":[],"name":"name","outputs":[{"internalType":"string","name":"","type":"string"}],"stateMutability":"view","type":"function"},{"inputs":[{"internalType":"address","name":"operator","type":"address"},{"internalType":"address","name":"from","type":"address"},{"internalType":"uint256","name":"tokenId","type":"uint256"},{"internalType":"bytes","name":"data","type":"bytes"}],"name":"onERC721Received","outputs":[{"internalType":"bytes4","name":"","type":"bytes4"}],"stateMutability":"nonpayable","type":"function"},{"inputs":[{"internalType":"uint256","name":"tokenId","type":"uint256"}],"name":"ownerOf","outputs":[{"internalType":"address","name":"","type":"address"}],"stateMutability":"view","type":"function"},{"inputs":[{"internalType":"address","name":"from","type":"address"},{"internalType":"address","name":"to","type":"address"},{"internalType":"uint256","name":"tokenId","type":"uint256"}],"name":"safeTransferFrom","outputs":[],"stateMutability":"nonpayable","type":"function"},{"inputs":[{"internalType":"address","name":"from","type":"address"},{"internalType":"address","name":"to","type":"address"},{"internalType":"uint256","name":"tokenId","type":"uint256"},{"internalType":"bytes","name":"_data","type":"bytes"}],"name":"safeTransferFrom","outputs":[],"stateMutability":"nonpayable","type":"function"},{"inputs":[{"internalType":"address","name":"operator","type":"address"},{"internalType":"bool","name":"approved","type":"bool"}],"name":"setApprovalForAll","outputs":[],"stateMutability":"nonpayable","type":"function"},{"inputs":[{"internalType":"bytes4","name":"interfaceId","type":"bytes4"}],"name":"supportsInterface","outputs":[{"internalType":"bool","name":"","type":"bool"}],"stateMutability":"view","type":"function"},{"inputs":[],"name":"symbol","outputs":[{"internalType":"string","name":"","type":"string"}],"stateMutability":"view","type":"function"},{"inputs":[{"internalType":"uint256","name":"tokenId","type":"uint256"}],"name":"tokenURI","outputs":[{"internalType":"string","name":"","type":"string"}],"stateMutability":"view","type":"function"},{"inputs":[{"internalType":"address","name":"from","type":"address"},{"internalType":"address","name":"to","type":"address"},{"internalType":"uint256","name":"tokenId","type":"uint256"}],"name":"transferFrom","outputs":[],"stateMutability":"nonpayable","type":"function"}],"devdoc":{"kind":"dev","methods":{"approve(address,uint256)":{"details":"See {IERC721-approve}."},"balanceOf(address)":{"details":"See {IERC721-balanceOf}."},"getApproved(uint256)":{"details":"See {IERC721-getApproved}."},"isApprovedForAll(address,address)":{"details":"See {IERC721-isApprovedForAll}."},"name()":{"details":"See {IERC721Metadata-name}."},"onERC721Received(address,address,uint256,bytes)":{"details":"Whenever an {IERC721} `tokenId` token is transferred to this contract via {IERC721-safeTransferFrom} by `operator` from `from`, this function is called. It must return its Solidity selector to confirm the token transfer. If any other value is returned or the interface is not implemented by the recipient, the transfer will be reverted. The selector can be obtained in Solidity with `IERC721.onERC721Received.selector`."},"ownerOf(uint256)":{"details":"See {IERC721-ownerOf}."},"safeTransferFrom(address,address,uint256)":{"details":"See {IERC721-safeTransferFrom}."},"safeTransferFrom(address,address,uint256,bytes)":{"details":"See {IERC721-safeTransferFrom}."},"setApprovalForAll(address,bool)":{"details":"See {IERC721-setApprovalForAll}."},"supportsInterface(bytes4)":{"details":"See {IERC165-supportsInterface}."},"symbol()":{"details":"See {IERC721Metadata-symbol}."},"tokenURI(uint256)":{"details":"See {IERC721Metadata-tokenURI}."},"transferFrom(address,address,uint256)":{"details":"See {IERC721-transferFrom}."}},"version":1},"evm":{"assembly":"    /* \"MeterNft721.sol\":522:1552  contract MeterNft721 is ERC721URIStorage, IERC721Receiver {... */\n  mstore(0x40, 0x80)\n    /* \"MeterNft721.sol\":764:818  constructor() ERC721('Meterio NFT Minter', 'MTNFT') {} */\n  callvalue\n  dup1\n  iszero\n  tag_1\n  jumpi\n  0x00\n  dup1\n  revert\ntag_1:\n  pop\n    /* \"@openzeppelin/contracts/token/ERC721/ERC721.sol\":1390:1503   */\n  mload(0x40)\n  dup1\n  0x40\n  add\n  0x40\n  mstore\n  dup1\n  0x12\n  dup2\n  mstore\n  0x20\n  add\n  0x4d65746572696f204e4654204d696e7465720000000000000000000000000000\n  dup2\n  mstore\n  pop\n  mload(0x40)\n  dup1\n  0x40\n  add\n  0x40\n  mstore\n  dup1\n  0x05\n  dup2\n  mstore\n  0x20\n  add\n  0x4d544e4654000000000000000000000000000000000000000000000000000000\n  dup2\n  mstore\n  pop\n    /* \"@openzeppelin/contracts/token/ERC721/ERC721.sol\":1464:1469   */\n  dup2\n    /* \"@openzeppelin/contracts/token/ERC721/ERC721.sol\":1456:1461   */\n  0x00\n    /* \"@openzeppelin/contracts/token/ERC721/ERC721.sol\":1456:1469   */\n  swap1\n  dup1\n  mload\n  swap1\n  0x20\n  add\n  swap1\n  tag_5\n  swap3\n  swap2\n  swap1\n  tag_6\n  jump\t// in\ntag_5:\n  pop\n    /* \"@openzeppelin/contracts/token/ERC721/ERC721.sol\":1489:1496   */\n  dup1\n    /* \"@openzeppelin/contracts/token/ERC721/ERC721.sol\":1479:1486   */\n  0x01\n    /* \"@openzeppelin/contracts/token/ERC721/ERC721.sol\":1479:1496   */\n  swap1\n  dup1\n  mload\n  swap1\n  0x20\n  add\n  swap1\n  tag_7\n  swap3\n  swap2\n  swap1\n  tag_6\n  jump\t// in\ntag_7:\n  pop\n    /* \"@openzeppelin/contracts/token/ERC721/ERC721.sol\":1390:1503   */\n  pop\n  pop\n    /* \"MeterNft721.sol\":522:1552  contract MeterNft721 is ERC721URIStorage, IERC721Receiver {... */\n  jump(tag_9)\ntag_6:\n  dup3\n  dup1\n  sload\n  tag_10\n  swap1\n  tag_11\n  jump\t// in\ntag_10:\n  swap1\n  0x00\n  mstore\n  keccak256(0x00, 0x20)\n  swap1\n  0x1f\n  add\n  0x20\n  swap1\n  div\n  dup2\n  add\n  swap3\n  dup3\n  tag_13\n  jumpi\n  0x00\n  dup6\n  sstore\n  jump(tag_12)\ntag_13:\n  dup3\n  0x1f\n  lt\n  tag_14\n  jumpi\n  dup1\n  mload\n  not(0xff)\n  and\n  dup4\n  dup1\n  add\n  or\n  dup6\n  sstore\n  jump(tag_12)\ntag_14:\n  dup3\n  dup1\n  add\n  0x01\n  add\n  dup6\n  sstore\n  dup3\n  iszero\n  tag_12\n  jumpi\n  swap2\n  dup3\n  add\ntag_15:\n  dup3\n  dup2\n  gt\n  iszero\n  tag_16\n  jumpi\n  dup3\n  mload\n  dup3\n  sstore\n  swap2\n  0x20\n  add\n  swap2\n  swap1\n  0x01\n  add\n  swap1\n  jump(tag_15)\ntag_16:\ntag_12:\n  pop\n  swap1\n  pop\n  tag_17\n  swap2\n  swap1\n  tag_18\n  jump\t// in\ntag_17:\n  pop\n  swap1\n  jump\t// out\ntag_18:\ntag_19:\n  dup1\n  dup3\n  gt\n  iszero\n  tag_20\n  jumpi\n  0x00\n  dup2\n  0x00\n  swap1\n  sstore\n  pop\n  0x01\n  add\n  jump(tag_19)\ntag_20:\n  pop\n  swap1\n  jump\t// out\n    /* \"#utility.yul\":7:187   */\ntag_21:\n    /* \"#utility.yul\":55:132   */\n  0x4e487b7100000000000000000000000000000000000000000000000000000000\n    /* \"#utility.yul\":52:53   */\n  0x00\n    /* \"#utility.yul\":45:133   */\n  mstore\n    /* \"#utility.yul\":152:156   */\n  0x22\n    /* \"#utility.yul\":149:150   */\n  0x04\n    /* \"#utility.yul\":142:157   */\n  mstore\n    /* \"#utility.yul\":176:180   */\n  0x24\n    /* \"#utility.yul\":173:174   */\n  0x00\n    /* \"#utility.yul\":166:181   */\n  revert\n    /* \"#utility.yul\":193:513   */\ntag_11:\n    /* \"#utility.yul\":237:243   */\n  0x00\n    /* \"#utility.yul\":274:275   */\n  0x02\n    /* \"#utility.yul\":268:272   */\n  dup3\n    /* \"#utility.yul\":264:276   */\n  div\n    /* \"#utility.yul\":254:276   */\n  swap1\n  pop\n    /* \"#utility.yul\":321:322   */\n  0x01\n    /* \"#utility.yul\":315:319   */\n  dup3\n    /* \"#utility.yul\":311:323   */\n  and\n    /* \"#utility.yul\":342:360   */\n  dup1\n    /* \"#utility.yul\":332:413   */\n  tag_25\n  jumpi\n    /* \"#utility.yul\":398:402   */\n  0x7f\n    /* \"#utility.yul\":390:396   */\n  dup3\n    /* \"#utility.yul\":386:403   */\n  and\n    /* \"#utility.yul\":376:403   */\n  swap2\n  pop\n    /* \"#utility.yul\":332:413   */\ntag_25:\n    /* \"#utility.yul\":460:462   */\n  0x20\n    /* \"#utility.yul\":452:458   */\n  dup3\n    /* \"#utility.yul\":449:463   */\n  lt\n    /* \"#utility.yul\":429:447   */\n  dup2\n    /* \"#utility.yul\":426:464   */\n  sub\n    /* \"#utility.yul\":423:507   */\n  tag_26\n  jumpi\n    /* \"#utility.yul\":479:497   */\n  tag_27\n  tag_21\n  jump\t// in\ntag_27:\n    /* \"#utility.yul\":423:507   */\ntag_26:\n    /* \"#utility.yul\":244:513   */\n  pop\n    /* \"#utility.yul\":193:513   */\n  swap2\n  swap1\n  pop\n  jump\t// out\n    /* \"MeterNft721.sol\":522:1552  contract MeterNft721 is ERC721URIStorage, IERC721Receiver {... */\ntag_9:\n  dataSize(sub_0)\n  dup1\n  dataOffset(sub_0)\n  0x00\n  codecopy\n  0x00\n  return\nstop\n\nsub_0: assembly {\n        /* \"MeterNft721.sol\":522:1552  contract MeterNft721 is ERC721URIStorage, IERC721Receiver {... */\n      mstore(0x40, 0x80)\n      callvalue\n      dup1\n      iszero\n      tag_1\n      jumpi\n      0x00\n      dup1\n      revert\n    tag_1:\n      pop\n      jumpi(tag_2, lt(calldatasize, 0x04))\n      shr(0xe0, calldataload(0x00))\n      dup1\n      0x6352211e\n      gt\n      tag_19\n      jumpi\n      dup1\n      0xb88d4fde\n      gt\n      tag_20\n      jumpi\n      dup1\n      0xb88d4fde\n      eq\n      tag_15\n      jumpi\n      dup1\n      0xc87b56dd\n      eq\n      tag_16\n      jumpi\n      dup1\n      0xd0def521\n      eq\n      tag_17\n      jumpi\n      dup1\n      0xe985e9c5\n      eq\n      tag_18\n      jumpi\n      jump(tag_2)\n    tag_20:\n      dup1\n      0x6352211e\n      eq\n      tag_11\n      jumpi\n      dup1\n      0x70a08231\n      eq\n      tag_12\n      jumpi\n      dup1\n      0x95d89b41\n      eq\n      tag_13\n      jumpi\n      dup1\n      0xa22cb465\n      eq\n      tag_14\n      jumpi\n      jump(tag_2)\n    tag_19:\n      dup1\n      0x150b7a02\n      gt\n      tag_21\n      jumpi\n      dup1\n      0x150b7a02\n      eq\n      tag_7\n      jumpi\n      dup1\n      0x23b872dd\n      eq\n      tag_8\n      jumpi\n      dup1\n      0x42842e0e\n      eq\n      tag_9\n      jumpi\n      dup1\n      0x42966c68\n      eq\n      tag_10\n      jumpi\n      jump(tag_2)\n    tag_21:\n      dup1\n      0x01ffc9a7\n      eq\n      tag_3\n      jumpi\n      dup1\n      0x06fdde03\n      eq\n      tag_4\n      jumpi\n      dup1\n      0x081812fc\n      eq\n      tag_5\n      jumpi\n      dup1\n      0x095ea7b3\n      eq\n      tag_6\n      jumpi\n    tag_2:\n      0x00\n      dup1\n      revert\n        /* \"@openzeppelin/contracts/token/ERC721/ERC721.sol\":1570:1870   */\n    tag_3:\n      tag_22\n      0x04\n      dup1\n      calldatasize\n      sub\n      dup2\n      add\n      swap1\n      tag_23\n      swap2\n      swap1\n      tag_24\n      jump\t// in\n    tag_23:\n      tag_25\n      jump\t// in\n    tag_22:\n      mload(0x40)\n      tag_26\n      swap2\n      swap1\n      tag_27\n      jump\t// in\n    tag_26:\n      mload(0x40)\n      dup1\n      swap2\n      sub\n      swap1\n      return\n        /* \"@openzeppelin/contracts/token/ERC721/ERC721.sol\":2488:2586   */\n    tag_4:\n      tag_28\n      tag_29\n      jump\t// in\n    tag_28:\n      mload(0x40)\n      tag_30\n      swap2\n      swap1\n      tag_31\n      jump\t// in\n    tag_30:\n      mload(0x40)\n      dup1\n      swap2\n      sub\n      swap1\n      return\n        /* \"@openzeppelin/contracts/token/ERC721/ERC721.sol\":3999:4216   */\n    tag_5:\n      tag_32\n      0x04\n      dup1\n      calldatasize\n      sub\n      dup2\n      add\n      swap1\n      tag_33\n      swap2\n      swap1\n      tag_34\n      jump\t// in\n    tag_33:\n      tag_35\n      jump\t// in\n    tag_32:\n      mload(0x40)\n      tag_36\n      swap2\n      swap1\n      tag_37\n      jump\t// in\n    tag_36:\n      mload(0x40)\n      dup1\n      swap2\n      sub\n      swap1\n      return\n        /* \"@openzeppelin/contracts/token/ERC721/ERC721.sol\":3537:3938   */\n    tag_6:\n      tag_38\n      0x04\n      dup1\n      calldatasize\n      sub\n      dup2\n      add\n      swap1\n      tag_39\n      swap2\n      swap1\n      tag_40\n      jump\t// in\n    tag_39:\n      tag_41\n      jump\t// in\n    tag_38:\n      stop\n        /* \"MeterNft721.sol\":1208:1549  function onERC721Received(... */\n    tag_7:\n      tag_42\n      0x04\n      dup1\n      calldatasize\n      sub\n      dup2\n      add\n      swap1\n      tag_43\n      swap2\n      swap1\n      tag_44\n      jump\t// in\n    tag_43:\n      tag_45\n      jump\t// in\n    tag_42:\n      mload(0x40)\n      tag_46\n      swap2\n      swap1\n      tag_47\n      jump\t// in\n    tag_46:\n      mload(0x40)\n      dup1\n      swap2\n      sub\n      swap1\n      return\n        /* \"@openzeppelin/contracts/token/ERC721/ERC721.sol\":4726:5056   */\n    tag_8:\n      tag_48\n      0x04\n      dup1\n      calldatasize\n      sub\n      dup2\n      add\n      swap1\n      tag_49\n      swap2\n      swap1\n      tag_50\n      jump\t// in\n    tag_49:\n      tag_51\n      jump\t// in\n    tag_48:\n      stop\n        /* \"@openzeppelin/contracts/token/ERC721/ERC721.sol\":5122:5301   */\n    tag_9:\n      tag_52\n      0x04\n      dup1\n      calldatasize\n      sub\n      dup2\n      add\n      swap1\n      tag_53\n      swap2\n      swap1\n      tag_50\n      jump\t// in\n    tag_53:\n      tag_54\n      jump\t// in\n    tag_52:\n      stop\n        /* \"MeterNft721.sol\":1129:1200  function burn(uint256 tokenId) public {... */\n    tag_10:\n      tag_55\n      0x04\n      dup1\n      calldatasize\n      sub\n      dup2\n      add\n      swap1\n      tag_56\n      swap2\n      swap1\n      tag_34\n      jump\t// in\n    tag_56:\n      tag_57\n      jump\t// in\n    tag_55:\n      stop\n        /* \"@openzeppelin/contracts/token/ERC721/ERC721.sol\":2191:2426   */\n    tag_11:\n      tag_58\n      0x04\n      dup1\n      calldatasize\n      sub\n      dup2\n      add\n      swap1\n      tag_59\n      swap2\n      swap1\n      tag_34\n      jump\t// in\n    tag_59:\n      tag_60\n      jump\t// in\n    tag_58:\n      mload(0x40)\n      tag_61\n      swap2\n      swap1\n      tag_37\n      jump\t// in\n    tag_61:\n      mload(0x40)\n      dup1\n      swap2\n      sub\n      swap1\n      return\n        /* \"@openzeppelin/contracts/token/ERC721/ERC721.sol\":1929:2134   */\n    tag_12:\n      tag_62\n      0x04\n      dup1\n      calldatasize\n      sub\n      dup2\n      add\n      swap1\n      tag_63\n      swap2\n      swap1\n      tag_64\n      jump\t// in\n    tag_63:\n      tag_65\n      jump\t// in\n    tag_62:\n      mload(0x40)\n      tag_66\n      swap2\n      swap1\n      tag_67\n      jump\t// in\n    tag_66:\n      mload(0x40)\n      dup1\n      swap2\n      sub\n      swap1\n      return\n        /* \"@openzeppelin/contracts/token/ERC721/ERC721.sol\":2650:2752   */\n    tag_13:\n      tag_68\n      tag_69\n      jump\t// in\n    tag_68:\n      mload(0x40)\n      tag_70\n      swap2\n      swap1\n      tag_31\n      jump\t// in\n    tag_70:\n      mload(0x40)\n      dup1\n      swap2\n      sub\n      swap1\n      return\n        /* \"@openzeppelin/contracts/token/ERC721/ERC721.sol\":4283:4436   */\n    tag_14:\n      tag_71\n      0x04\n      dup1\n      calldatasize\n      sub\n      dup2\n      add\n      swap1\n      tag_72\n      swap2\n      swap1\n      tag_73\n      jump\t// in\n    tag_72:\n      tag_74\n      jump\t// in\n    tag_71:\n      stop\n        /* \"@openzeppelin/contracts/token/ERC721/ERC721.sol\":5367:5687   */\n    tag_15:\n      tag_75\n      0x04\n      dup1\n      calldatasize\n      sub\n      dup2\n      add\n      swap1\n      tag_76\n      swap2\n      swap1\n      tag_44\n      jump\t// in\n    tag_76:\n      tag_77\n      jump\t// in\n    tag_75:\n      stop\n        /* \"@openzeppelin/contracts/token/ERC721/extensions/ERC721URIStorage.sol\":467:1130   */\n    tag_16:\n      tag_78\n      0x04\n      dup1\n      calldatasize\n      sub\n      dup2\n      add\n      swap1\n      tag_79\n      swap2\n      swap1\n      tag_34\n      jump\t// in\n    tag_79:\n      tag_80\n      jump\t// in\n    tag_78:\n      mload(0x40)\n      tag_81\n      swap2\n      swap1\n      tag_31\n      jump\t// in\n    tag_81:\n      mload(0x40)\n      dup1\n      swap2\n      sub\n      swap1\n      return\n        /* \"MeterNft721.sol\":826:1121  function mint(address recipient, string memory tokenURI) public returns (uint256) {... */\n    tag_17:\n      tag_82\n      0x04\n      dup1\n      calldatasize\n      sub\n      dup2\n      add\n      swap1\n      tag_83\n      swap2\n      swap1\n      tag_84\n      jump\t// in\n    tag_83:\n      tag_85\n      jump\t// in\n    tag_82:\n      mload(0x40)\n      tag_86\n      swap2\n      swap1\n      tag_67\n      jump\t// in\n    tag_86:\n      mload(0x40)\n      dup1\n      swap2\n      sub\n      swap1\n      return\n        /* \"@openzeppelin/contracts/token/ERC721/ERC721.sol\":4502:4664   */\n    tag_18:\n      tag_87\n      0x04\n      dup1\n      calldatasize\n      sub\n      dup2\n      add\n      swap1\n      tag_88\n      swap2\n      swap1\n      tag_89\n      jump\t// in\n    tag_88:\n      tag_90\n      jump\t// in\n    tag_87:\n      mload(0x40)\n      tag_91\n      swap2\n      swap1\n      tag_27\n      jump\t// in\n    tag_91:\n      mload(0x40)\n      dup1\n      swap2\n      sub\n      swap1\n      return\n        /* \"@openzeppelin/contracts/token/ERC721/ERC721.sol\":1570:1870   */\n    tag_25:\n        /* \"@openzeppelin/contracts/token/ERC721/ERC721.sol\":1672:1676   */\n      0x00\n        /* \"@openzeppelin/contracts/token/ERC721/ERC721.sol\":1722:1747   */\n      0x80ac58cd00000000000000000000000000000000000000000000000000000000\n        /* \"@openzeppelin/contracts/token/ERC721/ERC721.sol\":1707:1747   */\n      not(0xffffffffffffffffffffffffffffffffffffffffffffffffffffffff)\n      and\n        /* \"@openzeppelin/contracts/token/ERC721/ERC721.sol\":1707:1718   */\n      dup3\n        /* \"@openzeppelin/contracts/token/ERC721/ERC721.sol\":1707:1747   */\n      not(0xffffffffffffffffffffffffffffffffffffffffffffffffffffffff)\n      and\n      eq\n        /* \"@openzeppelin/contracts/token/ERC721/ERC721.sol\":1707:1811   */\n      dup1\n      tag_93\n      jumpi\n      pop\n        /* \"@openzeppelin/contracts/token/ERC721/ERC721.sol\":1778:1811   */\n      0x5b5e139f00000000000000000000000000000000000000000000000000000000\n        /* \"@openzeppelin/contracts/token/ERC721/ERC721.sol\":1763:1811   */\n      not(0xffffffffffffffffffffffffffffffffffffffffffffffffffffffff)\n      and\n        /* \"@openzeppelin/contracts/token/ERC721/ERC721.sol\":1763:1774   */\n      dup3\n        /* \"@openzeppelin/contracts/token/ERC721/ERC721.sol\":1763:1811   */\n      not(0xffffffffffffffffffffffffffffffffffffffffffffffffffffffff)\n      and\n      eq\n        /* \"@openzeppelin/contracts/token/ERC721/ERC721.sol\":1707:1811   */\n    tag_93:\n        /* \"@openzeppelin/contracts/token/ERC721/ERC721.sol\":1707:1863   */\n      dup1\n      tag_94\n      jumpi\n      pop\n        /* \"@openzeppelin/contracts/token/ERC721/ERC721.sol\":1827:1863   */\n      tag_95\n        /* \"@openzeppelin/contracts/token/ERC721/ERC721.sol\":1851:1862   */\n      dup3\n        /* \"@openzeppelin/contracts/token/ERC721/ERC721.sol\":1827:1850   */\n      tag_96\n        /* \"@openzeppelin/contracts/token/ERC721/ERC721.sol\":1827:1863   */\n      jump\t// in\n    tag_95:\n        /* \"@openzeppelin/contracts/token/ERC721/ERC721.sol\":1707:1863   */\n    tag_94:\n        /* \"@openzeppelin/contracts/token/ERC721/ERC721.sol\":1688:1863   */\n      swap1\n      pop\n        /* \"@openzeppelin/contracts/token/ERC721/ERC721.sol\":1570:1870   */\n      swap2\n      swap1\n      pop\n      jump\t// out\n        /* \"@openzeppelin/contracts/token/ERC721/ERC721.sol\":2488:2586   */\n    tag_29:\n        /* \"@openzeppelin/contracts/token/ERC721/ERC721.sol\":2542:2555   */\n      0x60\n        /* \"@openzeppelin/contracts/token/ERC721/ERC721.sol\":2574:2579   */\n      0x00\n        /* \"@openzeppelin/contracts/token/ERC721/ERC721.sol\":2567:2579   */\n      dup1\n      sload\n      tag_98\n      swap1\n      tag_99\n      jump\t// in\n    tag_98:\n      dup1\n      0x1f\n      add\n      0x20\n      dup1\n      swap2\n      div\n      mul\n      0x20\n      add\n      mload(0x40)\n      swap1\n      dup2\n      add\n      0x40\n      mstore\n      dup1\n      swap3\n      swap2\n      swap1\n      dup2\n      dup2\n      mstore\n      0x20\n      add\n      dup3\n      dup1\n      sload\n      tag_100\n      swap1\n      tag_99\n      jump\t// in\n    tag_100:\n      dup1\n      iszero\n      tag_101\n      jumpi\n      dup1\n      0x1f\n      lt\n      tag_102\n      jumpi\n      0x0100\n      dup1\n      dup4\n      sload\n      div\n      mul\n      dup4\n      mstore\n      swap2\n      0x20\n      add\n      swap2\n      jump(tag_101)\n    tag_102:\n      dup3\n      add\n      swap2\n      swap1\n      0x00\n      mstore\n      keccak256(0x00, 0x20)\n      swap1\n    tag_103:\n      dup2\n      sload\n      dup2\n      mstore\n      swap1\n      0x01\n      add\n      swap1\n      0x20\n      add\n      dup1\n      dup4\n      gt\n      tag_103\n      jumpi\n      dup3\n      swap1\n      sub\n      0x1f\n      and\n      dup3\n      add\n      swap2\n    tag_101:\n      pop\n      pop\n      pop\n      pop\n      pop\n      swap1\n      pop\n        /* \"@openzeppelin/contracts/token/ERC721/ERC721.sol\":2488:2586   */\n      swap1\n      jump\t// out\n        /* \"@openzeppelin/contracts/token/ERC721/ERC721.sol\":3999:4216   */\n    tag_35:\n        /* \"@openzeppelin/contracts/token/ERC721/ERC721.sol\":4075:4082   */\n      0x00\n        /* \"@openzeppelin/contracts/token/ERC721/ERC721.sol\":4102:4118   */\n      tag_105\n        /* \"@openzeppelin/contracts/token/ERC721/ERC721.sol\":4110:4117   */\n      dup3\n        /* \"@openzeppelin/contracts/token/ERC721/ERC721.sol\":4102:4109   */\n      tag_106\n        /* \"@openzeppelin/contracts/token/ERC721/ERC721.sol\":4102:4118   */\n      jump\t// in\n    tag_105:\n        /* \"@openzeppelin/contracts/token/ERC721/ERC721.sol\":4094:4167   */\n      tag_107\n      jumpi\n      mload(0x40)\n      0x08c379a000000000000000000000000000000000000000000000000000000000\n      dup2\n      mstore\n      0x04\n      add\n      tag_108\n      swap1\n      tag_109\n      jump\t// in\n    tag_108:\n      mload(0x40)\n      dup1\n      swap2\n      sub\n      swap1\n      revert\n    tag_107:\n        /* \"@openzeppelin/contracts/token/ERC721/ERC721.sol\":4185:4200   */\n      0x04\n        /* \"@openzeppelin/contracts/token/ERC721/ERC721.sol\":4185:4209   */\n      0x00\n        /* \"@openzeppelin/contracts/token/ERC721/ERC721.sol\":4201:4208   */\n      dup4\n        /* \"@openzeppelin/contracts/token/ERC721/ERC721.sol\":4185:4209   */\n      dup2\n      mstore\n      0x20\n      add\n      swap1\n      dup2\n      mstore\n      0x20\n      add\n      0x00\n      keccak256\n      0x00\n      swap1\n      sload\n      swap1\n      0x0100\n      exp\n      swap1\n      div\n      0xffffffffffffffffffffffffffffffffffffffff\n      and\n        /* \"@openzeppelin/contracts/token/ERC721/ERC721.sol\":4178:4209   */\n      swap1\n      pop\n        /* \"@openzeppelin/contracts/token/ERC721/ERC721.sol\":3999:4216   */\n      swap2\n      swap1\n      pop\n      jump\t// out\n        /* \"@openzeppelin/contracts/token/ERC721/ERC721.sol\":3537:3938   */\n    tag_41:\n        /* \"@openzeppelin/contracts/token/ERC721/ERC721.sol\":3617:3630   */\n      0x00\n        /* \"@openzeppelin/contracts/token/ERC721/ERC721.sol\":3633:3656   */\n      tag_111\n        /* \"@openzeppelin/contracts/token/ERC721/ERC721.sol\":3648:3655   */\n      dup3\n        /* \"@openzeppelin/contracts/token/ERC721/ERC721.sol\":3633:3647   */\n      tag_60\n        /* \"@openzeppelin/contracts/token/ERC721/ERC721.sol\":3633:3656   */\n      jump\t// in\n    tag_111:\n        /* \"@openzeppelin/contracts/token/ERC721/ERC721.sol\":3617:3656   */\n      swap1\n      pop\n        /* \"@openzeppelin/contracts/token/ERC721/ERC721.sol\":3680:3685   */\n      dup1\n        /* \"@openzeppelin/contracts/token/ERC721/ERC721.sol\":3674:3685   */\n      0xffffffffffffffffffffffffffffffffffffffff\n      and\n        /* \"@openzeppelin/contracts/token/ERC721/ERC721.sol\":3674:3676   */\n      dup4\n        /* \"@openzeppelin/contracts/token/ERC721/ERC721.sol\":3674:3685   */\n      0xffffffffffffffffffffffffffffffffffffffff\n      and\n      sub\n        /* \"@openzeppelin/contracts/token/ERC721/ERC721.sol\":3666:3723   */\n      tag_112\n      jumpi\n      mload(0x40)\n      0x08c379a000000000000000000000000000000000000000000000000000000000\n      dup2\n      mstore\n      0x04\n      add\n      tag_113\n      swap1\n      tag_114\n      jump\t// in\n    tag_113:\n      mload(0x40)\n      dup1\n      swap2\n      sub\n      swap1\n      revert\n    tag_112:\n        /* \"@openzeppelin/contracts/token/ERC721/ERC721.sol\":3771:3776   */\n      dup1\n        /* \"@openzeppelin/contracts/token/ERC721/ERC721.sol\":3755:3776   */\n      0xffffffffffffffffffffffffffffffffffffffff\n      and\n        /* \"@openzeppelin/contracts/token/ERC721/ERC721.sol\":3755:3767   */\n      tag_115\n        /* \"@openzeppelin/contracts/token/ERC721/ERC721.sol\":3755:3765   */\n      tag_116\n        /* \"@openzeppelin/contracts/token/ERC721/ERC721.sol\":3755:3767   */\n      jump\t// in\n    tag_115:\n        /* \"@openzeppelin/contracts/token/ERC721/ERC721.sol\":3755:3776   */\n      0xffffffffffffffffffffffffffffffffffffffff\n      and\n      eq\n        /* \"@openzeppelin/contracts/token/ERC721/ERC721.sol\":3755:3817   */\n      dup1\n      tag_117\n      jumpi\n      pop\n        /* \"@openzeppelin/contracts/token/ERC721/ERC721.sol\":3780:3817   */\n      tag_118\n        /* \"@openzeppelin/contracts/token/ERC721/ERC721.sol\":3797:3802   */\n      dup2\n        /* \"@openzeppelin/contracts/token/ERC721/ERC721.sol\":3804:3816   */\n      tag_119\n        /* \"@openzeppelin/contracts/token/ERC721/ERC721.sol\":3804:3814   */\n      tag_116\n        /* \"@openzeppelin/contracts/token/ERC721/ERC721.sol\":3804:3816   */\n      jump\t// in\n    tag_119:\n        /* \"@openzeppelin/contracts/token/ERC721/ERC721.sol\":3780:3796   */\n      tag_90\n        /* \"@openzeppelin/contracts/token/ERC721/ERC721.sol\":3780:3817   */\n      jump\t// in\n    tag_118:\n        /* \"@openzeppelin/contracts/token/ERC721/ERC721.sol\":3755:3817   */\n    tag_117:\n        /* \"@openzeppelin/contracts/token/ERC721/ERC721.sol\":3734:3899   */\n      tag_120\n      jumpi\n      mload(0x40)\n      0x08c379a000000000000000000000000000000000000000000000000000000000\n      dup2\n      mstore\n      0x04\n      add\n      tag_121\n      swap1\n      tag_122\n      jump\t// in\n    tag_121:\n      mload(0x40)\n      dup1\n      swap2\n      sub\n      swap1\n      revert\n    tag_120:\n        /* \"@openzeppelin/contracts/token/ERC721/ERC721.sol\":3910:3931   */\n      tag_123\n        /* \"@openzeppelin/contracts/token/ERC721/ERC721.sol\":3919:3921   */\n      dup4\n        /* \"@openzeppelin/contracts/token/ERC721/ERC721.sol\":3923:3930   */\n      dup4\n        /* \"@openzeppelin/contracts/token/ERC721/ERC721.sol\":3910:3918   */\n      tag_124\n        /* \"@openzeppelin/contracts/token/ERC721/ERC721.sol\":3910:3931   */\n      jump\t// in\n    tag_123:\n        /* \"@openzeppelin/contracts/token/ERC721/ERC721.sol\":3607:3938   */\n      pop\n        /* \"@openzeppelin/contracts/token/ERC721/ERC721.sol\":3537:3938   */\n      pop\n      pop\n      jump\t// out\n        /* \"MeterNft721.sol\":1208:1549  function onERC721Received(... */\n    tag_45:\n        /* \"MeterNft721.sol\":1370:1376  bytes4 */\n      0x00\n        /* \"MeterNft721.sol\":1413:1455  NftReceived(operator, from, tokenId, data) */\n      0x0895c277367ff99b8c0dec875f3149fc2c82df592f63ca6f0747ac2095169087\n        /* \"MeterNft721.sol\":1425:1433  operator */\n      dup6\n        /* \"MeterNft721.sol\":1435:1439  from */\n      dup6\n        /* \"MeterNft721.sol\":1441:1448  tokenId */\n      dup6\n        /* \"MeterNft721.sol\":1450:1454  data */\n      dup6\n        /* \"MeterNft721.sol\":1413:1455  NftReceived(operator, from, tokenId, data) */\n      mload(0x40)\n      tag_126\n      swap5\n      swap4\n      swap3\n      swap2\n      swap1\n      tag_127\n      jump\t// in\n    tag_126:\n      mload(0x40)\n      dup1\n      swap2\n      sub\n      swap1\n      log1\n        /* \"MeterNft721.sol\":1480:1540  keccak256('onERC721Received(address,address,uint256,bytes)') */\n      0x150b7a023d4804d13e8c85fb27262cb750cf6ba9f9dd3bb30d90f482ceeb4b1f\n        /* \"MeterNft721.sol\":1466:1541  return bytes4(keccak256('onERC721Received(address,address,uint256,bytes)')) */\n      swap1\n      pop\n        /* \"MeterNft721.sol\":1208:1549  function onERC721Received(... */\n      swap5\n      swap4\n      pop\n      pop\n      pop\n      pop\n      jump\t// out\n        /* \"@openzeppelin/contracts/token/ERC721/ERC721.sol\":4726:5056   */\n    tag_51:\n        /* \"@openzeppelin/contracts/token/ERC721/ERC721.sol\":4915:4956   */\n      tag_129\n        /* \"@openzeppelin/contracts/token/ERC721/ERC721.sol\":4934:4946   */\n      tag_130\n        /* \"@openzeppelin/contracts/token/ERC721/ERC721.sol\":4934:4944   */\n      tag_116\n        /* \"@openzeppelin/contracts/token/ERC721/ERC721.sol\":4934:4946   */\n      jump\t// in\n    tag_130:\n        /* \"@openzeppelin/contracts/token/ERC721/ERC721.sol\":4948:4955   */\n      dup3\n        /* \"@openzeppelin/contracts/token/ERC721/ERC721.sol\":4915:4933   */\n      tag_131\n        /* \"@openzeppelin/contracts/token/ERC721/ERC721.sol\":4915:4956   */\n      jump\t// in\n    tag_129:\n        /* \"@openzeppelin/contracts/token/ERC721/ERC721.sol\":4907:5010   */\n      tag_132\n      jumpi\n      mload(0x40)\n      0x08c379a000000000000000000000000000000000000000000000000000000000\n      dup2\n      mstore\n      0x04\n      add\n      tag_133\n      swap1\n      tag_134\n      jump\t// in\n    tag_133:\n      mload(0x40)\n      dup1\n      swap2\n      sub\n      swap1\n      revert\n    tag_132:\n        /* \"@openzeppelin/contracts/token/ERC721/ERC721.sol\":5021:5049   */\n      tag_135\n        /* \"@openzeppelin/contracts/token/ERC721/ERC721.sol\":5031:5035   */\n      dup4\n        /* \"@openzeppelin/contracts/token/ERC721/ERC721.sol\":5037:5039   */\n      dup4\n        /* \"@openzeppelin/contracts/token/ERC721/ERC721.sol\":5041:5048   */\n      dup4\n        /* \"@openzeppelin/contracts/token/ERC721/ERC721.sol\":5021:5030   */\n      tag_136\n        /* \"@openzeppelin/contracts/token/ERC721/ERC721.sol\":5021:5049   */\n      jump\t// in\n    tag_135:\n        /* \"@openzeppelin/contracts/token/ERC721/ERC721.sol\":4726:5056   */\n      pop\n      pop\n      pop\n      jump\t// out\n        /* \"@openzeppelin/contracts/token/ERC721/ERC721.sol\":5122:5301   */\n    tag_54:\n        /* \"@openzeppelin/contracts/token/ERC721/ERC721.sol\":5255:5294   */\n      tag_138\n        /* \"@openzeppelin/contracts/token/ERC721/ERC721.sol\":5272:5276   */\n      dup4\n        /* \"@openzeppelin/contracts/token/ERC721/ERC721.sol\":5278:5280   */\n      dup4\n        /* \"@openzeppelin/contracts/token/ERC721/ERC721.sol\":5282:5289   */\n      dup4\n        /* \"@openzeppelin/contracts/token/ERC721/ERC721.sol\":5255:5294   */\n      mload(0x40)\n      dup1\n      0x20\n      add\n      0x40\n      mstore\n      dup1\n      0x00\n      dup2\n      mstore\n      pop\n        /* \"@openzeppelin/contracts/token/ERC721/ERC721.sol\":5255:5271   */\n      tag_77\n        /* \"@openzeppelin/contracts/token/ERC721/ERC721.sol\":5255:5294   */\n      jump\t// in\n    tag_138:\n        /* \"@openzeppelin/contracts/token/ERC721/ERC721.sol\":5122:5301   */\n      pop\n      pop\n      pop\n      jump\t// out\n        /* \"MeterNft721.sol\":1129:1200  function burn(uint256 tokenId) public {... */\n    tag_57:\n        /* \"MeterNft721.sol\":1178:1192  _burn(tokenId) */\n      tag_140\n        /* \"MeterNft721.sol\":1184:1191  tokenId */\n      dup2\n        /* \"MeterNft721.sol\":1178:1183  _burn */\n      tag_141\n        /* \"MeterNft721.sol\":1178:1192  _burn(tokenId) */\n      jump\t// in\n    tag_140:\n        /* \"MeterNft721.sol\":1129:1200  function burn(uint256 tokenId) public {... */\n      pop\n      jump\t// out\n        /* \"@openzeppelin/contracts/token/ERC721/ERC721.sol\":2191:2426   */\n    tag_60:\n        /* \"@openzeppelin/contracts/token/ERC721/ERC721.sol\":2263:2270   */\n      0x00\n        /* \"@openzeppelin/contracts/token/ERC721/ERC721.sol\":2282:2295   */\n      dup1\n        /* \"@openzeppelin/contracts/token/ERC721/ERC721.sol\":2298:2305   */\n      0x02\n        /* \"@openzeppelin/contracts/token/ERC721/ERC721.sol\":2298:2314   */\n      0x00\n        /* \"@openzeppelin/contracts/token/ERC721/ERC721.sol\":2306:2313   */\n      dup5\n        /* \"@openzeppelin/contracts/token/ERC721/ERC721.sol\":2298:2314   */\n      dup2\n      mstore\n      0x20\n      add\n      swap1\n      dup2\n      mstore\n      0x20\n      add\n      0x00\n      keccak256\n      0x00\n      swap1\n      sload\n      swap1\n      0x0100\n      exp\n      swap1\n      div\n      0xffffffffffffffffffffffffffffffffffffffff\n      and\n        /* \"@openzeppelin/contracts/token/ERC721/ERC721.sol\":2282:2314   */\n      swap1\n      pop\n        /* \"@openzeppelin/contracts/token/ERC721/ERC721.sol\":2349:2350   */\n      0x00\n        /* \"@openzeppelin/contracts/token/ERC721/ERC721.sol\":2332:2351   */\n      0xffffffffffffffffffffffffffffffffffffffff\n      and\n        /* \"@openzeppelin/contracts/token/ERC721/ERC721.sol\":2332:2337   */\n      dup2\n        /* \"@openzeppelin/contracts/token/ERC721/ERC721.sol\":2332:2351   */\n      0xffffffffffffffffffffffffffffffffffffffff\n      and\n      sub\n        /* \"@openzeppelin/contracts/token/ERC721/ERC721.sol\":2324:2397   */\n      tag_143\n      jumpi\n      mload(0x40)\n      0x08c379a000000000000000000000000000000000000000000000000000000000\n      dup2\n      mstore\n      0x04\n      add\n      tag_144\n      swap1\n      tag_145\n      jump\t// in\n    tag_144:\n      mload(0x40)\n      dup1\n      swap2\n      sub\n      swap1\n      revert\n    tag_143:\n        /* \"@openzeppelin/contracts/token/ERC721/ERC721.sol\":2414:2419   */\n      dup1\n        /* \"@openzeppelin/contracts/token/ERC721/ERC721.sol\":2407:2419   */\n      swap2\n      pop\n      pop\n        /* \"@openzeppelin/contracts/token/ERC721/ERC721.sol\":2191:2426   */\n      swap2\n      swap1\n      pop\n      jump\t// out\n        /* \"@openzeppelin/contracts/token/ERC721/ERC721.sol\":1929:2134   */\n    tag_65:\n        /* \"@openzeppelin/contracts/token/ERC721/ERC721.sol\":2001:2008   */\n      0x00\n        /* \"@openzeppelin/contracts/token/ERC721/ERC721.sol\":2045:2046   */\n      dup1\n        /* \"@openzeppelin/contracts/token/ERC721/ERC721.sol\":2028:2047   */\n      0xffffffffffffffffffffffffffffffffffffffff\n      and\n        /* \"@openzeppelin/contracts/token/ERC721/ERC721.sol\":2028:2033   */\n      dup3\n        /* \"@openzeppelin/contracts/token/ERC721/ERC721.sol\":2028:2047   */\n      0xffffffffffffffffffffffffffffffffffffffff\n      and\n      sub\n        /* \"@openzeppelin/contracts/token/ERC721/ERC721.sol\":2020:2094   */\n      tag_147\n      jumpi\n      mload(0x40)\n      0x08c379a000000000000000000000000000000000000000000000000000000000\n      dup2\n      mstore\n      0x04\n      add\n      tag_148\n      swap1\n      tag_149\n      jump\t// in\n    tag_148:\n      mload(0x40)\n      dup1\n      swap2\n      sub\n      swap1\n      revert\n    tag_147:\n        /* \"@openzeppelin/contracts/token/ERC721/ERC721.sol\":2111:2120   */\n      0x03\n        /* \"@openzeppelin/contracts/token/ERC721/ERC721.sol\":2111:2127   */\n      0x00\n        /* \"@openzeppelin/contracts/token/ERC721/ERC721.sol\":2121:2126   */\n      dup4\n        /* \"@openzeppelin/contracts/token/ERC721/ERC721.sol\":2111:2127   */\n      0xffffffffffffffffffffffffffffffffffffffff\n      and\n      0xffffffffffffffffffffffffffffffffffffffff\n      and\n      dup2\n      mstore\n      0x20\n      add\n      swap1\n      dup2\n      mstore\n      0x20\n      add\n      0x00\n      keccak256\n      sload\n        /* \"@openzeppelin/contracts/token/ERC721/ERC721.sol\":2104:2127   */\n      swap1\n      pop\n        /* \"@openzeppelin/contracts/token/ERC721/ERC721.sol\":1929:2134   */\n      swap2\n      swap1\n      pop\n      jump\t// out\n        /* \"@openzeppelin/contracts/token/ERC721/ERC721.sol\":2650:2752   */\n    tag_69:\n        /* \"@openzeppelin/contracts/token/ERC721/ERC721.sol\":2706:2719   */\n      0x60\n        /* \"@openzeppelin/contracts/token/ERC721/ERC721.sol\":2738:2745   */\n      0x01\n        /* \"@openzeppelin/contracts/token/ERC721/ERC721.sol\":2731:2745   */\n      dup1\n      sload\n      tag_151\n      swap1\n      tag_99\n      jump\t// in\n    tag_151:\n      dup1\n      0x1f\n      add\n      0x20\n      dup1\n      swap2\n      div\n      mul\n      0x20\n      add\n      mload(0x40)\n      swap1\n      dup2\n      add\n      0x40\n      mstore\n      dup1\n      swap3\n      swap2\n      swap1\n      dup2\n      dup2\n      mstore\n      0x20\n      add\n      dup3\n      dup1\n      sload\n      tag_152\n      swap1\n      tag_99\n      jump\t// in\n    tag_152:\n      dup1\n      iszero\n      tag_153\n      jumpi\n      dup1\n      0x1f\n      lt\n      tag_154\n      jumpi\n      0x0100\n      dup1\n      dup4\n      sload\n      div\n      mul\n      dup4\n      mstore\n      swap2\n      0x20\n      add\n      swap2\n      jump(tag_153)\n    tag_154:\n      dup3\n      add\n      swap2\n      swap1\n      0x00\n      mstore\n      keccak256(0x00, 0x20)\n      swap1\n    tag_155:\n      dup2\n      sload\n      dup2\n      mstore\n      swap1\n      0x01\n      add\n      swap1\n      0x20\n      add\n      dup1\n      dup4\n      gt\n      tag_155\n      jumpi\n      dup3\n      swap1\n      sub\n      0x1f\n      and\n      dup3\n      add\n      swap2\n    tag_153:\n      pop\n      pop\n      pop\n      pop\n      pop\n      swap1\n      pop\n        /* \"@openzeppelin/contracts/token/ERC721/ERC721.sol\":2650:2752   */\n      swap1\n      jump\t// out\n        /* \"@openzeppelin/contracts/token/ERC721/ERC721.sol\":4283:4436   */\n    tag_74:\n        /* \"@openzeppelin/contracts/token/ERC721/ERC721.sol\":4377:4429   */\n      tag_157\n        /* \"@openzeppelin/contracts/token/ERC721/ERC721.sol\":4396:4408   */\n      tag_158\n        /* \"@openzeppelin/contracts/token/ERC721/ERC721.sol\":4396:4406   */\n      tag_116\n        /* \"@openzeppelin/contracts/token/ERC721/ERC721.sol\":4396:4408   */\n      jump\t// in\n    tag_158:\n        /* \"@openzeppelin/contracts/token/ERC721/ERC721.sol\":4410:4418   */\n      dup4\n        /* \"@openzeppelin/contracts/token/ERC721/ERC721.sol\":4420:4428   */\n      dup4\n        /* \"@openzeppelin/contracts/token/ERC721/ERC721.sol\":4377:4395   */\n      tag_159\n        /* \"@openzeppelin/contracts/token/ERC721/ERC721.sol\":4377:4429   */\n      jump\t// in\n    tag_157:\n        /* \"@openzeppelin/contracts/token/ERC721/ERC721.sol\":4283:4436   */\n      pop\n      pop\n      jump\t// out\n        /* \"@openzeppelin/contracts/token/ERC721/ERC721.sol\":5367:5687   */\n    tag_77:\n        /* \"@openzeppelin/contracts/token/ERC721/ERC721.sol\":5536:5577   */\n      tag_161\n        /* \"@openzeppelin/contracts/token/ERC721/ERC721.sol\":5555:5567   */\n      tag_162\n        /* \"@openzeppelin/contracts/token/ERC721/ERC721.sol\":5555:5565   */\n      tag_116\n        /* \"@openzeppelin/contracts/token/ERC721/ERC721.sol\":5555:5567   */\n      jump\t// in\n    tag_162:\n        /* \"@openzeppelin/contracts/token/ERC721/ERC721.sol\":5569:5576   */\n      dup4\n        /* \"@openzeppelin/contracts/token/ERC721/ERC721.sol\":5536:5554   */\n      tag_131\n        /* \"@openzeppelin/contracts/token/ERC721/ERC721.sol\":5536:5577   */\n      jump\t// in\n    tag_161:\n        /* \"@openzeppelin/contracts/token/ERC721/ERC721.sol\":5528:5631   */\n      tag_163\n      jumpi\n      mload(0x40)\n      0x08c379a000000000000000000000000000000000000000000000000000000000\n      dup2\n      mstore\n      0x04\n      add\n      tag_164\n      swap1\n      tag_134\n      jump\t// in\n    tag_164:\n      mload(0x40)\n      dup1\n      swap2\n      sub\n      swap1\n      revert\n    tag_163:\n        /* \"@openzeppelin/contracts/token/ERC721/ERC721.sol\":5641:5680   */\n      tag_165\n        /* \"@openzeppelin/contracts/token/ERC721/ERC721.sol\":5655:5659   */\n      dup5\n        /* \"@openzeppelin/contracts/token/ERC721/ERC721.sol\":5661:5663   */\n      dup5\n        /* \"@openzeppelin/contracts/token/ERC721/ERC721.sol\":5665:5672   */\n      dup5\n        /* \"@openzeppelin/contracts/token/ERC721/ERC721.sol\":5674:5679   */\n      dup5\n        /* \"@openzeppelin/contracts/token/ERC721/ERC721.sol\":5641:5654   */\n      tag_166\n        /* \"@openzeppelin/contracts/token/ERC721/ERC721.sol\":5641:5680   */\n      jump\t// in\n    tag_165:\n        /* \"@openzeppelin/contracts/token/ERC721/ERC721.sol\":5367:5687   */\n      pop\n      pop\n      pop\n      pop\n      jump\t// out\n        /* \"@openzeppelin/contracts/token/ERC721/extensions/ERC721URIStorage.sol\":467:1130   */\n    tag_80:\n        /* \"@openzeppelin/contracts/token/ERC721/extensions/ERC721URIStorage.sol\":540:553   */\n      0x60\n        /* \"@openzeppelin/contracts/token/ERC721/extensions/ERC721URIStorage.sol\":573:589   */\n      tag_168\n        /* \"@openzeppelin/contracts/token/ERC721/extensions/ERC721URIStorage.sol\":581:588   */\n      dup3\n        /* \"@openzeppelin/contracts/token/ERC721/extensions/ERC721URIStorage.sol\":573:580   */\n      tag_106\n        /* \"@openzeppelin/contracts/token/ERC721/extensions/ERC721URIStorage.sol\":573:589   */\n      jump\t// in\n    tag_168:\n        /* \"@openzeppelin/contracts/token/ERC721/extensions/ERC721URIStorage.sol\":565:643   */\n      tag_169\n      jumpi\n      mload(0x40)\n      0x08c379a000000000000000000000000000000000000000000000000000000000\n      dup2\n      mstore\n      0x04\n      add\n      tag_170\n      swap1\n      tag_171\n      jump\t// in\n    tag_170:\n      mload(0x40)\n      dup1\n      swap2\n      sub\n      swap1\n      revert\n    tag_169:\n        /* \"@openzeppelin/contracts/token/ERC721/extensions/ERC721URIStorage.sol\":654:677   */\n      0x00\n        /* \"@openzeppelin/contracts/token/ERC721/extensions/ERC721URIStorage.sol\":680:690   */\n      0x06\n        /* \"@openzeppelin/contracts/token/ERC721/extensions/ERC721URIStorage.sol\":680:699   */\n      0x00\n        /* \"@openzeppelin/contracts/token/ERC721/extensions/ERC721URIStorage.sol\":691:698   */\n      dup5\n        /* \"@openzeppelin/contracts/token/ERC721/extensions/ERC721URIStorage.sol\":680:699   */\n      dup2\n      mstore\n      0x20\n      add\n      swap1\n      dup2\n      mstore\n      0x20\n      add\n      0x00\n      keccak256\n        /* \"@openzeppelin/contracts/token/ERC721/extensions/ERC721URIStorage.sol\":654:699   */\n      dup1\n      sload\n      tag_172\n      swap1\n      tag_99\n      jump\t// in\n    tag_172:\n      dup1\n      0x1f\n      add\n      0x20\n      dup1\n      swap2\n      div\n      mul\n      0x20\n      add\n      mload(0x40)\n      swap1\n      dup2\n      add\n      0x40\n      mstore\n      dup1\n      swap3\n      swap2\n      swap1\n      dup2\n      dup2\n      mstore\n      0x20\n      add\n      dup3\n      dup1\n      sload\n      tag_173\n      swap1\n      tag_99\n      jump\t// in\n    tag_173:\n      dup1\n      iszero\n      tag_174\n      jumpi\n      dup1\n      0x1f\n      lt\n      tag_175\n      jumpi\n      0x0100\n      dup1\n      dup4\n      sload\n      div\n      mul\n      dup4\n      mstore\n      swap2\n      0x20\n      add\n      swap2\n      jump(tag_174)\n    tag_175:\n      dup3\n      add\n      swap2\n      swap1\n      0x00\n      mstore\n      keccak256(0x00, 0x20)\n      swap1\n    tag_176:\n      dup2\n      sload\n      dup2\n      mstore\n      swap1\n      0x01\n      add\n      swap1\n      0x20\n      add\n      dup1\n      dup4\n      gt\n      tag_176\n      jumpi\n      dup3\n      swap1\n      sub\n      0x1f\n      and\n      dup3\n      add\n      swap2\n    tag_174:\n      pop\n      pop\n      pop\n      pop\n      pop\n      swap1\n      pop\n        /* \"@openzeppelin/contracts/token/ERC721/extensions/ERC721URIStorage.sol\":709:727   */\n      0x00\n        /* \"@openzeppelin/contracts/token/ERC721/extensions/ERC721URIStorage.sol\":730:740   */\n      tag_177\n        /* \"@openzeppelin/contracts/token/ERC721/extensions/ERC721URIStorage.sol\":730:738   */\n      tag_178\n        /* \"@openzeppelin/contracts/token/ERC721/extensions/ERC721URIStorage.sol\":730:740   */\n      jump\t// in\n    tag_177:\n        /* \"@openzeppelin/contracts/token/ERC721/extensions/ERC721URIStorage.sol\":709:740   */\n      swap1\n      pop\n        /* \"@openzeppelin/contracts/token/ERC721/extensions/ERC721URIStorage.sol\":835:836   */\n      0x00\n        /* \"@openzeppelin/contracts/token/ERC721/extensions/ERC721URIStorage.sol\":819:823   */\n      dup2\n        /* \"@openzeppelin/contracts/token/ERC721/extensions/ERC721URIStorage.sol\":813:831   */\n      mload\n        /* \"@openzeppelin/contracts/token/ERC721/extensions/ERC721URIStorage.sol\":813:836   */\n      sub\n        /* \"@openzeppelin/contracts/token/ERC721/extensions/ERC721URIStorage.sol\":809:879   */\n      tag_179\n      jumpi\n        /* \"@openzeppelin/contracts/token/ERC721/extensions/ERC721URIStorage.sol\":859:868   */\n      dup2\n        /* \"@openzeppelin/contracts/token/ERC721/extensions/ERC721URIStorage.sol\":852:868   */\n      swap3\n      pop\n      pop\n      pop\n      jump(tag_167)\n        /* \"@openzeppelin/contracts/token/ERC721/extensions/ERC721URIStorage.sol\":809:879   */\n    tag_179:\n        /* \"@openzeppelin/contracts/token/ERC721/extensions/ERC721URIStorage.sol\":1007:1008   */\n      0x00\n        /* \"@openzeppelin/contracts/token/ERC721/extensions/ERC721URIStorage.sol\":987:996   */\n      dup3\n        /* \"@openzeppelin/contracts/token/ERC721/extensions/ERC721URIStorage.sol\":981:1004   */\n      mload\n        /* \"@openzeppelin/contracts/token/ERC721/extensions/ERC721URIStorage.sol\":981:1008   */\n      gt\n        /* \"@openzeppelin/contracts/token/ERC721/extensions/ERC721URIStorage.sol\":977:1083   */\n      iszero\n      tag_180\n      jumpi\n        /* \"@openzeppelin/contracts/token/ERC721/extensions/ERC721URIStorage.sol\":1055:1059   */\n      dup1\n        /* \"@openzeppelin/contracts/token/ERC721/extensions/ERC721URIStorage.sol\":1061:1070   */\n      dup3\n        /* \"@openzeppelin/contracts/token/ERC721/extensions/ERC721URIStorage.sol\":1038:1071   */\n      add(0x20, mload(0x40))\n      tag_181\n      swap3\n      swap2\n      swap1\n      tag_182\n      jump\t// in\n    tag_181:\n      mload(0x40)\n      0x20\n      dup2\n      dup4\n      sub\n      sub\n      dup2\n      mstore\n      swap1\n      0x40\n      mstore\n        /* \"@openzeppelin/contracts/token/ERC721/extensions/ERC721URIStorage.sol\":1024:1072   */\n      swap3\n      pop\n      pop\n      pop\n      jump(tag_167)\n        /* \"@openzeppelin/contracts/token/ERC721/extensions/ERC721URIStorage.sol\":977:1083   */\n    tag_180:\n        /* \"@openzeppelin/contracts/token/ERC721/extensions/ERC721URIStorage.sol\":1100:1123   */\n      tag_183\n        /* \"@openzeppelin/contracts/token/ERC721/extensions/ERC721URIStorage.sol\":1115:1122   */\n      dup5\n        /* \"@openzeppelin/contracts/token/ERC721/extensions/ERC721URIStorage.sol\":1100:1114   */\n      tag_184\n        /* \"@openzeppelin/contracts/token/ERC721/extensions/ERC721URIStorage.sol\":1100:1123   */\n      jump\t// in\n    tag_183:\n        /* \"@openzeppelin/contracts/token/ERC721/extensions/ERC721URIStorage.sol\":1093:1123   */\n      swap3\n      pop\n      pop\n      pop\n        /* \"@openzeppelin/contracts/token/ERC721/extensions/ERC721URIStorage.sol\":467:1130   */\n    tag_167:\n      swap2\n      swap1\n      pop\n      jump\t// out\n        /* \"MeterNft721.sol\":826:1121  function mint(address recipient, string memory tokenURI) public returns (uint256) {... */\n    tag_85:\n        /* \"MeterNft721.sol\":899:906  uint256 */\n      0x00\n        /* \"MeterNft721.sol\":919:945  currentTokenId.increment() */\n      tag_186\n        /* \"MeterNft721.sol\":919:933  currentTokenId */\n      0x07\n        /* \"MeterNft721.sol\":919:943  currentTokenId.increment */\n      tag_187\n        /* \"MeterNft721.sol\":919:945  currentTokenId.increment() */\n      jump\t// in\n    tag_186:\n        /* \"MeterNft721.sol\":956:973  uint256 newItemId */\n      0x00\n        /* \"MeterNft721.sol\":976:1000  currentTokenId.current() */\n      tag_188\n        /* \"MeterNft721.sol\":976:990  currentTokenId */\n      0x07\n        /* \"MeterNft721.sol\":976:998  currentTokenId.current */\n      tag_189\n        /* \"MeterNft721.sol\":976:1000  currentTokenId.current() */\n      jump\t// in\n    tag_188:\n        /* \"MeterNft721.sol\":956:1000  uint256 newItemId = currentTokenId.current() */\n      swap1\n      pop\n        /* \"MeterNft721.sol\":1011:1042  _safeMint(recipient, newItemId) */\n      tag_190\n        /* \"MeterNft721.sol\":1021:1030  recipient */\n      dup5\n        /* \"MeterNft721.sol\":1032:1041  newItemId */\n      dup3\n        /* \"MeterNft721.sol\":1011:1020  _safeMint */\n      tag_191\n        /* \"MeterNft721.sol\":1011:1042  _safeMint(recipient, newItemId) */\n      jump\t// in\n    tag_190:\n        /* \"MeterNft721.sol\":1053:1086  _setTokenURI(newItemId, tokenURI) */\n      tag_192\n        /* \"MeterNft721.sol\":1066:1075  newItemId */\n      dup2\n        /* \"MeterNft721.sol\":1077:1085  tokenURI */\n      dup5\n        /* \"MeterNft721.sol\":1053:1065  _setTokenURI */\n      tag_193\n        /* \"MeterNft721.sol\":1053:1086  _setTokenURI(newItemId, tokenURI) */\n      jump\t// in\n    tag_192:\n        /* \"MeterNft721.sol\":1104:1113  newItemId */\n      dup1\n        /* \"MeterNft721.sol\":1097:1113  return newItemId */\n      swap2\n      pop\n      pop\n        /* \"MeterNft721.sol\":826:1121  function mint(address recipient, string memory tokenURI) public returns (uint256) {... */\n      swap3\n      swap2\n      pop\n      pop\n      jump\t// out\n        /* \"@openzeppelin/contracts/token/ERC721/ERC721.sol\":4502:4664   */\n    tag_90:\n        /* \"@openzeppelin/contracts/token/ERC721/ERC721.sol\":4599:4603   */\n      0x00\n        /* \"@openzeppelin/contracts/token/ERC721/ERC721.sol\":4622:4640   */\n      0x05\n        /* \"@openzeppelin/contracts/token/ERC721/ERC721.sol\":4622:4647   */\n      0x00\n        /* \"@openzeppelin/contracts/token/ERC721/ERC721.sol\":4641:4646   */\n      dup5\n        /* \"@openzeppelin/contracts/token/ERC721/ERC721.sol\":4622:4647   */\n      0xffffffffffffffffffffffffffffffffffffffff\n      and\n      0xffffffffffffffffffffffffffffffffffffffff\n      and\n      dup2\n      mstore\n      0x20\n      add\n      swap1\n      dup2\n      mstore\n      0x20\n      add\n      0x00\n      keccak256\n        /* \"@openzeppelin/contracts/token/ERC721/ERC721.sol\":4622:4657   */\n      0x00\n        /* \"@openzeppelin/contracts/token/ERC721/ERC721.sol\":4648:4656   */\n      dup4\n        /* \"@openzeppelin/contracts/token/ERC721/ERC721.sol\":4622:4657   */\n      0xffffffffffffffffffffffffffffffffffffffff\n      and\n      0xffffffffffffffffffffffffffffffffffffffff\n      and\n      dup2\n      mstore\n      0x20\n      add\n      swap1\n      dup2\n      mstore\n      0x20\n      add\n      0x00\n      keccak256\n      0x00\n      swap1\n      sload\n      swap1\n      0x0100\n      exp\n      swap1\n      div\n      0xff\n      and\n        /* \"@openzeppelin/contracts/token/ERC721/ERC721.sol\":4615:4657   */\n      swap1\n      pop\n        /* \"@openzeppelin/contracts/token/ERC721/ERC721.sol\":4502:4664   */\n      swap3\n      swap2\n      pop\n      pop\n      jump\t// out\n        /* \"@openzeppelin/contracts/utils/introspection/ERC165.sol\":829:984   */\n    tag_96:\n        /* \"@openzeppelin/contracts/utils/introspection/ERC165.sol\":914:918   */\n      0x00\n        /* \"@openzeppelin/contracts/utils/introspection/ERC165.sol\":952:977   */\n      0x01ffc9a700000000000000000000000000000000000000000000000000000000\n        /* \"@openzeppelin/contracts/utils/introspection/ERC165.sol\":937:977   */\n      not(0xffffffffffffffffffffffffffffffffffffffffffffffffffffffff)\n      and\n        /* \"@openzeppelin/contracts/utils/introspection/ERC165.sol\":937:948   */\n      dup3\n        /* \"@openzeppelin/contracts/utils/introspection/ERC165.sol\":937:977   */\n      not(0xffffffffffffffffffffffffffffffffffffffffffffffffffffffff)\n      and\n      eq\n        /* \"@openzeppelin/contracts/utils/introspection/ERC165.sol\":930:977   */\n      swap1\n      pop\n        /* \"@openzeppelin/contracts/utils/introspection/ERC165.sol\":829:984   */\n      swap2\n      swap1\n      pop\n      jump\t// out\n        /* \"@openzeppelin/contracts/token/ERC721/ERC721.sol\":7159:7284   */\n    tag_106:\n        /* \"@openzeppelin/contracts/token/ERC721/ERC721.sol\":7224:7228   */\n      0x00\n        /* \"@openzeppelin/contracts/token/ERC721/ERC721.sol\":7275:7276   */\n      dup1\n        /* \"@openzeppelin/contracts/token/ERC721/ERC721.sol\":7247:7277   */\n      0xffffffffffffffffffffffffffffffffffffffff\n      and\n        /* \"@openzeppelin/contracts/token/ERC721/ERC721.sol\":7247:7254   */\n      0x02\n        /* \"@openzeppelin/contracts/token/ERC721/ERC721.sol\":7247:7263   */\n      0x00\n        /* \"@openzeppelin/contracts/token/ERC721/ERC721.sol\":7255:7262   */\n      dup5\n        /* \"@openzeppelin/contracts/token/ERC721/ERC721.sol\":7247:7263   */\n      dup2\n      mstore\n      0x20\n      add\n      swap1\n      dup2\n      mstore\n      0x20\n      add\n      0x00\n      keccak256\n      0x00\n      swap1\n      sload\n      swap1\n      0x0100\n      exp\n      swap1\n      div\n      0xffffffffffffffffffffffffffffffffffffffff\n      and\n        /* \"@openzeppelin/contracts/token/ERC721/ERC721.sol\":7247:7277   */\n      0xffffffffffffffffffffffffffffffffffffffff\n      and\n      eq\n      iszero\n        /* \"@openzeppelin/contracts/token/ERC721/ERC721.sol\":7240:7277   */\n      swap1\n      pop\n        /* \"@openzeppelin/contracts/token/ERC721/ERC721.sol\":7159:7284   */\n      swap2\n      swap1\n      pop\n      jump\t// out\n        /* \"@openzeppelin/contracts/utils/Context.sol\":640:736   */\n    tag_116:\n        /* \"@openzeppelin/contracts/utils/Context.sol\":693:700   */\n      0x00\n        /* \"@openzeppelin/contracts/utils/Context.sol\":719:729   */\n      caller\n        /* \"@openzeppelin/contracts/utils/Context.sol\":712:729   */\n      swap1\n      pop\n        /* \"@openzeppelin/contracts/utils/Context.sol\":640:736   */\n      swap1\n      jump\t// out\n        /* \"@openzeppelin/contracts/token/ERC721/ERC721.sol\":11168:11339   */\n    tag_124:\n        /* \"@openzeppelin/contracts/token/ERC721/ERC721.sol\":11269:11271   */\n      dup2\n        /* \"@openzeppelin/contracts/token/ERC721/ERC721.sol\":11242:11257   */\n      0x04\n        /* \"@openzeppelin/contracts/token/ERC721/ERC721.sol\":11242:11266   */\n      0x00\n        /* \"@openzeppelin/contracts/token/ERC721/ERC721.sol\":11258:11265   */\n      dup4\n        /* \"@openzeppelin/contracts/token/ERC721/ERC721.sol\":11242:11266   */\n      dup2\n      mstore\n      0x20\n      add\n      swap1\n      dup2\n      mstore\n      0x20\n      add\n      0x00\n      keccak256\n      0x00\n        /* \"@openzeppelin/contracts/token/ERC721/ERC721.sol\":11242:11271   */\n      0x0100\n      exp\n      dup2\n      sload\n      dup2\n      0xffffffffffffffffffffffffffffffffffffffff\n      mul\n      not\n      and\n      swap1\n      dup4\n      0xffffffffffffffffffffffffffffffffffffffff\n      and\n      mul\n      or\n      swap1\n      sstore\n      pop\n        /* \"@openzeppelin/contracts/token/ERC721/ERC721.sol\":11324:11331   */\n      dup1\n        /* \"@openzeppelin/contracts/token/ERC721/ERC721.sol\":11320:11322   */\n      dup3\n        /* \"@openzeppelin/contracts/token/ERC721/ERC721.sol\":11286:11332   */\n      0xffffffffffffffffffffffffffffffffffffffff\n      and\n        /* \"@openzeppelin/contracts/token/ERC721/ERC721.sol\":11295:11318   */\n      tag_199\n        /* \"@openzeppelin/contracts/token/ERC721/ERC721.sol\":11310:11317   */\n      dup4\n        /* \"@openzeppelin/contracts/token/ERC721/ERC721.sol\":11295:11309   */\n      tag_60\n        /* \"@openzeppelin/contracts/token/ERC721/ERC721.sol\":11295:11318   */\n      jump\t// in\n    tag_199:\n        /* \"@openzeppelin/contracts/token/ERC721/ERC721.sol\":11286:11332   */\n      0xffffffffffffffffffffffffffffffffffffffff\n      and\n      0x8c5be1e5ebec7d5bd14f71427d1e84f3dd0314c0f7b2291e5b200ac8c7c3b925\n      mload(0x40)\n      mload(0x40)\n      dup1\n      swap2\n      sub\n      swap1\n      log4\n        /* \"@openzeppelin/contracts/token/ERC721/ERC721.sol\":11168:11339   */\n      pop\n      pop\n      jump\t// out\n        /* \"@openzeppelin/contracts/token/ERC721/ERC721.sol\":7442:7786   */\n    tag_131:\n        /* \"@openzeppelin/contracts/token/ERC721/ERC721.sol\":7535:7539   */\n      0x00\n        /* \"@openzeppelin/contracts/token/ERC721/ERC721.sol\":7559:7575   */\n      tag_201\n        /* \"@openzeppelin/contracts/token/ERC721/ERC721.sol\":7567:7574   */\n      dup3\n        /* \"@openzeppelin/contracts/token/ERC721/ERC721.sol\":7559:7566   */\n      tag_106\n        /* \"@openzeppelin/contracts/token/ERC721/ERC721.sol\":7559:7575   */\n      jump\t// in\n    tag_201:\n        /* \"@openzeppelin/contracts/token/ERC721/ERC721.sol\":7551:7624   */\n      tag_202\n      jumpi\n      mload(0x40)\n      0x08c379a000000000000000000000000000000000000000000000000000000000\n      dup2\n      mstore\n      0x04\n      add\n      tag_203\n      swap1\n      tag_204\n      jump\t// in\n    tag_203:\n      mload(0x40)\n      dup1\n      swap2\n      sub\n      swap1\n      revert\n    tag_202:\n        /* \"@openzeppelin/contracts/token/ERC721/ERC721.sol\":7634:7647   */\n      0x00\n        /* \"@openzeppelin/contracts/token/ERC721/ERC721.sol\":7650:7673   */\n      tag_205\n        /* \"@openzeppelin/contracts/token/ERC721/ERC721.sol\":7665:7672   */\n      dup4\n        /* \"@openzeppelin/contracts/token/ERC721/ERC721.sol\":7650:7664   */\n      tag_60\n        /* \"@openzeppelin/contracts/token/ERC721/ERC721.sol\":7650:7673   */\n      jump\t// in\n    tag_205:\n        /* \"@openzeppelin/contracts/token/ERC721/ERC721.sol\":7634:7673   */\n      swap1\n      pop\n        /* \"@openzeppelin/contracts/token/ERC721/ERC721.sol\":7702:7707   */\n      dup1\n        /* \"@openzeppelin/contracts/token/ERC721/ERC721.sol\":7691:7707   */\n      0xffffffffffffffffffffffffffffffffffffffff\n      and\n        /* \"@openzeppelin/contracts/token/ERC721/ERC721.sol\":7691:7698   */\n      dup5\n        /* \"@openzeppelin/contracts/token/ERC721/ERC721.sol\":7691:7707   */\n      0xffffffffffffffffffffffffffffffffffffffff\n      and\n      eq\n        /* \"@openzeppelin/contracts/token/ERC721/ERC721.sol\":7691:7742   */\n      dup1\n      tag_206\n      jumpi\n      pop\n        /* \"@openzeppelin/contracts/token/ERC721/ERC721.sol\":7735:7742   */\n      dup4\n        /* \"@openzeppelin/contracts/token/ERC721/ERC721.sol\":7711:7742   */\n      0xffffffffffffffffffffffffffffffffffffffff\n      and\n        /* \"@openzeppelin/contracts/token/ERC721/ERC721.sol\":7711:7731   */\n      tag_207\n        /* \"@openzeppelin/contracts/token/ERC721/ERC721.sol\":7723:7730   */\n      dup5\n        /* \"@openzeppelin/contracts/token/ERC721/ERC721.sol\":7711:7722   */\n      tag_35\n        /* \"@openzeppelin/contracts/token/ERC721/ERC721.sol\":7711:7731   */\n      jump\t// in\n    tag_207:\n        /* \"@openzeppelin/contracts/token/ERC721/ERC721.sol\":7711:7742   */\n      0xffffffffffffffffffffffffffffffffffffffff\n      and\n      eq\n        /* \"@openzeppelin/contracts/token/ERC721/ERC721.sol\":7691:7742   */\n    tag_206:\n        /* \"@openzeppelin/contracts/token/ERC721/ERC721.sol\":7691:7778   */\n      dup1\n      tag_208\n      jumpi\n      pop\n        /* \"@openzeppelin/contracts/token/ERC721/ERC721.sol\":7746:7778   */\n      tag_209\n        /* \"@openzeppelin/contracts/token/ERC721/ERC721.sol\":7763:7768   */\n      dup2\n        /* \"@openzeppelin/contracts/token/ERC721/ERC721.sol\":7770:7777   */\n      dup6\n        /* \"@openzeppelin/contracts/token/ERC721/ERC721.sol\":7746:7762   */\n      tag_90\n        /* \"@openzeppelin/contracts/token/ERC721/ERC721.sol\":7746:7778   */\n      jump\t// in\n    tag_209:\n        /* \"@openzeppelin/contracts/token/ERC721/ERC721.sol\":7691:7778   */\n    tag_208:\n        /* \"@openzeppelin/contracts/token/ERC721/ERC721.sol\":7683:7779   */\n      swap2\n      pop\n      pop\n        /* \"@openzeppelin/contracts/token/ERC721/ERC721.sol\":7442:7786   */\n      swap3\n      swap2\n      pop\n      pop\n      jump\t// out\n        /* \"@openzeppelin/contracts/token/ERC721/ERC721.sol\":10452:11057   */\n    tag_136:\n        /* \"@openzeppelin/contracts/token/ERC721/ERC721.sol\":10606:10610   */\n      dup3\n        /* \"@openzeppelin/contracts/token/ERC721/ERC721.sol\":10579:10610   */\n      0xffffffffffffffffffffffffffffffffffffffff\n      and\n        /* \"@openzeppelin/contracts/token/ERC721/ERC721.sol\":10579:10602   */\n      tag_211\n        /* \"@openzeppelin/contracts/token/ERC721/ERC721.sol\":10594:10601   */\n      dup3\n        /* \"@openzeppelin/contracts/token/ERC721/ERC721.sol\":10579:10593   */\n      tag_60\n        /* \"@openzeppelin/contracts/token/ERC721/ERC721.sol\":10579:10602   */\n      jump\t// in\n    tag_211:\n        /* \"@openzeppelin/contracts/token/ERC721/ERC721.sol\":10579:10610   */\n      0xffffffffffffffffffffffffffffffffffffffff\n      and\n      eq\n        /* \"@openzeppelin/contracts/token/ERC721/ERC721.sol\":10571:10652   */\n      tag_212\n      jumpi\n      mload(0x40)\n      0x08c379a000000000000000000000000000000000000000000000000000000000\n      dup2\n      mstore\n      0x04\n      add\n      tag_213\n      swap1\n      tag_214\n      jump\t// in\n    tag_213:\n      mload(0x40)\n      dup1\n      swap2\n      sub\n      swap1\n      revert\n    tag_212:\n        /* \"@openzeppelin/contracts/token/ERC721/ERC721.sol\":10684:10685   */\n      0x00\n        /* \"@openzeppelin/contracts/token/ERC721/ERC721.sol\":10670:10686   */\n      0xffffffffffffffffffffffffffffffffffffffff\n      and\n        /* \"@openzeppelin/contracts/token/ERC721/ERC721.sol\":10670:10672   */\n      dup3\n        /* \"@openzeppelin/contracts/token/ERC721/ERC721.sol\":10670:10686   */\n      0xffffffffffffffffffffffffffffffffffffffff\n      and\n      sub\n        /* \"@openzeppelin/contracts/token/ERC721/ERC721.sol\":10662:10727   */\n      tag_215\n      jumpi\n      mload(0x40)\n      0x08c379a000000000000000000000000000000000000000000000000000000000\n      dup2\n      mstore\n      0x04\n      add\n      tag_216\n      swap1\n      tag_217\n      jump\t// in\n    tag_216:\n      mload(0x40)\n      dup1\n      swap2\n      sub\n      swap1\n      revert\n    tag_215:\n        /* \"@openzeppelin/contracts/token/ERC721/ERC721.sol\":10738:10777   */\n      tag_218\n        /* \"@openzeppelin/contracts/token/ERC721/ERC721.sol\":10759:10763   */\n      dup4\n        /* \"@openzeppelin/contracts/token/ERC721/ERC721.sol\":10765:10767   */\n      dup4\n        /* \"@openzeppelin/contracts/token/ERC721/ERC721.sol\":10769:10776   */\n      dup4\n        /* \"@openzeppelin/contracts/token/ERC721/ERC721.sol\":10738:10758   */\n      tag_219\n        /* \"@openzeppelin/contracts/token/ERC721/ERC721.sol\":10738:10777   */\n      jump\t// in\n    tag_218:\n        /* \"@openzeppelin/contracts/token/ERC721/ERC721.sol\":10839:10868   */\n      tag_220\n        /* \"@openzeppelin/contracts/token/ERC721/ERC721.sol\":10856:10857   */\n      0x00\n        /* \"@openzeppelin/contracts/token/ERC721/ERC721.sol\":10860:10867   */\n      dup3\n        /* \"@openzeppelin/contracts/token/ERC721/ERC721.sol\":10839:10847   */\n      tag_124\n        /* \"@openzeppelin/contracts/token/ERC721/ERC721.sol\":10839:10868   */\n      jump\t// in\n    tag_220:\n        /* \"@openzeppelin/contracts/token/ERC721/ERC721.sol\":10898:10899   */\n      0x01\n        /* \"@openzeppelin/contracts/token/ERC721/ERC721.sol\":10879:10888   */\n      0x03\n        /* \"@openzeppelin/contracts/token/ERC721/ERC721.sol\":10879:10894   */\n      0x00\n        /* \"@openzeppelin/contracts/token/ERC721/ERC721.sol\":10889:10893   */\n      dup6\n        /* \"@openzeppelin/contracts/token/ERC721/ERC721.sol\":10879:10894   */\n      0xffffffffffffffffffffffffffffffffffffffff\n      and\n      0xffffffffffffffffffffffffffffffffffffffff\n      and\n      dup2\n      mstore\n      0x20\n      add\n      swap1\n      dup2\n      mstore\n      0x20\n      add\n      0x00\n      keccak256\n      0x00\n        /* \"@openzeppelin/contracts/token/ERC721/ERC721.sol\":10879:10899   */\n      dup3\n      dup3\n      sload\n      tag_221\n      swap2\n      swap1\n      tag_222\n      jump\t// in\n    tag_221:\n      swap3\n      pop\n      pop\n      dup2\n      swap1\n      sstore\n      pop\n        /* \"@openzeppelin/contracts/token/ERC721/ERC721.sol\":10926:10927   */\n      0x01\n        /* \"@openzeppelin/contracts/token/ERC721/ERC721.sol\":10909:10918   */\n      0x03\n        /* \"@openzeppelin/contracts/token/ERC721/ERC721.sol\":10909:10922   */\n      0x00\n        /* \"@openzeppelin/contracts/token/ERC721/ERC721.sol\":10919:10921   */\n      dup5\n        /* \"@openzeppelin/contracts/token/ERC721/ERC721.sol\":10909:10922   */\n      0xffffffffffffffffffffffffffffffffffffffff\n      and\n      0xffffffffffffffffffffffffffffffffffffffff\n      and\n      dup2\n      mstore\n      0x20\n      add\n      swap1\n      dup2\n      mstore\n      0x20\n      add\n      0x00\n      keccak256\n      0x00\n        /* \"@openzeppelin/contracts/token/ERC721/ERC721.sol\":10909:10927   */\n      dup3\n      dup3\n      sload\n      tag_223\n      swap2\n      swap1\n      tag_224\n      jump\t// in\n    tag_223:\n      swap3\n      pop\n      pop\n      dup2\n      swap1\n      sstore\n      pop\n        /* \"@openzeppelin/contracts/token/ERC721/ERC721.sol\":10956:10958   */\n      dup2\n        /* \"@openzeppelin/contracts/token/ERC721/ERC721.sol\":10937:10944   */\n      0x02\n        /* \"@openzeppelin/contracts/token/ERC721/ERC721.sol\":10937:10953   */\n      0x00\n        /* \"@openzeppelin/contracts/token/ERC721/ERC721.sol\":10945:10952   */\n      dup4\n        /* \"@openzeppelin/contracts/token/ERC721/ERC721.sol\":10937:10953   */\n      dup2\n      mstore\n      0x20\n      add\n      swap1\n      dup2\n      mstore\n      0x20\n      add\n      0x00\n      keccak256\n      0x00\n        /* \"@openzeppelin/contracts/token/ERC721/ERC721.sol\":10937:10958   */\n      0x0100\n      exp\n      dup2\n      sload\n      dup2\n      0xffffffffffffffffffffffffffffffffffffffff\n      mul\n      not\n      and\n      swap1\n      dup4\n      0xffffffffffffffffffffffffffffffffffffffff\n      and\n      mul\n      or\n      swap1\n      sstore\n      pop\n        /* \"@openzeppelin/contracts/token/ERC721/ERC721.sol\":10993:11000   */\n      dup1\n        /* \"@openzeppelin/contracts/token/ERC721/ERC721.sol\":10989:10991   */\n      dup3\n        /* \"@openzeppelin/contracts/token/ERC721/ERC721.sol\":10974:11001   */\n      0xffffffffffffffffffffffffffffffffffffffff\n      and\n        /* \"@openzeppelin/contracts/token/ERC721/ERC721.sol\":10983:10987   */\n      dup5\n        /* \"@openzeppelin/contracts/token/ERC721/ERC721.sol\":10974:11001   */\n      0xffffffffffffffffffffffffffffffffffffffff\n      and\n      0xddf252ad1be2c89b69c2b068fc378daa952ba7f163c4a11628f55a4df523b3ef\n      mload(0x40)\n      mload(0x40)\n      dup1\n      swap2\n      sub\n      swap1\n      log4\n        /* \"@openzeppelin/contracts/token/ERC721/ERC721.sol\":11012:11050   */\n      tag_225\n        /* \"@openzeppelin/contracts/token/ERC721/ERC721.sol\":11032:11036   */\n      dup4\n        /* \"@openzeppelin/contracts/token/ERC721/ERC721.sol\":11038:11040   */\n      dup4\n        /* \"@openzeppelin/contracts/token/ERC721/ERC721.sol\":11042:11049   */\n      dup4\n        /* \"@openzeppelin/contracts/token/ERC721/ERC721.sol\":11012:11031   */\n      tag_226\n        /* \"@openzeppelin/contracts/token/ERC721/ERC721.sol\":11012:11050   */\n      jump\t// in\n    tag_225:\n        /* \"@openzeppelin/contracts/token/ERC721/ERC721.sol\":10452:11057   */\n      pop\n      pop\n      pop\n      jump\t// out\n        /* \"@openzeppelin/contracts/token/ERC721/extensions/ERC721URIStorage.sol\":1708:1908   */\n    tag_141:\n        /* \"@openzeppelin/contracts/token/ERC721/extensions/ERC721URIStorage.sol\":1776:1796   */\n      tag_228\n        /* \"@openzeppelin/contracts/token/ERC721/extensions/ERC721URIStorage.sol\":1788:1795   */\n      dup2\n        /* \"@openzeppelin/contracts/token/ERC721/extensions/ERC721URIStorage.sol\":1776:1787   */\n      tag_229\n        /* \"@openzeppelin/contracts/token/ERC721/extensions/ERC721URIStorage.sol\":1776:1796   */\n      jump\t// in\n    tag_228:\n        /* \"@openzeppelin/contracts/token/ERC721/extensions/ERC721URIStorage.sol\":1848:1849   */\n      0x00\n        /* \"@openzeppelin/contracts/token/ERC721/extensions/ERC721URIStorage.sol\":1817:1827   */\n      0x06\n        /* \"@openzeppelin/contracts/token/ERC721/extensions/ERC721URIStorage.sol\":1817:1836   */\n      0x00\n        /* \"@openzeppelin/contracts/token/ERC721/extensions/ERC721URIStorage.sol\":1828:1835   */\n      dup4\n        /* \"@openzeppelin/contracts/token/ERC721/extensions/ERC721URIStorage.sol\":1817:1836   */\n      dup2\n      mstore\n      0x20\n      add\n      swap1\n      dup2\n      mstore\n      0x20\n      add\n      0x00\n      keccak256\n        /* \"@openzeppelin/contracts/token/ERC721/extensions/ERC721URIStorage.sol\":1811:1844   */\n      dup1\n      sload\n      tag_230\n      swap1\n      tag_99\n      jump\t// in\n    tag_230:\n      swap1\n      pop\n        /* \"@openzeppelin/contracts/token/ERC721/extensions/ERC721URIStorage.sol\":1811:1849   */\n      eq\n        /* \"@openzeppelin/contracts/token/ERC721/extensions/ERC721URIStorage.sol\":1807:1902   */\n      tag_231\n      jumpi\n        /* \"@openzeppelin/contracts/token/ERC721/extensions/ERC721URIStorage.sol\":1872:1882   */\n      0x06\n        /* \"@openzeppelin/contracts/token/ERC721/extensions/ERC721URIStorage.sol\":1872:1891   */\n      0x00\n        /* \"@openzeppelin/contracts/token/ERC721/extensions/ERC721URIStorage.sol\":1883:1890   */\n      dup3\n        /* \"@openzeppelin/contracts/token/ERC721/extensions/ERC721URIStorage.sol\":1872:1891   */\n      dup2\n      mstore\n      0x20\n      add\n      swap1\n      dup2\n      mstore\n      0x20\n      add\n      0x00\n      keccak256\n      0x00\n        /* \"@openzeppelin/contracts/token/ERC721/extensions/ERC721URIStorage.sol\":1865:1891   */\n      tag_232\n      swap2\n      swap1\n      tag_233\n      jump\t// in\n    tag_232:\n        /* \"@openzeppelin/contracts/token/ERC721/extensions/ERC721URIStorage.sol\":1807:1902   */\n    tag_231:\n        /* \"@openzeppelin/contracts/token/ERC721/extensions/ERC721URIStorage.sol\":1708:1908   */\n      pop\n      jump\t// out\n        /* \"@openzeppelin/contracts/token/ERC721/ERC721.sol\":11474:11781   */\n    tag_159:\n        /* \"@openzeppelin/contracts/token/ERC721/ERC721.sol\":11624:11632   */\n      dup2\n        /* \"@openzeppelin/contracts/token/ERC721/ERC721.sol\":11615:11632   */\n      0xffffffffffffffffffffffffffffffffffffffff\n      and\n        /* \"@openzeppelin/contracts/token/ERC721/ERC721.sol\":11615:11620   */\n      dup4\n        /* \"@openzeppelin/contracts/token/ERC721/ERC721.sol\":11615:11632   */\n      0xffffffffffffffffffffffffffffffffffffffff\n      and\n      sub\n        /* \"@openzeppelin/contracts/token/ERC721/ERC721.sol\":11607:11662   */\n      tag_235\n      jumpi\n      mload(0x40)\n      0x08c379a000000000000000000000000000000000000000000000000000000000\n      dup2\n      mstore\n      0x04\n      add\n      tag_236\n      swap1\n      tag_237\n      jump\t// in\n    tag_236:\n      mload(0x40)\n      dup1\n      swap2\n      sub\n      swap1\n      revert\n    tag_235:\n        /* \"@openzeppelin/contracts/token/ERC721/ERC721.sol\":11710:11718   */\n      dup1\n        /* \"@openzeppelin/contracts/token/ERC721/ERC721.sol\":11672:11690   */\n      0x05\n        /* \"@openzeppelin/contracts/token/ERC721/ERC721.sol\":11672:11697   */\n      0x00\n        /* \"@openzeppelin/contracts/token/ERC721/ERC721.sol\":11691:11696   */\n      dup6\n        /* \"@openzeppelin/contracts/token/ERC721/ERC721.sol\":11672:11697   */\n      0xffffffffffffffffffffffffffffffffffffffff\n      and\n      0xffffffffffffffffffffffffffffffffffffffff\n      and\n      dup2\n      mstore\n      0x20\n      add\n      swap1\n      dup2\n      mstore\n      0x20\n      add\n      0x00\n      keccak256\n        /* \"@openzeppelin/contracts/token/ERC721/ERC721.sol\":11672:11707   */\n      0x00\n        /* \"@openzeppelin/contracts/token/ERC721/ERC721.sol\":11698:11706   */\n      dup5\n        /* \"@openzeppelin/contracts/token/ERC721/ERC721.sol\":11672:11707   */\n      0xffffffffffffffffffffffffffffffffffffffff\n      and\n      0xffffffffffffffffffffffffffffffffffffffff\n      and\n      dup2\n      mstore\n      0x20\n      add\n      swap1\n      dup2\n      mstore\n      0x20\n      add\n      0x00\n      keccak256\n      0x00\n        /* \"@openzeppelin/contracts/token/ERC721/ERC721.sol\":11672:11718   */\n      0x0100\n      exp\n      dup2\n      sload\n      dup2\n      0xff\n      mul\n      not\n      and\n      swap1\n      dup4\n      iszero\n      iszero\n      mul\n      or\n      swap1\n      sstore\n      pop\n        /* \"@openzeppelin/contracts/token/ERC721/ERC721.sol\":11755:11763   */\n      dup2\n        /* \"@openzeppelin/contracts/token/ERC721/ERC721.sol\":11733:11774   */\n      0xffffffffffffffffffffffffffffffffffffffff\n      and\n        /* \"@openzeppelin/contracts/token/ERC721/ERC721.sol\":11748:11753   */\n      dup4\n        /* \"@openzeppelin/contracts/token/ERC721/ERC721.sol\":11733:11774   */\n      0xffffffffffffffffffffffffffffffffffffffff\n      and\n      0x17307eab39ab6107e8899845ad3d59bd9653f200f220920489ca2b5937696c31\n        /* \"@openzeppelin/contracts/token/ERC721/ERC721.sol\":11765:11773   */\n      dup4\n        /* \"@openzeppelin/contracts/token/ERC721/ERC721.sol\":11733:11774   */\n      mload(0x40)\n      tag_238\n      swap2\n      swap1\n      tag_27\n      jump\t// in\n    tag_238:\n      mload(0x40)\n      dup1\n      swap2\n      sub\n      swap1\n      log3\n        /* \"@openzeppelin/contracts/token/ERC721/ERC721.sol\":11474:11781   */\n      pop\n      pop\n      pop\n      jump\t// out\n        /* \"@openzeppelin/contracts/token/ERC721/ERC721.sol\":6549:6856   */\n    tag_166:\n        /* \"@openzeppelin/contracts/token/ERC721/ERC721.sol\":6700:6728   */\n      tag_240\n        /* \"@openzeppelin/contracts/token/ERC721/ERC721.sol\":6710:6714   */\n      dup5\n        /* \"@openzeppelin/contracts/token/ERC721/ERC721.sol\":6716:6718   */\n      dup5\n        /* \"@openzeppelin/contracts/token/ERC721/ERC721.sol\":6720:6727   */\n      dup5\n        /* \"@openzeppelin/contracts/token/ERC721/ERC721.sol\":6700:6709   */\n      tag_136\n        /* \"@openzeppelin/contracts/token/ERC721/ERC721.sol\":6700:6728   */\n      jump\t// in\n    tag_240:\n        /* \"@openzeppelin/contracts/token/ERC721/ERC721.sol\":6746:6794   */\n      tag_241\n        /* \"@openzeppelin/contracts/token/ERC721/ERC721.sol\":6769:6773   */\n      dup5\n        /* \"@openzeppelin/contracts/token/ERC721/ERC721.sol\":6775:6777   */\n      dup5\n        /* \"@openzeppelin/contracts/token/ERC721/ERC721.sol\":6779:6786   */\n      dup5\n        /* \"@openzeppelin/contracts/token/ERC721/ERC721.sol\":6788:6793   */\n      dup5\n        /* \"@openzeppelin/contracts/token/ERC721/ERC721.sol\":6746:6768   */\n      tag_242\n        /* \"@openzeppelin/contracts/token/ERC721/ERC721.sol\":6746:6794   */\n      jump\t// in\n    tag_241:\n        /* \"@openzeppelin/contracts/token/ERC721/ERC721.sol\":6738:6849   */\n      tag_243\n      jumpi\n      mload(0x40)\n      0x08c379a000000000000000000000000000000000000000000000000000000000\n      dup2\n      mstore\n      0x04\n      add\n      tag_244\n      swap1\n      tag_245\n      jump\t// in\n    tag_244:\n      mload(0x40)\n      dup1\n      swap2\n      sub\n      swap1\n      revert\n    tag_243:\n        /* \"@openzeppelin/contracts/token/ERC721/ERC721.sol\":6549:6856   */\n      pop\n      pop\n      pop\n      pop\n      jump\t// out\n        /* \"@openzeppelin/contracts/token/ERC721/ERC721.sol\":3388:3480   */\n    tag_178:\n        /* \"@openzeppelin/contracts/token/ERC721/ERC721.sol\":3439:3452   */\n      0x60\n        /* \"@openzeppelin/contracts/token/ERC721/ERC721.sol\":3464:3473   */\n      mload(0x40)\n      dup1\n      0x20\n      add\n      0x40\n      mstore\n      dup1\n      0x00\n      dup2\n      mstore\n      pop\n      swap1\n      pop\n        /* \"@openzeppelin/contracts/token/ERC721/ERC721.sol\":3388:3480   */\n      swap1\n      jump\t// out\n        /* \"@openzeppelin/contracts/token/ERC721/ERC721.sol\":2818:3147   */\n    tag_184:\n        /* \"@openzeppelin/contracts/token/ERC721/ERC721.sol\":2891:2904   */\n      0x60\n        /* \"@openzeppelin/contracts/token/ERC721/ERC721.sol\":2924:2940   */\n      tag_248\n        /* \"@openzeppelin/contracts/token/ERC721/ERC721.sol\":2932:2939   */\n      dup3\n        /* \"@openzeppelin/contracts/token/ERC721/ERC721.sol\":2924:2931   */\n      tag_106\n        /* \"@openzeppelin/contracts/token/ERC721/ERC721.sol\":2924:2940   */\n      jump\t// in\n    tag_248:\n        /* \"@openzeppelin/contracts/token/ERC721/ERC721.sol\":2916:2992   */\n      tag_249\n      jumpi\n      mload(0x40)\n      0x08c379a000000000000000000000000000000000000000000000000000000000\n      dup2\n      mstore\n      0x04\n      add\n      tag_250\n      swap1\n      tag_251\n      jump\t// in\n    tag_250:\n      mload(0x40)\n      dup1\n      swap2\n      sub\n      swap1\n      revert\n    tag_249:\n        /* \"@openzeppelin/contracts/token/ERC721/ERC721.sol\":3003:3024   */\n      0x00\n        /* \"@openzeppelin/contracts/token/ERC721/ERC721.sol\":3027:3037   */\n      tag_252\n        /* \"@openzeppelin/contracts/token/ERC721/ERC721.sol\":3027:3035   */\n      tag_178\n        /* \"@openzeppelin/contracts/token/ERC721/ERC721.sol\":3027:3037   */\n      jump\t// in\n    tag_252:\n        /* \"@openzeppelin/contracts/token/ERC721/ERC721.sol\":3003:3037   */\n      swap1\n      pop\n        /* \"@openzeppelin/contracts/token/ERC721/ERC721.sol\":3078:3079   */\n      0x00\n        /* \"@openzeppelin/contracts/token/ERC721/ERC721.sol\":3060:3067   */\n      dup2\n        /* \"@openzeppelin/contracts/token/ERC721/ERC721.sol\":3054:3075   */\n      mload\n        /* \"@openzeppelin/contracts/token/ERC721/ERC721.sol\":3054:3079   */\n      gt\n        /* \"@openzeppelin/contracts/token/ERC721/ERC721.sol\":3054:3140   */\n      tag_253\n      jumpi\n      mload(0x40)\n      dup1\n      0x20\n      add\n      0x40\n      mstore\n      dup1\n      0x00\n      dup2\n      mstore\n      pop\n      jump(tag_254)\n    tag_253:\n        /* \"@openzeppelin/contracts/token/ERC721/ERC721.sol\":3106:3113   */\n      dup1\n        /* \"@openzeppelin/contracts/token/ERC721/ERC721.sol\":3115:3133   */\n      tag_255\n        /* \"@openzeppelin/contracts/token/ERC721/ERC721.sol\":3115:3122   */\n      dup5\n        /* \"@openzeppelin/contracts/token/ERC721/ERC721.sol\":3115:3131   */\n      tag_256\n        /* \"@openzeppelin/contracts/token/ERC721/ERC721.sol\":3115:3133   */\n      jump\t// in\n    tag_255:\n        /* \"@openzeppelin/contracts/token/ERC721/ERC721.sol\":3089:3134   */\n      add(0x20, mload(0x40))\n      tag_257\n      swap3\n      swap2\n      swap1\n      tag_182\n      jump\t// in\n    tag_257:\n      mload(0x40)\n      0x20\n      dup2\n      dup4\n      sub\n      sub\n      dup2\n      mstore\n      swap1\n      0x40\n      mstore\n        /* \"@openzeppelin/contracts/token/ERC721/ERC721.sol\":3054:3140   */\n    tag_254:\n        /* \"@openzeppelin/contracts/token/ERC721/ERC721.sol\":3047:3140   */\n      swap2\n      pop\n      pop\n        /* \"@openzeppelin/contracts/token/ERC721/ERC721.sol\":2818:3147   */\n      swap2\n      swap1\n      pop\n      jump\t// out\n        /* \"@openzeppelin/contracts/utils/Counters.sol\":945:1068   */\n    tag_187:\n        /* \"@openzeppelin/contracts/utils/Counters.sol\":1050:1051   */\n      0x01\n        /* \"@openzeppelin/contracts/utils/Counters.sol\":1032:1039   */\n      dup2\n        /* \"@openzeppelin/contracts/utils/Counters.sol\":1032:1046   */\n      0x00\n      add\n      0x00\n        /* \"@openzeppelin/contracts/utils/Counters.sol\":1032:1051   */\n      dup3\n      dup3\n      sload\n      add\n      swap3\n      pop\n      pop\n      dup2\n      swap1\n      sstore\n      pop\n        /* \"@openzeppelin/contracts/utils/Counters.sol\":945:1068   */\n      pop\n      jump\t// out\n        /* \"@openzeppelin/contracts/utils/Counters.sol\":827:939   */\n    tag_189:\n        /* \"@openzeppelin/contracts/utils/Counters.sol\":892:899   */\n      0x00\n        /* \"@openzeppelin/contracts/utils/Counters.sol\":918:925   */\n      dup2\n        /* \"@openzeppelin/contracts/utils/Counters.sol\":918:932   */\n      0x00\n      add\n      sload\n        /* \"@openzeppelin/contracts/utils/Counters.sol\":911:932   */\n      swap1\n      pop\n        /* \"@openzeppelin/contracts/utils/Counters.sol\":827:939   */\n      swap2\n      swap1\n      pop\n      jump\t// out\n        /* \"@openzeppelin/contracts/token/ERC721/ERC721.sol\":8116:8224   */\n    tag_191:\n        /* \"@openzeppelin/contracts/token/ERC721/ERC721.sol\":8191:8217   */\n      tag_261\n        /* \"@openzeppelin/contracts/token/ERC721/ERC721.sol\":8201:8203   */\n      dup3\n        /* \"@openzeppelin/contracts/token/ERC721/ERC721.sol\":8205:8212   */\n      dup3\n        /* \"@openzeppelin/contracts/token/ERC721/ERC721.sol\":8191:8217   */\n      mload(0x40)\n      dup1\n      0x20\n      add\n      0x40\n      mstore\n      dup1\n      0x00\n      dup2\n      mstore\n      pop\n        /* \"@openzeppelin/contracts/token/ERC721/ERC721.sol\":8191:8200   */\n      tag_262\n        /* \"@openzeppelin/contracts/token/ERC721/ERC721.sol\":8191:8217   */\n      jump\t// in\n    tag_261:\n        /* \"@openzeppelin/contracts/token/ERC721/ERC721.sol\":8116:8224   */\n      pop\n      pop\n      jump\t// out\n        /* \"@openzeppelin/contracts/token/ERC721/extensions/ERC721URIStorage.sol\":1277:1491   */\n    tag_193:\n        /* \"@openzeppelin/contracts/token/ERC721/extensions/ERC721URIStorage.sol\":1376:1392   */\n      tag_264\n        /* \"@openzeppelin/contracts/token/ERC721/extensions/ERC721URIStorage.sol\":1384:1391   */\n      dup3\n        /* \"@openzeppelin/contracts/token/ERC721/extensions/ERC721URIStorage.sol\":1376:1383   */\n      tag_106\n        /* \"@openzeppelin/contracts/token/ERC721/extensions/ERC721URIStorage.sol\":1376:1392   */\n      jump\t// in\n    tag_264:\n        /* \"@openzeppelin/contracts/token/ERC721/extensions/ERC721URIStorage.sol\":1368:1443   */\n      tag_265\n      jumpi\n      mload(0x40)\n      0x08c379a000000000000000000000000000000000000000000000000000000000\n      dup2\n      mstore\n      0x04\n      add\n      tag_266\n      swap1\n      tag_267\n      jump\t// in\n    tag_266:\n      mload(0x40)\n      dup1\n      swap2\n      sub\n      swap1\n      revert\n    tag_265:\n        /* \"@openzeppelin/contracts/token/ERC721/extensions/ERC721URIStorage.sol\":1475:1484   */\n      dup1\n        /* \"@openzeppelin/contracts/token/ERC721/extensions/ERC721URIStorage.sol\":1453:1463   */\n      0x06\n        /* \"@openzeppelin/contracts/token/ERC721/extensions/ERC721URIStorage.sol\":1453:1472   */\n      0x00\n        /* \"@openzeppelin/contracts/token/ERC721/extensions/ERC721URIStorage.sol\":1464:1471   */\n      dup5\n        /* \"@openzeppelin/contracts/token/ERC721/extensions/ERC721URIStorage.sol\":1453:1472   */\n      dup2\n      mstore\n      0x20\n      add\n      swap1\n      dup2\n      mstore\n      0x20\n      add\n      0x00\n      keccak256\n        /* \"@openzeppelin/contracts/token/ERC721/extensions/ERC721URIStorage.sol\":1453:1484   */\n      swap1\n      dup1\n      mload\n      swap1\n      0x20\n      add\n      swap1\n      tag_268\n      swap3\n      swap2\n      swap1\n      tag_269\n      jump\t// in\n    tag_268:\n      pop\n        /* \"@openzeppelin/contracts/token/ERC721/extensions/ERC721URIStorage.sol\":1277:1491   */\n      pop\n      pop\n      jump\t// out\n        /* \"@openzeppelin/contracts/token/ERC721/ERC721.sol\":13668:13790   */\n    tag_219:\n      pop\n      pop\n      pop\n      jump\t// out\n        /* \"@openzeppelin/contracts/token/ERC721/ERC721.sol\":14162:14283   */\n    tag_226:\n      pop\n      pop\n      pop\n      jump\t// out\n        /* \"@openzeppelin/contracts/token/ERC721/ERC721.sol\":9722:10128   */\n    tag_229:\n        /* \"@openzeppelin/contracts/token/ERC721/ERC721.sol\":9781:9794   */\n      0x00\n        /* \"@openzeppelin/contracts/token/ERC721/ERC721.sol\":9797:9820   */\n      tag_273\n        /* \"@openzeppelin/contracts/token/ERC721/ERC721.sol\":9812:9819   */\n      dup3\n        /* \"@openzeppelin/contracts/token/ERC721/ERC721.sol\":9797:9811   */\n      tag_60\n        /* \"@openzeppelin/contracts/token/ERC721/ERC721.sol\":9797:9820   */\n      jump\t// in\n    tag_273:\n        /* \"@openzeppelin/contracts/token/ERC721/ERC721.sol\":9781:9820   */\n      swap1\n      pop\n        /* \"@openzeppelin/contracts/token/ERC721/ERC721.sol\":9831:9879   */\n      tag_274\n        /* \"@openzeppelin/contracts/token/ERC721/ERC721.sol\":9852:9857   */\n      dup2\n        /* \"@openzeppelin/contracts/token/ERC721/ERC721.sol\":9867:9868   */\n      0x00\n        /* \"@openzeppelin/contracts/token/ERC721/ERC721.sol\":9871:9878   */\n      dup5\n        /* \"@openzeppelin/contracts/token/ERC721/ERC721.sol\":9831:9851   */\n      tag_219\n        /* \"@openzeppelin/contracts/token/ERC721/ERC721.sol\":9831:9879   */\n      jump\t// in\n    tag_274:\n        /* \"@openzeppelin/contracts/token/ERC721/ERC721.sol\":9917:9946   */\n      tag_275\n        /* \"@openzeppelin/contracts/token/ERC721/ERC721.sol\":9934:9935   */\n      0x00\n        /* \"@openzeppelin/contracts/token/ERC721/ERC721.sol\":9938:9945   */\n      dup4\n        /* \"@openzeppelin/contracts/token/ERC721/ERC721.sol\":9917:9925   */\n      tag_124\n        /* \"@openzeppelin/contracts/token/ERC721/ERC721.sol\":9917:9946   */\n      jump\t// in\n    tag_275:\n        /* \"@openzeppelin/contracts/token/ERC721/ERC721.sol\":9977:9978   */\n      0x01\n        /* \"@openzeppelin/contracts/token/ERC721/ERC721.sol\":9957:9966   */\n      0x03\n        /* \"@openzeppelin/contracts/token/ERC721/ERC721.sol\":9957:9973   */\n      0x00\n        /* \"@openzeppelin/contracts/token/ERC721/ERC721.sol\":9967:9972   */\n      dup4\n        /* \"@openzeppelin/contracts/token/ERC721/ERC721.sol\":9957:9973   */\n      0xffffffffffffffffffffffffffffffffffffffff\n      and\n      0xffffffffffffffffffffffffffffffffffffffff\n      and\n      dup2\n      mstore\n      0x20\n      add\n      swap1\n      dup2\n      mstore\n      0x20\n      add\n      0x00\n      keccak256\n      0x00\n        /* \"@openzeppelin/contracts/token/ERC721/ERC721.sol\":9957:9978   */\n      dup3\n      dup3\n      sload\n      tag_276\n      swap2\n      swap1\n      tag_222\n      jump\t// in\n    tag_276:\n      swap3\n      pop\n      pop\n      dup2\n      swap1\n      sstore\n      pop\n        /* \"@openzeppelin/contracts/token/ERC721/ERC721.sol\":9995:10002   */\n      0x02\n        /* \"@openzeppelin/contracts/token/ERC721/ERC721.sol\":9995:10011   */\n      0x00\n        /* \"@openzeppelin/contracts/token/ERC721/ERC721.sol\":10003:10010   */\n      dup4\n        /* \"@openzeppelin/contracts/token/ERC721/ERC721.sol\":9995:10011   */\n      dup2\n      mstore\n      0x20\n      add\n      swap1\n      dup2\n      mstore\n      0x20\n      add\n      0x00\n      keccak256\n      0x00\n        /* \"@openzeppelin/contracts/token/ERC721/ERC721.sol\":9988:10011   */\n      0x0100\n      exp\n      dup2\n      sload\n      swap1\n      0xffffffffffffffffffffffffffffffffffffffff\n      mul\n      not\n      and\n      swap1\n      sstore\n        /* \"@openzeppelin/contracts/token/ERC721/ERC721.sol\":10055:10062   */\n      dup2\n        /* \"@openzeppelin/contracts/token/ERC721/ERC721.sol\":10051:10052   */\n      0x00\n        /* \"@openzeppelin/contracts/token/ERC721/ERC721.sol\":10027:10063   */\n      0xffffffffffffffffffffffffffffffffffffffff\n      and\n        /* \"@openzeppelin/contracts/token/ERC721/ERC721.sol\":10036:10041   */\n      dup3\n        /* \"@openzeppelin/contracts/token/ERC721/ERC721.sol\":10027:10063   */\n      0xffffffffffffffffffffffffffffffffffffffff\n      and\n      0xddf252ad1be2c89b69c2b068fc378daa952ba7f163c4a11628f55a4df523b3ef\n      mload(0x40)\n      mload(0x40)\n      dup1\n      swap2\n      sub\n      swap1\n      log4\n        /* \"@openzeppelin/contracts/token/ERC721/ERC721.sol\":10074:10121   */\n      tag_277\n        /* \"@openzeppelin/contracts/token/ERC721/ERC721.sol\":10094:10099   */\n      dup2\n        /* \"@openzeppelin/contracts/token/ERC721/ERC721.sol\":10109:10110   */\n      0x00\n        /* \"@openzeppelin/contracts/token/ERC721/ERC721.sol\":10113:10120   */\n      dup5\n        /* \"@openzeppelin/contracts/token/ERC721/ERC721.sol\":10074:10093   */\n      tag_226\n        /* \"@openzeppelin/contracts/token/ERC721/ERC721.sol\":10074:10121   */\n      jump\t// in\n    tag_277:\n        /* \"@openzeppelin/contracts/token/ERC721/ERC721.sol\":9771:10128   */\n      pop\n        /* \"@openzeppelin/contracts/token/ERC721/ERC721.sol\":9722:10128   */\n      pop\n      jump\t// out\n        /* \"@openzeppelin/contracts/token/ERC721/ERC721.sol\":12334:13112   */\n    tag_242:\n        /* \"@openzeppelin/contracts/token/ERC721/ERC721.sol\":12484:12488   */\n      0x00\n        /* \"@openzeppelin/contracts/token/ERC721/ERC721.sol\":12504:12519   */\n      tag_279\n        /* \"@openzeppelin/contracts/token/ERC721/ERC721.sol\":12504:12506   */\n      dup5\n        /* \"@openzeppelin/contracts/token/ERC721/ERC721.sol\":12504:12517   */\n      0xffffffffffffffffffffffffffffffffffffffff\n      and\n      tag_280\n        /* \"@openzeppelin/contracts/token/ERC721/ERC721.sol\":12504:12519   */\n      jump\t// in\n    tag_279:\n        /* \"@openzeppelin/contracts/token/ERC721/ERC721.sol\":12500:13106   */\n      iszero\n      tag_281\n      jumpi\n        /* \"@openzeppelin/contracts/token/ERC721/ERC721.sol\":12555:12557   */\n      dup4\n        /* \"@openzeppelin/contracts/token/ERC721/ERC721.sol\":12539:12575   */\n      0xffffffffffffffffffffffffffffffffffffffff\n      and\n      0x150b7a02\n        /* \"@openzeppelin/contracts/token/ERC721/ERC721.sol\":12576:12588   */\n      tag_282\n        /* \"@openzeppelin/contracts/token/ERC721/ERC721.sol\":12576:12586   */\n      tag_116\n        /* \"@openzeppelin/contracts/token/ERC721/ERC721.sol\":12576:12588   */\n      jump\t// in\n    tag_282:\n        /* \"@openzeppelin/contracts/token/ERC721/ERC721.sol\":12590:12594   */\n      dup8\n        /* \"@openzeppelin/contracts/token/ERC721/ERC721.sol\":12596:12603   */\n      dup7\n        /* \"@openzeppelin/contracts/token/ERC721/ERC721.sol\":12605:12610   */\n      dup7\n        /* \"@openzeppelin/contracts/token/ERC721/ERC721.sol\":12539:12611   */\n      mload(0x40)\n      dup6\n      0xffffffff\n      and\n      0xe0\n      shl\n      dup2\n      mstore\n      0x04\n      add\n      tag_283\n      swap5\n      swap4\n      swap3\n      swap2\n      swap1\n      tag_127\n      jump\t// in\n    tag_283:\n      0x20\n      mload(0x40)\n      dup1\n      dup4\n      sub\n      dup2\n      0x00\n      dup8\n      gas\n      call\n      swap3\n      pop\n      pop\n      pop\n      dup1\n      iszero\n      tag_284\n      jumpi\n      pop\n      mload(0x40)\n      returndatasize\n      not(0x1f)\n      0x1f\n      dup3\n      add\n      and\n      dup3\n      add\n      dup1\n      0x40\n      mstore\n      pop\n      dup2\n      add\n      swap1\n      tag_285\n      swap2\n      swap1\n      tag_286\n      jump\t// in\n    tag_285:\n      0x01\n    tag_284:\n        /* \"@openzeppelin/contracts/token/ERC721/ERC721.sol\":12535:13054   */\n      tag_287\n      jumpi\n      returndatasize\n      dup1\n      0x00\n      dup2\n      eq\n      tag_292\n      jumpi\n      mload(0x40)\n      swap2\n      pop\n      and(add(returndatasize, 0x3f), not(0x1f))\n      dup3\n      add\n      0x40\n      mstore\n      returndatasize\n      dup3\n      mstore\n      returndatasize\n      0x00\n      0x20\n      dup5\n      add\n      returndatacopy\n      jump(tag_291)\n    tag_292:\n      0x60\n      swap2\n      pop\n    tag_291:\n      pop\n        /* \"@openzeppelin/contracts/token/ERC721/ERC721.sol\":12795:12796   */\n      0x00\n        /* \"@openzeppelin/contracts/token/ERC721/ERC721.sol\":12778:12784   */\n      dup2\n        /* \"@openzeppelin/contracts/token/ERC721/ERC721.sol\":12778:12791   */\n      mload\n        /* \"@openzeppelin/contracts/token/ERC721/ERC721.sol\":12778:12796   */\n      sub\n        /* \"@openzeppelin/contracts/token/ERC721/ERC721.sol\":12774:13040   */\n      tag_293\n      jumpi\n        /* \"@openzeppelin/contracts/token/ERC721/ERC721.sol\":12820:12880   */\n      mload(0x40)\n      0x08c379a000000000000000000000000000000000000000000000000000000000\n      dup2\n      mstore\n      0x04\n      add\n      tag_294\n      swap1\n      tag_245\n      jump\t// in\n    tag_294:\n      mload(0x40)\n      dup1\n      swap2\n      sub\n      swap1\n      revert\n        /* \"@openzeppelin/contracts/token/ERC721/ERC721.sol\":12774:13040   */\n    tag_293:\n        /* \"@openzeppelin/contracts/token/ERC721/ERC721.sol\":12992:12998   */\n      dup1\n        /* \"@openzeppelin/contracts/token/ERC721/ERC721.sol\":12986:12999   */\n      mload\n        /* \"@openzeppelin/contracts/token/ERC721/ERC721.sol\":12977:12983   */\n      dup2\n        /* \"@openzeppelin/contracts/token/ERC721/ERC721.sol\":12973:12975   */\n      0x20\n        /* \"@openzeppelin/contracts/token/ERC721/ERC721.sol\":12969:12984   */\n      add\n        /* \"@openzeppelin/contracts/token/ERC721/ERC721.sol\":12962:13000   */\n      revert\n        /* \"@openzeppelin/contracts/token/ERC721/ERC721.sol\":12535:13054   */\n    tag_287:\n        /* \"@openzeppelin/contracts/token/ERC721/ERC721.sol\":12671:12712   */\n      shl(0xe0, 0x150b7a02)\n        /* \"@openzeppelin/contracts/token/ERC721/ERC721.sol\":12661:12712   */\n      not(0xffffffffffffffffffffffffffffffffffffffffffffffffffffffff)\n      and\n        /* \"@openzeppelin/contracts/token/ERC721/ERC721.sol\":12661:12667   */\n      dup2\n        /* \"@openzeppelin/contracts/token/ERC721/ERC721.sol\":12661:12712   */\n      not(0xffffffffffffffffffffffffffffffffffffffffffffffffffffffff)\n      and\n      eq\n        /* \"@openzeppelin/contracts/token/ERC721/ERC721.sol\":12654:12712   */\n      swap2\n      pop\n      pop\n      jump(tag_278)\n        /* \"@openzeppelin/contracts/token/ERC721/ERC721.sol\":12500:13106   */\n    tag_281:\n        /* \"@openzeppelin/contracts/token/ERC721/ERC721.sol\":13091:13095   */\n      0x01\n        /* \"@openzeppelin/contracts/token/ERC721/ERC721.sol\":13084:13095   */\n      swap1\n      pop\n        /* \"@openzeppelin/contracts/token/ERC721/ERC721.sol\":12334:13112   */\n    tag_278:\n      swap5\n      swap4\n      pop\n      pop\n      pop\n      pop\n      jump\t// out\n        /* \"@openzeppelin/contracts/utils/Strings.sol\":328:1031   */\n    tag_256:\n        /* \"@openzeppelin/contracts/utils/Strings.sol\":384:397   */\n      0x60\n        /* \"@openzeppelin/contracts/utils/Strings.sol\":610:611   */\n      0x00\n        /* \"@openzeppelin/contracts/utils/Strings.sol\":601:606   */\n      dup3\n        /* \"@openzeppelin/contracts/utils/Strings.sol\":601:611   */\n      sub\n        /* \"@openzeppelin/contracts/utils/Strings.sol\":597:648   */\n      tag_299\n      jumpi\n        /* \"@openzeppelin/contracts/utils/Strings.sol\":627:637   */\n      mload(0x40)\n      dup1\n      0x40\n      add\n      0x40\n      mstore\n      dup1\n      0x01\n      dup2\n      mstore\n      0x20\n      add\n      0x3000000000000000000000000000000000000000000000000000000000000000\n      dup2\n      mstore\n      pop\n      swap1\n      pop\n      jump(tag_298)\n        /* \"@openzeppelin/contracts/utils/Strings.sol\":597:648   */\n    tag_299:\n        /* \"@openzeppelin/contracts/utils/Strings.sol\":657:669   */\n      0x00\n        /* \"@openzeppelin/contracts/utils/Strings.sol\":672:677   */\n      dup3\n        /* \"@openzeppelin/contracts/utils/Strings.sol\":657:677   */\n      swap1\n      pop\n        /* \"@openzeppelin/contracts/utils/Strings.sol\":687:701   */\n      0x00\n        /* \"@openzeppelin/contracts/utils/Strings.sol\":711:786   */\n    tag_300:\n        /* \"@openzeppelin/contracts/utils/Strings.sol\":726:727   */\n      0x00\n        /* \"@openzeppelin/contracts/utils/Strings.sol\":718:722   */\n      dup3\n        /* \"@openzeppelin/contracts/utils/Strings.sol\":718:727   */\n      eq\n        /* \"@openzeppelin/contracts/utils/Strings.sol\":711:786   */\n      tag_301\n      jumpi\n        /* \"@openzeppelin/contracts/utils/Strings.sol\":743:751   */\n      dup1\n      dup1\n      tag_302\n      swap1\n      tag_303\n      jump\t// in\n    tag_302:\n      swap2\n      pop\n      pop\n        /* \"@openzeppelin/contracts/utils/Strings.sol\":773:775   */\n      0x0a\n        /* \"@openzeppelin/contracts/utils/Strings.sol\":765:775   */\n      dup3\n      tag_304\n      swap2\n      swap1\n      tag_305\n      jump\t// in\n    tag_304:\n      swap2\n      pop\n        /* \"@openzeppelin/contracts/utils/Strings.sol\":711:786   */\n      jump(tag_300)\n    tag_301:\n        /* \"@openzeppelin/contracts/utils/Strings.sol\":795:814   */\n      0x00\n        /* \"@openzeppelin/contracts/utils/Strings.sol\":827:833   */\n      dup2\n        /* \"@openzeppelin/contracts/utils/Strings.sol\":817:834   */\n      0xffffffffffffffff\n      dup2\n      gt\n      iszero\n      tag_306\n      jumpi\n      tag_307\n      tag_308\n      jump\t// in\n    tag_307:\n    tag_306:\n      mload(0x40)\n      swap1\n      dup1\n      dup3\n      mstore\n      dup1\n      0x1f\n      add\n      not(0x1f)\n      and\n      0x20\n      add\n      dup3\n      add\n      0x40\n      mstore\n      dup1\n      iszero\n      tag_309\n      jumpi\n      dup2\n      0x20\n      add\n      0x01\n      dup3\n      mul\n      dup1\n      calldatasize\n      dup4\n      calldatacopy\n      dup1\n      dup3\n      add\n      swap2\n      pop\n      pop\n      swap1\n      pop\n    tag_309:\n      pop\n        /* \"@openzeppelin/contracts/utils/Strings.sol\":795:834   */\n      swap1\n      pop\n        /* \"@openzeppelin/contracts/utils/Strings.sol\":844:994   */\n    tag_310:\n        /* \"@openzeppelin/contracts/utils/Strings.sol\":860:861   */\n      0x00\n        /* \"@openzeppelin/contracts/utils/Strings.sol\":851:856   */\n      dup6\n        /* \"@openzeppelin/contracts/utils/Strings.sol\":851:861   */\n      eq\n        /* \"@openzeppelin/contracts/utils/Strings.sol\":844:994   */\n      tag_311\n      jumpi\n        /* \"@openzeppelin/contracts/utils/Strings.sol\":887:888   */\n      0x01\n        /* \"@openzeppelin/contracts/utils/Strings.sol\":877:888   */\n      dup3\n      tag_312\n      swap2\n      swap1\n      tag_222\n      jump\t// in\n    tag_312:\n      swap2\n      pop\n        /* \"@openzeppelin/contracts/utils/Strings.sol\":953:955   */\n      0x0a\n        /* \"@openzeppelin/contracts/utils/Strings.sol\":945:950   */\n      dup6\n        /* \"@openzeppelin/contracts/utils/Strings.sol\":945:955   */\n      tag_313\n      swap2\n      swap1\n      tag_314\n      jump\t// in\n    tag_313:\n        /* \"@openzeppelin/contracts/utils/Strings.sol\":932:934   */\n      0x30\n        /* \"@openzeppelin/contracts/utils/Strings.sol\":932:956   */\n      tag_315\n      swap2\n      swap1\n      tag_224\n      jump\t// in\n    tag_315:\n        /* \"@openzeppelin/contracts/utils/Strings.sol\":919:958   */\n      0xf8\n      shl\n        /* \"@openzeppelin/contracts/utils/Strings.sol\":902:908   */\n      dup2\n        /* \"@openzeppelin/contracts/utils/Strings.sol\":909:915   */\n      dup4\n        /* \"@openzeppelin/contracts/utils/Strings.sol\":902:916   */\n      dup2\n      mload\n      dup2\n      lt\n      tag_316\n      jumpi\n      tag_317\n      tag_318\n      jump\t// in\n    tag_317:\n    tag_316:\n      0x20\n      add\n      add\n        /* \"@openzeppelin/contracts/utils/Strings.sol\":902:958   */\n      swap1\n      not(0xffffffffffffffffffffffffffffffffffffffffffffffffffffffffffffff)\n      and\n      swap1\n      dup2\n      0x00\n      byte\n      swap1\n      mstore8\n      pop\n        /* \"@openzeppelin/contracts/utils/Strings.sol\":981:983   */\n      0x0a\n        /* \"@openzeppelin/contracts/utils/Strings.sol\":972:983   */\n      dup6\n      tag_319\n      swap2\n      swap1\n      tag_305\n      jump\t// in\n    tag_319:\n      swap5\n      pop\n        /* \"@openzeppelin/contracts/utils/Strings.sol\":844:994   */\n      jump(tag_310)\n    tag_311:\n        /* \"@openzeppelin/contracts/utils/Strings.sol\":1017:1023   */\n      dup1\n        /* \"@openzeppelin/contracts/utils/Strings.sol\":1003:1024   */\n      swap4\n      pop\n      pop\n      pop\n      pop\n        /* \"@openzeppelin/contracts/utils/Strings.sol\":328:1031   */\n    tag_298:\n      swap2\n      swap1\n      pop\n      jump\t// out\n        /* \"@openzeppelin/contracts/token/ERC721/ERC721.sol\":8445:8756   */\n    tag_262:\n        /* \"@openzeppelin/contracts/token/ERC721/ERC721.sol\":8570:8588   */\n      tag_321\n        /* \"@openzeppelin/contracts/token/ERC721/ERC721.sol\":8576:8578   */\n      dup4\n        /* \"@openzeppelin/contracts/token/ERC721/ERC721.sol\":8580:8587   */\n      dup4\n        /* \"@openzeppelin/contracts/token/ERC721/ERC721.sol\":8570:8575   */\n      tag_322\n        /* \"@openzeppelin/contracts/token/ERC721/ERC721.sol\":8570:8588   */\n      jump\t// in\n    tag_321:\n        /* \"@openzeppelin/contracts/token/ERC721/ERC721.sol\":8619:8673   */\n      tag_323\n        /* \"@openzeppelin/contracts/token/ERC721/ERC721.sol\":8650:8651   */\n      0x00\n        /* \"@openzeppelin/contracts/token/ERC721/ERC721.sol\":8654:8656   */\n      dup5\n        /* \"@openzeppelin/contracts/token/ERC721/ERC721.sol\":8658:8665   */\n      dup5\n        /* \"@openzeppelin/contracts/token/ERC721/ERC721.sol\":8667:8672   */\n      dup5\n        /* \"@openzeppelin/contracts/token/ERC721/ERC721.sol\":8619:8641   */\n      tag_242\n        /* \"@openzeppelin/contracts/token/ERC721/ERC721.sol\":8619:8673   */\n      jump\t// in\n    tag_323:\n        /* \"@openzeppelin/contracts/token/ERC721/ERC721.sol\":8598:8749   */\n      tag_324\n      jumpi\n      mload(0x40)\n      0x08c379a000000000000000000000000000000000000000000000000000000000\n      dup2\n      mstore\n      0x04\n      add\n      tag_325\n      swap1\n      tag_245\n      jump\t// in\n    tag_325:\n      mload(0x40)\n      dup1\n      swap2\n      sub\n      swap1\n      revert\n    tag_324:\n        /* \"@openzeppelin/contracts/token/ERC721/ERC721.sol\":8445:8756   */\n      pop\n      pop\n      pop\n      jump\t// out\n        /* \"@openzeppelin/contracts/utils/Address.sol\":1175:1495   */\n    tag_280:\n        /* \"@openzeppelin/contracts/utils/Address.sol\":1235:1239   */\n      0x00\n        /* \"@openzeppelin/contracts/utils/Address.sol\":1487:1488   */\n      dup1\n        /* \"@openzeppelin/contracts/utils/Address.sol\":1465:1472   */\n      dup3\n        /* \"@openzeppelin/contracts/utils/Address.sol\":1465:1484   */\n      0xffffffffffffffffffffffffffffffffffffffff\n      and\n      extcodesize\n        /* \"@openzeppelin/contracts/utils/Address.sol\":1465:1488   */\n      gt\n        /* \"@openzeppelin/contracts/utils/Address.sol\":1458:1488   */\n      swap1\n      pop\n        /* \"@openzeppelin/contracts/utils/Address.sol\":1175:1495   */\n      swap2\n      swap1\n      pop\n      jump\t// out\n        /* \"@openzeppelin/contracts/token/ERC721/ERC721.sol\":9078:9505   */\n    tag_322:\n        /* \"@openzeppelin/contracts/token/ERC721/ERC721.sol\":9171:9172   */\n      0x00\n        /* \"@openzeppelin/contracts/token/ERC721/ERC721.sol\":9157:9173   */\n      0xffffffffffffffffffffffffffffffffffffffff\n      and\n        /* \"@openzeppelin/contracts/token/ERC721/ERC721.sol\":9157:9159   */\n      dup3\n        /* \"@openzeppelin/contracts/token/ERC721/ERC721.sol\":9157:9173   */\n      0xffffffffffffffffffffffffffffffffffffffff\n      and\n      sub\n        /* \"@openzeppelin/contracts/token/ERC721/ERC721.sol\":9149:9210   */\n      tag_328\n      jumpi\n      mload(0x40)\n      0x08c379a000000000000000000000000000000000000000000000000000000000\n      dup2\n      mstore\n      0x04\n      add\n      tag_329\n      swap1\n      tag_330\n      jump\t// in\n    tag_329:\n      mload(0x40)\n      dup1\n      swap2\n      sub\n      swap1\n      revert\n    tag_328:\n        /* \"@openzeppelin/contracts/token/ERC721/ERC721.sol\":9229:9245   */\n      tag_331\n        /* \"@openzeppelin/contracts/token/ERC721/ERC721.sol\":9237:9244   */\n      dup2\n        /* \"@openzeppelin/contracts/token/ERC721/ERC721.sol\":9229:9236   */\n      tag_106\n        /* \"@openzeppelin/contracts/token/ERC721/ERC721.sol\":9229:9245   */\n      jump\t// in\n    tag_331:\n        /* \"@openzeppelin/contracts/token/ERC721/ERC721.sol\":9228:9245   */\n      iszero\n        /* \"@openzeppelin/contracts/token/ERC721/ERC721.sol\":9220:9278   */\n      tag_332\n      jumpi\n      mload(0x40)\n      0x08c379a000000000000000000000000000000000000000000000000000000000\n      dup2\n      mstore\n      0x04\n      add\n      tag_333\n      swap1\n      tag_334\n      jump\t// in\n    tag_333:\n      mload(0x40)\n      dup1\n      swap2\n      sub\n      swap1\n      revert\n    tag_332:\n        /* \"@openzeppelin/contracts/token/ERC721/ERC721.sol\":9289:9334   */\n      tag_335\n        /* \"@openzeppelin/contracts/token/ERC721/ERC721.sol\":9318:9319   */\n      0x00\n        /* \"@openzeppelin/contracts/token/ERC721/ERC721.sol\":9322:9324   */\n      dup4\n        /* \"@openzeppelin/contracts/token/ERC721/ERC721.sol\":9326:9333   */\n      dup4\n        /* \"@openzeppelin/contracts/token/ERC721/ERC721.sol\":9289:9309   */\n      tag_219\n        /* \"@openzeppelin/contracts/token/ERC721/ERC721.sol\":9289:9334   */\n      jump\t// in\n    tag_335:\n        /* \"@openzeppelin/contracts/token/ERC721/ERC721.sol\":9362:9363   */\n      0x01\n        /* \"@openzeppelin/contracts/token/ERC721/ERC721.sol\":9345:9354   */\n      0x03\n        /* \"@openzeppelin/contracts/token/ERC721/ERC721.sol\":9345:9358   */\n      0x00\n        /* \"@openzeppelin/contracts/token/ERC721/ERC721.sol\":9355:9357   */\n      dup5\n        /* \"@openzeppelin/contracts/token/ERC721/ERC721.sol\":9345:9358   */\n      0xffffffffffffffffffffffffffffffffffffffff\n      and\n      0xffffffffffffffffffffffffffffffffffffffff\n      and\n      dup2\n      mstore\n      0x20\n      add\n      swap1\n      dup2\n      mstore\n      0x20\n      add\n      0x00\n      keccak256\n      0x00\n        /* \"@openzeppelin/contracts/token/ERC721/ERC721.sol\":9345:9363   */\n      dup3\n      dup3\n      sload\n      tag_336\n      swap2\n      swap1\n      tag_224\n      jump\t// in\n    tag_336:\n      swap3\n      pop\n      pop\n      dup2\n      swap1\n      sstore\n      pop\n        /* \"@openzeppelin/contracts/token/ERC721/ERC721.sol\":9392:9394   */\n      dup2\n        /* \"@openzeppelin/contracts/token/ERC721/ERC721.sol\":9373:9380   */\n      0x02\n        /* \"@openzeppelin/contracts/token/ERC721/ERC721.sol\":9373:9389   */\n      0x00\n        /* \"@openzeppelin/contracts/token/ERC721/ERC721.sol\":9381:9388   */\n      dup4\n        /* \"@openzeppelin/contracts/token/ERC721/ERC721.sol\":9373:9389   */\n      dup2\n      mstore\n      0x20\n      add\n      swap1\n      dup2\n      mstore\n      0x20\n      add\n      0x00\n      keccak256\n      0x00\n        /* \"@openzeppelin/contracts/token/ERC721/ERC721.sol\":9373:9394   */\n      0x0100\n      exp\n      dup2\n      sload\n      dup2\n      0xffffffffffffffffffffffffffffffffffffffff\n      mul\n      not\n      and\n      swap1\n      dup4\n      0xffffffffffffffffffffffffffffffffffffffff\n      and\n      mul\n      or\n      swap1\n      sstore\n      pop\n        /* \"@openzeppelin/contracts/token/ERC721/ERC721.sol\":9435:9442   */\n      dup1\n        /* \"@openzeppelin/contracts/token/ERC721/ERC721.sol\":9431:9433   */\n      dup3\n        /* \"@openzeppelin/contracts/token/ERC721/ERC721.sol\":9410:9443   */\n      0xffffffffffffffffffffffffffffffffffffffff\n      and\n        /* \"@openzeppelin/contracts/token/ERC721/ERC721.sol\":9427:9428   */\n      0x00\n        /* \"@openzeppelin/contracts/token/ERC721/ERC721.sol\":9410:9443   */\n      0xffffffffffffffffffffffffffffffffffffffff\n      and\n      0xddf252ad1be2c89b69c2b068fc378daa952ba7f163c4a11628f55a4df523b3ef\n      mload(0x40)\n      mload(0x40)\n      dup1\n      swap2\n      sub\n      swap1\n      log4\n        /* \"@openzeppelin/contracts/token/ERC721/ERC721.sol\":9454:9498   */\n      tag_337\n        /* \"@openzeppelin/contracts/token/ERC721/ERC721.sol\":9482:9483   */\n      0x00\n        /* \"@openzeppelin/contracts/token/ERC721/ERC721.sol\":9486:9488   */\n      dup4\n        /* \"@openzeppelin/contracts/token/ERC721/ERC721.sol\":9490:9497   */\n      dup4\n        /* \"@openzeppelin/contracts/token/ERC721/ERC721.sol\":9454:9473   */\n      tag_226\n        /* \"@openzeppelin/contracts/token/ERC721/ERC721.sol\":9454:9498   */\n      jump\t// in\n    tag_337:\n        /* \"@openzeppelin/contracts/token/ERC721/ERC721.sol\":9078:9505   */\n      pop\n      pop\n      jump\t// out\n    tag_233:\n      pop\n      dup1\n      sload\n      tag_338\n      swap1\n      tag_99\n      jump\t// in\n    tag_338:\n      0x00\n      dup3\n      sstore\n      dup1\n      0x1f\n      lt\n      tag_340\n      jumpi\n      pop\n      jump(tag_339)\n    tag_340:\n      0x1f\n      add\n      0x20\n      swap1\n      div\n      swap1\n      0x00\n      mstore\n      keccak256(0x00, 0x20)\n      swap1\n      dup2\n      add\n      swap1\n      tag_341\n      swap2\n      swap1\n      tag_342\n      jump\t// in\n    tag_341:\n    tag_339:\n      pop\n      jump\t// out\n    tag_269:\n      dup3\n      dup1\n      sload\n      tag_343\n      swap1\n      tag_99\n      jump\t// in\n    tag_343:\n      swap1\n      0x00\n      mstore\n      keccak256(0x00, 0x20)\n      swap1\n      0x1f\n      add\n      0x20\n      swap1\n      div\n      dup2\n      add\n      swap3\n      dup3\n      tag_345\n      jumpi\n      0x00\n      dup6\n      sstore\n      jump(tag_344)\n    tag_345:\n      dup3\n      0x1f\n      lt\n      tag_346\n      jumpi\n      dup1\n      mload\n      not(0xff)\n      and\n      dup4\n      dup1\n      add\n      or\n      dup6\n      sstore\n      jump(tag_344)\n    tag_346:\n      dup3\n      dup1\n      add\n      0x01\n      add\n      dup6\n      sstore\n      dup3\n      iszero\n      tag_344\n      jumpi\n      swap2\n      dup3\n      add\n    tag_347:\n      dup3\n      dup2\n      gt\n      iszero\n      tag_348\n      jumpi\n      dup3\n      mload\n      dup3\n      sstore\n      swap2\n      0x20\n      add\n      swap2\n      swap1\n      0x01\n      add\n      swap1\n      jump(tag_347)\n    tag_348:\n    tag_344:\n      pop\n      swap1\n      pop\n      tag_349\n      swap2\n      swap1\n      tag_342\n      jump\t// in\n    tag_349:\n      pop\n      swap1\n      jump\t// out\n    tag_342:\n    tag_350:\n      dup1\n      dup3\n      gt\n      iszero\n      tag_351\n      jumpi\n      0x00\n      dup2\n      0x00\n      swap1\n      sstore\n      pop\n      0x01\n      add\n      jump(tag_350)\n    tag_351:\n      pop\n      swap1\n      jump\t// out\n        /* \"#utility.yul\":7:82   */\n    tag_352:\n        /* \"#utility.yul\":40:46   */\n      0x00\n        /* \"#utility.yul\":73:75   */\n      0x40\n        /* \"#utility.yul\":67:76   */\n      mload\n        /* \"#utility.yul\":57:76   */\n      swap1\n      pop\n        /* \"#utility.yul\":7:82   */\n      swap1\n      jump\t// out\n        /* \"#utility.yul\":88:205   */\n    tag_353:\n        /* \"#utility.yul\":197:198   */\n      0x00\n        /* \"#utility.yul\":194:195   */\n      dup1\n        /* \"#utility.yul\":187:199   */\n      revert\n        /* \"#utility.yul\":211:328   */\n    tag_354:\n        /* \"#utility.yul\":320:321   */\n      0x00\n        /* \"#utility.yul\":317:318   */\n      dup1\n        /* \"#utility.yul\":310:322   */\n      revert\n        /* \"#utility.yul\":334:483   */\n    tag_355:\n        /* \"#utility.yul\":370:377   */\n      0x00\n        /* \"#utility.yul\":410:476   */\n      0xffffffff00000000000000000000000000000000000000000000000000000000\n        /* \"#utility.yul\":403:408   */\n      dup3\n        /* \"#utility.yul\":399:477   */\n      and\n        /* \"#utility.yul\":388:477   */\n      swap1\n      pop\n        /* \"#utility.yul\":334:483   */\n      swap2\n      swap1\n      pop\n      jump\t// out\n        /* \"#utility.yul\":489:609   */\n    tag_356:\n        /* \"#utility.yul\":561:584   */\n      tag_435\n        /* \"#utility.yul\":578:583   */\n      dup2\n        /* \"#utility.yul\":561:584   */\n      tag_355\n      jump\t// in\n    tag_435:\n        /* \"#utility.yul\":554:559   */\n      dup2\n        /* \"#utility.yul\":551:585   */\n      eq\n        /* \"#utility.yul\":541:603   */\n      tag_436\n      jumpi\n        /* \"#utility.yul\":599:600   */\n      0x00\n        /* \"#utility.yul\":596:597   */\n      dup1\n        /* \"#utility.yul\":589:601   */\n      revert\n        /* \"#utility.yul\":541:603   */\n    tag_436:\n        /* \"#utility.yul\":489:609   */\n      pop\n      jump\t// out\n        /* \"#utility.yul\":615:752   */\n    tag_357:\n        /* \"#utility.yul\":660:665   */\n      0x00\n        /* \"#utility.yul\":698:704   */\n      dup2\n        /* \"#utility.yul\":685:705   */\n      calldataload\n        /* \"#utility.yul\":676:705   */\n      swap1\n      pop\n        /* \"#utility.yul\":714:746   */\n      tag_438\n        /* \"#utility.yul\":740:745   */\n      dup2\n        /* \"#utility.yul\":714:746   */\n      tag_356\n      jump\t// in\n    tag_438:\n        /* \"#utility.yul\":615:752   */\n      swap3\n      swap2\n      pop\n      pop\n      jump\t// out\n        /* \"#utility.yul\":758:1085   */\n    tag_24:\n        /* \"#utility.yul\":816:822   */\n      0x00\n        /* \"#utility.yul\":865:867   */\n      0x20\n        /* \"#utility.yul\":853:862   */\n      dup3\n        /* \"#utility.yul\":844:851   */\n      dup5\n        /* \"#utility.yul\":840:863   */\n      sub\n        /* \"#utility.yul\":836:868   */\n      slt\n        /* \"#utility.yul\":833:952   */\n      iszero\n      tag_440\n      jumpi\n        /* \"#utility.yul\":871:950   */\n      tag_441\n      tag_353\n      jump\t// in\n    tag_441:\n        /* \"#utility.yul\":833:952   */\n    tag_440:\n        /* \"#utility.yul\":991:992   */\n      0x00\n        /* \"#utility.yul\":1016:1068   */\n      tag_442\n        /* \"#utility.yul\":1060:1067   */\n      dup5\n        /* \"#utility.yul\":1051:1057   */\n      dup3\n        /* \"#utility.yul\":1040:1049   */\n      dup6\n        /* \"#utility.yul\":1036:1058   */\n      add\n        /* \"#utility.yul\":1016:1068   */\n      tag_357\n      jump\t// in\n    tag_442:\n        /* \"#utility.yul\":1006:1068   */\n      swap2\n      pop\n        /* \"#utility.yul\":962:1078   */\n      pop\n        /* \"#utility.yul\":758:1085   */\n      swap3\n      swap2\n      pop\n      pop\n      jump\t// out\n        /* \"#utility.yul\":1091:1181   */\n    tag_358:\n        /* \"#utility.yul\":1125:1132   */\n      0x00\n        /* \"#utility.yul\":1168:1173   */\n      dup2\n        /* \"#utility.yul\":1161:1174   */\n      iszero\n        /* \"#utility.yul\":1154:1175   */\n      iszero\n        /* \"#utility.yul\":1143:1175   */\n      swap1\n      pop\n        /* \"#utility.yul\":1091:1181   */\n      swap2\n      swap1\n      pop\n      jump\t// out\n        /* \"#utility.yul\":1187:1296   */\n    tag_359:\n        /* \"#utility.yul\":1268:1289   */\n      tag_445\n        /* \"#utility.yul\":1283:1288   */\n      dup2\n        /* \"#utility.yul\":1268:1289   */\n      tag_358\n      jump\t// in\n    tag_445:\n        /* \"#utility.yul\":1263:1266   */\n      dup3\n        /* \"#utility.yul\":1256:1290   */\n      mstore\n        /* \"#utility.yul\":1187:1296   */\n      pop\n      pop\n      jump\t// out\n        /* \"#utility.yul\":1302:1512   */\n    tag_27:\n        /* \"#utility.yul\":1389:1393   */\n      0x00\n        /* \"#utility.yul\":1427:1429   */\n      0x20\n        /* \"#utility.yul\":1416:1425   */\n      dup3\n        /* \"#utility.yul\":1412:1430   */\n      add\n        /* \"#utility.yul\":1404:1430   */\n      swap1\n      pop\n        /* \"#utility.yul\":1440:1505   */\n      tag_447\n        /* \"#utility.yul\":1502:1503   */\n      0x00\n        /* \"#utility.yul\":1491:1500   */\n      dup4\n        /* \"#utility.yul\":1487:1504   */\n      add\n        /* \"#utility.yul\":1478:1484   */\n      dup5\n        /* \"#utility.yul\":1440:1505   */\n      tag_359\n      jump\t// in\n    tag_447:\n        /* \"#utility.yul\":1302:1512   */\n      swap3\n      swap2\n      pop\n      pop\n      jump\t// out\n        /* \"#utility.yul\":1518:1617   */\n    tag_360:\n        /* \"#utility.yul\":1570:1576   */\n      0x00\n        /* \"#utility.yul\":1604:1609   */\n      dup2\n        /* \"#utility.yul\":1598:1610   */\n      mload\n        /* \"#utility.yul\":1588:1610   */\n      swap1\n      pop\n        /* \"#utility.yul\":1518:1617   */\n      swap2\n      swap1\n      pop\n      jump\t// out\n        /* \"#utility.yul\":1623:1792   */\n    tag_361:\n        /* \"#utility.yul\":1707:1718   */\n      0x00\n        /* \"#utility.yul\":1741:1747   */\n      dup3\n        /* \"#utility.yul\":1736:1739   */\n      dup3\n        /* \"#utility.yul\":1729:1748   */\n      mstore\n        /* \"#utility.yul\":1781:1785   */\n      0x20\n        /* \"#utility.yul\":1776:1779   */\n      dup3\n        /* \"#utility.yul\":1772:1786   */\n      add\n        /* \"#utility.yul\":1757:1786   */\n      swap1\n      pop\n        /* \"#utility.yul\":1623:1792   */\n      swap3\n      swap2\n      pop\n      pop\n      jump\t// out\n        /* \"#utility.yul\":1798:2105   */\n    tag_362:\n        /* \"#utility.yul\":1866:1867   */\n      0x00\n        /* \"#utility.yul\":1876:1989   */\n    tag_451:\n        /* \"#utility.yul\":1890:1896   */\n      dup4\n        /* \"#utility.yul\":1887:1888   */\n      dup2\n        /* \"#utility.yul\":1884:1897   */\n      lt\n        /* \"#utility.yul\":1876:1989   */\n      iszero\n      tag_453\n      jumpi\n        /* \"#utility.yul\":1975:1976   */\n      dup1\n        /* \"#utility.yul\":1970:1973   */\n      dup3\n        /* \"#utility.yul\":1966:1977   */\n      add\n        /* \"#utility.yul\":1960:1978   */\n      mload\n        /* \"#utility.yul\":1956:1957   */\n      dup2\n        /* \"#utility.yul\":1951:1954   */\n      dup5\n        /* \"#utility.yul\":1947:1958   */\n      add\n        /* \"#utility.yul\":1940:1979   */\n      mstore\n        /* \"#utility.yul\":1912:1914   */\n      0x20\n        /* \"#utility.yul\":1909:1910   */\n      dup2\n        /* \"#utility.yul\":1905:1915   */\n      add\n        /* \"#utility.yul\":1900:1915   */\n      swap1\n      pop\n        /* \"#utility.yul\":1876:1989   */\n      jump(tag_451)\n    tag_453:\n        /* \"#utility.yul\":2007:2013   */\n      dup4\n        /* \"#utility.yul\":2004:2005   */\n      dup2\n        /* \"#utility.yul\":2001:2014   */\n      gt\n        /* \"#utility.yul\":1998:2099   */\n      iszero\n      tag_454\n      jumpi\n        /* \"#utility.yul\":2087:2088   */\n      0x00\n        /* \"#utility.yul\":2078:2084   */\n      dup5\n        /* \"#utility.yul\":2073:2076   */\n      dup5\n        /* \"#utility.yul\":2069:2085   */\n      add\n        /* \"#utility.yul\":2062:2089   */\n      mstore\n        /* \"#utility.yul\":1998:2099   */\n    tag_454:\n        /* \"#utility.yul\":1847:2105   */\n      pop\n        /* \"#utility.yul\":1798:2105   */\n      pop\n      pop\n      pop\n      jump\t// out\n        /* \"#utility.yul\":2111:2213   */\n    tag_363:\n        /* \"#utility.yul\":2152:2158   */\n      0x00\n        /* \"#utility.yul\":2203:2205   */\n      0x1f\n        /* \"#utility.yul\":2199:2206   */\n      not\n        /* \"#utility.yul\":2194:2196   */\n      0x1f\n        /* \"#utility.yul\":2187:2192   */\n      dup4\n        /* \"#utility.yul\":2183:2197   */\n      add\n        /* \"#utility.yul\":2179:2207   */\n      and\n        /* \"#utility.yul\":2169:2207   */\n      swap1\n      pop\n        /* \"#utility.yul\":2111:2213   */\n      swap2\n      swap1\n      pop\n      jump\t// out\n        /* \"#utility.yul\":2219:2583   */\n    tag_364:\n        /* \"#utility.yul\":2307:2310   */\n      0x00\n        /* \"#utility.yul\":2335:2374   */\n      tag_457\n        /* \"#utility.yul\":2368:2373   */\n      dup3\n        /* \"#utility.yul\":2335:2374   */\n      tag_360\n      jump\t// in\n    tag_457:\n        /* \"#utility.yul\":2390:2461   */\n      tag_458\n        /* \"#utility.yul\":2454:2460   */\n      dup2\n        /* \"#utility.yul\":2449:2452   */\n      dup6\n        /* \"#utility.yul\":2390:2461   */\n      tag_361\n      jump\t// in\n    tag_458:\n        /* \"#utility.yul\":2383:2461   */\n      swap4\n      pop\n        /* \"#utility.yul\":2470:2522   */\n      tag_459\n        /* \"#utility.yul\":2515:2521   */\n      dup2\n        /* \"#utility.yul\":2510:2513   */\n      dup6\n        /* \"#utility.yul\":2503:2507   */\n      0x20\n        /* \"#utility.yul\":2496:2501   */\n      dup7\n        /* \"#utility.yul\":2492:2508   */\n      add\n        /* \"#utility.yul\":2470:2522   */\n      tag_362\n      jump\t// in\n    tag_459:\n        /* \"#utility.yul\":2547:2576   */\n      tag_460\n        /* \"#utility.yul\":2569:2575   */\n      dup2\n        /* \"#utility.yul\":2547:2576   */\n      tag_363\n      jump\t// in\n    tag_460:\n        /* \"#utility.yul\":2542:2545   */\n      dup5\n        /* \"#utility.yul\":2538:2577   */\n      add\n        /* \"#utility.yul\":2531:2577   */\n      swap2\n      pop\n        /* \"#utility.yul\":2311:2583   */\n      pop\n        /* \"#utility.yul\":2219:2583   */\n      swap3\n      swap2\n      pop\n      pop\n      jump\t// out\n        /* \"#utility.yul\":2589:2902   */\n    tag_31:\n        /* \"#utility.yul\":2702:2706   */\n      0x00\n        /* \"#utility.yul\":2740:2742   */\n      0x20\n        /* \"#utility.yul\":2729:2738   */\n      dup3\n        /* \"#utility.yul\":2725:2743   */\n      add\n        /* \"#utility.yul\":2717:2743   */\n      swap1\n      pop\n        /* \"#utility.yul\":2789:2798   */\n      dup2\n        /* \"#utility.yul\":2783:2787   */\n      dup2\n        /* \"#utility.yul\":2779:2799   */\n      sub\n        /* \"#utility.yul\":2775:2776   */\n      0x00\n        /* \"#utility.yul\":2764:2773   */\n      dup4\n        /* \"#utility.yul\":2760:2777   */\n      add\n        /* \"#utility.yul\":2753:2800   */\n      mstore\n        /* \"#utility.yul\":2817:2895   */\n      tag_462\n        /* \"#utility.yul\":2890:2894   */\n      dup2\n        /* \"#utility.yul\":2881:2887   */\n      dup5\n        /* \"#utility.yul\":2817:2895   */\n      tag_364\n      jump\t// in\n    tag_462:\n        /* \"#utility.yul\":2809:2895   */\n      swap1\n      pop\n        /* \"#utility.yul\":2589:2902   */\n      swap3\n      swap2\n      pop\n      pop\n      jump\t// out\n        /* \"#utility.yul\":2908:2985   */\n    tag_365:\n        /* \"#utility.yul\":2945:2952   */\n      0x00\n        /* \"#utility.yul\":2974:2979   */\n      dup2\n        /* \"#utility.yul\":2963:2979   */\n      swap1\n      pop\n        /* \"#utility.yul\":2908:2985   */\n      swap2\n      swap1\n      pop\n      jump\t// out\n        /* \"#utility.yul\":2991:3113   */\n    tag_366:\n        /* \"#utility.yul\":3064:3088   */\n      tag_465\n        /* \"#utility.yul\":3082:3087   */\n      dup2\n        /* \"#utility.yul\":3064:3088   */\n      tag_365\n      jump\t// in\n    tag_465:\n        /* \"#utility.yul\":3057:3062   */\n      dup2\n        /* \"#utility.yul\":3054:3089   */\n      eq\n        /* \"#utility.yul\":3044:3107   */\n      tag_466\n      jumpi\n        /* \"#utility.yul\":3103:3104   */\n      0x00\n        /* \"#utility.yul\":3100:3101   */\n      dup1\n        /* \"#utility.yul\":3093:3105   */\n      revert\n        /* \"#utility.yul\":3044:3107   */\n    tag_466:\n        /* \"#utility.yul\":2991:3113   */\n      pop\n      jump\t// out\n        /* \"#utility.yul\":3119:3258   */\n    tag_367:\n        /* \"#utility.yul\":3165:3170   */\n      0x00\n        /* \"#utility.yul\":3203:3209   */\n      dup2\n        /* \"#utility.yul\":3190:3210   */\n      calldataload\n        /* \"#utility.yul\":3181:3210   */\n      swap1\n      pop\n        /* \"#utility.yul\":3219:3252   */\n      tag_468\n        /* \"#utility.yul\":3246:3251   */\n      dup2\n        /* \"#utility.yul\":3219:3252   */\n      tag_366\n      jump\t// in\n    tag_468:\n        /* \"#utility.yul\":3119:3258   */\n      swap3\n      swap2\n      pop\n      pop\n      jump\t// out\n        /* \"#utility.yul\":3264:3593   */\n    tag_34:\n        /* \"#utility.yul\":3323:3329   */\n      0x00\n        /* \"#utility.yul\":3372:3374   */\n      0x20\n        /* \"#utility.yul\":3360:3369   */\n      dup3\n        /* \"#utility.yul\":3351:3358   */\n      dup5\n        /* \"#utility.yul\":3347:3370   */\n      sub\n        /* \"#utility.yul\":3343:3375   */\n      slt\n        /* \"#utility.yul\":3340:3459   */\n      iszero\n      tag_470\n      jumpi\n        /* \"#utility.yul\":3378:3457   */\n      tag_471\n      tag_353\n      jump\t// in\n    tag_471:\n        /* \"#utility.yul\":3340:3459   */\n    tag_470:\n        /* \"#utility.yul\":3498:3499   */\n      0x00\n        /* \"#utility.yul\":3523:3576   */\n      tag_472\n        /* \"#utility.yul\":3568:3575   */\n      dup5\n        /* \"#utility.yul\":3559:3565   */\n      dup3\n        /* \"#utility.yul\":3548:3557   */\n      dup6\n        /* \"#utility.yul\":3544:3566   */\n      add\n        /* \"#utility.yul\":3523:3576   */\n      tag_367\n      jump\t// in\n    tag_472:\n        /* \"#utility.yul\":3513:3576   */\n      swap2\n      pop\n        /* \"#utility.yul\":3469:3586   */\n      pop\n        /* \"#utility.yul\":3264:3593   */\n      swap3\n      swap2\n      pop\n      pop\n      jump\t// out\n        /* \"#utility.yul\":3599:3725   */\n    tag_368:\n        /* \"#utility.yul\":3636:3643   */\n      0x00\n        /* \"#utility.yul\":3676:3718   */\n      0xffffffffffffffffffffffffffffffffffffffff\n        /* \"#utility.yul\":3669:3674   */\n      dup3\n        /* \"#utility.yul\":3665:3719   */\n      and\n        /* \"#utility.yul\":3654:3719   */\n      swap1\n      pop\n        /* \"#utility.yul\":3599:3725   */\n      swap2\n      swap1\n      pop\n      jump\t// out\n        /* \"#utility.yul\":3731:3827   */\n    tag_369:\n        /* \"#utility.yul\":3768:3775   */\n      0x00\n        /* \"#utility.yul\":3797:3821   */\n      tag_475\n        /* \"#utility.yul\":3815:3820   */\n      dup3\n        /* \"#utility.yul\":3797:3821   */\n      tag_368\n      jump\t// in\n    tag_475:\n        /* \"#utility.yul\":3786:3821   */\n      swap1\n      pop\n        /* \"#utility.yul\":3731:3827   */\n      swap2\n      swap1\n      pop\n      jump\t// out\n        /* \"#utility.yul\":3833:3951   */\n    tag_370:\n        /* \"#utility.yul\":3920:3944   */\n      tag_477\n        /* \"#utility.yul\":3938:3943   */\n      dup2\n        /* \"#utility.yul\":3920:3944   */\n      tag_369\n      jump\t// in\n    tag_477:\n        /* \"#utility.yul\":3915:3918   */\n      dup3\n        /* \"#utility.yul\":3908:3945   */\n      mstore\n        /* \"#utility.yul\":3833:3951   */\n      pop\n      pop\n      jump\t// out\n        /* \"#utility.yul\":3957:4179   */\n    tag_37:\n        /* \"#utility.yul\":4050:4054   */\n      0x00\n        /* \"#utility.yul\":4088:4090   */\n      0x20\n        /* \"#utility.yul\":4077:4086   */\n      dup3\n        /* \"#utility.yul\":4073:4091   */\n      add\n        /* \"#utility.yul\":4065:4091   */\n      swap1\n      pop\n        /* \"#utility.yul\":4101:4172   */\n      tag_479\n        /* \"#utility.yul\":4169:4170   */\n      0x00\n        /* \"#utility.yul\":4158:4167   */\n      dup4\n        /* \"#utility.yul\":4154:4171   */\n      add\n        /* \"#utility.yul\":4145:4151   */\n      dup5\n        /* \"#utility.yul\":4101:4172   */\n      tag_370\n      jump\t// in\n    tag_479:\n        /* \"#utility.yul\":3957:4179   */\n      swap3\n      swap2\n      pop\n      pop\n      jump\t// out\n        /* \"#utility.yul\":4185:4307   */\n    tag_371:\n        /* \"#utility.yul\":4258:4282   */\n      tag_481\n        /* \"#utility.yul\":4276:4281   */\n      dup2\n        /* \"#utility.yul\":4258:4282   */\n      tag_369\n      jump\t// in\n    tag_481:\n        /* \"#utility.yul\":4251:4256   */\n      dup2\n        /* \"#utility.yul\":4248:4283   */\n      eq\n        /* \"#utility.yul\":4238:4301   */\n      tag_482\n      jumpi\n        /* \"#utility.yul\":4297:4298   */\n      0x00\n        /* \"#utility.yul\":4294:4295   */\n      dup1\n        /* \"#utility.yul\":4287:4299   */\n      revert\n        /* \"#utility.yul\":4238:4301   */\n    tag_482:\n        /* \"#utility.yul\":4185:4307   */\n      pop\n      jump\t// out\n        /* \"#utility.yul\":4313:4452   */\n    tag_372:\n        /* \"#utility.yul\":4359:4364   */\n      0x00\n        /* \"#utility.yul\":4397:4403   */\n      dup2\n        /* \"#utility.yul\":4384:4404   */\n      calldataload\n        /* \"#utility.yul\":4375:4404   */\n      swap1\n      pop\n        /* \"#utility.yul\":4413:4446   */\n      tag_484\n        /* \"#utility.yul\":4440:4445   */\n      dup2\n        /* \"#utility.yul\":4413:4446   */\n      tag_371\n      jump\t// in\n    tag_484:\n        /* \"#utility.yul\":4313:4452   */\n      swap3\n      swap2\n      pop\n      pop\n      jump\t// out\n        /* \"#utility.yul\":4458:4932   */\n    tag_40:\n        /* \"#utility.yul\":4526:4532   */\n      0x00\n        /* \"#utility.yul\":4534:4540   */\n      dup1\n        /* \"#utility.yul\":4583:4585   */\n      0x40\n        /* \"#utility.yul\":4571:4580   */\n      dup4\n        /* \"#utility.yul\":4562:4569   */\n      dup6\n        /* \"#utility.yul\":4558:4581   */\n      sub\n        /* \"#utility.yul\":4554:4586   */\n      slt\n        /* \"#utility.yul\":4551:4670   */\n      iszero\n      tag_486\n      jumpi\n        /* \"#utility.yul\":4589:4668   */\n      tag_487\n      tag_353\n      jump\t// in\n    tag_487:\n        /* \"#utility.yul\":4551:4670   */\n    tag_486:\n        /* \"#utility.yul\":4709:4710   */\n      0x00\n        /* \"#utility.yul\":4734:4787   */\n      tag_488\n        /* \"#utility.yul\":4779:4786   */\n      dup6\n        /* \"#utility.yul\":4770:4776   */\n      dup3\n        /* \"#utility.yul\":4759:4768   */\n      dup7\n        /* \"#utility.yul\":4755:4777   */\n      add\n        /* \"#utility.yul\":4734:4787   */\n      tag_372\n      jump\t// in\n    tag_488:\n        /* \"#utility.yul\":4724:4787   */\n      swap3\n      pop\n        /* \"#utility.yul\":4680:4797   */\n      pop\n        /* \"#utility.yul\":4836:4838   */\n      0x20\n        /* \"#utility.yul\":4862:4915   */\n      tag_489\n        /* \"#utility.yul\":4907:4914   */\n      dup6\n        /* \"#utility.yul\":4898:4904   */\n      dup3\n        /* \"#utility.yul\":4887:4896   */\n      dup7\n        /* \"#utility.yul\":4883:4905   */\n      add\n        /* \"#utility.yul\":4862:4915   */\n      tag_367\n      jump\t// in\n    tag_489:\n        /* \"#utility.yul\":4852:4915   */\n      swap2\n      pop\n        /* \"#utility.yul\":4807:4925   */\n      pop\n        /* \"#utility.yul\":4458:4932   */\n      swap3\n      pop\n      swap3\n      swap1\n      pop\n      jump\t// out\n        /* \"#utility.yul\":4938:5055   */\n    tag_373:\n        /* \"#utility.yul\":5047:5048   */\n      0x00\n        /* \"#utility.yul\":5044:5045   */\n      dup1\n        /* \"#utility.yul\":5037:5049   */\n      revert\n        /* \"#utility.yul\":5061:5178   */\n    tag_374:\n        /* \"#utility.yul\":5170:5171   */\n      0x00\n        /* \"#utility.yul\":5167:5168   */\n      dup1\n        /* \"#utility.yul\":5160:5172   */\n      revert\n        /* \"#utility.yul\":5184:5364   */\n    tag_308:\n        /* \"#utility.yul\":5232:5309   */\n      0x4e487b7100000000000000000000000000000000000000000000000000000000\n        /* \"#utility.yul\":5229:5230   */\n      0x00\n        /* \"#utility.yul\":5222:5310   */\n      mstore\n        /* \"#utility.yul\":5329:5333   */\n      0x41\n        /* \"#utility.yul\":5326:5327   */\n      0x04\n        /* \"#utility.yul\":5319:5334   */\n      mstore\n        /* \"#utility.yul\":5353:5357   */\n      0x24\n        /* \"#utility.yul\":5350:5351   */\n      0x00\n        /* \"#utility.yul\":5343:5358   */\n      revert\n        /* \"#utility.yul\":5370:5651   */\n    tag_375:\n        /* \"#utility.yul\":5453:5480   */\n      tag_494\n        /* \"#utility.yul\":5475:5479   */\n      dup3\n        /* \"#utility.yul\":5453:5480   */\n      tag_363\n      jump\t// in\n    tag_494:\n        /* \"#utility.yul\":5445:5451   */\n      dup2\n        /* \"#utility.yul\":5441:5481   */\n      add\n        /* \"#utility.yul\":5583:5589   */\n      dup2\n        /* \"#utility.yul\":5571:5581   */\n      dup2\n        /* \"#utility.yul\":5568:5590   */\n      lt\n        /* \"#utility.yul\":5547:5565   */\n      0xffffffffffffffff\n        /* \"#utility.yul\":5535:5545   */\n      dup3\n        /* \"#utility.yul\":5532:5566   */\n      gt\n        /* \"#utility.yul\":5529:5591   */\n      or\n        /* \"#utility.yul\":5526:5614   */\n      iszero\n      tag_495\n      jumpi\n        /* \"#utility.yul\":5594:5612   */\n      tag_496\n      tag_308\n      jump\t// in\n    tag_496:\n        /* \"#utility.yul\":5526:5614   */\n    tag_495:\n        /* \"#utility.yul\":5634:5644   */\n      dup1\n        /* \"#utility.yul\":5630:5632   */\n      0x40\n        /* \"#utility.yul\":5623:5645   */\n      mstore\n        /* \"#utility.yul\":5413:5651   */\n      pop\n        /* \"#utility.yul\":5370:5651   */\n      pop\n      pop\n      jump\t// out\n        /* \"#utility.yul\":5657:5786   */\n    tag_376:\n        /* \"#utility.yul\":5691:5697   */\n      0x00\n        /* \"#utility.yul\":5718:5738   */\n      tag_498\n      tag_352\n      jump\t// in\n    tag_498:\n        /* \"#utility.yul\":5708:5738   */\n      swap1\n      pop\n        /* \"#utility.yul\":5747:5780   */\n      tag_499\n        /* \"#utility.yul\":5775:5779   */\n      dup3\n        /* \"#utility.yul\":5767:5773   */\n      dup3\n        /* \"#utility.yul\":5747:5780   */\n      tag_375\n      jump\t// in\n    tag_499:\n        /* \"#utility.yul\":5657:5786   */\n      swap2\n      swap1\n      pop\n      jump\t// out\n        /* \"#utility.yul\":5792:6099   */\n    tag_377:\n        /* \"#utility.yul\":5853:5857   */\n      0x00\n        /* \"#utility.yul\":5943:5961   */\n      0xffffffffffffffff\n        /* \"#utility.yul\":5935:5941   */\n      dup3\n        /* \"#utility.yul\":5932:5962   */\n      gt\n        /* \"#utility.yul\":5929:5985   */\n      iszero\n      tag_501\n      jumpi\n        /* \"#utility.yul\":5965:5983   */\n      tag_502\n      tag_308\n      jump\t// in\n    tag_502:\n        /* \"#utility.yul\":5929:5985   */\n    tag_501:\n        /* \"#utility.yul\":6003:6032   */\n      tag_503\n        /* \"#utility.yul\":6025:6031   */\n      dup3\n        /* \"#utility.yul\":6003:6032   */\n      tag_363\n      jump\t// in\n    tag_503:\n        /* \"#utility.yul\":5995:6032   */\n      swap1\n      pop\n        /* \"#utility.yul\":6087:6091   */\n      0x20\n        /* \"#utility.yul\":6081:6085   */\n      dup2\n        /* \"#utility.yul\":6077:6092   */\n      add\n        /* \"#utility.yul\":6069:6092   */\n      swap1\n      pop\n        /* \"#utility.yul\":5792:6099   */\n      swap2\n      swap1\n      pop\n      jump\t// out\n        /* \"#utility.yul\":6105:6259   */\n    tag_378:\n        /* \"#utility.yul\":6189:6195   */\n      dup3\n        /* \"#utility.yul\":6184:6187   */\n      dup2\n        /* \"#utility.yul\":6179:6182   */\n      dup4\n        /* \"#utility.yul\":6166:6196   */\n      calldatacopy\n        /* \"#utility.yul\":6251:6252   */\n      0x00\n        /* \"#utility.yul\":6242:6248   */\n      dup4\n        /* \"#utility.yul\":6237:6240   */\n      dup4\n        /* \"#utility.yul\":6233:6249   */\n      add\n        /* \"#utility.yul\":6226:6253   */\n      mstore\n        /* \"#utility.yul\":6105:6259   */\n      pop\n      pop\n      pop\n      jump\t// out\n        /* \"#utility.yul\":6265:6675   */\n    tag_379:\n        /* \"#utility.yul\":6342:6347   */\n      0x00\n        /* \"#utility.yul\":6367:6432   */\n      tag_506\n        /* \"#utility.yul\":6383:6431   */\n      tag_507\n        /* \"#utility.yul\":6424:6430   */\n      dup5\n        /* \"#utility.yul\":6383:6431   */\n      tag_377\n      jump\t// in\n    tag_507:\n        /* \"#utility.yul\":6367:6432   */\n      tag_376\n      jump\t// in\n    tag_506:\n        /* \"#utility.yul\":6358:6432   */\n      swap1\n      pop\n        /* \"#utility.yul\":6455:6461   */\n      dup3\n        /* \"#utility.yul\":6448:6453   */\n      dup2\n        /* \"#utility.yul\":6441:6462   */\n      mstore\n        /* \"#utility.yul\":6493:6497   */\n      0x20\n        /* \"#utility.yul\":6486:6491   */\n      dup2\n        /* \"#utility.yul\":6482:6498   */\n      add\n        /* \"#utility.yul\":6531:6534   */\n      dup5\n        /* \"#utility.yul\":6522:6528   */\n      dup5\n        /* \"#utility.yul\":6517:6520   */\n      dup5\n        /* \"#utility.yul\":6513:6529   */\n      add\n        /* \"#utility.yul\":6510:6535   */\n      gt\n        /* \"#utility.yul\":6507:6619   */\n      iszero\n      tag_508\n      jumpi\n        /* \"#utility.yul\":6538:6617   */\n      tag_509\n      tag_374\n      jump\t// in\n    tag_509:\n        /* \"#utility.yul\":6507:6619   */\n    tag_508:\n        /* \"#utility.yul\":6628:6669   */\n      tag_510\n        /* \"#utility.yul\":6662:6668   */\n      dup5\n        /* \"#utility.yul\":6657:6660   */\n      dup3\n        /* \"#utility.yul\":6652:6655   */\n      dup6\n        /* \"#utility.yul\":6628:6669   */\n      tag_378\n      jump\t// in\n    tag_510:\n        /* \"#utility.yul\":6348:6675   */\n      pop\n        /* \"#utility.yul\":6265:6675   */\n      swap4\n      swap3\n      pop\n      pop\n      pop\n      jump\t// out\n        /* \"#utility.yul\":6694:7032   */\n    tag_380:\n        /* \"#utility.yul\":6749:6754   */\n      0x00\n        /* \"#utility.yul\":6798:6801   */\n      dup3\n        /* \"#utility.yul\":6791:6795   */\n      0x1f\n        /* \"#utility.yul\":6783:6789   */\n      dup4\n        /* \"#utility.yul\":6779:6796   */\n      add\n        /* \"#utility.yul\":6775:6802   */\n      slt\n        /* \"#utility.yul\":6765:6887   */\n      tag_512\n      jumpi\n        /* \"#utility.yul\":6806:6885   */\n      tag_513\n      tag_373\n      jump\t// in\n    tag_513:\n        /* \"#utility.yul\":6765:6887   */\n    tag_512:\n        /* \"#utility.yul\":6923:6929   */\n      dup2\n        /* \"#utility.yul\":6910:6930   */\n      calldataload\n        /* \"#utility.yul\":6948:7026   */\n      tag_514\n        /* \"#utility.yul\":7022:7025   */\n      dup5\n        /* \"#utility.yul\":7014:7020   */\n      dup3\n        /* \"#utility.yul\":7007:7011   */\n      0x20\n        /* \"#utility.yul\":6999:7005   */\n      dup7\n        /* \"#utility.yul\":6995:7012   */\n      add\n        /* \"#utility.yul\":6948:7026   */\n      tag_379\n      jump\t// in\n    tag_514:\n        /* \"#utility.yul\":6939:7026   */\n      swap2\n      pop\n        /* \"#utility.yul\":6755:7032   */\n      pop\n        /* \"#utility.yul\":6694:7032   */\n      swap3\n      swap2\n      pop\n      pop\n      jump\t// out\n        /* \"#utility.yul\":7038:7981   */\n    tag_44:\n        /* \"#utility.yul\":7133:7139   */\n      0x00\n        /* \"#utility.yul\":7141:7147   */\n      dup1\n        /* \"#utility.yul\":7149:7155   */\n      0x00\n        /* \"#utility.yul\":7157:7163   */\n      dup1\n        /* \"#utility.yul\":7206:7209   */\n      0x80\n        /* \"#utility.yul\":7194:7203   */\n      dup6\n        /* \"#utility.yul\":7185:7192   */\n      dup8\n        /* \"#utility.yul\":7181:7204   */\n      sub\n        /* \"#utility.yul\":7177:7210   */\n      slt\n        /* \"#utility.yul\":7174:7294   */\n      iszero\n      tag_516\n      jumpi\n        /* \"#utility.yul\":7213:7292   */\n      tag_517\n      tag_353\n      jump\t// in\n    tag_517:\n        /* \"#utility.yul\":7174:7294   */\n    tag_516:\n        /* \"#utility.yul\":7333:7334   */\n      0x00\n        /* \"#utility.yul\":7358:7411   */\n      tag_518\n        /* \"#utility.yul\":7403:7410   */\n      dup8\n        /* \"#utility.yul\":7394:7400   */\n      dup3\n        /* \"#utility.yul\":7383:7392   */\n      dup9\n        /* \"#utility.yul\":7379:7401   */\n      add\n        /* \"#utility.yul\":7358:7411   */\n      tag_372\n      jump\t// in\n    tag_518:\n        /* \"#utility.yul\":7348:7411   */\n      swap5\n      pop\n        /* \"#utility.yul\":7304:7421   */\n      pop\n        /* \"#utility.yul\":7460:7462   */\n      0x20\n        /* \"#utility.yul\":7486:7539   */\n      tag_519\n        /* \"#utility.yul\":7531:7538   */\n      dup8\n        /* \"#utility.yul\":7522:7528   */\n      dup3\n        /* \"#utility.yul\":7511:7520   */\n      dup9\n        /* \"#utility.yul\":7507:7529   */\n      add\n        /* \"#utility.yul\":7486:7539   */\n      tag_372\n      jump\t// in\n    tag_519:\n        /* \"#utility.yul\":7476:7539   */\n      swap4\n      pop\n        /* \"#utility.yul\":7431:7549   */\n      pop\n        /* \"#utility.yul\":7588:7590   */\n      0x40\n        /* \"#utility.yul\":7614:7667   */\n      tag_520\n        /* \"#utility.yul\":7659:7666   */\n      dup8\n        /* \"#utility.yul\":7650:7656   */\n      dup3\n        /* \"#utility.yul\":7639:7648   */\n      dup9\n        /* \"#utility.yul\":7635:7657   */\n      add\n        /* \"#utility.yul\":7614:7667   */\n      tag_367\n      jump\t// in\n    tag_520:\n        /* \"#utility.yul\":7604:7667   */\n      swap3\n      pop\n        /* \"#utility.yul\":7559:7677   */\n      pop\n        /* \"#utility.yul\":7744:7746   */\n      0x60\n        /* \"#utility.yul\":7733:7742   */\n      dup6\n        /* \"#utility.yul\":7729:7747   */\n      add\n        /* \"#utility.yul\":7716:7748   */\n      calldataload\n        /* \"#utility.yul\":7775:7793   */\n      0xffffffffffffffff\n        /* \"#utility.yul\":7767:7773   */\n      dup2\n        /* \"#utility.yul\":7764:7794   */\n      gt\n        /* \"#utility.yul\":7761:7878   */\n      iszero\n      tag_521\n      jumpi\n        /* \"#utility.yul\":7797:7876   */\n      tag_522\n      tag_354\n      jump\t// in\n    tag_522:\n        /* \"#utility.yul\":7761:7878   */\n    tag_521:\n        /* \"#utility.yul\":7902:7964   */\n      tag_523\n        /* \"#utility.yul\":7956:7963   */\n      dup8\n        /* \"#utility.yul\":7947:7953   */\n      dup3\n        /* \"#utility.yul\":7936:7945   */\n      dup9\n        /* \"#utility.yul\":7932:7954   */\n      add\n        /* \"#utility.yul\":7902:7964   */\n      tag_380\n      jump\t// in\n    tag_523:\n        /* \"#utility.yul\":7892:7964   */\n      swap2\n      pop\n        /* \"#utility.yul\":7687:7974   */\n      pop\n        /* \"#utility.yul\":7038:7981   */\n      swap3\n      swap6\n      swap2\n      swap5\n      pop\n      swap3\n      pop\n      jump\t// out\n        /* \"#utility.yul\":7987:8102   */\n    tag_381:\n        /* \"#utility.yul\":8072:8095   */\n      tag_525\n        /* \"#utility.yul\":8089:8094   */\n      dup2\n        /* \"#utility.yul\":8072:8095   */\n      tag_355\n      jump\t// in\n    tag_525:\n        /* \"#utility.yul\":8067:8070   */\n      dup3\n        /* \"#utility.yul\":8060:8096   */\n      mstore\n        /* \"#utility.yul\":7987:8102   */\n      pop\n      pop\n      jump\t// out\n        /* \"#utility.yul\":8108:8326   */\n    tag_47:\n        /* \"#utility.yul\":8199:8203   */\n      0x00\n        /* \"#utility.yul\":8237:8239   */\n      0x20\n        /* \"#utility.yul\":8226:8235   */\n      dup3\n        /* \"#utility.yul\":8222:8240   */\n      add\n        /* \"#utility.yul\":8214:8240   */\n      swap1\n      pop\n        /* \"#utility.yul\":8250:8319   */\n      tag_527\n        /* \"#utility.yul\":8316:8317   */\n      0x00\n        /* \"#utility.yul\":8305:8314   */\n      dup4\n        /* \"#utility.yul\":8301:8318   */\n      add\n        /* \"#utility.yul\":8292:8298   */\n      dup5\n        /* \"#utility.yul\":8250:8319   */\n      tag_381\n      jump\t// in\n    tag_527:\n        /* \"#utility.yul\":8108:8326   */\n      swap3\n      swap2\n      pop\n      pop\n      jump\t// out\n        /* \"#utility.yul\":8332:8951   */\n    tag_50:\n        /* \"#utility.yul\":8409:8415   */\n      0x00\n        /* \"#utility.yul\":8417:8423   */\n      dup1\n        /* \"#utility.yul\":8425:8431   */\n      0x00\n        /* \"#utility.yul\":8474:8476   */\n      0x60\n        /* \"#utility.yul\":8462:8471   */\n      dup5\n        /* \"#utility.yul\":8453:8460   */\n      dup7\n        /* \"#utility.yul\":8449:8472   */\n      sub\n        /* \"#utility.yul\":8445:8477   */\n      slt\n        /* \"#utility.yul\":8442:8561   */\n      iszero\n      tag_529\n      jumpi\n        /* \"#utility.yul\":8480:8559   */\n      tag_530\n      tag_353\n      jump\t// in\n    tag_530:\n        /* \"#utility.yul\":8442:8561   */\n    tag_529:\n        /* \"#utility.yul\":8600:8601   */\n      0x00\n        /* \"#utility.yul\":8625:8678   */\n      tag_531\n        /* \"#utility.yul\":8670:8677   */\n      dup7\n        /* \"#utility.yul\":8661:8667   */\n      dup3\n        /* \"#utility.yul\":8650:8659   */\n      dup8\n        /* \"#utility.yul\":8646:8668   */\n      add\n        /* \"#utility.yul\":8625:8678   */\n      tag_372\n      jump\t// in\n    tag_531:\n        /* \"#utility.yul\":8615:8678   */\n      swap4\n      pop\n        /* \"#utility.yul\":8571:8688   */\n      pop\n        /* \"#utility.yul\":8727:8729   */\n      0x20\n        /* \"#utility.yul\":8753:8806   */\n      tag_532\n        /* \"#utility.yul\":8798:8805   */\n      dup7\n        /* \"#utility.yul\":8789:8795   */\n      dup3\n        /* \"#utility.yul\":8778:8787   */\n      dup8\n        /* \"#utility.yul\":8774:8796   */\n      add\n        /* \"#utility.yul\":8753:8806   */\n      tag_372\n      jump\t// in\n    tag_532:\n        /* \"#utility.yul\":8743:8806   */\n      swap3\n      pop\n        /* \"#utility.yul\":8698:8816   */\n      pop\n        /* \"#utility.yul\":8855:8857   */\n      0x40\n        /* \"#utility.yul\":8881:8934   */\n      tag_533\n        /* \"#utility.yul\":8926:8933   */\n      dup7\n        /* \"#utility.yul\":8917:8923   */\n      dup3\n        /* \"#utility.yul\":8906:8915   */\n      dup8\n        /* \"#utility.yul\":8902:8924   */\n      add\n        /* \"#utility.yul\":8881:8934   */\n      tag_367\n      jump\t// in\n    tag_533:\n        /* \"#utility.yul\":8871:8934   */\n      swap2\n      pop\n        /* \"#utility.yul\":8826:8944   */\n      pop\n        /* \"#utility.yul\":8332:8951   */\n      swap3\n      pop\n      swap3\n      pop\n      swap3\n      jump\t// out\n        /* \"#utility.yul\":8957:9286   */\n    tag_64:\n        /* \"#utility.yul\":9016:9022   */\n      0x00\n        /* \"#utility.yul\":9065:9067   */\n      0x20\n        /* \"#utility.yul\":9053:9062   */\n      dup3\n        /* \"#utility.yul\":9044:9051   */\n      dup5\n        /* \"#utility.yul\":9040:9063   */\n      sub\n        /* \"#utility.yul\":9036:9068   */\n      slt\n        /* \"#utility.yul\":9033:9152   */\n      iszero\n      tag_535\n      jumpi\n        /* \"#utility.yul\":9071:9150   */\n      tag_536\n      tag_353\n      jump\t// in\n    tag_536:\n        /* \"#utility.yul\":9033:9152   */\n    tag_535:\n        /* \"#utility.yul\":9191:9192   */\n      0x00\n        /* \"#utility.yul\":9216:9269   */\n      tag_537\n        /* \"#utility.yul\":9261:9268   */\n      dup5\n        /* \"#utility.yul\":9252:9258   */\n      dup3\n        /* \"#utility.yul\":9241:9250   */\n      dup6\n        /* \"#utility.yul\":9237:9259   */\n      add\n        /* \"#utility.yul\":9216:9269   */\n      tag_372\n      jump\t// in\n    tag_537:\n        /* \"#utility.yul\":9206:9269   */\n      swap2\n      pop\n        /* \"#utility.yul\":9162:9279   */\n      pop\n        /* \"#utility.yul\":8957:9286   */\n      swap3\n      swap2\n      pop\n      pop\n      jump\t// out\n        /* \"#utility.yul\":9292:9410   */\n    tag_382:\n        /* \"#utility.yul\":9379:9403   */\n      tag_539\n        /* \"#utility.yul\":9397:9402   */\n      dup2\n        /* \"#utility.yul\":9379:9403   */\n      tag_365\n      jump\t// in\n    tag_539:\n        /* \"#utility.yul\":9374:9377   */\n      dup3\n        /* \"#utility.yul\":9367:9404   */\n      mstore\n        /* \"#utility.yul\":9292:9410   */\n      pop\n      pop\n      jump\t// out\n        /* \"#utility.yul\":9416:9638   */\n    tag_67:\n        /* \"#utility.yul\":9509:9513   */\n      0x00\n        /* \"#utility.yul\":9547:9549   */\n      0x20\n        /* \"#utility.yul\":9536:9545   */\n      dup3\n        /* \"#utility.yul\":9532:9550   */\n      add\n        /* \"#utility.yul\":9524:9550   */\n      swap1\n      pop\n        /* \"#utility.yul\":9560:9631   */\n      tag_541\n        /* \"#utility.yul\":9628:9629   */\n      0x00\n        /* \"#utility.yul\":9617:9626   */\n      dup4\n        /* \"#utility.yul\":9613:9630   */\n      add\n        /* \"#utility.yul\":9604:9610   */\n      dup5\n        /* \"#utility.yul\":9560:9631   */\n      tag_382\n      jump\t// in\n    tag_541:\n        /* \"#utility.yul\":9416:9638   */\n      swap3\n      swap2\n      pop\n      pop\n      jump\t// out\n        /* \"#utility.yul\":9644:9760   */\n    tag_383:\n        /* \"#utility.yul\":9714:9735   */\n      tag_543\n        /* \"#utility.yul\":9729:9734   */\n      dup2\n        /* \"#utility.yul\":9714:9735   */\n      tag_358\n      jump\t// in\n    tag_543:\n        /* \"#utility.yul\":9707:9712   */\n      dup2\n        /* \"#utility.yul\":9704:9736   */\n      eq\n        /* \"#utility.yul\":9694:9754   */\n      tag_544\n      jumpi\n        /* \"#utility.yul\":9750:9751   */\n      0x00\n        /* \"#utility.yul\":9747:9748   */\n      dup1\n        /* \"#utility.yul\":9740:9752   */\n      revert\n        /* \"#utility.yul\":9694:9754   */\n    tag_544:\n        /* \"#utility.yul\":9644:9760   */\n      pop\n      jump\t// out\n        /* \"#utility.yul\":9766:9899   */\n    tag_384:\n        /* \"#utility.yul\":9809:9814   */\n      0x00\n        /* \"#utility.yul\":9847:9853   */\n      dup2\n        /* \"#utility.yul\":9834:9854   */\n      calldataload\n        /* \"#utility.yul\":9825:9854   */\n      swap1\n      pop\n        /* \"#utility.yul\":9863:9893   */\n      tag_546\n        /* \"#utility.yul\":9887:9892   */\n      dup2\n        /* \"#utility.yul\":9863:9893   */\n      tag_383\n      jump\t// in\n    tag_546:\n        /* \"#utility.yul\":9766:9899   */\n      swap3\n      swap2\n      pop\n      pop\n      jump\t// out\n        /* \"#utility.yul\":9905:10373   */\n    tag_73:\n        /* \"#utility.yul\":9970:9976   */\n      0x00\n        /* \"#utility.yul\":9978:9984   */\n      dup1\n        /* \"#utility.yul\":10027:10029   */\n      0x40\n        /* \"#utility.yul\":10015:10024   */\n      dup4\n        /* \"#utility.yul\":10006:10013   */\n      dup6\n        /* \"#utility.yul\":10002:10025   */\n      sub\n        /* \"#utility.yul\":9998:10030   */\n      slt\n        /* \"#utility.yul\":9995:10114   */\n      iszero\n      tag_548\n      jumpi\n        /* \"#utility.yul\":10033:10112   */\n      tag_549\n      tag_353\n      jump\t// in\n    tag_549:\n        /* \"#utility.yul\":9995:10114   */\n    tag_548:\n        /* \"#utility.yul\":10153:10154   */\n      0x00\n        /* \"#utility.yul\":10178:10231   */\n      tag_550\n        /* \"#utility.yul\":10223:10230   */\n      dup6\n        /* \"#utility.yul\":10214:10220   */\n      dup3\n        /* \"#utility.yul\":10203:10212   */\n      dup7\n        /* \"#utility.yul\":10199:10221   */\n      add\n        /* \"#utility.yul\":10178:10231   */\n      tag_372\n      jump\t// in\n    tag_550:\n        /* \"#utility.yul\":10168:10231   */\n      swap3\n      pop\n        /* \"#utility.yul\":10124:10241   */\n      pop\n        /* \"#utility.yul\":10280:10282   */\n      0x20\n        /* \"#utility.yul\":10306:10356   */\n      tag_551\n        /* \"#utility.yul\":10348:10355   */\n      dup6\n        /* \"#utility.yul\":10339:10345   */\n      dup3\n        /* \"#utility.yul\":10328:10337   */\n      dup7\n        /* \"#utility.yul\":10324:10346   */\n      add\n        /* \"#utility.yul\":10306:10356   */\n      tag_384\n      jump\t// in\n    tag_551:\n        /* \"#utility.yul\":10296:10356   */\n      swap2\n      pop\n        /* \"#utility.yul\":10251:10366   */\n      pop\n        /* \"#utility.yul\":9905:10373   */\n      swap3\n      pop\n      swap3\n      swap1\n      pop\n      jump\t// out\n        /* \"#utility.yul\":10379:10687   */\n    tag_385:\n        /* \"#utility.yul\":10441:10445   */\n      0x00\n        /* \"#utility.yul\":10531:10549   */\n      0xffffffffffffffff\n        /* \"#utility.yul\":10523:10529   */\n      dup3\n        /* \"#utility.yul\":10520:10550   */\n      gt\n        /* \"#utility.yul\":10517:10573   */\n      iszero\n      tag_553\n      jumpi\n        /* \"#utility.yul\":10553:10571   */\n      tag_554\n      tag_308\n      jump\t// in\n    tag_554:\n        /* \"#utility.yul\":10517:10573   */\n    tag_553:\n        /* \"#utility.yul\":10591:10620   */\n      tag_555\n        /* \"#utility.yul\":10613:10619   */\n      dup3\n        /* \"#utility.yul\":10591:10620   */\n      tag_363\n      jump\t// in\n    tag_555:\n        /* \"#utility.yul\":10583:10620   */\n      swap1\n      pop\n        /* \"#utility.yul\":10675:10679   */\n      0x20\n        /* \"#utility.yul\":10669:10673   */\n      dup2\n        /* \"#utility.yul\":10665:10680   */\n      add\n        /* \"#utility.yul\":10657:10680   */\n      swap1\n      pop\n        /* \"#utility.yul\":10379:10687   */\n      swap2\n      swap1\n      pop\n      jump\t// out\n        /* \"#utility.yul\":10693:11105   */\n    tag_386:\n        /* \"#utility.yul\":10771:10776   */\n      0x00\n        /* \"#utility.yul\":10796:10862   */\n      tag_557\n        /* \"#utility.yul\":10812:10861   */\n      tag_558\n        /* \"#utility.yul\":10854:10860   */\n      dup5\n        /* \"#utility.yul\":10812:10861   */\n      tag_385\n      jump\t// in\n    tag_558:\n        /* \"#utility.yul\":10796:10862   */\n      tag_376\n      jump\t// in\n    tag_557:\n        /* \"#utility.yul\":10787:10862   */\n      swap1\n      pop\n        /* \"#utility.yul\":10885:10891   */\n      dup3\n        /* \"#utility.yul\":10878:10883   */\n      dup2\n        /* \"#utility.yul\":10871:10892   */\n      mstore\n        /* \"#utility.yul\":10923:10927   */\n      0x20\n        /* \"#utility.yul\":10916:10921   */\n      dup2\n        /* \"#utility.yul\":10912:10928   */\n      add\n        /* \"#utility.yul\":10961:10964   */\n      dup5\n        /* \"#utility.yul\":10952:10958   */\n      dup5\n        /* \"#utility.yul\":10947:10950   */\n      dup5\n        /* \"#utility.yul\":10943:10959   */\n      add\n        /* \"#utility.yul\":10940:10965   */\n      gt\n        /* \"#utility.yul\":10937:11049   */\n      iszero\n      tag_559\n      jumpi\n        /* \"#utility.yul\":10968:11047   */\n      tag_560\n      tag_374\n      jump\t// in\n    tag_560:\n        /* \"#utility.yul\":10937:11049   */\n    tag_559:\n        /* \"#utility.yul\":11058:11099   */\n      tag_561\n        /* \"#utility.yul\":11092:11098   */\n      dup5\n        /* \"#utility.yul\":11087:11090   */\n      dup3\n        /* \"#utility.yul\":11082:11085   */\n      dup6\n        /* \"#utility.yul\":11058:11099   */\n      tag_378\n      jump\t// in\n    tag_561:\n        /* \"#utility.yul\":10777:11105   */\n      pop\n        /* \"#utility.yul\":10693:11105   */\n      swap4\n      swap3\n      pop\n      pop\n      pop\n      jump\t// out\n        /* \"#utility.yul\":11125:11465   */\n    tag_387:\n        /* \"#utility.yul\":11181:11186   */\n      0x00\n        /* \"#utility.yul\":11230:11233   */\n      dup3\n        /* \"#utility.yul\":11223:11227   */\n      0x1f\n        /* \"#utility.yul\":11215:11221   */\n      dup4\n        /* \"#utility.yul\":11211:11228   */\n      add\n        /* \"#utility.yul\":11207:11234   */\n      slt\n        /* \"#utility.yul\":11197:11319   */\n      tag_563\n      jumpi\n        /* \"#utility.yul\":11238:11317   */\n      tag_564\n      tag_373\n      jump\t// in\n    tag_564:\n        /* \"#utility.yul\":11197:11319   */\n    tag_563:\n        /* \"#utility.yul\":11355:11361   */\n      dup2\n        /* \"#utility.yul\":11342:11362   */\n      calldataload\n        /* \"#utility.yul\":11380:11459   */\n      tag_565\n        /* \"#utility.yul\":11455:11458   */\n      dup5\n        /* \"#utility.yul\":11447:11453   */\n      dup3\n        /* \"#utility.yul\":11440:11444   */\n      0x20\n        /* \"#utility.yul\":11432:11438   */\n      dup7\n        /* \"#utility.yul\":11428:11445   */\n      add\n        /* \"#utility.yul\":11380:11459   */\n      tag_386\n      jump\t// in\n    tag_565:\n        /* \"#utility.yul\":11371:11459   */\n      swap2\n      pop\n        /* \"#utility.yul\":11187:11465   */\n      pop\n        /* \"#utility.yul\":11125:11465   */\n      swap3\n      swap2\n      pop\n      pop\n      jump\t// out\n        /* \"#utility.yul\":11471:12125   */\n    tag_84:\n        /* \"#utility.yul\":11549:11555   */\n      0x00\n        /* \"#utility.yul\":11557:11563   */\n      dup1\n        /* \"#utility.yul\":11606:11608   */\n      0x40\n        /* \"#utility.yul\":11594:11603   */\n      dup4\n        /* \"#utility.yul\":11585:11592   */\n      dup6\n        /* \"#utility.yul\":11581:11604   */\n      sub\n        /* \"#utility.yul\":11577:11609   */\n      slt\n        /* \"#utility.yul\":11574:11693   */\n      iszero\n      tag_567\n      jumpi\n        /* \"#utility.yul\":11612:11691   */\n      tag_568\n      tag_353\n      jump\t// in\n    tag_568:\n        /* \"#utility.yul\":11574:11693   */\n    tag_567:\n        /* \"#utility.yul\":11732:11733   */\n      0x00\n        /* \"#utility.yul\":11757:11810   */\n      tag_569\n        /* \"#utility.yul\":11802:11809   */\n      dup6\n        /* \"#utility.yul\":11793:11799   */\n      dup3\n        /* \"#utility.yul\":11782:11791   */\n      dup7\n        /* \"#utility.yul\":11778:11800   */\n      add\n        /* \"#utility.yul\":11757:11810   */\n      tag_372\n      jump\t// in\n    tag_569:\n        /* \"#utility.yul\":11747:11810   */\n      swap3\n      pop\n        /* \"#utility.yul\":11703:11820   */\n      pop\n        /* \"#utility.yul\":11887:11889   */\n      0x20\n        /* \"#utility.yul\":11876:11885   */\n      dup4\n        /* \"#utility.yul\":11872:11890   */\n      add\n        /* \"#utility.yul\":11859:11891   */\n      calldataload\n        /* \"#utility.yul\":11918:11936   */\n      0xffffffffffffffff\n        /* \"#utility.yul\":11910:11916   */\n      dup2\n        /* \"#utility.yul\":11907:11937   */\n      gt\n        /* \"#utility.yul\":11904:12021   */\n      iszero\n      tag_570\n      jumpi\n        /* \"#utility.yul\":11940:12019   */\n      tag_571\n      tag_354\n      jump\t// in\n    tag_571:\n        /* \"#utility.yul\":11904:12021   */\n    tag_570:\n        /* \"#utility.yul\":12045:12108   */\n      tag_572\n        /* \"#utility.yul\":12100:12107   */\n      dup6\n        /* \"#utility.yul\":12091:12097   */\n      dup3\n        /* \"#utility.yul\":12080:12089   */\n      dup7\n        /* \"#utility.yul\":12076:12098   */\n      add\n        /* \"#utility.yul\":12045:12108   */\n      tag_387\n      jump\t// in\n    tag_572:\n        /* \"#utility.yul\":12035:12108   */\n      swap2\n      pop\n        /* \"#utility.yul\":11830:12118   */\n      pop\n        /* \"#utility.yul\":11471:12125   */\n      swap3\n      pop\n      swap3\n      swap1\n      pop\n      jump\t// out\n        /* \"#utility.yul\":12131:12605   */\n    tag_89:\n        /* \"#utility.yul\":12199:12205   */\n      0x00\n        /* \"#utility.yul\":12207:12213   */\n      dup1\n        /* \"#utility.yul\":12256:12258   */\n      0x40\n        /* \"#utility.yul\":12244:12253   */\n      dup4\n        /* \"#utility.yul\":12235:12242   */\n      dup6\n        /* \"#utility.yul\":12231:12254   */\n      sub\n        /* \"#utility.yul\":12227:12259   */\n      slt\n        /* \"#utility.yul\":12224:12343   */\n      iszero\n      tag_574\n      jumpi\n        /* \"#utility.yul\":12262:12341   */\n      tag_575\n      tag_353\n      jump\t// in\n    tag_575:\n        /* \"#utility.yul\":12224:12343   */\n    tag_574:\n        /* \"#utility.yul\":12382:12383   */\n      0x00\n        /* \"#utility.yul\":12407:12460   */\n      tag_576\n        /* \"#utility.yul\":12452:12459   */\n      dup6\n        /* \"#utility.yul\":12443:12449   */\n      dup3\n        /* \"#utility.yul\":12432:12441   */\n      dup7\n        /* \"#utility.yul\":12428:12450   */\n      add\n        /* \"#utility.yul\":12407:12460   */\n      tag_372\n      jump\t// in\n    tag_576:\n        /* \"#utility.yul\":12397:12460   */\n      swap3\n      pop\n        /* \"#utility.yul\":12353:12470   */\n      pop\n        /* \"#utility.yul\":12509:12511   */\n      0x20\n        /* \"#utility.yul\":12535:12588   */\n      tag_577\n        /* \"#utility.yul\":12580:12587   */\n      dup6\n        /* \"#utility.yul\":12571:12577   */\n      dup3\n        /* \"#utility.yul\":12560:12569   */\n      dup7\n        /* \"#utility.yul\":12556:12578   */\n      add\n        /* \"#utility.yul\":12535:12588   */\n      tag_372\n      jump\t// in\n    tag_577:\n        /* \"#utility.yul\":12525:12588   */\n      swap2\n      pop\n        /* \"#utility.yul\":12480:12598   */\n      pop\n        /* \"#utility.yul\":12131:12605   */\n      swap3\n      pop\n      swap3\n      swap1\n      pop\n      jump\t// out\n        /* \"#utility.yul\":12611:12791   */\n    tag_388:\n        /* \"#utility.yul\":12659:12736   */\n      0x4e487b7100000000000000000000000000000000000000000000000000000000\n        /* \"#utility.yul\":12656:12657   */\n      0x00\n        /* \"#utility.yul\":12649:12737   */\n      mstore\n        /* \"#utility.yul\":12756:12760   */\n      0x22\n        /* \"#utility.yul\":12753:12754   */\n      0x04\n        /* \"#utility.yul\":12746:12761   */\n      mstore\n        /* \"#utility.yul\":12780:12784   */\n      0x24\n        /* \"#utility.yul\":12777:12778   */\n      0x00\n        /* \"#utility.yul\":12770:12785   */\n      revert\n        /* \"#utility.yul\":12797:13117   */\n    tag_99:\n        /* \"#utility.yul\":12841:12847   */\n      0x00\n        /* \"#utility.yul\":12878:12879   */\n      0x02\n        /* \"#utility.yul\":12872:12876   */\n      dup3\n        /* \"#utility.yul\":12868:12880   */\n      div\n        /* \"#utility.yul\":12858:12880   */\n      swap1\n      pop\n        /* \"#utility.yul\":12925:12926   */\n      0x01\n        /* \"#utility.yul\":12919:12923   */\n      dup3\n        /* \"#utility.yul\":12915:12927   */\n      and\n        /* \"#utility.yul\":12946:12964   */\n      dup1\n        /* \"#utility.yul\":12936:13017   */\n      tag_580\n      jumpi\n        /* \"#utility.yul\":13002:13006   */\n      0x7f\n        /* \"#utility.yul\":12994:13000   */\n      dup3\n        /* \"#utility.yul\":12990:13007   */\n      and\n        /* \"#utility.yul\":12980:13007   */\n      swap2\n      pop\n        /* \"#utility.yul\":12936:13017   */\n    tag_580:\n        /* \"#utility.yul\":13064:13066   */\n      0x20\n        /* \"#utility.yul\":13056:13062   */\n      dup3\n        /* \"#utility.yul\":13053:13067   */\n      lt\n        /* \"#utility.yul\":13033:13051   */\n      dup2\n        /* \"#utility.yul\":13030:13068   */\n      sub\n        /* \"#utility.yul\":13027:13111   */\n      tag_581\n      jumpi\n        /* \"#utility.yul\":13083:13101   */\n      tag_582\n      tag_388\n      jump\t// in\n    tag_582:\n        /* \"#utility.yul\":13027:13111   */\n    tag_581:\n        /* \"#utility.yul\":12848:13117   */\n      pop\n        /* \"#utility.yul\":12797:13117   */\n      swap2\n      swap1\n      pop\n      jump\t// out\n        /* \"#utility.yul\":13123:13354   */\n    tag_389:\n        /* \"#utility.yul\":13263:13297   */\n      0x4552433732313a20617070726f76656420717565727920666f72206e6f6e6578\n        /* \"#utility.yul\":13259:13260   */\n      0x00\n        /* \"#utility.yul\":13251:13257   */\n      dup3\n        /* \"#utility.yul\":13247:13261   */\n      add\n        /* \"#utility.yul\":13240:13298   */\n      mstore\n        /* \"#utility.yul\":13332:13346   */\n      0x697374656e7420746f6b656e0000000000000000000000000000000000000000\n        /* \"#utility.yul\":13327:13329   */\n      0x20\n        /* \"#utility.yul\":13319:13325   */\n      dup3\n        /* \"#utility.yul\":13315:13330   */\n      add\n        /* \"#utility.yul\":13308:13347   */\n      mstore\n        /* \"#utility.yul\":13123:13354   */\n      pop\n      jump\t// out\n        /* \"#utility.yul\":13360:13726   */\n    tag_390:\n        /* \"#utility.yul\":13502:13505   */\n      0x00\n        /* \"#utility.yul\":13523:13590   */\n      tag_585\n        /* \"#utility.yul\":13587:13589   */\n      0x2c\n        /* \"#utility.yul\":13582:13585   */\n      dup4\n        /* \"#utility.yul\":13523:13590   */\n      tag_361\n      jump\t// in\n    tag_585:\n        /* \"#utility.yul\":13516:13590   */\n      swap2\n      pop\n        /* \"#utility.yul\":13599:13692   */\n      tag_586\n        /* \"#utility.yul\":13688:13691   */\n      dup3\n        /* \"#utility.yul\":13599:13692   */\n      tag_389\n      jump\t// in\n    tag_586:\n        /* \"#utility.yul\":13717:13719   */\n      0x40\n        /* \"#utility.yul\":13712:13715   */\n      dup3\n        /* \"#utility.yul\":13708:13720   */\n      add\n        /* \"#utility.yul\":13701:13720   */\n      swap1\n      pop\n        /* \"#utility.yul\":13360:13726   */\n      swap2\n      swap1\n      pop\n      jump\t// out\n        /* \"#utility.yul\":13732:14151   */\n    tag_109:\n        /* \"#utility.yul\":13898:13902   */\n      0x00\n        /* \"#utility.yul\":13936:13938   */\n      0x20\n        /* \"#utility.yul\":13925:13934   */\n      dup3\n        /* \"#utility.yul\":13921:13939   */\n      add\n        /* \"#utility.yul\":13913:13939   */\n      swap1\n      pop\n        /* \"#utility.yul\":13985:13994   */\n      dup2\n        /* \"#utility.yul\":13979:13983   */\n      dup2\n        /* \"#utility.yul\":13975:13995   */\n      sub\n        /* \"#utility.yul\":13971:13972   */\n      0x00\n        /* \"#utility.yul\":13960:13969   */\n      dup4\n        /* \"#utility.yul\":13956:13973   */\n      add\n        /* \"#utility.yul\":13949:13996   */\n      mstore\n        /* \"#utility.yul\":14013:14144   */\n      tag_588\n        /* \"#utility.yul\":14139:14143   */\n      dup2\n        /* \"#utility.yul\":14013:14144   */\n      tag_390\n      jump\t// in\n    tag_588:\n        /* \"#utility.yul\":14005:14144   */\n      swap1\n      pop\n        /* \"#utility.yul\":13732:14151   */\n      swap2\n      swap1\n      pop\n      jump\t// out\n        /* \"#utility.yul\":14157:14377   */\n    tag_391:\n        /* \"#utility.yul\":14297:14331   */\n      0x4552433732313a20617070726f76616c20746f2063757272656e74206f776e65\n        /* \"#utility.yul\":14293:14294   */\n      0x00\n        /* \"#utility.yul\":14285:14291   */\n      dup3\n        /* \"#utility.yul\":14281:14295   */\n      add\n        /* \"#utility.yul\":14274:14332   */\n      mstore\n        /* \"#utility.yul\":14366:14369   */\n      0x7200000000000000000000000000000000000000000000000000000000000000\n        /* \"#utility.yul\":14361:14363   */\n      0x20\n        /* \"#utility.yul\":14353:14359   */\n      dup3\n        /* \"#utility.yul\":14349:14364   */\n      add\n        /* \"#utility.yul\":14342:14370   */\n      mstore\n        /* \"#utility.yul\":14157:14377   */\n      pop\n      jump\t// out\n        /* \"#utility.yul\":14383:14749   */\n    tag_392:\n        /* \"#utility.yul\":14525:14528   */\n      0x00\n        /* \"#utility.yul\":14546:14613   */\n      tag_591\n        /* \"#utility.yul\":14610:14612   */\n      0x21\n        /* \"#utility.yul\":14605:14608   */\n      dup4\n        /* \"#utility.yul\":14546:14613   */\n      tag_361\n      jump\t// in\n    tag_591:\n        /* \"#utility.yul\":14539:14613   */\n      swap2\n      pop\n        /* \"#utility.yul\":14622:14715   */\n      tag_592\n        /* \"#utility.yul\":14711:14714   */\n      dup3\n        /* \"#utility.yul\":14622:14715   */\n      tag_391\n      jump\t// in\n    tag_592:\n        /* \"#utility.yul\":14740:14742   */\n      0x40\n        /* \"#utility.yul\":14735:14738   */\n      dup3\n        /* \"#utility.yul\":14731:14743   */\n      add\n        /* \"#utility.yul\":14724:14743   */\n      swap1\n      pop\n        /* \"#utility.yul\":14383:14749   */\n      swap2\n      swap1\n      pop\n      jump\t// out\n        /* \"#utility.yul\":14755:15174   */\n    tag_114:\n        /* \"#utility.yul\":14921:14925   */\n      0x00\n        /* \"#utility.yul\":14959:14961   */\n      0x20\n        /* \"#utility.yul\":14948:14957   */\n      dup3\n        /* \"#utility.yul\":14944:14962   */\n      add\n        /* \"#utility.yul\":14936:14962   */\n      swap1\n      pop\n        /* \"#utility.yul\":15008:15017   */\n      dup2\n        /* \"#utility.yul\":15002:15006   */\n      dup2\n        /* \"#utility.yul\":14998:15018   */\n      sub\n        /* \"#utility.yul\":14994:14995   */\n      0x00\n        /* \"#utility.yul\":14983:14992   */\n      dup4\n        /* \"#utility.yul\":14979:14996   */\n      add\n        /* \"#utility.yul\":14972:15019   */\n      mstore\n        /* \"#utility.yul\":15036:15167   */\n      tag_594\n        /* \"#utility.yul\":15162:15166   */\n      dup2\n        /* \"#utility.yul\":15036:15167   */\n      tag_392\n      jump\t// in\n    tag_594:\n        /* \"#utility.yul\":15028:15167   */\n      swap1\n      pop\n        /* \"#utility.yul\":14755:15174   */\n      swap2\n      swap1\n      pop\n      jump\t// out\n        /* \"#utility.yul\":15180:15423   */\n    tag_393:\n        /* \"#utility.yul\":15320:15354   */\n      0x4552433732313a20617070726f76652063616c6c6572206973206e6f74206f77\n        /* \"#utility.yul\":15316:15317   */\n      0x00\n        /* \"#utility.yul\":15308:15314   */\n      dup3\n        /* \"#utility.yul\":15304:15318   */\n      add\n        /* \"#utility.yul\":15297:15355   */\n      mstore\n        /* \"#utility.yul\":15389:15415   */\n      0x6e6572206e6f7220617070726f76656420666f7220616c6c0000000000000000\n        /* \"#utility.yul\":15384:15386   */\n      0x20\n        /* \"#utility.yul\":15376:15382   */\n      dup3\n        /* \"#utility.yul\":15372:15387   */\n      add\n        /* \"#utility.yul\":15365:15416   */\n      mstore\n        /* \"#utility.yul\":15180:15423   */\n      pop\n      jump\t// out\n        /* \"#utility.yul\":15429:15795   */\n    tag_394:\n        /* \"#utility.yul\":15571:15574   */\n      0x00\n        /* \"#utility.yul\":15592:15659   */\n      tag_597\n        /* \"#utility.yul\":15656:15658   */\n      0x38\n        /* \"#utility.yul\":15651:15654   */\n      dup4\n        /* \"#utility.yul\":15592:15659   */\n      tag_361\n      jump\t// in\n    tag_597:\n        /* \"#utility.yul\":15585:15659   */\n      swap2\n      pop\n        /* \"#utility.yul\":15668:15761   */\n      tag_598\n        /* \"#utility.yul\":15757:15760   */\n      dup3\n        /* \"#utility.yul\":15668:15761   */\n      tag_393\n      jump\t// in\n    tag_598:\n        /* \"#utility.yul\":15786:15788   */\n      0x40\n        /* \"#utility.yul\":15781:15784   */\n      dup3\n        /* \"#utility.yul\":15777:15789   */\n      add\n        /* \"#utility.yul\":15770:15789   */\n      swap1\n      pop\n        /* \"#utility.yul\":15429:15795   */\n      swap2\n      swap1\n      pop\n      jump\t// out\n        /* \"#utility.yul\":15801:16220   */\n    tag_122:\n        /* \"#utility.yul\":15967:15971   */\n      0x00\n        /* \"#utility.yul\":16005:16007   */\n      0x20\n        /* \"#utility.yul\":15994:16003   */\n      dup3\n        /* \"#utility.yul\":15990:16008   */\n      add\n        /* \"#utility.yul\":15982:16008   */\n      swap1\n      pop\n        /* \"#utility.yul\":16054:16063   */\n      dup2\n        /* \"#utility.yul\":16048:16052   */\n      dup2\n        /* \"#utility.yul\":16044:16064   */\n      sub\n        /* \"#utility.yul\":16040:16041   */\n      0x00\n        /* \"#utility.yul\":16029:16038   */\n      dup4\n        /* \"#utility.yul\":16025:16042   */\n      add\n        /* \"#utility.yul\":16018:16065   */\n      mstore\n        /* \"#utility.yul\":16082:16213   */\n      tag_600\n        /* \"#utility.yul\":16208:16212   */\n      dup2\n        /* \"#utility.yul\":16082:16213   */\n      tag_394\n      jump\t// in\n    tag_600:\n        /* \"#utility.yul\":16074:16213   */\n      swap1\n      pop\n        /* \"#utility.yul\":15801:16220   */\n      swap2\n      swap1\n      pop\n      jump\t// out\n        /* \"#utility.yul\":16226:16324   */\n    tag_395:\n        /* \"#utility.yul\":16277:16283   */\n      0x00\n        /* \"#utility.yul\":16311:16316   */\n      dup2\n        /* \"#utility.yul\":16305:16317   */\n      mload\n        /* \"#utility.yul\":16295:16317   */\n      swap1\n      pop\n        /* \"#utility.yul\":16226:16324   */\n      swap2\n      swap1\n      pop\n      jump\t// out\n        /* \"#utility.yul\":16330:16498   */\n    tag_396:\n        /* \"#utility.yul\":16413:16424   */\n      0x00\n        /* \"#utility.yul\":16447:16453   */\n      dup3\n        /* \"#utility.yul\":16442:16445   */\n      dup3\n        /* \"#utility.yul\":16435:16454   */\n      mstore\n        /* \"#utility.yul\":16487:16491   */\n      0x20\n        /* \"#utility.yul\":16482:16485   */\n      dup3\n        /* \"#utility.yul\":16478:16492   */\n      add\n        /* \"#utility.yul\":16463:16492   */\n      swap1\n      pop\n        /* \"#utility.yul\":16330:16498   */\n      swap3\n      swap2\n      pop\n      pop\n      jump\t// out\n        /* \"#utility.yul\":16504:16864   */\n    tag_397:\n        /* \"#utility.yul\":16590:16593   */\n      0x00\n        /* \"#utility.yul\":16618:16656   */\n      tag_604\n        /* \"#utility.yul\":16650:16655   */\n      dup3\n        /* \"#utility.yul\":16618:16656   */\n      tag_395\n      jump\t// in\n    tag_604:\n        /* \"#utility.yul\":16672:16742   */\n      tag_605\n        /* \"#utility.yul\":16735:16741   */\n      dup2\n        /* \"#utility.yul\":16730:16733   */\n      dup6\n        /* \"#utility.yul\":16672:16742   */\n      tag_396\n      jump\t// in\n    tag_605:\n        /* \"#utility.yul\":16665:16742   */\n      swap4\n      pop\n        /* \"#utility.yul\":16751:16803   */\n      tag_606\n        /* \"#utility.yul\":16796:16802   */\n      dup2\n        /* \"#utility.yul\":16791:16794   */\n      dup6\n        /* \"#utility.yul\":16784:16788   */\n      0x20\n        /* \"#utility.yul\":16777:16782   */\n      dup7\n        /* \"#utility.yul\":16773:16789   */\n      add\n        /* \"#utility.yul\":16751:16803   */\n      tag_362\n      jump\t// in\n    tag_606:\n        /* \"#utility.yul\":16828:16857   */\n      tag_607\n        /* \"#utility.yul\":16850:16856   */\n      dup2\n        /* \"#utility.yul\":16828:16857   */\n      tag_363\n      jump\t// in\n    tag_607:\n        /* \"#utility.yul\":16823:16826   */\n      dup5\n        /* \"#utility.yul\":16819:16858   */\n      add\n        /* \"#utility.yul\":16812:16858   */\n      swap2\n      pop\n        /* \"#utility.yul\":16594:16864   */\n      pop\n        /* \"#utility.yul\":16504:16864   */\n      swap3\n      swap2\n      pop\n      pop\n      jump\t// out\n        /* \"#utility.yul\":16870:17510   */\n    tag_127:\n        /* \"#utility.yul\":17065:17069   */\n      0x00\n        /* \"#utility.yul\":17103:17106   */\n      0x80\n        /* \"#utility.yul\":17092:17101   */\n      dup3\n        /* \"#utility.yul\":17088:17107   */\n      add\n        /* \"#utility.yul\":17080:17107   */\n      swap1\n      pop\n        /* \"#utility.yul\":17117:17188   */\n      tag_609\n        /* \"#utility.yul\":17185:17186   */\n      0x00\n        /* \"#utility.yul\":17174:17183   */\n      dup4\n        /* \"#utility.yul\":17170:17187   */\n      add\n        /* \"#utility.yul\":17161:17167   */\n      dup8\n        /* \"#utility.yul\":17117:17188   */\n      tag_370\n      jump\t// in\n    tag_609:\n        /* \"#utility.yul\":17198:17270   */\n      tag_610\n        /* \"#utility.yul\":17266:17268   */\n      0x20\n        /* \"#utility.yul\":17255:17264   */\n      dup4\n        /* \"#utility.yul\":17251:17269   */\n      add\n        /* \"#utility.yul\":17242:17248   */\n      dup7\n        /* \"#utility.yul\":17198:17270   */\n      tag_370\n      jump\t// in\n    tag_610:\n        /* \"#utility.yul\":17280:17352   */\n      tag_611\n        /* \"#utility.yul\":17348:17350   */\n      0x40\n        /* \"#utility.yul\":17337:17346   */\n      dup4\n        /* \"#utility.yul\":17333:17351   */\n      add\n        /* \"#utility.yul\":17324:17330   */\n      dup6\n        /* \"#utility.yul\":17280:17352   */\n      tag_382\n      jump\t// in\n    tag_611:\n        /* \"#utility.yul\":17399:17408   */\n      dup2\n        /* \"#utility.yul\":17393:17397   */\n      dup2\n        /* \"#utility.yul\":17389:17409   */\n      sub\n        /* \"#utility.yul\":17384:17386   */\n      0x60\n        /* \"#utility.yul\":17373:17382   */\n      dup4\n        /* \"#utility.yul\":17369:17387   */\n      add\n        /* \"#utility.yul\":17362:17410   */\n      mstore\n        /* \"#utility.yul\":17427:17503   */\n      tag_612\n        /* \"#utility.yul\":17498:17502   */\n      dup2\n        /* \"#utility.yul\":17489:17495   */\n      dup5\n        /* \"#utility.yul\":17427:17503   */\n      tag_397\n      jump\t// in\n    tag_612:\n        /* \"#utility.yul\":17419:17503   */\n      swap1\n      pop\n        /* \"#utility.yul\":16870:17510   */\n      swap6\n      swap5\n      pop\n      pop\n      pop\n      pop\n      pop\n      jump\t// out\n        /* \"#utility.yul\":17516:17752   */\n    tag_398:\n        /* \"#utility.yul\":17656:17690   */\n      0x4552433732313a207472616e736665722063616c6c6572206973206e6f74206f\n        /* \"#utility.yul\":17652:17653   */\n      0x00\n        /* \"#utility.yul\":17644:17650   */\n      dup3\n        /* \"#utility.yul\":17640:17654   */\n      add\n        /* \"#utility.yul\":17633:17691   */\n      mstore\n        /* \"#utility.yul\":17725:17744   */\n      0x776e6572206e6f7220617070726f766564000000000000000000000000000000\n        /* \"#utility.yul\":17720:17722   */\n      0x20\n        /* \"#utility.yul\":17712:17718   */\n      dup3\n        /* \"#utility.yul\":17708:17723   */\n      add\n        /* \"#utility.yul\":17701:17745   */\n      mstore\n        /* \"#utility.yul\":17516:17752   */\n      pop\n      jump\t// out\n        /* \"#utility.yul\":17758:18124   */\n    tag_399:\n        /* \"#utility.yul\":17900:17903   */\n      0x00\n        /* \"#utility.yul\":17921:17988   */\n      tag_615\n        /* \"#utility.yul\":17985:17987   */\n      0x31\n        /* \"#utility.yul\":17980:17983   */\n      dup4\n        /* \"#utility.yul\":17921:17988   */\n      tag_361\n      jump\t// in\n    tag_615:\n        /* \"#utility.yul\":17914:17988   */\n      swap2\n      pop\n        /* \"#utility.yul\":17997:18090   */\n      tag_616\n        /* \"#utility.yul\":18086:18089   */\n      dup3\n        /* \"#utility.yul\":17997:18090   */\n      tag_398\n      jump\t// in\n    tag_616:\n        /* \"#utility.yul\":18115:18117   */\n      0x40\n        /* \"#utility.yul\":18110:18113   */\n      dup3\n        /* \"#utility.yul\":18106:18118   */\n      add\n        /* \"#utility.yul\":18099:18118   */\n      swap1\n      pop\n        /* \"#utility.yul\":17758:18124   */\n      swap2\n      swap1\n      pop\n      jump\t// out\n        /* \"#utility.yul\":18130:18549   */\n    tag_134:\n        /* \"#utility.yul\":18296:18300   */\n      0x00\n        /* \"#utility.yul\":18334:18336   */\n      0x20\n        /* \"#utility.yul\":18323:18332   */\n      dup3\n        /* \"#utility.yul\":18319:18337   */\n      add\n        /* \"#utility.yul\":18311:18337   */\n      swap1\n      pop\n        /* \"#utility.yul\":18383:18392   */\n      dup2\n        /* \"#utility.yul\":18377:18381   */\n      dup2\n        /* \"#utility.yul\":18373:18393   */\n      sub\n        /* \"#utility.yul\":18369:18370   */\n      0x00\n        /* \"#utility.yul\":18358:18367   */\n      dup4\n        /* \"#utility.yul\":18354:18371   */\n      add\n        /* \"#utility.yul\":18347:18394   */\n      mstore\n        /* \"#utility.yul\":18411:18542   */\n      tag_618\n        /* \"#utility.yul\":18537:18541   */\n      dup2\n        /* \"#utility.yul\":18411:18542   */\n      tag_399\n      jump\t// in\n    tag_618:\n        /* \"#utility.yul\":18403:18542   */\n      swap1\n      pop\n        /* \"#utility.yul\":18130:18549   */\n      swap2\n      swap1\n      pop\n      jump\t// out\n        /* \"#utility.yul\":18555:18783   */\n    tag_400:\n        /* \"#utility.yul\":18695:18729   */\n      0x4552433732313a206f776e657220717565727920666f72206e6f6e6578697374\n        /* \"#utility.yul\":18691:18692   */\n      0x00\n        /* \"#utility.yul\":18683:18689   */\n      dup3\n        /* \"#utility.yul\":18679:18693   */\n      add\n        /* \"#utility.yul\":18672:18730   */\n      mstore\n        /* \"#utility.yul\":18764:18775   */\n      0x656e7420746f6b656e0000000000000000000000000000000000000000000000\n        /* \"#utility.yul\":18759:18761   */\n      0x20\n        /* \"#utility.yul\":18751:18757   */\n      dup3\n        /* \"#utility.yul\":18747:18762   */\n      add\n        /* \"#utility.yul\":18740:18776   */\n      mstore\n        /* \"#utility.yul\":18555:18783   */\n      pop\n      jump\t// out\n        /* \"#utility.yul\":18789:19155   */\n    tag_401:\n        /* \"#utility.yul\":18931:18934   */\n      0x00\n        /* \"#utility.yul\":18952:19019   */\n      tag_621\n        /* \"#utility.yul\":19016:19018   */\n      0x29\n        /* \"#utility.yul\":19011:19014   */\n      dup4\n        /* \"#utility.yul\":18952:19019   */\n      tag_361\n      jump\t// in\n    tag_621:\n        /* \"#utility.yul\":18945:19019   */\n      swap2\n      pop\n        /* \"#utility.yul\":19028:19121   */\n      tag_622\n        /* \"#utility.yul\":19117:19120   */\n      dup3\n        /* \"#utility.yul\":19028:19121   */\n      tag_400\n      jump\t// in\n    tag_622:\n        /* \"#utility.yul\":19146:19148   */\n      0x40\n        /* \"#utility.yul\":19141:19144   */\n      dup3\n        /* \"#utility.yul\":19137:19149   */\n      add\n        /* \"#utility.yul\":19130:19149   */\n      swap1\n      pop\n        /* \"#utility.yul\":18789:19155   */\n      swap2\n      swap1\n      pop\n      jump\t// out\n        /* \"#utility.yul\":19161:19580   */\n    tag_145:\n        /* \"#utility.yul\":19327:19331   */\n      0x00\n        /* \"#utility.yul\":19365:19367   */\n      0x20\n        /* \"#utility.yul\":19354:19363   */\n      dup3\n        /* \"#utility.yul\":19350:19368   */\n      add\n        /* \"#utility.yul\":19342:19368   */\n      swap1\n      pop\n        /* \"#utility.yul\":19414:19423   */\n      dup2\n        /* \"#utility.yul\":19408:19412   */\n      dup2\n        /* \"#utility.yul\":19404:19424   */\n      sub\n        /* \"#utility.yul\":19400:19401   */\n      0x00\n        /* \"#utility.yul\":19389:19398   */\n      dup4\n        /* \"#utility.yul\":19385:19402   */\n      add\n        /* \"#utility.yul\":19378:19425   */\n      mstore\n        /* \"#utility.yul\":19442:19573   */\n      tag_624\n        /* \"#utility.yul\":19568:19572   */\n      dup2\n        /* \"#utility.yul\":19442:19573   */\n      tag_401\n      jump\t// in\n    tag_624:\n        /* \"#utility.yul\":19434:19573   */\n      swap1\n      pop\n        /* \"#utility.yul\":19161:19580   */\n      swap2\n      swap1\n      pop\n      jump\t// out\n        /* \"#utility.yul\":19586:19815   */\n    tag_402:\n        /* \"#utility.yul\":19726:19760   */\n      0x4552433732313a2062616c616e636520717565727920666f7220746865207a65\n        /* \"#utility.yul\":19722:19723   */\n      0x00\n        /* \"#utility.yul\":19714:19720   */\n      dup3\n        /* \"#utility.yul\":19710:19724   */\n      add\n        /* \"#utility.yul\":19703:19761   */\n      mstore\n        /* \"#utility.yul\":19795:19807   */\n      0x726f206164647265737300000000000000000000000000000000000000000000\n        /* \"#utility.yul\":19790:19792   */\n      0x20\n        /* \"#utility.yul\":19782:19788   */\n      dup3\n        /* \"#utility.yul\":19778:19793   */\n      add\n        /* \"#utility.yul\":19771:19808   */\n      mstore\n        /* \"#utility.yul\":19586:19815   */\n      pop\n      jump\t// out\n        /* \"#utility.yul\":19821:20187   */\n    tag_403:\n        /* \"#utility.yul\":19963:19966   */\n      0x00\n        /* \"#utility.yul\":19984:20051   */\n      tag_627\n        /* \"#utility.yul\":20048:20050   */\n      0x2a\n        /* \"#utility.yul\":20043:20046   */\n      dup4\n        /* \"#utility.yul\":19984:20051   */\n      tag_361\n      jump\t// in\n    tag_627:\n        /* \"#utility.yul\":19977:20051   */\n      swap2\n      pop\n        /* \"#utility.yul\":20060:20153   */\n      tag_628\n        /* \"#utility.yul\":20149:20152   */\n      dup3\n        /* \"#utility.yul\":20060:20153   */\n      tag_402\n      jump\t// in\n    tag_628:\n        /* \"#utility.yul\":20178:20180   */\n      0x40\n        /* \"#utility.yul\":20173:20176   */\n      dup3\n        /* \"#utility.yul\":20169:20181   */\n      add\n        /* \"#utility.yul\":20162:20181   */\n      swap1\n      pop\n        /* \"#utility.yul\":19821:20187   */\n      swap2\n      swap1\n      pop\n      jump\t// out\n        /* \"#utility.yul\":20193:20612   */\n    tag_149:\n        /* \"#utility.yul\":20359:20363   */\n      0x00\n        /* \"#utility.yul\":20397:20399   */\n      0x20\n        /* \"#utility.yul\":20386:20395   */\n      dup3\n        /* \"#utility.yul\":20382:20400   */\n      add\n        /* \"#utility.yul\":20374:20400   */\n      swap1\n      pop\n        /* \"#utility.yul\":20446:20455   */\n      dup2\n        /* \"#utility.yul\":20440:20444   */\n      dup2\n        /* \"#utility.yul\":20436:20456   */\n      sub\n        /* \"#utility.yul\":20432:20433   */\n      0x00\n        /* \"#utility.yul\":20421:20430   */\n      dup4\n        /* \"#utility.yul\":20417:20434   */\n      add\n        /* \"#utility.yul\":20410:20457   */\n      mstore\n        /* \"#utility.yul\":20474:20605   */\n      tag_630\n        /* \"#utility.yul\":20600:20604   */\n      dup2\n        /* \"#utility.yul\":20474:20605   */\n      tag_403\n      jump\t// in\n    tag_630:\n        /* \"#utility.yul\":20466:20605   */\n      swap1\n      pop\n        /* \"#utility.yul\":20193:20612   */\n      swap2\n      swap1\n      pop\n      jump\t// out\n        /* \"#utility.yul\":20618:20854   */\n    tag_404:\n        /* \"#utility.yul\":20758:20792   */\n      0x45524337323155524953746f726167653a2055524920717565727920666f7220\n        /* \"#utility.yul\":20754:20755   */\n      0x00\n        /* \"#utility.yul\":20746:20752   */\n      dup3\n        /* \"#utility.yul\":20742:20756   */\n      add\n        /* \"#utility.yul\":20735:20793   */\n      mstore\n        /* \"#utility.yul\":20827:20846   */\n      0x6e6f6e6578697374656e7420746f6b656e000000000000000000000000000000\n        /* \"#utility.yul\":20822:20824   */\n      0x20\n        /* \"#utility.yul\":20814:20820   */\n      dup3\n        /* \"#utility.yul\":20810:20825   */\n      add\n        /* \"#utility.yul\":20803:20847   */\n      mstore\n        /* \"#utility.yul\":20618:20854   */\n      pop\n      jump\t// out\n        /* \"#utility.yul\":20860:21226   */\n    tag_405:\n        /* \"#utility.yul\":21002:21005   */\n      0x00\n        /* \"#utility.yul\":21023:21090   */\n      tag_633\n        /* \"#utility.yul\":21087:21089   */\n      0x31\n        /* \"#utility.yul\":21082:21085   */\n      dup4\n        /* \"#utility.yul\":21023:21090   */\n      tag_361\n      jump\t// in\n    tag_633:\n        /* \"#utility.yul\":21016:21090   */\n      swap2\n      pop\n        /* \"#utility.yul\":21099:21192   */\n      tag_634\n        /* \"#utility.yul\":21188:21191   */\n      dup3\n        /* \"#utility.yul\":21099:21192   */\n      tag_404\n      jump\t// in\n    tag_634:\n        /* \"#utility.yul\":21217:21219   */\n      0x40\n        /* \"#utility.yul\":21212:21215   */\n      dup3\n        /* \"#utility.yul\":21208:21220   */\n      add\n        /* \"#utility.yul\":21201:21220   */\n      swap1\n      pop\n        /* \"#utility.yul\":20860:21226   */\n      swap2\n      swap1\n      pop\n      jump\t// out\n        /* \"#utility.yul\":21232:21651   */\n    tag_171:\n        /* \"#utility.yul\":21398:21402   */\n      0x00\n        /* \"#utility.yul\":21436:21438   */\n      0x20\n        /* \"#utility.yul\":21425:21434   */\n      dup3\n        /* \"#utility.yul\":21421:21439   */\n      add\n        /* \"#utility.yul\":21413:21439   */\n      swap1\n      pop\n        /* \"#utility.yul\":21485:21494   */\n      dup2\n        /* \"#utility.yul\":21479:21483   */\n      dup2\n        /* \"#utility.yul\":21475:21495   */\n      sub\n        /* \"#utility.yul\":21471:21472   */\n      0x00\n        /* \"#utility.yul\":21460:21469   */\n      dup4\n        /* \"#utility.yul\":21456:21473   */\n      add\n        /* \"#utility.yul\":21449:21496   */\n      mstore\n        /* \"#utility.yul\":21513:21644   */\n      tag_636\n        /* \"#utility.yul\":21639:21643   */\n      dup2\n        /* \"#utility.yul\":21513:21644   */\n      tag_405\n      jump\t// in\n    tag_636:\n        /* \"#utility.yul\":21505:21644   */\n      swap1\n      pop\n        /* \"#utility.yul\":21232:21651   */\n      swap2\n      swap1\n      pop\n      jump\t// out\n        /* \"#utility.yul\":21657:21805   */\n    tag_406:\n        /* \"#utility.yul\":21759:21770   */\n      0x00\n        /* \"#utility.yul\":21796:21799   */\n      dup2\n        /* \"#utility.yul\":21781:21799   */\n      swap1\n      pop\n        /* \"#utility.yul\":21657:21805   */\n      swap3\n      swap2\n      pop\n      pop\n      jump\t// out\n        /* \"#utility.yul\":21811:22188   */\n    tag_407:\n        /* \"#utility.yul\":21917:21920   */\n      0x00\n        /* \"#utility.yul\":21945:21984   */\n      tag_639\n        /* \"#utility.yul\":21978:21983   */\n      dup3\n        /* \"#utility.yul\":21945:21984   */\n      tag_360\n      jump\t// in\n    tag_639:\n        /* \"#utility.yul\":22000:22089   */\n      tag_640\n        /* \"#utility.yul\":22082:22088   */\n      dup2\n        /* \"#utility.yul\":22077:22080   */\n      dup6\n        /* \"#utility.yul\":22000:22089   */\n      tag_406\n      jump\t// in\n    tag_640:\n        /* \"#utility.yul\":21993:22089   */\n      swap4\n      pop\n        /* \"#utility.yul\":22098:22150   */\n      tag_641\n        /* \"#utility.yul\":22143:22149   */\n      dup2\n        /* \"#utility.yul\":22138:22141   */\n      dup6\n        /* \"#utility.yul\":22131:22135   */\n      0x20\n        /* \"#utility.yul\":22124:22129   */\n      dup7\n        /* \"#utility.yul\":22120:22136   */\n      add\n        /* \"#utility.yul\":22098:22150   */\n      tag_362\n      jump\t// in\n    tag_641:\n        /* \"#utility.yul\":22175:22181   */\n      dup1\n        /* \"#utility.yul\":22170:22173   */\n      dup5\n        /* \"#utility.yul\":22166:22182   */\n      add\n        /* \"#utility.yul\":22159:22182   */\n      swap2\n      pop\n        /* \"#utility.yul\":21921:22188   */\n      pop\n        /* \"#utility.yul\":21811:22188   */\n      swap3\n      swap2\n      pop\n      pop\n      jump\t// out\n        /* \"#utility.yul\":22194:22629   */\n    tag_182:\n        /* \"#utility.yul\":22374:22377   */\n      0x00\n        /* \"#utility.yul\":22396:22491   */\n      tag_643\n        /* \"#utility.yul\":22487:22490   */\n      dup3\n        /* \"#utility.yul\":22478:22484   */\n      dup6\n        /* \"#utility.yul\":22396:22491   */\n      tag_407\n      jump\t// in\n    tag_643:\n        /* \"#utility.yul\":22389:22491   */\n      swap2\n      pop\n        /* \"#utility.yul\":22508:22603   */\n      tag_644\n        /* \"#utility.yul\":22599:22602   */\n      dup3\n        /* \"#utility.yul\":22590:22596   */\n      dup5\n        /* \"#utility.yul\":22508:22603   */\n      tag_407\n      jump\t// in\n    tag_644:\n        /* \"#utility.yul\":22501:22603   */\n      swap2\n      pop\n        /* \"#utility.yul\":22620:22623   */\n      dup2\n        /* \"#utility.yul\":22613:22623   */\n      swap1\n      pop\n        /* \"#utility.yul\":22194:22629   */\n      swap4\n      swap3\n      pop\n      pop\n      pop\n      jump\t// out\n        /* \"#utility.yul\":22635:22866   */\n    tag_408:\n        /* \"#utility.yul\":22775:22809   */\n      0x4552433732313a206f70657261746f7220717565727920666f72206e6f6e6578\n        /* \"#utility.yul\":22771:22772   */\n      0x00\n        /* \"#utility.yul\":22763:22769   */\n      dup3\n        /* \"#utility.yul\":22759:22773   */\n      add\n        /* \"#utility.yul\":22752:22810   */\n      mstore\n        /* \"#utility.yul\":22844:22858   */\n      0x697374656e7420746f6b656e0000000000000000000000000000000000000000\n        /* \"#utility.yul\":22839:22841   */\n      0x20\n        /* \"#utility.yul\":22831:22837   */\n      dup3\n        /* \"#utility.yul\":22827:22842   */\n      add\n        /* \"#utility.yul\":22820:22859   */\n      mstore\n        /* \"#utility.yul\":22635:22866   */\n      pop\n      jump\t// out\n        /* \"#utility.yul\":22872:23238   */\n    tag_409:\n        /* \"#utility.yul\":23014:23017   */\n      0x00\n        /* \"#utility.yul\":23035:23102   */\n      tag_647\n        /* \"#utility.yul\":23099:23101   */\n      0x2c\n        /* \"#utility.yul\":23094:23097   */\n      dup4\n        /* \"#utility.yul\":23035:23102   */\n      tag_361\n      jump\t// in\n    tag_647:\n        /* \"#utility.yul\":23028:23102   */\n      swap2\n      pop\n        /* \"#utility.yul\":23111:23204   */\n      tag_648\n        /* \"#utility.yul\":23200:23203   */\n      dup3\n        /* \"#utility.yul\":23111:23204   */\n      tag_408\n      jump\t// in\n    tag_648:\n        /* \"#utility.yul\":23229:23231   */\n      0x40\n        /* \"#utility.yul\":23224:23227   */\n      dup3\n        /* \"#utility.yul\":23220:23232   */\n      add\n        /* \"#utility.yul\":23213:23232   */\n      swap1\n      pop\n        /* \"#utility.yul\":22872:23238   */\n      swap2\n      swap1\n      pop\n      jump\t// out\n        /* \"#utility.yul\":23244:23663   */\n    tag_204:\n        /* \"#utility.yul\":23410:23414   */\n      0x00\n        /* \"#utility.yul\":23448:23450   */\n      0x20\n        /* \"#utility.yul\":23437:23446   */\n      dup3\n        /* \"#utility.yul\":23433:23451   */\n      add\n        /* \"#utility.yul\":23425:23451   */\n      swap1\n      pop\n        /* \"#utility.yul\":23497:23506   */\n      dup2\n        /* \"#utility.yul\":23491:23495   */\n      dup2\n        /* \"#utility.yul\":23487:23507   */\n      sub\n        /* \"#utility.yul\":23483:23484   */\n      0x00\n        /* \"#utility.yul\":23472:23481   */\n      dup4\n        /* \"#utility.yul\":23468:23485   */\n      add\n        /* \"#utility.yul\":23461:23508   */\n      mstore\n        /* \"#utility.yul\":23525:23656   */\n      tag_650\n        /* \"#utility.yul\":23651:23655   */\n      dup2\n        /* \"#utility.yul\":23525:23656   */\n      tag_409\n      jump\t// in\n    tag_650:\n        /* \"#utility.yul\":23517:23656   */\n      swap1\n      pop\n        /* \"#utility.yul\":23244:23663   */\n      swap2\n      swap1\n      pop\n      jump\t// out\n        /* \"#utility.yul\":23669:23893   */\n    tag_410:\n        /* \"#utility.yul\":23809:23843   */\n      0x4552433732313a207472616e736665722066726f6d20696e636f727265637420\n        /* \"#utility.yul\":23805:23806   */\n      0x00\n        /* \"#utility.yul\":23797:23803   */\n      dup3\n        /* \"#utility.yul\":23793:23807   */\n      add\n        /* \"#utility.yul\":23786:23844   */\n      mstore\n        /* \"#utility.yul\":23878:23885   */\n      0x6f776e6572000000000000000000000000000000000000000000000000000000\n        /* \"#utility.yul\":23873:23875   */\n      0x20\n        /* \"#utility.yul\":23865:23871   */\n      dup3\n        /* \"#utility.yul\":23861:23876   */\n      add\n        /* \"#utility.yul\":23854:23886   */\n      mstore\n        /* \"#utility.yul\":23669:23893   */\n      pop\n      jump\t// out\n        /* \"#utility.yul\":23899:24265   */\n    tag_411:\n        /* \"#utility.yul\":24041:24044   */\n      0x00\n        /* \"#utility.yul\":24062:24129   */\n      tag_653\n        /* \"#utility.yul\":24126:24128   */\n      0x25\n        /* \"#utility.yul\":24121:24124   */\n      dup4\n        /* \"#utility.yul\":24062:24129   */\n      tag_361\n      jump\t// in\n    tag_653:\n        /* \"#utility.yul\":24055:24129   */\n      swap2\n      pop\n        /* \"#utility.yul\":24138:24231   */\n      tag_654\n        /* \"#utility.yul\":24227:24230   */\n      dup3\n        /* \"#utility.yul\":24138:24231   */\n      tag_410\n      jump\t// in\n    tag_654:\n        /* \"#utility.yul\":24256:24258   */\n      0x40\n        /* \"#utility.yul\":24251:24254   */\n      dup3\n        /* \"#utility.yul\":24247:24259   */\n      add\n        /* \"#utility.yul\":24240:24259   */\n      swap1\n      pop\n        /* \"#utility.yul\":23899:24265   */\n      swap2\n      swap1\n      pop\n      jump\t// out\n        /* \"#utility.yul\":24271:24690   */\n    tag_214:\n        /* \"#utility.yul\":24437:24441   */\n      0x00\n        /* \"#utility.yul\":24475:24477   */\n      0x20\n        /* \"#utility.yul\":24464:24473   */\n      dup3\n        /* \"#utility.yul\":24460:24478   */\n      add\n        /* \"#utility.yul\":24452:24478   */\n      swap1\n      pop\n        /* \"#utility.yul\":24524:24533   */\n      dup2\n        /* \"#utility.yul\":24518:24522   */\n      dup2\n        /* \"#utility.yul\":24514:24534   */\n      sub\n        /* \"#utility.yul\":24510:24511   */\n      0x00\n        /* \"#utility.yul\":24499:24508   */\n      dup4\n        /* \"#utility.yul\":24495:24512   */\n      add\n        /* \"#utility.yul\":24488:24535   */\n      mstore\n        /* \"#utility.yul\":24552:24683   */\n      tag_656\n        /* \"#utility.yul\":24678:24682   */\n      dup2\n        /* \"#utility.yul\":24552:24683   */\n      tag_411\n      jump\t// in\n    tag_656:\n        /* \"#utility.yul\":24544:24683   */\n      swap1\n      pop\n        /* \"#utility.yul\":24271:24690   */\n      swap2\n      swap1\n      pop\n      jump\t// out\n        /* \"#utility.yul\":24696:24919   */\n    tag_412:\n        /* \"#utility.yul\":24836:24870   */\n      0x4552433732313a207472616e7366657220746f20746865207a65726f20616464\n        /* \"#utility.yul\":24832:24833   */\n      0x00\n        /* \"#utility.yul\":24824:24830   */\n      dup3\n        /* \"#utility.yul\":24820:24834   */\n      add\n        /* \"#utility.yul\":24813:24871   */\n      mstore\n        /* \"#utility.yul\":24905:24911   */\n      0x7265737300000000000000000000000000000000000000000000000000000000\n        /* \"#utility.yul\":24900:24902   */\n      0x20\n        /* \"#utility.yul\":24892:24898   */\n      dup3\n        /* \"#utility.yul\":24888:24903   */\n      add\n        /* \"#utility.yul\":24881:24912   */\n      mstore\n        /* \"#utility.yul\":24696:24919   */\n      pop\n      jump\t// out\n        /* \"#utility.yul\":24925:25291   */\n    tag_413:\n        /* \"#utility.yul\":25067:25070   */\n      0x00\n        /* \"#utility.yul\":25088:25155   */\n      tag_659\n        /* \"#utility.yul\":25152:25154   */\n      0x24\n        /* \"#utility.yul\":25147:25150   */\n      dup4\n        /* \"#utility.yul\":25088:25155   */\n      tag_361\n      jump\t// in\n    tag_659:\n        /* \"#utility.yul\":25081:25155   */\n      swap2\n      pop\n        /* \"#utility.yul\":25164:25257   */\n      tag_660\n        /* \"#utility.yul\":25253:25256   */\n      dup3\n        /* \"#utility.yul\":25164:25257   */\n      tag_412\n      jump\t// in\n    tag_660:\n        /* \"#utility.yul\":25282:25284   */\n      0x40\n        /* \"#utility.yul\":25277:25280   */\n      dup3\n        /* \"#utility.yul\":25273:25285   */\n      add\n        /* \"#utility.yul\":25266:25285   */\n      swap1\n      pop\n        /* \"#utility.yul\":24925:25291   */\n      swap2\n      swap1\n      pop\n      jump\t// out\n        /* \"#utility.yul\":25297:25716   */\n    tag_217:\n        /* \"#utility.yul\":25463:25467   */\n      0x00\n        /* \"#utility.yul\":25501:25503   */\n      0x20\n        /* \"#utility.yul\":25490:25499   */\n      dup3\n        /* \"#utility.yul\":25486:25504   */\n      add\n        /* \"#utility.yul\":25478:25504   */\n      swap1\n      pop\n        /* \"#utility.yul\":25550:25559   */\n      dup2\n        /* \"#utility.yul\":25544:25548   */\n      dup2\n        /* \"#utility.yul\":25540:25560   */\n      sub\n        /* \"#utility.yul\":25536:25537   */\n      0x00\n        /* \"#utility.yul\":25525:25534   */\n      dup4\n        /* \"#utility.yul\":25521:25538   */\n      add\n        /* \"#utility.yul\":25514:25561   */\n      mstore\n        /* \"#utility.yul\":25578:25709   */\n      tag_662\n        /* \"#utility.yul\":25704:25708   */\n      dup2\n        /* \"#utility.yul\":25578:25709   */\n      tag_413\n      jump\t// in\n    tag_662:\n        /* \"#utility.yul\":25570:25709   */\n      swap1\n      pop\n        /* \"#utility.yul\":25297:25716   */\n      swap2\n      swap1\n      pop\n      jump\t// out\n        /* \"#utility.yul\":25722:25902   */\n    tag_414:\n        /* \"#utility.yul\":25770:25847   */\n      0x4e487b7100000000000000000000000000000000000000000000000000000000\n        /* \"#utility.yul\":25767:25768   */\n      0x00\n        /* \"#utility.yul\":25760:25848   */\n      mstore\n        /* \"#utility.yul\":25867:25871   */\n      0x11\n        /* \"#utility.yul\":25864:25865   */\n      0x04\n        /* \"#utility.yul\":25857:25872   */\n      mstore\n        /* \"#utility.yul\":25891:25895   */\n      0x24\n        /* \"#utility.yul\":25888:25889   */\n      0x00\n        /* \"#utility.yul\":25881:25896   */\n      revert\n        /* \"#utility.yul\":25908:26099   */\n    tag_222:\n        /* \"#utility.yul\":25948:25952   */\n      0x00\n        /* \"#utility.yul\":25968:25988   */\n      tag_665\n        /* \"#utility.yul\":25986:25987   */\n      dup3\n        /* \"#utility.yul\":25968:25988   */\n      tag_365\n      jump\t// in\n    tag_665:\n        /* \"#utility.yul\":25963:25988   */\n      swap2\n      pop\n        /* \"#utility.yul\":26002:26022   */\n      tag_666\n        /* \"#utility.yul\":26020:26021   */\n      dup4\n        /* \"#utility.yul\":26002:26022   */\n      tag_365\n      jump\t// in\n    tag_666:\n        /* \"#utility.yul\":25997:26022   */\n      swap3\n      pop\n        /* \"#utility.yul\":26041:26042   */\n      dup3\n        /* \"#utility.yul\":26038:26039   */\n      dup3\n        /* \"#utility.yul\":26035:26043   */\n      lt\n        /* \"#utility.yul\":26032:26066   */\n      iszero\n      tag_667\n      jumpi\n        /* \"#utility.yul\":26046:26064   */\n      tag_668\n      tag_414\n      jump\t// in\n    tag_668:\n        /* \"#utility.yul\":26032:26066   */\n    tag_667:\n        /* \"#utility.yul\":26091:26092   */\n      dup3\n        /* \"#utility.yul\":26088:26089   */\n      dup3\n        /* \"#utility.yul\":26084:26093   */\n      sub\n        /* \"#utility.yul\":26076:26093   */\n      swap1\n      pop\n        /* \"#utility.yul\":25908:26099   */\n      swap3\n      swap2\n      pop\n      pop\n      jump\t// out\n        /* \"#utility.yul\":26105:26410   */\n    tag_224:\n        /* \"#utility.yul\":26145:26148   */\n      0x00\n        /* \"#utility.yul\":26164:26184   */\n      tag_670\n        /* \"#utility.yul\":26182:26183   */\n      dup3\n        /* \"#utility.yul\":26164:26184   */\n      tag_365\n      jump\t// in\n    tag_670:\n        /* \"#utility.yul\":26159:26184   */\n      swap2\n      pop\n        /* \"#utility.yul\":26198:26218   */\n      tag_671\n        /* \"#utility.yul\":26216:26217   */\n      dup4\n        /* \"#utility.yul\":26198:26218   */\n      tag_365\n      jump\t// in\n    tag_671:\n        /* \"#utility.yul\":26193:26218   */\n      swap3\n      pop\n        /* \"#utility.yul\":26352:26353   */\n      dup3\n        /* \"#utility.yul\":26284:26350   */\n      0xffffffffffffffffffffffffffffffffffffffffffffffffffffffffffffffff\n        /* \"#utility.yul\":26280:26354   */\n      sub\n        /* \"#utility.yul\":26277:26278   */\n      dup3\n        /* \"#utility.yul\":26274:26355   */\n      gt\n        /* \"#utility.yul\":26271:26378   */\n      iszero\n      tag_672\n      jumpi\n        /* \"#utility.yul\":26358:26376   */\n      tag_673\n      tag_414\n      jump\t// in\n    tag_673:\n        /* \"#utility.yul\":26271:26378   */\n    tag_672:\n        /* \"#utility.yul\":26402:26403   */\n      dup3\n        /* \"#utility.yul\":26399:26400   */\n      dup3\n        /* \"#utility.yul\":26395:26404   */\n      add\n        /* \"#utility.yul\":26388:26404   */\n      swap1\n      pop\n        /* \"#utility.yul\":26105:26410   */\n      swap3\n      swap2\n      pop\n      pop\n      jump\t// out\n        /* \"#utility.yul\":26416:26591   */\n    tag_415:\n        /* \"#utility.yul\":26556:26583   */\n      0x4552433732313a20617070726f766520746f2063616c6c657200000000000000\n        /* \"#utility.yul\":26552:26553   */\n      0x00\n        /* \"#utility.yul\":26544:26550   */\n      dup3\n        /* \"#utility.yul\":26540:26554   */\n      add\n        /* \"#utility.yul\":26533:26584   */\n      mstore\n        /* \"#utility.yul\":26416:26591   */\n      pop\n      jump\t// out\n        /* \"#utility.yul\":26597:26963   */\n    tag_416:\n        /* \"#utility.yul\":26739:26742   */\n      0x00\n        /* \"#utility.yul\":26760:26827   */\n      tag_676\n        /* \"#utility.yul\":26824:26826   */\n      0x19\n        /* \"#utility.yul\":26819:26822   */\n      dup4\n        /* \"#utility.yul\":26760:26827   */\n      tag_361\n      jump\t// in\n    tag_676:\n        /* \"#utility.yul\":26753:26827   */\n      swap2\n      pop\n        /* \"#utility.yul\":26836:26929   */\n      tag_677\n        /* \"#utility.yul\":26925:26928   */\n      dup3\n        /* \"#utility.yul\":26836:26929   */\n      tag_415\n      jump\t// in\n    tag_677:\n        /* \"#utility.yul\":26954:26956   */\n      0x20\n        /* \"#utility.yul\":26949:26952   */\n      dup3\n        /* \"#utility.yul\":26945:26957   */\n      add\n        /* \"#utility.yul\":26938:26957   */\n      swap1\n      pop\n        /* \"#utility.yul\":26597:26963   */\n      swap2\n      swap1\n      pop\n      jump\t// out\n        /* \"#utility.yul\":26969:27388   */\n    tag_237:\n        /* \"#utility.yul\":27135:27139   */\n      0x00\n        /* \"#utility.yul\":27173:27175   */\n      0x20\n        /* \"#utility.yul\":27162:27171   */\n      dup3\n        /* \"#utility.yul\":27158:27176   */\n      add\n        /* \"#utility.yul\":27150:27176   */\n      swap1\n      pop\n        /* \"#utility.yul\":27222:27231   */\n      dup2\n        /* \"#utility.yul\":27216:27220   */\n      dup2\n        /* \"#utility.yul\":27212:27232   */\n      sub\n        /* \"#utility.yul\":27208:27209   */\n      0x00\n        /* \"#utility.yul\":27197:27206   */\n      dup4\n        /* \"#utility.yul\":27193:27210   */\n      add\n        /* \"#utility.yul\":27186:27233   */\n      mstore\n        /* \"#utility.yul\":27250:27381   */\n      tag_679\n        /* \"#utility.yul\":27376:27380   */\n      dup2\n        /* \"#utility.yul\":27250:27381   */\n      tag_416\n      jump\t// in\n    tag_679:\n        /* \"#utility.yul\":27242:27381   */\n      swap1\n      pop\n        /* \"#utility.yul\":26969:27388   */\n      swap2\n      swap1\n      pop\n      jump\t// out\n        /* \"#utility.yul\":27394:27631   */\n    tag_417:\n        /* \"#utility.yul\":27534:27568   */\n      0x4552433732313a207472616e7366657220746f206e6f6e204552433732315265\n        /* \"#utility.yul\":27530:27531   */\n      0x00\n        /* \"#utility.yul\":27522:27528   */\n      dup3\n        /* \"#utility.yul\":27518:27532   */\n      add\n        /* \"#utility.yul\":27511:27569   */\n      mstore\n        /* \"#utility.yul\":27603:27623   */\n      0x63656976657220696d706c656d656e7465720000000000000000000000000000\n        /* \"#utility.yul\":27598:27600   */\n      0x20\n        /* \"#utility.yul\":27590:27596   */\n      dup3\n        /* \"#utility.yul\":27586:27601   */\n      add\n        /* \"#utility.yul\":27579:27624   */\n      mstore\n        /* \"#utility.yul\":27394:27631   */\n      pop\n      jump\t// out\n        /* \"#utility.yul\":27637:28003   */\n    tag_418:\n        /* \"#utility.yul\":27779:27782   */\n      0x00\n        /* \"#utility.yul\":27800:27867   */\n      tag_682\n        /* \"#utility.yul\":27864:27866   */\n      0x32\n        /* \"#utility.yul\":27859:27862   */\n      dup4\n        /* \"#utility.yul\":27800:27867   */\n      tag_361\n      jump\t// in\n    tag_682:\n        /* \"#utility.yul\":27793:27867   */\n      swap2\n      pop\n        /* \"#utility.yul\":27876:27969   */\n      tag_683\n        /* \"#utility.yul\":27965:27968   */\n      dup3\n        /* \"#utility.yul\":27876:27969   */\n      tag_417\n      jump\t// in\n    tag_683:\n        /* \"#utility.yul\":27994:27996   */\n      0x40\n        /* \"#utility.yul\":27989:27992   */\n      dup3\n        /* \"#utility.yul\":27985:27997   */\n      add\n        /* \"#utility.yul\":27978:27997   */\n      swap1\n      pop\n        /* \"#utility.yul\":27637:28003   */\n      swap2\n      swap1\n      pop\n      jump\t// out\n        /* \"#utility.yul\":28009:28428   */\n    tag_245:\n        /* \"#utility.yul\":28175:28179   */\n      0x00\n        /* \"#utility.yul\":28213:28215   */\n      0x20\n        /* \"#utility.yul\":28202:28211   */\n      dup3\n        /* \"#utility.yul\":28198:28216   */\n      add\n        /* \"#utility.yul\":28190:28216   */\n      swap1\n      pop\n        /* \"#utility.yul\":28262:28271   */\n      dup2\n        /* \"#utility.yul\":28256:28260   */\n      dup2\n        /* \"#utility.yul\":28252:28272   */\n      sub\n        /* \"#utility.yul\":28248:28249   */\n      0x00\n        /* \"#utility.yul\":28237:28246   */\n      dup4\n        /* \"#utility.yul\":28233:28250   */\n      add\n        /* \"#utility.yul\":28226:28273   */\n      mstore\n        /* \"#utility.yul\":28290:28421   */\n      tag_685\n        /* \"#utility.yul\":28416:28420   */\n      dup2\n        /* \"#utility.yul\":28290:28421   */\n      tag_418\n      jump\t// in\n    tag_685:\n        /* \"#utility.yul\":28282:28421   */\n      swap1\n      pop\n        /* \"#utility.yul\":28009:28428   */\n      swap2\n      swap1\n      pop\n      jump\t// out\n        /* \"#utility.yul\":28434:28668   */\n    tag_419:\n        /* \"#utility.yul\":28574:28608   */\n      0x4552433732314d657461646174613a2055524920717565727920666f72206e6f\n        /* \"#utility.yul\":28570:28571   */\n      0x00\n        /* \"#utility.yul\":28562:28568   */\n      dup3\n        /* \"#utility.yul\":28558:28572   */\n      add\n        /* \"#utility.yul\":28551:28609   */\n      mstore\n        /* \"#utility.yul\":28643:28660   */\n      0x6e6578697374656e7420746f6b656e0000000000000000000000000000000000\n        /* \"#utility.yul\":28638:28640   */\n      0x20\n        /* \"#utility.yul\":28630:28636   */\n      dup3\n        /* \"#utility.yul\":28626:28641   */\n      add\n        /* \"#utility.yul\":28619:28661   */\n      mstore\n        /* \"#utility.yul\":28434:28668   */\n      pop\n      jump\t// out\n        /* \"#utility.yul\":28674:29040   */\n    tag_420:\n        /* \"#utility.yul\":28816:28819   */\n      0x00\n        /* \"#utility.yul\":28837:28904   */\n      tag_688\n        /* \"#utility.yul\":28901:28903   */\n      0x2f\n        /* \"#utility.yul\":28896:28899   */\n      dup4\n        /* \"#utility.yul\":28837:28904   */\n      tag_361\n      jump\t// in\n    tag_688:\n        /* \"#utility.yul\":28830:28904   */\n      swap2\n      pop\n        /* \"#utility.yul\":28913:29006   */\n      tag_689\n        /* \"#utility.yul\":29002:29005   */\n      dup3\n        /* \"#utility.yul\":28913:29006   */\n      tag_419\n      jump\t// in\n    tag_689:\n        /* \"#utility.yul\":29031:29033   */\n      0x40\n        /* \"#utility.yul\":29026:29029   */\n      dup3\n        /* \"#utility.yul\":29022:29034   */\n      add\n        /* \"#utility.yul\":29015:29034   */\n      swap1\n      pop\n        /* \"#utility.yul\":28674:29040   */\n      swap2\n      swap1\n      pop\n      jump\t// out\n        /* \"#utility.yul\":29046:29465   */\n    tag_251:\n        /* \"#utility.yul\":29212:29216   */\n      0x00\n        /* \"#utility.yul\":29250:29252   */\n      0x20\n        /* \"#utility.yul\":29239:29248   */\n      dup3\n        /* \"#utility.yul\":29235:29253   */\n      add\n        /* \"#utility.yul\":29227:29253   */\n      swap1\n      pop\n        /* \"#utility.yul\":29299:29308   */\n      dup2\n        /* \"#utility.yul\":29293:29297   */\n      dup2\n        /* \"#utility.yul\":29289:29309   */\n      sub\n        /* \"#utility.yul\":29285:29286   */\n      0x00\n        /* \"#utility.yul\":29274:29283   */\n      dup4\n        /* \"#utility.yul\":29270:29287   */\n      add\n        /* \"#utility.yul\":29263:29310   */\n      mstore\n        /* \"#utility.yul\":29327:29458   */\n      tag_691\n        /* \"#utility.yul\":29453:29457   */\n      dup2\n        /* \"#utility.yul\":29327:29458   */\n      tag_420\n      jump\t// in\n    tag_691:\n        /* \"#utility.yul\":29319:29458   */\n      swap1\n      pop\n        /* \"#utility.yul\":29046:29465   */\n      swap2\n      swap1\n      pop\n      jump\t// out\n        /* \"#utility.yul\":29471:29704   */\n    tag_421:\n        /* \"#utility.yul\":29611:29645   */\n      0x45524337323155524953746f726167653a2055524920736574206f66206e6f6e\n        /* \"#utility.yul\":29607:29608   */\n      0x00\n        /* \"#utility.yul\":29599:29605   */\n      dup3\n        /* \"#utility.yul\":29595:29609   */\n      add\n        /* \"#utility.yul\":29588:29646   */\n      mstore\n        /* \"#utility.yul\":29680:29696   */\n      0x6578697374656e7420746f6b656e000000000000000000000000000000000000\n        /* \"#utility.yul\":29675:29677   */\n      0x20\n        /* \"#utility.yul\":29667:29673   */\n      dup3\n        /* \"#utility.yul\":29663:29678   */\n      add\n        /* \"#utility.yul\":29656:29697   */\n      mstore\n        /* \"#utility.yul\":29471:29704   */\n      pop\n      jump\t// out\n        /* \"#utility.yul\":29710:30076   */\n    tag_422:\n        /* \"#utility.yul\":29852:29855   */\n      0x00\n        /* \"#utility.yul\":29873:29940   */\n      tag_694\n        /* \"#utility.yul\":29937:29939   */\n      0x2e\n        /* \"#utility.yul\":29932:29935   */\n      dup4\n        /* \"#utility.yul\":29873:29940   */\n      tag_361\n      jump\t// in\n    tag_694:\n        /* \"#utility.yul\":29866:29940   */\n      swap2\n      pop\n        /* \"#utility.yul\":29949:30042   */\n      tag_695\n        /* \"#utility.yul\":30038:30041   */\n      dup3\n        /* \"#utility.yul\":29949:30042   */\n      tag_421\n      jump\t// in\n    tag_695:\n        /* \"#utility.yul\":30067:30069   */\n      0x40\n        /* \"#utility.yul\":30062:30065   */\n      dup3\n        /* \"#utility.yul\":30058:30070   */\n      add\n        /* \"#utility.yul\":30051:30070   */\n      swap1\n      pop\n        /* \"#utility.yul\":29710:30076   */\n      swap2\n      swap1\n      pop\n      jump\t// out\n        /* \"#utility.yul\":30082:30501   */\n    tag_267:\n        /* \"#utility.yul\":30248:30252   */\n      0x00\n        /* \"#utility.yul\":30286:30288   */\n      0x20\n        /* \"#utility.yul\":30275:30284   */\n      dup3\n        /* \"#utility.yul\":30271:30289   */\n      add\n        /* \"#utility.yul\":30263:30289   */\n      swap1\n      pop\n        /* \"#utility.yul\":30335:30344   */\n      dup2\n        /* \"#utility.yul\":30329:30333   */\n      dup2\n        /* \"#utility.yul\":30325:30345   */\n      sub\n        /* \"#utility.yul\":30321:30322   */\n      0x00\n        /* \"#utility.yul\":30310:30319   */\n      dup4\n        /* \"#utility.yul\":30306:30323   */\n      add\n        /* \"#utility.yul\":30299:30346   */\n      mstore\n        /* \"#utility.yul\":30363:30494   */\n      tag_697\n        /* \"#utility.yul\":30489:30493   */\n      dup2\n        /* \"#utility.yul\":30363:30494   */\n      tag_422\n      jump\t// in\n    tag_697:\n        /* \"#utility.yul\":30355:30494   */\n      swap1\n      pop\n        /* \"#utility.yul\":30082:30501   */\n      swap2\n      swap1\n      pop\n      jump\t// out\n        /* \"#utility.yul\":30507:30648   */\n    tag_423:\n        /* \"#utility.yul\":30563:30568   */\n      0x00\n        /* \"#utility.yul\":30594:30600   */\n      dup2\n        /* \"#utility.yul\":30588:30601   */\n      mload\n        /* \"#utility.yul\":30579:30601   */\n      swap1\n      pop\n        /* \"#utility.yul\":30610:30642   */\n      tag_699\n        /* \"#utility.yul\":30636:30641   */\n      dup2\n        /* \"#utility.yul\":30610:30642   */\n      tag_356\n      jump\t// in\n    tag_699:\n        /* \"#utility.yul\":30507:30648   */\n      swap3\n      swap2\n      pop\n      pop\n      jump\t// out\n        /* \"#utility.yul\":30654:31003   */\n    tag_286:\n        /* \"#utility.yul\":30723:30729   */\n      0x00\n        /* \"#utility.yul\":30772:30774   */\n      0x20\n        /* \"#utility.yul\":30760:30769   */\n      dup3\n        /* \"#utility.yul\":30751:30758   */\n      dup5\n        /* \"#utility.yul\":30747:30770   */\n      sub\n        /* \"#utility.yul\":30743:30775   */\n      slt\n        /* \"#utility.yul\":30740:30859   */\n      iszero\n      tag_701\n      jumpi\n        /* \"#utility.yul\":30778:30857   */\n      tag_702\n      tag_353\n      jump\t// in\n    tag_702:\n        /* \"#utility.yul\":30740:30859   */\n    tag_701:\n        /* \"#utility.yul\":30898:30899   */\n      0x00\n        /* \"#utility.yul\":30923:30986   */\n      tag_703\n        /* \"#utility.yul\":30978:30985   */\n      dup5\n        /* \"#utility.yul\":30969:30975   */\n      dup3\n        /* \"#utility.yul\":30958:30967   */\n      dup6\n        /* \"#utility.yul\":30954:30976   */\n      add\n        /* \"#utility.yul\":30923:30986   */\n      tag_423\n      jump\t// in\n    tag_703:\n        /* \"#utility.yul\":30913:30986   */\n      swap2\n      pop\n        /* \"#utility.yul\":30869:30996   */\n      pop\n        /* \"#utility.yul\":30654:31003   */\n      swap3\n      swap2\n      pop\n      pop\n      jump\t// out\n        /* \"#utility.yul\":31009:31242   */\n    tag_303:\n        /* \"#utility.yul\":31048:31051   */\n      0x00\n        /* \"#utility.yul\":31071:31095   */\n      tag_705\n        /* \"#utility.yul\":31089:31094   */\n      dup3\n        /* \"#utility.yul\":31071:31095   */\n      tag_365\n      jump\t// in\n    tag_705:\n        /* \"#utility.yul\":31062:31095   */\n      swap2\n      pop\n        /* \"#utility.yul\":31117:31183   */\n      0xffffffffffffffffffffffffffffffffffffffffffffffffffffffffffffffff\n        /* \"#utility.yul\":31110:31115   */\n      dup3\n        /* \"#utility.yul\":31107:31184   */\n      sub\n        /* \"#utility.yul\":31104:31207   */\n      tag_706\n      jumpi\n        /* \"#utility.yul\":31187:31205   */\n      tag_707\n      tag_414\n      jump\t// in\n    tag_707:\n        /* \"#utility.yul\":31104:31207   */\n    tag_706:\n        /* \"#utility.yul\":31234:31235   */\n      0x01\n        /* \"#utility.yul\":31227:31232   */\n      dup3\n        /* \"#utility.yul\":31223:31236   */\n      add\n        /* \"#utility.yul\":31216:31236   */\n      swap1\n      pop\n        /* \"#utility.yul\":31009:31242   */\n      swap2\n      swap1\n      pop\n      jump\t// out\n        /* \"#utility.yul\":31248:31428   */\n    tag_424:\n        /* \"#utility.yul\":31296:31373   */\n      0x4e487b7100000000000000000000000000000000000000000000000000000000\n        /* \"#utility.yul\":31293:31294   */\n      0x00\n        /* \"#utility.yul\":31286:31374   */\n      mstore\n        /* \"#utility.yul\":31393:31397   */\n      0x12\n        /* \"#utility.yul\":31390:31391   */\n      0x04\n        /* \"#utility.yul\":31383:31398   */\n      mstore\n        /* \"#utility.yul\":31417:31421   */\n      0x24\n        /* \"#utility.yul\":31414:31415   */\n      0x00\n        /* \"#utility.yul\":31407:31422   */\n      revert\n        /* \"#utility.yul\":31434:31619   */\n    tag_305:\n        /* \"#utility.yul\":31474:31475   */\n      0x00\n        /* \"#utility.yul\":31491:31511   */\n      tag_710\n        /* \"#utility.yul\":31509:31510   */\n      dup3\n        /* \"#utility.yul\":31491:31511   */\n      tag_365\n      jump\t// in\n    tag_710:\n        /* \"#utility.yul\":31486:31511   */\n      swap2\n      pop\n        /* \"#utility.yul\":31525:31545   */\n      tag_711\n        /* \"#utility.yul\":31543:31544   */\n      dup4\n        /* \"#utility.yul\":31525:31545   */\n      tag_365\n      jump\t// in\n    tag_711:\n        /* \"#utility.yul\":31520:31545   */\n      swap3\n      pop\n        /* \"#utility.yul\":31564:31565   */\n      dup3\n        /* \"#utility.yul\":31554:31589   */\n      tag_712\n      jumpi\n        /* \"#utility.yul\":31569:31587   */\n      tag_713\n      tag_424\n      jump\t// in\n    tag_713:\n        /* \"#utility.yul\":31554:31589   */\n    tag_712:\n        /* \"#utility.yul\":31611:31612   */\n      dup3\n        /* \"#utility.yul\":31608:31609   */\n      dup3\n        /* \"#utility.yul\":31604:31613   */\n      div\n        /* \"#utility.yul\":31599:31613   */\n      swap1\n      pop\n        /* \"#utility.yul\":31434:31619   */\n      swap3\n      swap2\n      pop\n      pop\n      jump\t// out\n        /* \"#utility.yul\":31625:31801   */\n    tag_314:\n        /* \"#utility.yul\":31657:31658   */\n      0x00\n        /* \"#utility.yul\":31674:31694   */\n      tag_715\n        /* \"#utility.yul\":31692:31693   */\n      dup3\n        /* \"#utility.yul\":31674:31694   */\n      tag_365\n      jump\t// in\n    tag_715:\n        /* \"#utility.yul\":31669:31694   */\n      swap2\n      pop\n        /* \"#utility.yul\":31708:31728   */\n      tag_716\n        /* \"#utility.yul\":31726:31727   */\n      dup4\n        /* \"#utility.yul\":31708:31728   */\n      tag_365\n      jump\t// in\n    tag_716:\n        /* \"#utility.yul\":31703:31728   */\n      swap3\n      pop\n        /* \"#utility.yul\":31747:31748   */\n      dup3\n        /* \"#utility.yul\":31737:31772   */\n      tag_717\n      jumpi\n        /* \"#utility.yul\":31752:31770   */\n      tag_718\n      tag_424\n      jump\t// in\n    tag_718:\n        /* \"#utility.yul\":31737:31772   */\n    tag_717:\n        /* \"#utility.yul\":31793:31794   */\n      dup3\n        /* \"#utility.yul\":31790:31791   */\n      dup3\n        /* \"#utility.yul\":31786:31795   */\n      mod\n        /* \"#utility.yul\":31781:31795   */\n      swap1\n      pop\n        /* \"#utility.yul\":31625:31801   */\n      swap3\n      swap2\n      pop\n      pop\n      jump\t// out\n        /* \"#utility.yul\":31807:31987   */\n    tag_318:\n        /* \"#utility.yul\":31855:31932   */\n      0x4e487b7100000000000000000000000000000000000000000000000000000000\n        /* \"#utility.yul\":31852:31853   */\n      0x00\n        /* \"#utility.yul\":31845:31933   */\n      mstore\n        /* \"#utility.yul\":31952:31956   */\n      0x32\n        /* \"#utility.yul\":31949:31950   */\n      0x04\n        /* \"#utility.yul\":31942:31957   */\n      mstore\n        /* \"#utility.yul\":31976:31980   */\n      0x24\n        /* \"#utility.yul\":31973:31974   */\n      0x00\n        /* \"#utility.yul\":31966:31981   */\n      revert\n        /* \"#utility.yul\":31993:32175   */\n    tag_425:\n        /* \"#utility.yul\":32133:32167   */\n      0x4552433732313a206d696e7420746f20746865207a65726f2061646472657373\n        /* \"#utility.yul\":32129:32130   */\n      0x00\n        /* \"#utility.yul\":32121:32127   */\n      dup3\n        /* \"#utility.yul\":32117:32131   */\n      add\n        /* \"#utility.yul\":32110:32168   */\n      mstore\n        /* \"#utility.yul\":31993:32175   */\n      pop\n      jump\t// out\n        /* \"#utility.yul\":32181:32547   */\n    tag_426:\n        /* \"#utility.yul\":32323:32326   */\n      0x00\n        /* \"#utility.yul\":32344:32411   */\n      tag_722\n        /* \"#utility.yul\":32408:32410   */\n      0x20\n        /* \"#utility.yul\":32403:32406   */\n      dup4\n        /* \"#utility.yul\":32344:32411   */\n      tag_361\n      jump\t// in\n    tag_722:\n        /* \"#utility.yul\":32337:32411   */\n      swap2\n      pop\n        /* \"#utility.yul\":32420:32513   */\n      tag_723\n        /* \"#utility.yul\":32509:32512   */\n      dup3\n        /* \"#utility.yul\":32420:32513   */\n      tag_425\n      jump\t// in\n    tag_723:\n        /* \"#utility.yul\":32538:32540   */\n      0x20\n        /* \"#utility.yul\":32533:32536   */\n      dup3\n        /* \"#utility.yul\":32529:32541   */\n      add\n        /* \"#utility.yul\":32522:32541   */\n      swap1\n      pop\n        /* \"#utility.yul\":32181:32547   */\n      swap2\n      swap1\n      pop\n      jump\t// out\n        /* \"#utility.yul\":32553:32972   */\n    tag_330:\n        /* \"#utility.yul\":32719:32723   */\n      0x00\n        /* \"#utility.yul\":32757:32759   */\n      0x20\n        /* \"#utility.yul\":32746:32755   */\n      dup3\n        /* \"#utility.yul\":32742:32760   */\n      add\n        /* \"#utility.yul\":32734:32760   */\n      swap1\n      pop\n        /* \"#utility.yul\":32806:32815   */\n      dup2\n        /* \"#utility.yul\":32800:32804   */\n      dup2\n        /* \"#utility.yul\":32796:32816   */\n      sub\n        /* \"#utility.yul\":32792:32793   */\n      0x00\n        /* \"#utility.yul\":32781:32790   */\n      dup4\n        /* \"#utility.yul\":32777:32794   */\n      add\n        /* \"#utility.yul\":32770:32817   */\n      mstore\n        /* \"#utility.yul\":32834:32965   */\n      tag_725\n        /* \"#utility.yul\":32960:32964   */\n      dup2\n        /* \"#utility.yul\":32834:32965   */\n      tag_426\n      jump\t// in\n    tag_725:\n        /* \"#utility.yul\":32826:32965   */\n      swap1\n      pop\n        /* \"#utility.yul\":32553:32972   */\n      swap2\n      swap1\n      pop\n      jump\t// out\n        /* \"#utility.yul\":32978:33156   */\n    tag_427:\n        /* \"#utility.yul\":33118:33148   */\n      0x4552433732313a20746f6b656e20616c7265616479206d696e74656400000000\n        /* \"#utility.yul\":33114:33115   */\n      0x00\n        /* \"#utility.yul\":33106:33112   */\n      dup3\n        /* \"#utility.yul\":33102:33116   */\n      add\n        /* \"#utility.yul\":33095:33149   */\n      mstore\n        /* \"#utility.yul\":32978:33156   */\n      pop\n      jump\t// out\n        /* \"#utility.yul\":33162:33528   */\n    tag_428:\n        /* \"#utility.yul\":33304:33307   */\n      0x00\n        /* \"#utility.yul\":33325:33392   */\n      tag_728\n        /* \"#utility.yul\":33389:33391   */\n      0x1c\n        /* \"#utility.yul\":33384:33387   */\n      dup4\n        /* \"#utility.yul\":33325:33392   */\n      tag_361\n      jump\t// in\n    tag_728:\n        /* \"#utility.yul\":33318:33392   */\n      swap2\n      pop\n        /* \"#utility.yul\":33401:33494   */\n      tag_729\n        /* \"#utility.yul\":33490:33493   */\n      dup3\n        /* \"#utility.yul\":33401:33494   */\n      tag_427\n      jump\t// in\n    tag_729:\n        /* \"#utility.yul\":33519:33521   */\n      0x20\n        /* \"#utility.yul\":33514:33517   */\n      dup3\n        /* \"#utility.yul\":33510:33522   */\n      add\n        /* \"#utility.yul\":33503:33522   */\n      swap1\n      pop\n        /* \"#utility.yul\":33162:33528   */\n      swap2\n      swap1\n      pop\n      jump\t// out\n        /* \"#utility.yul\":33534:33953   */\n    tag_334:\n        /* \"#utility.yul\":33700:33704   */\n      0x00\n        /* \"#utility.yul\":33738:33740   */\n      0x20\n        /* \"#utility.yul\":33727:33736   */\n      dup3\n        /* \"#utility.yul\":33723:33741   */\n      add\n        /* \"#utility.yul\":33715:33741   */\n      swap1\n      pop\n        /* \"#utility.yul\":33787:33796   */\n      dup2\n        /* \"#utility.yul\":33781:33785   */\n      dup2\n        /* \"#utility.yul\":33777:33797   */\n      sub\n        /* \"#utility.yul\":33773:33774   */\n      0x00\n        /* \"#utility.yul\":33762:33771   */\n      dup4\n        /* \"#utility.yul\":33758:33775   */\n      add\n        /* \"#utility.yul\":33751:33798   */\n      mstore\n        /* \"#utility.yul\":33815:33946   */\n      tag_731\n        /* \"#utility.yul\":33941:33945   */\n      dup2\n        /* \"#utility.yul\":33815:33946   */\n      tag_428\n      jump\t// in\n    tag_731:\n        /* \"#utility.yul\":33807:33946   */\n      swap1\n      pop\n        /* \"#utility.yul\":33534:33953   */\n      swap2\n      swap1\n      pop\n      jump\t// out\n\n    auxdata: 0xa26469706673582212201d49bfef9919745af018cda5fe32b6c9c3d953ab7eda250fd30bc83109e303fc64736f6c634300080d0033\n}\n","bytecode":{"linkReferences":{},"object":"60806040523480156200001157600080fd5b506040518060400160405280601281526020017f4d65746572696f204e4654204d696e74657200000000000000000000000000008152506040518060400160405280600581526020017f4d544e4654000000000000000000000000000000000000000000000000000000815250816000908051906020019062000096929190620000b8565b508060019080519060200190620000af929190620000b8565b505050620001cc565b828054620000c69062000197565b90600052602060002090601f016020900481019282620000ea576000855562000136565b82601f106200010557805160ff191683800117855562000136565b8280016001018555821562000136579182015b828111156200013557825182559160200191906001019062000118565b5b50905062000145919062000149565b5090565b5b80821115620001645760008160009055506001016200014a565b5090565b7f4e487b7100000000000000000000000000000000000000000000000000000000600052602260045260246000fd5b60006002820490506001821680620001b057607f821691505b602082108103620001c657620001c562000168565b5b50919050565b612ee280620001dc6000396000f3fe608060405234801561001057600080fd5b50600436106101005760003560e01c80636352211e11610097578063b88d4fde11610066578063b88d4fde146102bd578063c87b56dd146102d9578063d0def52114610309578063e985e9c51461033957610100565b80636352211e1461022357806370a082311461025357806395d89b4114610283578063a22cb465146102a157610100565b8063150b7a02116100d3578063150b7a021461019f57806323b872dd146101cf57806342842e0e146101eb57806342966c681461020757610100565b806301ffc9a71461010557806306fdde0314610135578063081812fc14610153578063095ea7b314610183575b600080fd5b61011f600480360381019061011a9190611c1c565b610369565b60405161012c9190611c64565b60405180910390f35b61013d61044b565b60405161014a9190611d18565b60405180910390f35b61016d60048036038101906101689190611d70565b6104dd565b60405161017a9190611dde565b60405180910390f35b61019d60048036038101906101989190611e25565b610562565b005b6101b960048036038101906101b49190611f9a565b610679565b6040516101c6919061202c565b60405180910390f35b6101e960048036038101906101e49190612047565b6106e3565b005b61020560048036038101906102009190612047565b610743565b005b610221600480360381019061021c9190611d70565b610763565b005b61023d60048036038101906102389190611d70565b61076f565b60405161024a9190611dde565b60405180910390f35b61026d6004803603810190610268919061209a565b610820565b60405161027a91906120d6565b60405180910390f35b61028b6108d7565b6040516102989190611d18565b60405180910390f35b6102bb60048036038101906102b6919061211d565b610969565b005b6102d760048036038101906102d29190611f9a565b61097f565b005b6102f360048036038101906102ee9190611d70565b6109e1565b6040516103009190611d18565b60405180910390f35b610323600480360381019061031e91906121fe565b610b32565b60405161033091906120d6565b60405180910390f35b610353600480360381019061034e919061225a565b610b6a565b6040516103609190611c64565b60405180910390f35b60007f80ac58cd000000000000000000000000000000000000000000000000000000007bffffffffffffffffffffffffffffffffffffffffffffffffffffffff1916827bffffffffffffffffffffffffffffffffffffffffffffffffffffffff1916148061043457507f5b5e139f000000000000000000000000000000000000000000000000000000007bffffffffffffffffffffffffffffffffffffffffffffffffffffffff1916827bffffffffffffffffffffffffffffffffffffffffffffffffffffffff1916145b80610444575061044382610bfe565b5b9050919050565b60606000805461045a906122c9565b80601f0160208091040260200160405190810160405280929190818152602001828054610486906122c9565b80156104d35780601f106104a8576101008083540402835291602001916104d3565b820191906000526020600020905b8154815290600101906020018083116104b657829003601f168201915b5050505050905090565b60006104e882610c68565b610527576040517f08c379a000000000000000000000000000000000000000000000000000000000815260040161051e9061236c565b60405180910390fd5b6004600083815260200190815260200160002060009054906101000a900473ffffffffffffffffffffffffffffffffffffffff169050919050565b600061056d8261076f565b90508073ffffffffffffffffffffffffffffffffffffffff168373ffffffffffffffffffffffffffffffffffffffff16036105dd576040517f08c379a00000000000000000000000000000000000000000000000000000000081526004016105d4906123fe565b60405180910390fd5b8073ffffffffffffffffffffffffffffffffffffffff166105fc610cd4565b73ffffffffffffffffffffffffffffffffffffffff16148061062b575061062a81610625610cd4565b610b6a565b5b61066a576040517f08c379a000000000000000000000000000000000000000000000000000000000815260040161066190612490565b60405180910390fd5b6106748383610cdc565b505050565b60007f0895c277367ff99b8c0dec875f3149fc2c82df592f63ca6f0747ac2095169087858585856040516106b09493929190612505565b60405180910390a17f150b7a023d4804d13e8c85fb27262cb750cf6ba9f9dd3bb30d90f482ceeb4b1f9050949350505050565b6106f46106ee610cd4565b82610d95565b610733576040517f08c379a000000000000000000000000000000000000000000000000000000000815260040161072a906125c3565b60405180910390fd5b61073e838383610e73565b505050565b61075e8383836040518060200160405280600081525061097f565b505050565b61076c816110d9565b50565b6000806002600084815260200190815260200160002060009054906101000a900473ffffffffffffffffffffffffffffffffffffffff169050600073ffffffffffffffffffffffffffffffffffffffff168173ffffffffffffffffffffffffffffffffffffffff1603610817576040517f08c379a000000000000000000000000000000000000000000000000000000000815260040161080e90612655565b60405180910390fd5b80915050919050565b60008073ffffffffffffffffffffffffffffffffffffffff168273ffffffffffffffffffffffffffffffffffffffff1603610890576040517f08c379a0000000000000000000000000000000000000000000000000000000008152600401610887906126e7565b60405180910390fd5b600360008373ffffffffffffffffffffffffffffffffffffffff1673ffffffffffffffffffffffffffffffffffffffff168152602001908152602001600020549050919050565b6060600180546108e6906122c9565b80601f0160208091040260200160405190810160405280929190818152602001828054610912906122c9565b801561095f5780601f106109345761010080835404028352916020019161095f565b820191906000526020600020905b81548152906001019060200180831161094257829003601f168201915b5050505050905090565b61097b610974610cd4565b838361112c565b5050565b61099061098a610cd4565b83610d95565b6109cf576040517f08c379a00000000000000000000000000000000000000000000000000000000081526004016109c6906125c3565b60405180910390fd5b6109db84848484611298565b50505050565b60606109ec82610c68565b610a2b576040517f08c379a0000000000000000000000000000000000000000000000000000000008152600401610a2290612779565b60405180910390fd5b6000600660008481526020019081526020016000208054610a4b906122c9565b80601f0160208091040260200160405190810160405280929190818152602001828054610a77906122c9565b8015610ac45780601f10610a9957610100808354040283529160200191610ac4565b820191906000526020600020905b815481529060010190602001808311610aa757829003601f168201915b505050505090506000610ad56112f4565b90506000815103610aea578192505050610b2d565b600082511115610b1f578082604051602001610b079291906127d5565b60405160208183030381529060405292505050610b2d565b610b288461130b565b925050505b919050565b6000610b3e60076113b2565b6000610b4a60076113c8565b9050610b5684826113d6565b610b6081846113f4565b8091505092915050565b6000600560008473ffffffffffffffffffffffffffffffffffffffff1673ffffffffffffffffffffffffffffffffffffffff16815260200190815260200160002060008373ffffffffffffffffffffffffffffffffffffffff1673ffffffffffffffffffffffffffffffffffffffff16815260200190815260200160002060009054906101000a900460ff16905092915050565b60007f01ffc9a7000000000000000000000000000000000000000000000000000000007bffffffffffffffffffffffffffffffffffffffffffffffffffffffff1916827bffffffffffffffffffffffffffffffffffffffffffffffffffffffff1916149050919050565b60008073ffffffffffffffffffffffffffffffffffffffff166002600084815260200190815260200160002060009054906101000a900473ffffffffffffffffffffffffffffffffffffffff1673ffffffffffffffffffffffffffffffffffffffff1614159050919050565b600033905090565b816004600083815260200190815260200160002060006101000a81548173ffffffffffffffffffffffffffffffffffffffff021916908373ffffffffffffffffffffffffffffffffffffffff160217905550808273ffffffffffffffffffffffffffffffffffffffff16610d4f8361076f565b73ffffffffffffffffffffffffffffffffffffffff167f8c5be1e5ebec7d5bd14f71427d1e84f3dd0314c0f7b2291e5b200ac8c7c3b92560405160405180910390a45050565b6000610da082610c68565b610ddf576040517f08c379a0000000000000000000000000000000000000000000000000000000008152600401610dd69061286b565b60405180910390fd5b6000610dea8361076f565b90508073ffffffffffffffffffffffffffffffffffffffff168473ffffffffffffffffffffffffffffffffffffffff161480610e5957508373ffffffffffffffffffffffffffffffffffffffff16610e41846104dd565b73ffffffffffffffffffffffffffffffffffffffff16145b80610e6a5750610e698185610b6a565b5b91505092915050565b8273ffffffffffffffffffffffffffffffffffffffff16610e938261076f565b73ffffffffffffffffffffffffffffffffffffffff1614610ee9576040517f08c379a0000000000000000000000000000000000000000000000000000000008152600401610ee0906128fd565b60405180910390fd5b600073ffffffffffffffffffffffffffffffffffffffff168273ffffffffffffffffffffffffffffffffffffffff1603610f58576040517f08c379a0000000000000000000000000000000000000000000000000000000008152600401610f4f9061298f565b60405180910390fd5b610f63838383611468565b610f6e600082610cdc565b6001600360008573ffffffffffffffffffffffffffffffffffffffff1673ffffffffffffffffffffffffffffffffffffffff1681526020019081526020016000206000828254610fbe91906129de565b925050819055506001600360008473ffffffffffffffffffffffffffffffffffffffff1673ffffffffffffffffffffffffffffffffffffffff16815260200190815260200160002060008282546110159190612a12565b92505081905550816002600083815260200190815260200160002060006101000a81548173ffffffffffffffffffffffffffffffffffffffff021916908373ffffffffffffffffffffffffffffffffffffffff160217905550808273ffffffffffffffffffffffffffffffffffffffff168473ffffffffffffffffffffffffffffffffffffffff167fddf252ad1be2c89b69c2b068fc378daa952ba7f163c4a11628f55a4df523b3ef60405160405180910390a46110d483838361146d565b505050565b6110e281611472565b6000600660008381526020019081526020016000208054611102906122c9565b905014611129576006600082815260200190815260200160002060006111289190611acd565b5b50565b8173ffffffffffffffffffffffffffffffffffffffff168373ffffffffffffffffffffffffffffffffffffffff160361119a576040517f08c379a000000000000000000000000000000000000000000000000000000000815260040161119190612ab4565b60405180910390fd5b80600560008573ffffffffffffffffffffffffffffffffffffffff1673ffffffffffffffffffffffffffffffffffffffff16815260200190815260200160002060008473ffffffffffffffffffffffffffffffffffffffff1673ffffffffffffffffffffffffffffffffffffffff16815260200190815260200160002060006101000a81548160ff0219169083151502179055508173ffffffffffffffffffffffffffffffffffffffff168373ffffffffffffffffffffffffffffffffffffffff167f17307eab39ab6107e8899845ad3d59bd9653f200f220920489ca2b5937696c318360405161128b9190611c64565b60405180910390a3505050565b6112a3848484610e73565b6112af8484848461158f565b6112ee576040517f08c379a00000000000000000000000000000000000000000000000000000000081526004016112e590612b46565b60405180910390fd5b50505050565b606060405180602001604052806000815250905090565b606061131682610c68565b611355576040517f08c379a000000000000000000000000000000000000000000000000000000000815260040161134c90612bd8565b60405180910390fd5b600061135f6112f4565b9050600081511161137f57604051806020016040528060008152506113aa565b8061138984611716565b60405160200161139a9291906127d5565b6040516020818303038152906040525b915050919050565b6001816000016000828254019250508190555050565b600081600001549050919050565b6113f0828260405180602001604052806000815250611876565b5050565b6113fd82610c68565b61143c576040517f08c379a000000000000000000000000000000000000000000000000000000000815260040161143390612c6a565b60405180910390fd5b80600660008481526020019081526020016000209080519060200190611463929190611b0d565b505050565b505050565b505050565b600061147d8261076f565b905061148b81600084611468565b611496600083610cdc565b6001600360008373ffffffffffffffffffffffffffffffffffffffff1673ffffffffffffffffffffffffffffffffffffffff16815260200190815260200160002060008282546114e691906129de565b925050819055506002600083815260200190815260200160002060006101000a81549073ffffffffffffffffffffffffffffffffffffffff021916905581600073ffffffffffffffffffffffffffffffffffffffff168273ffffffffffffffffffffffffffffffffffffffff167fddf252ad1be2c89b69c2b068fc378daa952ba7f163c4a11628f55a4df523b3ef60405160405180910390a461158b8160008461146d565b5050565b60006115b08473ffffffffffffffffffffffffffffffffffffffff166118d1565b15611709578373ffffffffffffffffffffffffffffffffffffffff1663150b7a026115d9610cd4565b8786866040518563ffffffff1660e01b81526004016115fb9493929190612505565b6020604051808303816000875af192505050801561163757506040513d601f19601f820116820180604052508101906116349190612c9f565b60015b6116b9573d8060008114611667576040519150601f19603f3d011682016040523d82523d6000602084013e61166c565b606091505b5060008151036116b1576040517f08c379a00000000000000000000000000000000000000000000000000000000081526004016116a890612b46565b60405180910390fd5b805181602001fd5b63150b7a0260e01b7bffffffffffffffffffffffffffffffffffffffffffffffffffffffff1916817bffffffffffffffffffffffffffffffffffffffffffffffffffffffff19161491505061170e565b600190505b949350505050565b60606000820361175d576040518060400160405280600181526020017f30000000000000000000000000000000000000000000000000000000000000008152509050611871565b600082905060005b6000821461178f57808061177890612ccc565b915050600a826117889190612d43565b9150611765565b60008167ffffffffffffffff8111156117ab576117aa611e6f565b5b6040519080825280601f01601f1916602001820160405280156117dd5781602001600182028036833780820191505090505b5090505b6000851461186a576001826117f691906129de565b9150600a856118059190612d74565b60306118119190612a12565b60f81b81838151811061182757611826612da5565b5b60200101907effffffffffffffffffffffffffffffffffffffffffffffffffffffffffffff1916908160001a905350600a856118639190612d43565b94506117e1565b8093505050505b919050565b61188083836118f4565b61188d600084848461158f565b6118cc576040517f08c379a00000000000000000000000000000000000000000000000000000000081526004016118c390612b46565b60405180910390fd5b505050565b6000808273ffffffffffffffffffffffffffffffffffffffff163b119050919050565b600073ffffffffffffffffffffffffffffffffffffffff168273ffffffffffffffffffffffffffffffffffffffff1603611963576040517f08c379a000000000000000000000000000000000000000000000000000000000815260040161195a90612e20565b60405180910390fd5b61196c81610c68565b156119ac576040517f08c379a00000000000000000000000000000000000000000000000000000000081526004016119a390612e8c565b60405180910390fd5b6119b860008383611468565b6001600360008473ffffffffffffffffffffffffffffffffffffffff1673ffffffffffffffffffffffffffffffffffffffff1681526020019081526020016000206000828254611a089190612a12565b92505081905550816002600083815260200190815260200160002060006101000a81548173ffffffffffffffffffffffffffffffffffffffff021916908373ffffffffffffffffffffffffffffffffffffffff160217905550808273ffffffffffffffffffffffffffffffffffffffff16600073ffffffffffffffffffffffffffffffffffffffff167fddf252ad1be2c89b69c2b068fc378daa952ba7f163c4a11628f55a4df523b3ef60405160405180910390a4611ac96000838361146d565b5050565b508054611ad9906122c9565b6000825580601f10611aeb5750611b0a565b601f016020900490600052602060002090810190611b099190611b93565b5b50565b828054611b19906122c9565b90600052602060002090601f016020900481019282611b3b5760008555611b82565b82601f10611b5457805160ff1916838001178555611b82565b82800160010185558215611b82579182015b82811115611b81578251825591602001919060010190611b66565b5b509050611b8f9190611b93565b5090565b5b80821115611bac576000816000905550600101611b94565b5090565b6000604051905090565b600080fd5b600080fd5b60007fffffffff0000000000000000000000000000000000000000000000000000000082169050919050565b611bf981611bc4565b8114611c0457600080fd5b50565b600081359050611c1681611bf0565b92915050565b600060208284031215611c3257611c31611bba565b5b6000611c4084828501611c07565b91505092915050565b60008115159050919050565b611c5e81611c49565b82525050565b6000602082019050611c796000830184611c55565b92915050565b600081519050919050565b600082825260208201905092915050565b60005b83811015611cb9578082015181840152602081019050611c9e565b83811115611cc8576000848401525b50505050565b6000601f19601f8301169050919050565b6000611cea82611c7f565b611cf48185611c8a565b9350611d04818560208601611c9b565b611d0d81611cce565b840191505092915050565b60006020820190508181036000830152611d328184611cdf565b905092915050565b6000819050919050565b611d4d81611d3a565b8114611d5857600080fd5b50565b600081359050611d6a81611d44565b92915050565b600060208284031215611d8657611d85611bba565b5b6000611d9484828501611d5b565b91505092915050565b600073ffffffffffffffffffffffffffffffffffffffff82169050919050565b6000611dc882611d9d565b9050919050565b611dd881611dbd565b82525050565b6000602082019050611df36000830184611dcf565b92915050565b611e0281611dbd565b8114611e0d57600080fd5b50565b600081359050611e1f81611df9565b92915050565b60008060408385031215611e3c57611e3b611bba565b5b6000611e4a85828601611e10565b9250506020611e5b85828601611d5b565b9150509250929050565b600080fd5b600080fd5b7f4e487b7100000000000000000000000000000000000000000000000000000000600052604160045260246000fd5b611ea782611cce565b810181811067ffffffffffffffff82111715611ec657611ec5611e6f565b5b80604052505050565b6000611ed9611bb0565b9050611ee58282611e9e565b919050565b600067ffffffffffffffff821115611f0557611f04611e6f565b5b611f0e82611cce565b9050602081019050919050565b82818337600083830152505050565b6000611f3d611f3884611eea565b611ecf565b905082815260208101848484011115611f5957611f58611e6a565b5b611f64848285611f1b565b509392505050565b600082601f830112611f8157611f80611e65565b5b8135611f91848260208601611f2a565b91505092915050565b60008060008060808587031215611fb457611fb3611bba565b5b6000611fc287828801611e10565b9450506020611fd387828801611e10565b9350506040611fe487828801611d5b565b925050606085013567ffffffffffffffff81111561200557612004611bbf565b5b61201187828801611f6c565b91505092959194509250565b61202681611bc4565b82525050565b6000602082019050612041600083018461201d565b92915050565b6000806000606084860312156120605761205f611bba565b5b600061206e86828701611e10565b935050602061207f86828701611e10565b925050604061209086828701611d5b565b9150509250925092565b6000602082840312156120b0576120af611bba565b5b60006120be84828501611e10565b91505092915050565b6120d081611d3a565b82525050565b60006020820190506120eb60008301846120c7565b92915050565b6120fa81611c49565b811461210557600080fd5b50565b600081359050612117816120f1565b92915050565b6000806040838503121561213457612133611bba565b5b600061214285828601611e10565b925050602061215385828601612108565b9150509250929050565b600067ffffffffffffffff82111561217857612177611e6f565b5b61218182611cce565b9050602081019050919050565b60006121a161219c8461215d565b611ecf565b9050828152602081018484840111156121bd576121bc611e6a565b5b6121c8848285611f1b565b509392505050565b600082601f8301126121e5576121e4611e65565b5b81356121f584826020860161218e565b91505092915050565b6000806040838503121561221557612214611bba565b5b600061222385828601611e10565b925050602083013567ffffffffffffffff81111561224457612243611bbf565b5b612250858286016121d0565b9150509250929050565b6000806040838503121561227157612270611bba565b5b600061227f85828601611e10565b925050602061229085828601611e10565b9150509250929050565b7f4e487b7100000000000000000000000000000000000000000000000000000000600052602260045260246000fd5b600060028204905060018216806122e157607f821691505b6020821081036122f4576122f361229a565b5b50919050565b7f4552433732313a20617070726f76656420717565727920666f72206e6f6e657860008201527f697374656e7420746f6b656e0000000000000000000000000000000000000000602082015250565b6000612356602c83611c8a565b9150612361826122fa565b604082019050919050565b6000602082019050818103600083015261238581612349565b9050919050565b7f4552433732313a20617070726f76616c20746f2063757272656e74206f776e6560008201527f7200000000000000000000000000000000000000000000000000000000000000602082015250565b60006123e8602183611c8a565b91506123f38261238c565b604082019050919050565b60006020820190508181036000830152612417816123db565b9050919050565b7f4552433732313a20617070726f76652063616c6c6572206973206e6f74206f7760008201527f6e6572206e6f7220617070726f76656420666f7220616c6c0000000000000000602082015250565b600061247a603883611c8a565b91506124858261241e565b604082019050919050565b600060208201905081810360008301526124a98161246d565b9050919050565b600081519050919050565b600082825260208201905092915050565b60006124d7826124b0565b6124e181856124bb565b93506124f1818560208601611c9b565b6124fa81611cce565b840191505092915050565b600060808201905061251a6000830187611dcf565b6125276020830186611dcf565b61253460408301856120c7565b818103606083015261254681846124cc565b905095945050505050565b7f4552433732313a207472616e736665722063616c6c6572206973206e6f74206f60008201527f776e6572206e6f7220617070726f766564000000000000000000000000000000602082015250565b60006125ad603183611c8a565b91506125b882612551565b604082019050919050565b600060208201905081810360008301526125dc816125a0565b9050919050565b7f4552433732313a206f776e657220717565727920666f72206e6f6e657869737460008201527f656e7420746f6b656e0000000000000000000000000000000000000000000000602082015250565b600061263f602983611c8a565b915061264a826125e3565b604082019050919050565b6000602082019050818103600083015261266e81612632565b9050919050565b7f4552433732313a2062616c616e636520717565727920666f7220746865207a6560008201527f726f206164647265737300000000000000000000000000000000000000000000602082015250565b60006126d1602a83611c8a565b91506126dc82612675565b604082019050919050565b60006020820190508181036000830152612700816126c4565b9050919050565b7f45524337323155524953746f726167653a2055524920717565727920666f722060008201527f6e6f6e6578697374656e7420746f6b656e000000000000000000000000000000602082015250565b6000612763603183611c8a565b915061276e82612707565b604082019050919050565b6000602082019050818103600083015261279281612756565b9050919050565b600081905092915050565b60006127af82611c7f565b6127b98185612799565b93506127c9818560208601611c9b565b80840191505092915050565b60006127e182856127a4565b91506127ed82846127a4565b91508190509392505050565b7f4552433732313a206f70657261746f7220717565727920666f72206e6f6e657860008201527f697374656e7420746f6b656e0000000000000000000000000000000000000000602082015250565b6000612855602c83611c8a565b9150612860826127f9565b604082019050919050565b6000602082019050818103600083015261288481612848565b9050919050565b7f4552433732313a207472616e736665722066726f6d20696e636f72726563742060008201527f6f776e6572000000000000000000000000000000000000000000000000000000602082015250565b60006128e7602583611c8a565b91506128f28261288b565b604082019050919050565b60006020820190508181036000830152612916816128da565b9050919050565b7f4552433732313a207472616e7366657220746f20746865207a65726f2061646460008201527f7265737300000000000000000000000000000000000000000000000000000000602082015250565b6000612979602483611c8a565b91506129848261291d565b604082019050919050565b600060208201905081810360008301526129a88161296c565b9050919050565b7f4e487b7100000000000000000000000000000000000000000000000000000000600052601160045260246000fd5b60006129e982611d3a565b91506129f483611d3a565b925082821015612a0757612a066129af565b5b828203905092915050565b6000612a1d82611d3a565b9150612a2883611d3a565b9250827fffffffffffffffffffffffffffffffffffffffffffffffffffffffffffffffff03821115612a5d57612a5c6129af565b5b828201905092915050565b7f4552433732313a20617070726f766520746f2063616c6c657200000000000000600082015250565b6000612a9e601983611c8a565b9150612aa982612a68565b602082019050919050565b60006020820190508181036000830152612acd81612a91565b9050919050565b7f4552433732313a207472616e7366657220746f206e6f6e20455243373231526560008201527f63656976657220696d706c656d656e7465720000000000000000000000000000602082015250565b6000612b30603283611c8a565b9150612b3b82612ad4565b604082019050919050565b60006020820190508181036000830152612b5f81612b23565b9050919050565b7f4552433732314d657461646174613a2055524920717565727920666f72206e6f60008201527f6e6578697374656e7420746f6b656e0000000000000000000000000000000000602082015250565b6000612bc2602f83611c8a565b9150612bcd82612b66565b604082019050919050565b60006020820190508181036000830152612bf181612bb5565b9050919050565b7f45524337323155524953746f726167653a2055524920736574206f66206e6f6e60008201527f6578697374656e7420746f6b656e000000000000000000000000000000000000602082015250565b6000612c54602e83611c8a565b9150612c5f82612bf8565b604082019050919050565b60006020820190508181036000830152612c8381612c47565b9050919050565b600081519050612c9981611bf0565b92915050565b600060208284031215612cb557612cb4611bba565b5b6000612cc384828501612c8a565b91505092915050565b6000612cd782611d3a565b91507fffffffffffffffffffffffffffffffffffffffffffffffffffffffffffffffff8203612d0957612d086129af565b5b600182019050919050565b7f4e487b7100000000000000000000000000000000000000000000000000000000600052601260045260246000fd5b6000612d4e82611d3a565b9150612d5983611d3a565b925082612d6957612d68612d14565b5b828204905092915050565b6000612d7f82611d3a565b9150612d8a83611d3a565b925082612d9a57612d99612d14565b5b828206905092915050565b7f4e487b7100000000000000000000000000000000000000000000000000000000600052603260045260246000fd5b7f4552433732313a206d696e7420746f20746865207a65726f2061646472657373600082015250565b6000612e0a602083611c8a565b9150612e1582612dd4565b602082019050919050565b60006020820190508181036000830152612e3981612dfd565b9050919050565b7f4552433732313a20746f6b656e20616c7265616479206d696e74656400000000600082015250565b6000612e76601c83611c8a565b9150612e8182612e40565b602082019050919050565b60006020820190508181036000830152612ea581612e69565b905091905056fea26469706673582212201d49bfef9919745af018cda5fe32b6c9c3d953ab7eda250fd30bc83109e303fc64736f6c634300080d0033","opcodes":"PUSH1 0x80 PUSH1 0x40 MSTORE CALLVALUE DUP1 ISZERO PUSH3 0x11 JUMPI PUSH1 0x0 DUP1 REVERT JUMPDEST POP PUSH1 0x40 MLOAD DUP1 PUSH1 0x40 ADD PUSH1 0x40 MSTORE DUP1 PUSH1 0x12 DUP2 MSTORE PUSH1 0x20 ADD PUSH32 0x4D65746572696F204E4654204D696E7465720000000000000000000000000000 DUP2 MSTORE POP PUSH1 0x40 MLOAD DUP1 PUSH1 0x40 ADD PUSH1 0x40 MSTORE DUP1 PUSH1 0x5 DUP2 MSTORE PUSH1 0x20 ADD PUSH32 0x4D544E4654000000000000000000000000000000000000000000000000000000 DUP2 MSTORE POP DUP2 PUSH1 0x0 SWAP1 DUP1 MLOAD SWAP1 PUSH1 0x20 ADD SWAP1 PUSH3 0x96 SWAP3 SWAP2 SWAP1 PUSH3 0xB8 JUMP JUMPDEST POP DUP1 PUSH1 0x1 SWAP1 DUP1 MLOAD SWAP1 PUSH1 0x20 ADD SWAP1 PUSH3 0xAF SWAP3 SWAP2 SWAP1 PUSH3 0xB8 JUMP JUMPDEST POP POP POP PUSH3 0x1CC JUMP JUMPDEST DUP3 DUP1 SLOAD PUSH3 0xC6 SWAP1 PUSH3 0x197 JUMP JUMPDEST SWAP1 PUSH1 0x0 MSTORE PUSH1 0x20 PUSH1 0x0 KECCAK256 SWAP1 PUSH1 0x1F ADD PUSH1 0x20 SWAP1 DIV DUP2 ADD SWAP3 DUP3 PUSH3 0xEA JUMPI PUSH1 0x0 DUP6 SSTORE PUSH3 0x136 JUMP JUMPDEST DUP3 PUSH1 0x1F LT PUSH3 0x105 JUMPI DUP1 MLOAD PUSH1 0xFF NOT AND DUP4 DUP1 ADD OR DUP6 SSTORE PUSH3 0x136 JUMP JUMPDEST DUP3 DUP1 ADD PUSH1 0x1 ADD DUP6 SSTORE DUP3 ISZERO PUSH3 0x136 JUMPI SWAP2 DUP3 ADD JUMPDEST DUP3 DUP2 GT ISZERO PUSH3 0x135 JUMPI DUP3 MLOAD DUP3 SSTORE SWAP2 PUSH1 0x20 ADD SWAP2 SWAP1 PUSH1 0x1 ADD SWAP1 PUSH3 0x118 JUMP JUMPDEST JUMPDEST POP SWAP1 POP PUSH3 0x145 SWAP2 SWAP1 PUSH3 0x149 JUMP JUMPDEST POP SWAP1 JUMP JUMPDEST JUMPDEST DUP1 DUP3 GT ISZERO PUSH3 0x164 JUMPI PUSH1 0x0 DUP2 PUSH1 0x0 SWAP1 SSTORE POP PUSH1 0x1 ADD PUSH3 0x14A JUMP JUMPDEST POP SWAP1 JUMP JUMPDEST PUSH32 0x4E487B7100000000000000000000000000000000000000000000000000000000 PUSH1 0x0 MSTORE PUSH1 0x22 PUSH1 0x4 MSTORE PUSH1 0x24 PUSH1 0x0 REVERT JUMPDEST PUSH1 0x0 PUSH1 0x2 DUP3 DIV SWAP1 POP PUSH1 0x1 DUP3 AND DUP1 PUSH3 0x1B0 JUMPI PUSH1 0x7F DUP3 AND SWAP2 POP JUMPDEST PUSH1 0x20 DUP3 LT DUP2 SUB PUSH3 0x1C6 JUMPI PUSH3 0x1C5 PUSH3 0x168 JUMP JUMPDEST JUMPDEST POP SWAP2 SWAP1 POP JUMP JUMPDEST PUSH2 0x2EE2 DUP1 PUSH3 0x1DC PUSH1 0x0 CODECOPY PUSH1 0x0 RETURN INVALID PUSH1 0x80 PUSH1 0x40 MSTORE CALLVALUE DUP1 ISZERO PUSH2 0x10 JUMPI PUSH1 0x0 DUP1 REVERT JUMPDEST POP PUSH1 0x4 CALLDATASIZE LT PUSH2 0x100 JUMPI PUSH1 0x0 CALLDATALOAD PUSH1 0xE0 SHR DUP1 PUSH4 0x6352211E GT PUSH2 0x97 JUMPI DUP1 PUSH4 0xB88D4FDE GT PUSH2 0x66 JUMPI DUP1 PUSH4 0xB88D4FDE EQ PUSH2 0x2BD JUMPI DUP1 PUSH4 0xC87B56DD EQ PUSH2 0x2D9 JUMPI DUP1 PUSH4 0xD0DEF521 EQ PUSH2 0x309 JUMPI DUP1 PUSH4 0xE985E9C5 EQ PUSH2 0x339 JUMPI PUSH2 0x100 JUMP JUMPDEST DUP1 PUSH4 0x6352211E EQ PUSH2 0x223 JUMPI DUP1 PUSH4 0x70A08231 EQ PUSH2 0x253 JUMPI DUP1 PUSH4 0x95D89B41 EQ PUSH2 0x283 JUMPI DUP1 PUSH4 0xA22CB465 EQ PUSH2 0x2A1 JUMPI PUSH2 0x100 JUMP JUMPDEST DUP1 PUSH4 0x150B7A02 GT PUSH2 0xD3 JUMPI DUP1 PUSH4 0x150B7A02 EQ PUSH2 0x19F JUMPI DUP1 PUSH4 0x23B872DD EQ PUSH2 0x1CF JUMPI DUP1 PUSH4 0x42842E0E EQ PUSH2 0x1EB JUMPI DUP1 PUSH4 0x42966C68 EQ PUSH2 0x207 JUMPI PUSH2 0x100 JUMP JUMPDEST DUP1 PUSH4 0x1FFC9A7 EQ PUSH2 0x105 JUMPI DUP1 PUSH4 0x6FDDE03 EQ PUSH2 0x135 JUMPI DUP1 PUSH4 0x81812FC EQ PUSH2 0x153 JUMPI DUP1 PUSH4 0x95EA7B3 EQ PUSH2 0x183 JUMPI JUMPDEST PUSH1 0x0 DUP1 REVERT JUMPDEST PUSH2 0x11F PUSH1 0x4 DUP1 CALLDATASIZE SUB DUP2 ADD SWAP1 PUSH2 0x11A SWAP2 SWAP1 PUSH2 0x1C1C JUMP JUMPDEST PUSH2 0x369 JUMP JUMPDEST PUSH1 0x40 MLOAD PUSH2 0x12C SWAP2 SWAP1 PUSH2 0x1C64 JUMP JUMPDEST PUSH1 0x40 MLOAD DUP1 SWAP2 SUB SWAP1 RETURN JUMPDEST PUSH2 0x13D PUSH2 0x44B JUMP JUMPDEST PUSH1 0x40 MLOAD PUSH2 0x14A SWAP2 SWAP1 PUSH2 0x1D18 JUMP JUMPDEST PUSH1 0x40 MLOAD DUP1 SWAP2 SUB SWAP1 RETURN JUMPDEST PUSH2 0x16D PUSH1 0x4 DUP1 CALLDATASIZE SUB DUP2 ADD SWAP1 PUSH2 0x168 SWAP2 SWAP1 PUSH2 0x1D70 JUMP JUMPDEST PUSH2 0x4DD JUMP JUMPDEST PUSH1 0x40 MLOAD PUSH2 0x17A SWAP2 SWAP1 PUSH2 0x1DDE JUMP JUMPDEST PUSH1 0x40 MLOAD DUP1 SWAP2 SUB SWAP1 RETURN JUMPDEST PUSH2 0x19D PUSH1 0x4 DUP1 CALLDATASIZE SUB DUP2 ADD SWAP1 PUSH2 0x198 SWAP2 SWAP1 PUSH2 0x1E25 JUMP JUMPDEST PUSH2 0x562 JUMP JUMPDEST STOP JUMPDEST PUSH2 0x1B9 PUSH1 0x4 DUP1 CALLDATASIZE SUB DUP2 ADD SWAP1 PUSH2 0x1B4 SWAP2 SWAP1 PUSH2 0x1F9A JUMP JUMPDEST PUSH2 0x679 JUMP JUMPDEST PUSH1 0x40 MLOAD PUSH2 0x1C6 SWAP2 SWAP1 PUSH2 0x202C JUMP JUMPDEST PUSH1 0x40 MLOAD DUP1 SWAP2 SUB SWAP1 RETURN JUMPDEST PUSH2 0x1E9 PUSH1 0x4 DUP1 CALLDATASIZE SUB DUP2 ADD SWAP1 PUSH2 0x1E4 SWAP2 SWAP1 PUSH2 0x2047 JUMP JUMPDEST PUSH2 0x6E3 JUMP JUMPDEST STOP JUMPDEST PUSH2 0x205 PUSH1 0x4 DUP1 CALLDATASIZE SUB DUP2 ADD SWAP1 PUSH2 0x200 SWAP2 SWAP1 PUSH2 0x2047 JUMP JUMPDEST PUSH2 0x743 JUMP JUMPDEST STOP JUMPDEST PUSH2 0x221 PUSH1 0x4 DUP1 CALLDATASIZE SUB DUP2 ADD SWAP1 PUSH2 0x21C SWAP2 SWAP1 PUSH2 0x1D70 JUMP JUMPDEST PUSH2 0x763 JUMP JUMPDEST STOP JUMPDEST PUSH2 0x23D PUSH1 0x4 DUP1 CALLDATASIZE SUB DUP2 ADD SWAP1 PUSH2 0x238 SWAP2 SWAP1 PUSH2 0x1D70 JUMP JUMPDEST PUSH2 0x76F JUMP JUMPDEST PUSH1 0x40 MLOAD PUSH2 0x24A SWAP2 SWAP1 PUSH2 0x1DDE JUMP JUMPDEST PUSH1 0x40 MLOAD DUP1 SWAP2 SUB SWAP1 RETURN JUMPDEST PUSH2 0x26D PUSH1 0x4 DUP1 CALLDATASIZE SUB DUP2 ADD SWAP1 PUSH2 0x268 SWAP2 SWAP1 PUSH2 0x209A JUMP JUMPDEST PUSH2 0x820 JUMP JUMPDEST PUSH1 0x40 MLOAD PUSH2 0x27A SWAP2 SWAP1 PUSH2 0x20D6 JUMP JUMPDEST PUSH1 0x40 MLOAD DUP1 SWAP2 SUB SWAP1 RETURN JUMPDEST PUSH2 0x28B PUSH2 0x8D7 JUMP JUMPDEST PUSH1 0x40 MLOAD PUSH2 0x298 SWAP2 SWAP1 PUSH2 0x1D18 JUMP JUMPDEST PUSH1 0x40 MLOAD DUP1 SWAP2 SUB SWAP1 RETURN JUMPDEST PUSH2 0x2BB PUSH1 0x4 DUP1 CALLDATASIZE SUB DUP2 ADD SWAP1 PUSH2 0x2B6 SWAP2 SWAP1 PUSH2 0x211D JUMP JUMPDEST PUSH2 0x969 JUMP JUMPDEST STOP JUMPDEST PUSH2 0x2D7 PUSH1 0x4 DUP1 CALLDATASIZE SUB DUP2 ADD SWAP1 PUSH2 0x2D2 SWAP2 SWAP1 PUSH2 0x1F9A JUMP JUMPDEST PUSH2 0x97F JUMP JUMPDEST STOP JUMPDEST PUSH2 0x2F3 PUSH1 0x4 DUP1 CALLDATASIZE SUB DUP2 ADD SWAP1 PUSH2 0x2EE SWAP2 SWAP1 PUSH2 0x1D70 JUMP JUMPDEST PUSH2 0x9E1 JUMP JUMPDEST PUSH1 0x40 MLOAD PUSH2 0x300 SWAP2 SWAP1 PUSH2 0x1D18 JUMP JUMPDEST PUSH1 0x40 MLOAD DUP1 SWAP2 SUB SWAP1 RETURN JUMPDEST PUSH2 0x323 PUSH1 0x4 DUP1 CALLDATASIZE SUB DUP2 ADD SWAP1 PUSH2 0x31E SWAP2 SWAP1 PUSH2 0x21FE JUMP JUMPDEST PUSH2 0xB32 JUMP JUMPDEST PUSH1 0x40 MLOAD PUSH2 0x330 SWAP2 SWAP1 PUSH2 0x20D6 JUMP JUMPDEST PUSH1 0x40 MLOAD DUP1 SWAP2 SUB SWAP1 RETURN JUMPDEST PUSH2 0x353 PUSH1 0x4 DUP1 CALLDATASIZE SUB DUP2 ADD SWAP1 PUSH2 0x34E SWAP2 SWAP1 PUSH2 0x225A JUMP JUMPDEST PUSH2 0xB6A JUMP JUMPDEST PUSH1 0x40 MLOAD PUSH2 0x360 SWAP2 SWAP1 PUSH2 0x1C64 JUMP JUMPDEST PUSH1 0x40 MLOAD DUP1 SWAP2 SUB SWAP1 RETURN JUMPDEST PUSH1 0x0 PUSH32 0x80AC58CD00000000000000000000000000000000000000000000000000000000 PUSH28 0xFFFFFFFFFFFFFFFFFFFFFFFFFFFFFFFFFFFFFFFFFFFFFFFFFFFFFFFF NOT AND DUP3 PUSH28 0xFFFFFFFFFFFFFFFFFFFFFFFFFFFFFFFFFFFFFFFFFFFFFFFFFFFFFFFF NOT AND EQ DUP1 PUSH2 0x434 JUMPI POP PUSH32 0x5B5E139F00000000000000000000000000000000000000000000000000000000 PUSH28 0xFFFFFFFFFFFFFFFFFFFFFFFFFFFFFFFFFFFFFFFFFFFFFFFFFFFFFFFF NOT AND DUP3 PUSH28 0xFFFFFFFFFFFFFFFFFFFFFFFFFFFFFFFFFFFFFFFFFFFFFFFFFFFFFFFF NOT AND EQ JUMPDEST DUP1 PUSH2 0x444 JUMPI POP PUSH2 0x443 DUP3 PUSH2 0xBFE JUMP JUMPDEST JUMPDEST SWAP1 POP SWAP2 SWAP1 POP JUMP JUMPDEST PUSH1 0x60 PUSH1 0x0 DUP1 SLOAD PUSH2 0x45A SWAP1 PUSH2 0x22C9 JUMP JUMPDEST DUP1 PUSH1 0x1F ADD PUSH1 0x20 DUP1 SWAP2 DIV MUL PUSH1 0x20 ADD PUSH1 0x40 MLOAD SWAP1 DUP2 ADD PUSH1 0x40 MSTORE DUP1 SWAP3 SWAP2 SWAP1 DUP2 DUP2 MSTORE PUSH1 0x20 ADD DUP3 DUP1 SLOAD PUSH2 0x486 SWAP1 PUSH2 0x22C9 JUMP JUMPDEST DUP1 ISZERO PUSH2 0x4D3 JUMPI DUP1 PUSH1 0x1F LT PUSH2 0x4A8 JUMPI PUSH2 0x100 DUP1 DUP4 SLOAD DIV MUL DUP4 MSTORE SWAP2 PUSH1 0x20 ADD SWAP2 PUSH2 0x4D3 JUMP JUMPDEST DUP3 ADD SWAP2 SWAP1 PUSH1 0x0 MSTORE PUSH1 0x20 PUSH1 0x0 KECCAK256 SWAP1 JUMPDEST DUP2 SLOAD DUP2 MSTORE SWAP1 PUSH1 0x1 ADD SWAP1 PUSH1 0x20 ADD DUP1 DUP4 GT PUSH2 0x4B6 JUMPI DUP3 SWAP1 SUB PUSH1 0x1F AND DUP3 ADD SWAP2 JUMPDEST POP POP POP POP POP SWAP1 POP SWAP1 JUMP JUMPDEST PUSH1 0x0 PUSH2 0x4E8 DUP3 PUSH2 0xC68 JUMP JUMPDEST PUSH2 0x527 JUMPI PUSH1 0x40 MLOAD PUSH32 0x8C379A000000000000000000000000000000000000000000000000000000000 DUP2 MSTORE PUSH1 0x4 ADD PUSH2 0x51E SWAP1 PUSH2 0x236C JUMP JUMPDEST PUSH1 0x40 MLOAD DUP1 SWAP2 SUB SWAP1 REVERT JUMPDEST PUSH1 0x4 PUSH1 0x0 DUP4 DUP2 MSTORE PUSH1 0x20 ADD SWAP1 DUP2 MSTORE PUSH1 0x20 ADD PUSH1 0x0 KECCAK256 PUSH1 0x0 SWAP1 SLOAD SWAP1 PUSH2 0x100 EXP SWAP1 DIV PUSH20 0xFFFFFFFFFFFFFFFFFFFFFFFFFFFFFFFFFFFFFFFF AND SWAP1 POP SWAP2 SWAP1 POP JUMP JUMPDEST PUSH1 0x0 PUSH2 0x56D DUP3 PUSH2 0x76F JUMP JUMPDEST SWAP1 POP DUP1 PUSH20 0xFFFFFFFFFFFFFFFFFFFFFFFFFFFFFFFFFFFFFFFF AND DUP4 PUSH20 0xFFFFFFFFFFFFFFFFFFFFFFFFFFFFFFFFFFFFFFFF AND SUB PUSH2 0x5DD JUMPI PUSH1 0x40 MLOAD PUSH32 0x8C379A000000000000000000000000000000000000000000000000000000000 DUP2 MSTORE PUSH1 0x4 ADD PUSH2 0x5D4 SWAP1 PUSH2 0x23FE JUMP JUMPDEST PUSH1 0x40 MLOAD DUP1 SWAP2 SUB SWAP1 REVERT JUMPDEST DUP1 PUSH20 0xFFFFFFFFFFFFFFFFFFFFFFFFFFFFFFFFFFFFFFFF AND PUSH2 0x5FC PUSH2 0xCD4 JUMP JUMPDEST PUSH20 0xFFFFFFFFFFFFFFFFFFFFFFFFFFFFFFFFFFFFFFFF AND EQ DUP1 PUSH2 0x62B JUMPI POP PUSH2 0x62A DUP2 PUSH2 0x625 PUSH2 0xCD4 JUMP JUMPDEST PUSH2 0xB6A JUMP JUMPDEST JUMPDEST PUSH2 0x66A JUMPI PUSH1 0x40 MLOAD PUSH32 0x8C379A000000000000000000000000000000000000000000000000000000000 DUP2 MSTORE PUSH1 0x4 ADD PUSH2 0x661 SWAP1 PUSH2 0x2490 JUMP JUMPDEST PUSH1 0x40 MLOAD DUP1 SWAP2 SUB SWAP1 REVERT JUMPDEST PUSH2 0x674 DUP4 DUP4 PUSH2 0xCDC JUMP JUMPDEST POP POP POP JUMP JUMPDEST PUSH1 0x0 PUSH32 0x895C277367FF99B8C0DEC875F3149FC2C82DF592F63CA6F0747AC2095169087 DUP6 DUP6 DUP6 DUP6 PUSH1 0x40 MLOAD PUSH2 0x6B0 SWAP5 SWAP4 SWAP3 SWAP2 SWAP1 PUSH2 0x2505 JUMP JUMPDEST PUSH1 0x40 MLOAD DUP1 SWAP2 SUB SWAP1 LOG1 PUSH32 0x150B7A023D4804D13E8C85FB27262CB750CF6BA9F9DD3BB30D90F482CEEB4B1F SWAP1 POP SWAP5 SWAP4 POP POP POP POP JUMP JUMPDEST PUSH2 0x6F4 PUSH2 0x6EE PUSH2 0xCD4 JUMP JUMPDEST DUP3 PUSH2 0xD95 JUMP JUMPDEST PUSH2 0x733 JUMPI PUSH1 0x40 MLOAD PUSH32 0x8C379A000000000000000000000000000000000000000000000000000000000 DUP2 MSTORE PUSH1 0x4 ADD PUSH2 0x72A SWAP1 PUSH2 0x25C3 JUMP JUMPDEST PUSH1 0x40 MLOAD DUP1 SWAP2 SUB SWAP1 REVERT JUMPDEST PUSH2 0x73E DUP4 DUP4 DUP4 PUSH2 0xE73 JUMP JUMPDEST POP POP POP JUMP JUMPDEST PUSH2 0x75E DUP4 DUP4 DUP4 PUSH1 0x40 MLOAD DUP1 PUSH1 0x20 ADD PUSH1 0x40 MSTORE DUP1 PUSH1 0x0 DUP2 MSTORE POP PUSH2 0x97F JUMP JUMPDEST POP POP POP JUMP JUMPDEST PUSH2 0x76C DUP2 PUSH2 0x10D9 JUMP JUMPDEST POP JUMP JUMPDEST PUSH1 0x0 DUP1 PUSH1 0x2 PUSH1 0x0 DUP5 DUP2 MSTORE PUSH1 0x20 ADD SWAP1 DUP2 MSTORE PUSH1 0x20 ADD PUSH1 0x0 KECCAK256 PUSH1 0x0 SWAP1 SLOAD SWAP1 PUSH2 0x100 EXP SWAP1 DIV PUSH20 0xFFFFFFFFFFFFFFFFFFFFFFFFFFFFFFFFFFFFFFFF AND SWAP1 POP PUSH1 0x0 PUSH20 0xFFFFFFFFFFFFFFFFFFFFFFFFFFFFFFFFFFFFFFFF AND DUP2 PUSH20 0xFFFFFFFFFFFFFFFFFFFFFFFFFFFFFFFFFFFFFFFF AND SUB PUSH2 0x817 JUMPI PUSH1 0x40 MLOAD PUSH32 0x8C379A000000000000000000000000000000000000000000000000000000000 DUP2 MSTORE PUSH1 0x4 ADD PUSH2 0x80E SWAP1 PUSH2 0x2655 JUMP JUMPDEST PUSH1 0x40 MLOAD DUP1 SWAP2 SUB SWAP1 REVERT JUMPDEST DUP1 SWAP2 POP POP SWAP2 SWAP1 POP JUMP JUMPDEST PUSH1 0x0 DUP1 PUSH20 0xFFFFFFFFFFFFFFFFFFFFFFFFFFFFFFFFFFFFFFFF AND DUP3 PUSH20 0xFFFFFFFFFFFFFFFFFFFFFFFFFFFFFFFFFFFFFFFF AND SUB PUSH2 0x890 JUMPI PUSH1 0x40 MLOAD PUSH32 0x8C379A000000000000000000000000000000000000000000000000000000000 DUP2 MSTORE PUSH1 0x4 ADD PUSH2 0x887 SWAP1 PUSH2 0x26E7 JUMP JUMPDEST PUSH1 0x40 MLOAD DUP1 SWAP2 SUB SWAP1 REVERT JUMPDEST PUSH1 0x3 PUSH1 0x0 DUP4 PUSH20 0xFFFFFFFFFFFFFFFFFFFFFFFFFFFFFFFFFFFFFFFF AND PUSH20 0xFFFFFFFFFFFFFFFFFFFFFFFFFFFFFFFFFFFFFFFF AND DUP2 MSTORE PUSH1 0x20 ADD SWAP1 DUP2 MSTORE PUSH1 0x20 ADD PUSH1 0x0 KECCAK256 SLOAD SWAP1 POP SWAP2 SWAP1 POP JUMP JUMPDEST PUSH1 0x60 PUSH1 0x1 DUP1 SLOAD PUSH2 0x8E6 SWAP1 PUSH2 0x22C9 JUMP JUMPDEST DUP1 PUSH1 0x1F ADD PUSH1 0x20 DUP1 SWAP2 DIV MUL PUSH1 0x20 ADD PUSH1 0x40 MLOAD SWAP1 DUP2 ADD PUSH1 0x40 MSTORE DUP1 SWAP3 SWAP2 SWAP1 DUP2 DUP2 MSTORE PUSH1 0x20 ADD DUP3 DUP1 SLOAD PUSH2 0x912 SWAP1 PUSH2 0x22C9 JUMP JUMPDEST DUP1 ISZERO PUSH2 0x95F JUMPI DUP1 PUSH1 0x1F LT PUSH2 0x934 JUMPI PUSH2 0x100 DUP1 DUP4 SLOAD DIV MUL DUP4 MSTORE SWAP2 PUSH1 0x20 ADD SWAP2 PUSH2 0x95F JUMP JUMPDEST DUP3 ADD SWAP2 SWAP1 PUSH1 0x0 MSTORE PUSH1 0x20 PUSH1 0x0 KECCAK256 SWAP1 JUMPDEST DUP2 SLOAD DUP2 MSTORE SWAP1 PUSH1 0x1 ADD SWAP1 PUSH1 0x20 ADD DUP1 DUP4 GT PUSH2 0x942 JUMPI DUP3 SWAP1 SUB PUSH1 0x1F AND DUP3 ADD SWAP2 JUMPDEST POP POP POP POP POP SWAP1 POP SWAP1 JUMP JUMPDEST PUSH2 0x97B PUSH2 0x974 PUSH2 0xCD4 JUMP JUMPDEST DUP4 DUP4 PUSH2 0x112C JUMP JUMPDEST POP POP JUMP JUMPDEST PUSH2 0x990 PUSH2 0x98A PUSH2 0xCD4 JUMP JUMPDEST DUP4 PUSH2 0xD95 JUMP JUMPDEST PUSH2 0x9CF JUMPI PUSH1 0x40 MLOAD PUSH32 0x8C379A000000000000000000000000000000000000000000000000000000000 DUP2 MSTORE PUSH1 0x4 ADD PUSH2 0x9C6 SWAP1 PUSH2 0x25C3 JUMP JUMPDEST PUSH1 0x40 MLOAD DUP1 SWAP2 SUB SWAP1 REVERT JUMPDEST PUSH2 0x9DB DUP5 DUP5 DUP5 DUP5 PUSH2 0x1298 JUMP JUMPDEST POP POP POP POP JUMP JUMPDEST PUSH1 0x60 PUSH2 0x9EC DUP3 PUSH2 0xC68 JUMP JUMPDEST PUSH2 0xA2B JUMPI PUSH1 0x40 MLOAD PUSH32 0x8C379A000000000000000000000000000000000000000000000000000000000 DUP2 MSTORE PUSH1 0x4 ADD PUSH2 0xA22 SWAP1 PUSH2 0x2779 JUMP JUMPDEST PUSH1 0x40 MLOAD DUP1 SWAP2 SUB SWAP1 REVERT JUMPDEST PUSH1 0x0 PUSH1 0x6 PUSH1 0x0 DUP5 DUP2 MSTORE PUSH1 0x20 ADD SWAP1 DUP2 MSTORE PUSH1 0x20 ADD PUSH1 0x0 KECCAK256 DUP1 SLOAD PUSH2 0xA4B SWAP1 PUSH2 0x22C9 JUMP JUMPDEST DUP1 PUSH1 0x1F ADD PUSH1 0x20 DUP1 SWAP2 DIV MUL PUSH1 0x20 ADD PUSH1 0x40 MLOAD SWAP1 DUP2 ADD PUSH1 0x40 MSTORE DUP1 SWAP3 SWAP2 SWAP1 DUP2 DUP2 MSTORE PUSH1 0x20 ADD DUP3 DUP1 SLOAD PUSH2 0xA77 SWAP1 PUSH2 0x22C9 JUMP JUMPDEST DUP1 ISZERO PUSH2 0xAC4 JUMPI DUP1 PUSH1 0x1F LT PUSH2 0xA99 JUMPI PUSH2 0x100 DUP1 DUP4 SLOAD DIV MUL DUP4 MSTORE SWAP2 PUSH1 0x20 ADD SWAP2 PUSH2 0xAC4 JUMP JUMPDEST DUP3 ADD SWAP2 SWAP1 PUSH1 0x0 MSTORE PUSH1 0x20 PUSH1 0x0 KECCAK256 SWAP1 JUMPDEST DUP2 SLOAD DUP2 MSTORE SWAP1 PUSH1 0x1 ADD SWAP1 PUSH1 0x20 ADD DUP1 DUP4 GT PUSH2 0xAA7 JUMPI DUP3 SWAP1 SUB PUSH1 0x1F AND DUP3 ADD SWAP2 JUMPDEST POP POP POP POP POP SWAP1 POP PUSH1 0x0 PUSH2 0xAD5 PUSH2 0x12F4 JUMP JUMPDEST SWAP1 POP PUSH1 0x0 DUP2 MLOAD SUB PUSH2 0xAEA JUMPI DUP2 SWAP3 POP POP POP PUSH2 0xB2D JUMP JUMPDEST PUSH1 0x0 DUP3 MLOAD GT ISZERO PUSH2 0xB1F JUMPI DUP1 DUP3 PUSH1 0x40 MLOAD PUSH1 0x20 ADD PUSH2 0xB07 SWAP3 SWAP2 SWAP1 PUSH2 0x27D5 JUMP JUMPDEST PUSH1 0x40 MLOAD PUSH1 0x20 DUP2 DUP4 SUB SUB DUP2 MSTORE SWAP1 PUSH1 0x40 MSTORE SWAP3 POP POP POP PUSH2 0xB2D JUMP JUMPDEST PUSH2 0xB28 DUP5 PUSH2 0x130B JUMP JUMPDEST SWAP3 POP POP POP JUMPDEST SWAP2 SWAP1 POP JUMP JUMPDEST PUSH1 0x0 PUSH2 0xB3E PUSH1 0x7 PUSH2 0x13B2 JUMP JUMPDEST PUSH1 0x0 PUSH2 0xB4A PUSH1 0x7 PUSH2 0x13C8 JUMP JUMPDEST SWAP1 POP PUSH2 0xB56 DUP5 DUP3 PUSH2 0x13D6 JUMP JUMPDEST PUSH2 0xB60 DUP2 DUP5 PUSH2 0x13F4 JUMP JUMPDEST DUP1 SWAP2 POP POP SWAP3 SWAP2 POP POP JUMP JUMPDEST PUSH1 0x0 PUSH1 0x5 PUSH1 0x0 DUP5 PUSH20 0xFFFFFFFFFFFFFFFFFFFFFFFFFFFFFFFFFFFFFFFF AND PUSH20 0xFFFFFFFFFFFFFFFFFFFFFFFFFFFFFFFFFFFFFFFF AND DUP2 MSTORE PUSH1 0x20 ADD SWAP1 DUP2 MSTORE PUSH1 0x20 ADD PUSH1 0x0 KECCAK256 PUSH1 0x0 DUP4 PUSH20 0xFFFFFFFFFFFFFFFFFFFFFFFFFFFFFFFFFFFFFFFF AND PUSH20 0xFFFFFFFFFFFFFFFFFFFFFFFFFFFFFFFFFFFFFFFF AND DUP2 MSTORE PUSH1 0x20 ADD SWAP1 DUP2 MSTORE PUSH1 0x20 ADD PUSH1 0x0 KECCAK256 PUSH1 0x0 SWAP1 SLOAD SWAP1 PUSH2 0x100 EXP SWAP1 DIV PUSH1 0xFF AND SWAP1 POP SWAP3 SWAP2 POP POP JUMP JUMPDEST PUSH1 0x0 PUSH32 0x1FFC9A700000000000000000000000000000000000000000000000000000000 PUSH28 0xFFFFFFFFFFFFFFFFFFFFFFFFFFFFFFFFFFFFFFFFFFFFFFFFFFFFFFFF NOT AND DUP3 PUSH28 0xFFFFFFFFFFFFFFFFFFFFFFFFFFFFFFFFFFFFFFFFFFFFFFFFFFFFFFFF NOT AND EQ SWAP1 POP SWAP2 SWAP1 POP JUMP JUMPDEST PUSH1 0x0 DUP1 PUSH20 0xFFFFFFFFFFFFFFFFFFFFFFFFFFFFFFFFFFFFFFFF AND PUSH1 0x2 PUSH1 0x0 DUP5 DUP2 MSTORE PUSH1 0x20 ADD SWAP1 DUP2 MSTORE PUSH1 0x20 ADD PUSH1 0x0 KECCAK256 PUSH1 0x0 SWAP1 SLOAD SWAP1 PUSH2 0x100 EXP SWAP1 DIV PUSH20 0xFFFFFFFFFFFFFFFFFFFFFFFFFFFFFFFFFFFFFFFF AND PUSH20 0xFFFFFFFFFFFFFFFFFFFFFFFFFFFFFFFFFFFFFFFF AND EQ ISZERO SWAP1 POP SWAP2 SWAP1 POP JUMP JUMPDEST PUSH1 0x0 CALLER SWAP1 POP SWAP1 JUMP JUMPDEST DUP2 PUSH1 0x4 PUSH1 0x0 DUP4 DUP2 MSTORE PUSH1 0x20 ADD SWAP1 DUP2 MSTORE PUSH1 0x20 ADD PUSH1 0x0 KECCAK256 PUSH1 0x0 PUSH2 0x100 EXP DUP2 SLOAD DUP2 PUSH20 0xFFFFFFFFFFFFFFFFFFFFFFFFFFFFFFFFFFFFFFFF MUL NOT AND SWAP1 DUP4 PUSH20 0xFFFFFFFFFFFFFFFFFFFFFFFFFFFFFFFFFFFFFFFF AND MUL OR SWAP1 SSTORE POP DUP1 DUP3 PUSH20 0xFFFFFFFFFFFFFFFFFFFFFFFFFFFFFFFFFFFFFFFF AND PUSH2 0xD4F DUP4 PUSH2 0x76F JUMP JUMPDEST PUSH20 0xFFFFFFFFFFFFFFFFFFFFFFFFFFFFFFFFFFFFFFFF AND PUSH32 0x8C5BE1E5EBEC7D5BD14F71427D1E84F3DD0314C0F7B2291E5B200AC8C7C3B925 PUSH1 0x40 MLOAD PUSH1 0x40 MLOAD DUP1 SWAP2 SUB SWAP1 LOG4 POP POP JUMP JUMPDEST PUSH1 0x0 PUSH2 0xDA0 DUP3 PUSH2 0xC68 JUMP JUMPDEST PUSH2 0xDDF JUMPI PUSH1 0x40 MLOAD PUSH32 0x8C379A000000000000000000000000000000000000000000000000000000000 DUP2 MSTORE PUSH1 0x4 ADD PUSH2 0xDD6 SWAP1 PUSH2 0x286B JUMP JUMPDEST PUSH1 0x40 MLOAD DUP1 SWAP2 SUB SWAP1 REVERT JUMPDEST PUSH1 0x0 PUSH2 0xDEA DUP4 PUSH2 0x76F JUMP JUMPDEST SWAP1 POP DUP1 PUSH20 0xFFFFFFFFFFFFFFFFFFFFFFFFFFFFFFFFFFFFFFFF AND DUP5 PUSH20 0xFFFFFFFFFFFFFFFFFFFFFFFFFFFFFFFFFFFFFFFF AND EQ DUP1 PUSH2 0xE59 JUMPI POP DUP4 PUSH20 0xFFFFFFFFFFFFFFFFFFFFFFFFFFFFFFFFFFFFFFFF AND PUSH2 0xE41 DUP5 PUSH2 0x4DD JUMP JUMPDEST PUSH20 0xFFFFFFFFFFFFFFFFFFFFFFFFFFFFFFFFFFFFFFFF AND EQ JUMPDEST DUP1 PUSH2 0xE6A JUMPI POP PUSH2 0xE69 DUP2 DUP6 PUSH2 0xB6A JUMP JUMPDEST JUMPDEST SWAP2 POP POP SWAP3 SWAP2 POP POP JUMP JUMPDEST DUP3 PUSH20 0xFFFFFFFFFFFFFFFFFFFFFFFFFFFFFFFFFFFFFFFF AND PUSH2 0xE93 DUP3 PUSH2 0x76F JUMP JUMPDEST PUSH20 0xFFFFFFFFFFFFFFFFFFFFFFFFFFFFFFFFFFFFFFFF AND EQ PUSH2 0xEE9 JUMPI PUSH1 0x40 MLOAD PUSH32 0x8C379A000000000000000000000000000000000000000000000000000000000 DUP2 MSTORE PUSH1 0x4 ADD PUSH2 0xEE0 SWAP1 PUSH2 0x28FD JUMP JUMPDEST PUSH1 0x40 MLOAD DUP1 SWAP2 SUB SWAP1 REVERT JUMPDEST PUSH1 0x0 PUSH20 0xFFFFFFFFFFFFFFFFFFFFFFFFFFFFFFFFFFFFFFFF AND DUP3 PUSH20 0xFFFFFFFFFFFFFFFFFFFFFFFFFFFFFFFFFFFFFFFF AND SUB PUSH2 0xF58 JUMPI PUSH1 0x40 MLOAD PUSH32 0x8C379A000000000000000000000000000000000000000000000000000000000 DUP2 MSTORE PUSH1 0x4 ADD PUSH2 0xF4F SWAP1 PUSH2 0x298F JUMP JUMPDEST PUSH1 0x40 MLOAD DUP1 SWAP2 SUB SWAP1 REVERT JUMPDEST PUSH2 0xF63 DUP4 DUP4 DUP4 PUSH2 0x1468 JUMP JUMPDEST PUSH2 0xF6E PUSH1 0x0 DUP3 PUSH2 0xCDC JUMP JUMPDEST PUSH1 0x1 PUSH1 0x3 PUSH1 0x0 DUP6 PUSH20 0xFFFFFFFFFFFFFFFFFFFFFFFFFFFFFFFFFFFFFFFF AND PUSH20 0xFFFFFFFFFFFFFFFFFFFFFFFFFFFFFFFFFFFFFFFF AND DUP2 MSTORE PUSH1 0x20 ADD SWAP1 DUP2 MSTORE PUSH1 0x20 ADD PUSH1 0x0 KECCAK256 PUSH1 0x0 DUP3 DUP3 SLOAD PUSH2 0xFBE SWAP2 SWAP1 PUSH2 0x29DE JUMP JUMPDEST SWAP3 POP POP DUP2 SWAP1 SSTORE POP PUSH1 0x1 PUSH1 0x3 PUSH1 0x0 DUP5 PUSH20 0xFFFFFFFFFFFFFFFFFFFFFFFFFFFFFFFFFFFFFFFF AND PUSH20 0xFFFFFFFFFFFFFFFFFFFFFFFFFFFFFFFFFFFFFFFF AND DUP2 MSTORE PUSH1 0x20 ADD SWAP1 DUP2 MSTORE PUSH1 0x20 ADD PUSH1 0x0 KECCAK256 PUSH1 0x0 DUP3 DUP3 SLOAD PUSH2 0x1015 SWAP2 SWAP1 PUSH2 0x2A12 JUMP JUMPDEST SWAP3 POP POP DUP2 SWAP1 SSTORE POP DUP2 PUSH1 0x2 PUSH1 0x0 DUP4 DUP2 MSTORE PUSH1 0x20 ADD SWAP1 DUP2 MSTORE PUSH1 0x20 ADD PUSH1 0x0 KECCAK256 PUSH1 0x0 PUSH2 0x100 EXP DUP2 SLOAD DUP2 PUSH20 0xFFFFFFFFFFFFFFFFFFFFFFFFFFFFFFFFFFFFFFFF MUL NOT AND SWAP1 DUP4 PUSH20 0xFFFFFFFFFFFFFFFFFFFFFFFFFFFFFFFFFFFFFFFF AND MUL OR SWAP1 SSTORE POP DUP1 DUP3 PUSH20 0xFFFFFFFFFFFFFFFFFFFFFFFFFFFFFFFFFFFFFFFF AND DUP5 PUSH20 0xFFFFFFFFFFFFFFFFFFFFFFFFFFFFFFFFFFFFFFFF AND PUSH32 0xDDF252AD1BE2C89B69C2B068FC378DAA952BA7F163C4A11628F55A4DF523B3EF PUSH1 0x40 MLOAD PUSH1 0x40 MLOAD DUP1 SWAP2 SUB SWAP1 LOG4 PUSH2 0x10D4 DUP4 DUP4 DUP4 PUSH2 0x146D JUMP JUMPDEST POP POP POP JUMP JUMPDEST PUSH2 0x10E2 DUP2 PUSH2 0x1472 JUMP JUMPDEST PUSH1 0x0 PUSH1 0x6 PUSH1 0x0 DUP4 DUP2 MSTORE PUSH1 0x20 ADD SWAP1 DUP2 MSTORE PUSH1 0x20 ADD PUSH1 0x0 KECCAK256 DUP1 SLOAD PUSH2 0x1102 SWAP1 PUSH2 0x22C9 JUMP JUMPDEST SWAP1 POP EQ PUSH2 0x1129 JUMPI PUSH1 0x6 PUSH1 0x0 DUP3 DUP2 MSTORE PUSH1 0x20 ADD SWAP1 DUP2 MSTORE PUSH1 0x20 ADD PUSH1 0x0 KECCAK256 PUSH1 0x0 PUSH2 0x1128 SWAP2 SWAP1 PUSH2 0x1ACD JUMP JUMPDEST JUMPDEST POP JUMP JUMPDEST DUP2 PUSH20 0xFFFFFFFFFFFFFFFFFFFFFFFFFFFFFFFFFFFFFFFF AND DUP4 PUSH20 0xFFFFFFFFFFFFFFFFFFFFFFFFFFFFFFFFFFFFFFFF AND SUB PUSH2 0x119A JUMPI PUSH1 0x40 MLOAD PUSH32 0x8C379A000000000000000000000000000000000000000000000000000000000 DUP2 MSTORE PUSH1 0x4 ADD PUSH2 0x1191 SWAP1 PUSH2 0x2AB4 JUMP JUMPDEST PUSH1 0x40 MLOAD DUP1 SWAP2 SUB SWAP1 REVERT JUMPDEST DUP1 PUSH1 0x5 PUSH1 0x0 DUP6 PUSH20 0xFFFFFFFFFFFFFFFFFFFFFFFFFFFFFFFFFFFFFFFF AND PUSH20 0xFFFFFFFFFFFFFFFFFFFFFFFFFFFFFFFFFFFFFFFF AND DUP2 MSTORE PUSH1 0x20 ADD SWAP1 DUP2 MSTORE PUSH1 0x20 ADD PUSH1 0x0 KECCAK256 PUSH1 0x0 DUP5 PUSH20 0xFFFFFFFFFFFFFFFFFFFFFFFFFFFFFFFFFFFFFFFF AND PUSH20 0xFFFFFFFFFFFFFFFFFFFFFFFFFFFFFFFFFFFFFFFF AND DUP2 MSTORE PUSH1 0x20 ADD SWAP1 DUP2 MSTORE PUSH1 0x20 ADD PUSH1 0x0 KECCAK256 PUSH1 0x0 PUSH2 0x100 EXP DUP2 SLOAD DUP2 PUSH1 0xFF MUL NOT AND SWAP1 DUP4 ISZERO ISZERO MUL OR SWAP1 SSTORE POP DUP2 PUSH20 0xFFFFFFFFFFFFFFFFFFFFFFFFFFFFFFFFFFFFFFFF AND DUP4 PUSH20 0xFFFFFFFFFFFFFFFFFFFFFFFFFFFFFFFFFFFFFFFF AND PUSH32 0x17307EAB39AB6107E8899845AD3D59BD9653F200F220920489CA2B5937696C31 DUP4 PUSH1 0x40 MLOAD PUSH2 0x128B SWAP2 SWAP1 PUSH2 0x1C64 JUMP JUMPDEST PUSH1 0x40 MLOAD DUP1 SWAP2 SUB SWAP1 LOG3 POP POP POP JUMP JUMPDEST PUSH2 0x12A3 DUP5 DUP5 DUP5 PUSH2 0xE73 JUMP JUMPDEST PUSH2 0x12AF DUP5 DUP5 DUP5 DUP5 PUSH2 0x158F JUMP JUMPDEST PUSH2 0x12EE JUMPI PUSH1 0x40 MLOAD PUSH32 0x8C379A000000000000000000000000000000000000000000000000000000000 DUP2 MSTORE PUSH1 0x4 ADD PUSH2 0x12E5 SWAP1 PUSH2 0x2B46 JUMP JUMPDEST PUSH1 0x40 MLOAD DUP1 SWAP2 SUB SWAP1 REVERT JUMPDEST POP POP POP POP JUMP JUMPDEST PUSH1 0x60 PUSH1 0x40 MLOAD DUP1 PUSH1 0x20 ADD PUSH1 0x40 MSTORE DUP1 PUSH1 0x0 DUP2 MSTORE POP SWAP1 POP SWAP1 JUMP JUMPDEST PUSH1 0x60 PUSH2 0x1316 DUP3 PUSH2 0xC68 JUMP JUMPDEST PUSH2 0x1355 JUMPI PUSH1 0x40 MLOAD PUSH32 0x8C379A000000000000000000000000000000000000000000000000000000000 DUP2 MSTORE PUSH1 0x4 ADD PUSH2 0x134C SWAP1 PUSH2 0x2BD8 JUMP JUMPDEST PUSH1 0x40 MLOAD DUP1 SWAP2 SUB SWAP1 REVERT JUMPDEST PUSH1 0x0 PUSH2 0x135F PUSH2 0x12F4 JUMP JUMPDEST SWAP1 POP PUSH1 0x0 DUP2 MLOAD GT PUSH2 0x137F JUMPI PUSH1 0x40 MLOAD DUP1 PUSH1 0x20 ADD PUSH1 0x40 MSTORE DUP1 PUSH1 0x0 DUP2 MSTORE POP PUSH2 0x13AA JUMP JUMPDEST DUP1 PUSH2 0x1389 DUP5 PUSH2 0x1716 JUMP JUMPDEST PUSH1 0x40 MLOAD PUSH1 0x20 ADD PUSH2 0x139A SWAP3 SWAP2 SWAP1 PUSH2 0x27D5 JUMP JUMPDEST PUSH1 0x40 MLOAD PUSH1 0x20 DUP2 DUP4 SUB SUB DUP2 MSTORE SWAP1 PUSH1 0x40 MSTORE JUMPDEST SWAP2 POP POP SWAP2 SWAP1 POP JUMP JUMPDEST PUSH1 0x1 DUP2 PUSH1 0x0 ADD PUSH1 0x0 DUP3 DUP3 SLOAD ADD SWAP3 POP POP DUP2 SWAP1 SSTORE POP POP JUMP JUMPDEST PUSH1 0x0 DUP2 PUSH1 0x0 ADD SLOAD SWAP1 POP SWAP2 SWAP1 POP JUMP JUMPDEST PUSH2 0x13F0 DUP3 DUP3 PUSH1 0x40 MLOAD DUP1 PUSH1 0x20 ADD PUSH1 0x40 MSTORE DUP1 PUSH1 0x0 DUP2 MSTORE POP PUSH2 0x1876 JUMP JUMPDEST POP POP JUMP JUMPDEST PUSH2 0x13FD DUP3 PUSH2 0xC68 JUMP JUMPDEST PUSH2 0x143C JUMPI PUSH1 0x40 MLOAD PUSH32 0x8C379A000000000000000000000000000000000000000000000000000000000 DUP2 MSTORE PUSH1 0x4 ADD PUSH2 0x1433 SWAP1 PUSH2 0x2C6A JUMP JUMPDEST PUSH1 0x40 MLOAD DUP1 SWAP2 SUB SWAP1 REVERT JUMPDEST DUP1 PUSH1 0x6 PUSH1 0x0 DUP5 DUP2 MSTORE PUSH1 0x20 ADD SWAP1 DUP2 MSTORE PUSH1 0x20 ADD PUSH1 0x0 KECCAK256 SWAP1 DUP1 MLOAD SWAP1 PUSH1 0x20 ADD SWAP1 PUSH2 0x1463 SWAP3 SWAP2 SWAP1 PUSH2 0x1B0D JUMP JUMPDEST POP POP POP JUMP JUMPDEST POP POP POP JUMP JUMPDEST POP POP POP JUMP JUMPDEST PUSH1 0x0 PUSH2 0x147D DUP3 PUSH2 0x76F JUMP JUMPDEST SWAP1 POP PUSH2 0x148B DUP2 PUSH1 0x0 DUP5 PUSH2 0x1468 JUMP JUMPDEST PUSH2 0x1496 PUSH1 0x0 DUP4 PUSH2 0xCDC JUMP JUMPDEST PUSH1 0x1 PUSH1 0x3 PUSH1 0x0 DUP4 PUSH20 0xFFFFFFFFFFFFFFFFFFFFFFFFFFFFFFFFFFFFFFFF AND PUSH20 0xFFFFFFFFFFFFFFFFFFFFFFFFFFFFFFFFFFFFFFFF AND DUP2 MSTORE PUSH1 0x20 ADD SWAP1 DUP2 MSTORE PUSH1 0x20 ADD PUSH1 0x0 KECCAK256 PUSH1 0x0 DUP3 DUP3 SLOAD PUSH2 0x14E6 SWAP2 SWAP1 PUSH2 0x29DE JUMP JUMPDEST SWAP3 POP POP DUP2 SWAP1 SSTORE POP PUSH1 0x2 PUSH1 0x0 DUP4 DUP2 MSTORE PUSH1 0x20 ADD SWAP1 DUP2 MSTORE PUSH1 0x20 ADD PUSH1 0x0 KECCAK256 PUSH1 0x0 PUSH2 0x100 EXP DUP2 SLOAD SWAP1 PUSH20 0xFFFFFFFFFFFFFFFFFFFFFFFFFFFFFFFFFFFFFFFF MUL NOT AND SWAP1 SSTORE DUP2 PUSH1 0x0 PUSH20 0xFFFFFFFFFFFFFFFFFFFFFFFFFFFFFFFFFFFFFFFF AND DUP3 PUSH20 0xFFFFFFFFFFFFFFFFFFFFFFFFFFFFFFFFFFFFFFFF AND PUSH32 0xDDF252AD1BE2C89B69C2B068FC378DAA952BA7F163C4A11628F55A4DF523B3EF PUSH1 0x40 MLOAD PUSH1 0x40 MLOAD DUP1 SWAP2 SUB SWAP1 LOG4 PUSH2 0x158B DUP2 PUSH1 0x0 DUP5 PUSH2 0x146D JUMP JUMPDEST POP POP JUMP JUMPDEST PUSH1 0x0 PUSH2 0x15B0 DUP5 PUSH20 0xFFFFFFFFFFFFFFFFFFFFFFFFFFFFFFFFFFFFFFFF AND PUSH2 0x18D1 JUMP JUMPDEST ISZERO PUSH2 0x1709 JUMPI DUP4 PUSH20 0xFFFFFFFFFFFFFFFFFFFFFFFFFFFFFFFFFFFFFFFF AND PUSH4 0x150B7A02 PUSH2 0x15D9 PUSH2 0xCD4 JUMP JUMPDEST DUP8 DUP7 DUP7 PUSH1 0x40 MLOAD DUP6 PUSH4 0xFFFFFFFF AND PUSH1 0xE0 SHL DUP2 MSTORE PUSH1 0x4 ADD PUSH2 0x15FB SWAP5 SWAP4 SWAP3 SWAP2 SWAP1 PUSH2 0x2505 JUMP JUMPDEST PUSH1 0x20 PUSH1 0x40 MLOAD DUP1 DUP4 SUB DUP2 PUSH1 0x0 DUP8 GAS CALL SWAP3 POP POP POP DUP1 ISZERO PUSH2 0x1637 JUMPI POP PUSH1 0x40 MLOAD RETURNDATASIZE PUSH1 0x1F NOT PUSH1 0x1F DUP3 ADD AND DUP3 ADD DUP1 PUSH1 0x40 MSTORE POP DUP2 ADD SWAP1 PUSH2 0x1634 SWAP2 SWAP1 PUSH2 0x2C9F JUMP JUMPDEST PUSH1 0x1 JUMPDEST PUSH2 0x16B9 JUMPI RETURNDATASIZE DUP1 PUSH1 0x0 DUP2 EQ PUSH2 0x1667 JUMPI PUSH1 0x40 MLOAD SWAP2 POP PUSH1 0x1F NOT PUSH1 0x3F RETURNDATASIZE ADD AND DUP3 ADD PUSH1 0x40 MSTORE RETURNDATASIZE DUP3 MSTORE RETURNDATASIZE PUSH1 0x0 PUSH1 0x20 DUP5 ADD RETURNDATACOPY PUSH2 0x166C JUMP JUMPDEST PUSH1 0x60 SWAP2 POP JUMPDEST POP PUSH1 0x0 DUP2 MLOAD SUB PUSH2 0x16B1 JUMPI PUSH1 0x40 MLOAD PUSH32 0x8C379A000000000000000000000000000000000000000000000000000000000 DUP2 MSTORE PUSH1 0x4 ADD PUSH2 0x16A8 SWAP1 PUSH2 0x2B46 JUMP JUMPDEST PUSH1 0x40 MLOAD DUP1 SWAP2 SUB SWAP1 REVERT JUMPDEST DUP1 MLOAD DUP2 PUSH1 0x20 ADD REVERT JUMPDEST PUSH4 0x150B7A02 PUSH1 0xE0 SHL PUSH28 0xFFFFFFFFFFFFFFFFFFFFFFFFFFFFFFFFFFFFFFFFFFFFFFFFFFFFFFFF NOT AND DUP2 PUSH28 0xFFFFFFFFFFFFFFFFFFFFFFFFFFFFFFFFFFFFFFFFFFFFFFFFFFFFFFFF NOT AND EQ SWAP2 POP POP PUSH2 0x170E JUMP JUMPDEST PUSH1 0x1 SWAP1 POP JUMPDEST SWAP5 SWAP4 POP POP POP POP JUMP JUMPDEST PUSH1 0x60 PUSH1 0x0 DUP3 SUB PUSH2 0x175D JUMPI PUSH1 0x40 MLOAD DUP1 PUSH1 0x40 ADD PUSH1 0x40 MSTORE DUP1 PUSH1 0x1 DUP2 MSTORE PUSH1 0x20 ADD PUSH32 0x3000000000000000000000000000000000000000000000000000000000000000 DUP2 MSTORE POP SWAP1 POP PUSH2 0x1871 JUMP JUMPDEST PUSH1 0x0 DUP3 SWAP1 POP PUSH1 0x0 JUMPDEST PUSH1 0x0 DUP3 EQ PUSH2 0x178F JUMPI DUP1 DUP1 PUSH2 0x1778 SWAP1 PUSH2 0x2CCC JUMP JUMPDEST SWAP2 POP POP PUSH1 0xA DUP3 PUSH2 0x1788 SWAP2 SWAP1 PUSH2 0x2D43 JUMP JUMPDEST SWAP2 POP PUSH2 0x1765 JUMP JUMPDEST PUSH1 0x0 DUP2 PUSH8 0xFFFFFFFFFFFFFFFF DUP2 GT ISZERO PUSH2 0x17AB JUMPI PUSH2 0x17AA PUSH2 0x1E6F JUMP JUMPDEST JUMPDEST PUSH1 0x40 MLOAD SWAP1 DUP1 DUP3 MSTORE DUP1 PUSH1 0x1F ADD PUSH1 0x1F NOT AND PUSH1 0x20 ADD DUP3 ADD PUSH1 0x40 MSTORE DUP1 ISZERO PUSH2 0x17DD JUMPI DUP2 PUSH1 0x20 ADD PUSH1 0x1 DUP3 MUL DUP1 CALLDATASIZE DUP4 CALLDATACOPY DUP1 DUP3 ADD SWAP2 POP POP SWAP1 POP JUMPDEST POP SWAP1 POP JUMPDEST PUSH1 0x0 DUP6 EQ PUSH2 0x186A JUMPI PUSH1 0x1 DUP3 PUSH2 0x17F6 SWAP2 SWAP1 PUSH2 0x29DE JUMP JUMPDEST SWAP2 POP PUSH1 0xA DUP6 PUSH2 0x1805 SWAP2 SWAP1 PUSH2 0x2D74 JUMP JUMPDEST PUSH1 0x30 PUSH2 0x1811 SWAP2 SWAP1 PUSH2 0x2A12 JUMP JUMPDEST PUSH1 0xF8 SHL DUP2 DUP4 DUP2 MLOAD DUP2 LT PUSH2 0x1827 JUMPI PUSH2 0x1826 PUSH2 0x2DA5 JUMP JUMPDEST JUMPDEST PUSH1 0x20 ADD ADD SWAP1 PUSH31 0xFFFFFFFFFFFFFFFFFFFFFFFFFFFFFFFFFFFFFFFFFFFFFFFFFFFFFFFFFFFFFF NOT AND SWAP1 DUP2 PUSH1 0x0 BYTE SWAP1 MSTORE8 POP PUSH1 0xA DUP6 PUSH2 0x1863 SWAP2 SWAP1 PUSH2 0x2D43 JUMP JUMPDEST SWAP5 POP PUSH2 0x17E1 JUMP JUMPDEST DUP1 SWAP4 POP POP POP POP JUMPDEST SWAP2 SWAP1 POP JUMP JUMPDEST PUSH2 0x1880 DUP4 DUP4 PUSH2 0x18F4 JUMP JUMPDEST PUSH2 0x188D PUSH1 0x0 DUP5 DUP5 DUP5 PUSH2 0x158F JUMP JUMPDEST PUSH2 0x18CC JUMPI PUSH1 0x40 MLOAD PUSH32 0x8C379A000000000000000000000000000000000000000000000000000000000 DUP2 MSTORE PUSH1 0x4 ADD PUSH2 0x18C3 SWAP1 PUSH2 0x2B46 JUMP JUMPDEST PUSH1 0x40 MLOAD DUP1 SWAP2 SUB SWAP1 REVERT JUMPDEST POP POP POP JUMP JUMPDEST PUSH1 0x0 DUP1 DUP3 PUSH20 0xFFFFFFFFFFFFFFFFFFFFFFFFFFFFFFFFFFFFFFFF AND EXTCODESIZE GT SWAP1 POP SWAP2 SWAP1 POP JUMP JUMPDEST PUSH1 0x0 PUSH20 0xFFFFFFFFFFFFFFFFFFFFFFFFFFFFFFFFFFFFFFFF AND DUP3 PUSH20 0xFFFFFFFFFFFFFFFFFFFFFFFFFFFFFFFFFFFFFFFF AND SUB PUSH2 0x1963 JUMPI PUSH1 0x40 MLOAD PUSH32 0x8C379A000000000000000000000000000000000000000000000000000000000 DUP2 MSTORE PUSH1 0x4 ADD PUSH2 0x195A SWAP1 PUSH2 0x2E20 JUMP JUMPDEST PUSH1 0x40 MLOAD DUP1 SWAP2 SUB SWAP1 REVERT JUMPDEST PUSH2 0x196C DUP2 PUSH2 0xC68 JUMP JUMPDEST ISZERO PUSH2 0x19AC JUMPI PUSH1 0x40 MLOAD PUSH32 0x8C379A000000000000000000000000000000000000000000000000000000000 DUP2 MSTORE PUSH1 0x4 ADD PUSH2 0x19A3 SWAP1 PUSH2 0x2E8C JUMP JUMPDEST PUSH1 0x40 MLOAD DUP1 SWAP2 SUB SWAP1 REVERT JUMPDEST PUSH2 0x19B8 PUSH1 0x0 DUP4 DUP4 PUSH2 0x1468 JUMP JUMPDEST PUSH1 0x1 PUSH1 0x3 PUSH1 0x0 DUP5 PUSH20 0xFFFFFFFFFFFFFFFFFFFFFFFFFFFFFFFFFFFFFFFF AND PUSH20 0xFFFFFFFFFFFFFFFFFFFFFFFFFFFFFFFFFFFFFFFF AND DUP2 MSTORE PUSH1 0x20 ADD SWAP1 DUP2 MSTORE PUSH1 0x20 ADD PUSH1 0x0 KECCAK256 PUSH1 0x0 DUP3 DUP3 SLOAD PUSH2 0x1A08 SWAP2 SWAP1 PUSH2 0x2A12 JUMP JUMPDEST SWAP3 POP POP DUP2 SWAP1 SSTORE POP DUP2 PUSH1 0x2 PUSH1 0x0 DUP4 DUP2 MSTORE PUSH1 0x20 ADD SWAP1 DUP2 MSTORE PUSH1 0x20 ADD PUSH1 0x0 KECCAK256 PUSH1 0x0 PUSH2 0x100 EXP DUP2 SLOAD DUP2 PUSH20 0xFFFFFFFFFFFFFFFFFFFFFFFFFFFFFFFFFFFFFFFF MUL NOT AND SWAP1 DUP4 PUSH20 0xFFFFFFFFFFFFFFFFFFFFFFFFFFFFFFFFFFFFFFFF AND MUL OR SWAP1 SSTORE POP DUP1 DUP3 PUSH20 0xFFFFFFFFFFFFFFFFFFFFFFFFFFFFFFFFFFFFFFFF AND PUSH1 0x0 PUSH20 0xFFFFFFFFFFFFFFFFFFFFFFFFFFFFFFFFFFFFFFFF AND PUSH32 0xDDF252AD1BE2C89B69C2B068FC378DAA952BA7F163C4A11628F55A4DF523B3EF PUSH1 0x40 MLOAD PUSH1 0x40 MLOAD DUP1 SWAP2 SUB SWAP1 LOG4 PUSH2 0x1AC9 PUSH1 0x0 DUP4 DUP4 PUSH2 0x146D JUMP JUMPDEST POP POP JUMP JUMPDEST POP DUP1 SLOAD PUSH2 0x1AD9 SWAP1 PUSH2 0x22C9 JUMP JUMPDEST PUSH1 0x0 DUP3 SSTORE DUP1 PUSH1 0x1F LT PUSH2 0x1AEB JUMPI POP PUSH2 0x1B0A JUMP JUMPDEST PUSH1 0x1F ADD PUSH1 0x20 SWAP1 DIV SWAP1 PUSH1 0x0 MSTORE PUSH1 0x20 PUSH1 0x0 KECCAK256 SWAP1 DUP2 ADD SWAP1 PUSH2 0x1B09 SWAP2 SWAP1 PUSH2 0x1B93 JUMP JUMPDEST JUMPDEST POP JUMP JUMPDEST DUP3 DUP1 SLOAD PUSH2 0x1B19 SWAP1 PUSH2 0x22C9 JUMP JUMPDEST SWAP1 PUSH1 0x0 MSTORE PUSH1 0x20 PUSH1 0x0 KECCAK256 SWAP1 PUSH1 0x1F ADD PUSH1 0x20 SWAP1 DIV DUP2 ADD SWAP3 DUP3 PUSH2 0x1B3B JUMPI PUSH1 0x0 DUP6 SSTORE PUSH2 0x1B82 JUMP JUMPDEST DUP3 PUSH1 0x1F LT PUSH2 0x1B54 JUMPI DUP1 MLOAD PUSH1 0xFF NOT AND DUP4 DUP1 ADD OR DUP6 SSTORE PUSH2 0x1B82 JUMP JUMPDEST DUP3 DUP1 ADD PUSH1 0x1 ADD DUP6 SSTORE DUP3 ISZERO PUSH2 0x1B82 JUMPI SWAP2 DUP3 ADD JUMPDEST DUP3 DUP2 GT ISZERO PUSH2 0x1B81 JUMPI DUP3 MLOAD DUP3 SSTORE SWAP2 PUSH1 0x20 ADD SWAP2 SWAP1 PUSH1 0x1 ADD SWAP1 PUSH2 0x1B66 JUMP JUMPDEST JUMPDEST POP SWAP1 POP PUSH2 0x1B8F SWAP2 SWAP1 PUSH2 0x1B93 JUMP JUMPDEST POP SWAP1 JUMP JUMPDEST JUMPDEST DUP1 DUP3 GT ISZERO PUSH2 0x1BAC JUMPI PUSH1 0x0 DUP2 PUSH1 0x0 SWAP1 SSTORE POP PUSH1 0x1 ADD PUSH2 0x1B94 JUMP JUMPDEST POP SWAP1 JUMP JUMPDEST PUSH1 0x0 PUSH1 0x40 MLOAD SWAP1 POP SWAP1 JUMP JUMPDEST PUSH1 0x0 DUP1 REVERT JUMPDEST PUSH1 0x0 DUP1 REVERT JUMPDEST PUSH1 0x0 PUSH32 0xFFFFFFFF00000000000000000000000000000000000000000000000000000000 DUP3 AND SWAP1 POP SWAP2 SWAP1 POP JUMP JUMPDEST PUSH2 0x1BF9 DUP2 PUSH2 0x1BC4 JUMP JUMPDEST DUP2 EQ PUSH2 0x1C04 JUMPI PUSH1 0x0 DUP1 REVERT JUMPDEST POP JUMP JUMPDEST PUSH1 0x0 DUP2 CALLDATALOAD SWAP1 POP PUSH2 0x1C16 DUP2 PUSH2 0x1BF0 JUMP JUMPDEST SWAP3 SWAP2 POP POP JUMP JUMPDEST PUSH1 0x0 PUSH1 0x20 DUP3 DUP5 SUB SLT ISZERO PUSH2 0x1C32 JUMPI PUSH2 0x1C31 PUSH2 0x1BBA JUMP JUMPDEST JUMPDEST PUSH1 0x0 PUSH2 0x1C40 DUP5 DUP3 DUP6 ADD PUSH2 0x1C07 JUMP JUMPDEST SWAP2 POP POP SWAP3 SWAP2 POP POP JUMP JUMPDEST PUSH1 0x0 DUP2 ISZERO ISZERO SWAP1 POP SWAP2 SWAP1 POP JUMP JUMPDEST PUSH2 0x1C5E DUP2 PUSH2 0x1C49 JUMP JUMPDEST DUP3 MSTORE POP POP JUMP JUMPDEST PUSH1 0x0 PUSH1 0x20 DUP3 ADD SWAP1 POP PUSH2 0x1C79 PUSH1 0x0 DUP4 ADD DUP5 PUSH2 0x1C55 JUMP JUMPDEST SWAP3 SWAP2 POP POP JUMP JUMPDEST PUSH1 0x0 DUP2 MLOAD SWAP1 POP SWAP2 SWAP1 POP JUMP JUMPDEST PUSH1 0x0 DUP3 DUP3 MSTORE PUSH1 0x20 DUP3 ADD SWAP1 POP SWAP3 SWAP2 POP POP JUMP JUMPDEST PUSH1 0x0 JUMPDEST DUP4 DUP2 LT ISZERO PUSH2 0x1CB9 JUMPI DUP1 DUP3 ADD MLOAD DUP2 DUP5 ADD MSTORE PUSH1 0x20 DUP2 ADD SWAP1 POP PUSH2 0x1C9E JUMP JUMPDEST DUP4 DUP2 GT ISZERO PUSH2 0x1CC8 JUMPI PUSH1 0x0 DUP5 DUP5 ADD MSTORE JUMPDEST POP POP POP POP JUMP JUMPDEST PUSH1 0x0 PUSH1 0x1F NOT PUSH1 0x1F DUP4 ADD AND SWAP1 POP SWAP2 SWAP1 POP JUMP JUMPDEST PUSH1 0x0 PUSH2 0x1CEA DUP3 PUSH2 0x1C7F JUMP JUMPDEST PUSH2 0x1CF4 DUP2 DUP6 PUSH2 0x1C8A JUMP JUMPDEST SWAP4 POP PUSH2 0x1D04 DUP2 DUP6 PUSH1 0x20 DUP7 ADD PUSH2 0x1C9B JUMP JUMPDEST PUSH2 0x1D0D DUP2 PUSH2 0x1CCE JUMP JUMPDEST DUP5 ADD SWAP2 POP POP SWAP3 SWAP2 POP POP JUMP JUMPDEST PUSH1 0x0 PUSH1 0x20 DUP3 ADD SWAP1 POP DUP2 DUP2 SUB PUSH1 0x0 DUP4 ADD MSTORE PUSH2 0x1D32 DUP2 DUP5 PUSH2 0x1CDF JUMP JUMPDEST SWAP1 POP SWAP3 SWAP2 POP POP JUMP JUMPDEST PUSH1 0x0 DUP2 SWAP1 POP SWAP2 SWAP1 POP JUMP JUMPDEST PUSH2 0x1D4D DUP2 PUSH2 0x1D3A JUMP JUMPDEST DUP2 EQ PUSH2 0x1D58 JUMPI PUSH1 0x0 DUP1 REVERT JUMPDEST POP JUMP JUMPDEST PUSH1 0x0 DUP2 CALLDATALOAD SWAP1 POP PUSH2 0x1D6A DUP2 PUSH2 0x1D44 JUMP JUMPDEST SWAP3 SWAP2 POP POP JUMP JUMPDEST PUSH1 0x0 PUSH1 0x20 DUP3 DUP5 SUB SLT ISZERO PUSH2 0x1D86 JUMPI PUSH2 0x1D85 PUSH2 0x1BBA JUMP JUMPDEST JUMPDEST PUSH1 0x0 PUSH2 0x1D94 DUP5 DUP3 DUP6 ADD PUSH2 0x1D5B JUMP JUMPDEST SWAP2 POP POP SWAP3 SWAP2 POP POP JUMP JUMPDEST PUSH1 0x0 PUSH20 0xFFFFFFFFFFFFFFFFFFFFFFFFFFFFFFFFFFFFFFFF DUP3 AND SWAP1 POP SWAP2 SWAP1 POP JUMP JUMPDEST PUSH1 0x0 PUSH2 0x1DC8 DUP3 PUSH2 0x1D9D JUMP JUMPDEST SWAP1 POP SWAP2 SWAP1 POP JUMP JUMPDEST PUSH2 0x1DD8 DUP2 PUSH2 0x1DBD JUMP JUMPDEST DUP3 MSTORE POP POP JUMP JUMPDEST PUSH1 0x0 PUSH1 0x20 DUP3 ADD SWAP1 POP PUSH2 0x1DF3 PUSH1 0x0 DUP4 ADD DUP5 PUSH2 0x1DCF JUMP JUMPDEST SWAP3 SWAP2 POP POP JUMP JUMPDEST PUSH2 0x1E02 DUP2 PUSH2 0x1DBD JUMP JUMPDEST DUP2 EQ PUSH2 0x1E0D JUMPI PUSH1 0x0 DUP1 REVERT JUMPDEST POP JUMP JUMPDEST PUSH1 0x0 DUP2 CALLDATALOAD SWAP1 POP PUSH2 0x1E1F DUP2 PUSH2 0x1DF9 JUMP JUMPDEST SWAP3 SWAP2 POP POP JUMP JUMPDEST PUSH1 0x0 DUP1 PUSH1 0x40 DUP4 DUP6 SUB SLT ISZERO PUSH2 0x1E3C JUMPI PUSH2 0x1E3B PUSH2 0x1BBA JUMP JUMPDEST JUMPDEST PUSH1 0x0 PUSH2 0x1E4A DUP6 DUP3 DUP7 ADD PUSH2 0x1E10 JUMP JUMPDEST SWAP3 POP POP PUSH1 0x20 PUSH2 0x1E5B DUP6 DUP3 DUP7 ADD PUSH2 0x1D5B JUMP JUMPDEST SWAP2 POP POP SWAP3 POP SWAP3 SWAP1 POP JUMP JUMPDEST PUSH1 0x0 DUP1 REVERT JUMPDEST PUSH1 0x0 DUP1 REVERT JUMPDEST PUSH32 0x4E487B7100000000000000000000000000000000000000000000000000000000 PUSH1 0x0 MSTORE PUSH1 0x41 PUSH1 0x4 MSTORE PUSH1 0x24 PUSH1 0x0 REVERT JUMPDEST PUSH2 0x1EA7 DUP3 PUSH2 0x1CCE JUMP JUMPDEST DUP2 ADD DUP2 DUP2 LT PUSH8 0xFFFFFFFFFFFFFFFF DUP3 GT OR ISZERO PUSH2 0x1EC6 JUMPI PUSH2 0x1EC5 PUSH2 0x1E6F JUMP JUMPDEST JUMPDEST DUP1 PUSH1 0x40 MSTORE POP POP POP JUMP JUMPDEST PUSH1 0x0 PUSH2 0x1ED9 PUSH2 0x1BB0 JUMP JUMPDEST SWAP1 POP PUSH2 0x1EE5 DUP3 DUP3 PUSH2 0x1E9E JUMP JUMPDEST SWAP2 SWAP1 POP JUMP JUMPDEST PUSH1 0x0 PUSH8 0xFFFFFFFFFFFFFFFF DUP3 GT ISZERO PUSH2 0x1F05 JUMPI PUSH2 0x1F04 PUSH2 0x1E6F JUMP JUMPDEST JUMPDEST PUSH2 0x1F0E DUP3 PUSH2 0x1CCE JUMP JUMPDEST SWAP1 POP PUSH1 0x20 DUP2 ADD SWAP1 POP SWAP2 SWAP1 POP JUMP JUMPDEST DUP3 DUP2 DUP4 CALLDATACOPY PUSH1 0x0 DUP4 DUP4 ADD MSTORE POP POP POP JUMP JUMPDEST PUSH1 0x0 PUSH2 0x1F3D PUSH2 0x1F38 DUP5 PUSH2 0x1EEA JUMP JUMPDEST PUSH2 0x1ECF JUMP JUMPDEST SWAP1 POP DUP3 DUP2 MSTORE PUSH1 0x20 DUP2 ADD DUP5 DUP5 DUP5 ADD GT ISZERO PUSH2 0x1F59 JUMPI PUSH2 0x1F58 PUSH2 0x1E6A JUMP JUMPDEST JUMPDEST PUSH2 0x1F64 DUP5 DUP3 DUP6 PUSH2 0x1F1B JUMP JUMPDEST POP SWAP4 SWAP3 POP POP POP JUMP JUMPDEST PUSH1 0x0 DUP3 PUSH1 0x1F DUP4 ADD SLT PUSH2 0x1F81 JUMPI PUSH2 0x1F80 PUSH2 0x1E65 JUMP JUMPDEST JUMPDEST DUP2 CALLDATALOAD PUSH2 0x1F91 DUP5 DUP3 PUSH1 0x20 DUP7 ADD PUSH2 0x1F2A JUMP JUMPDEST SWAP2 POP POP SWAP3 SWAP2 POP POP JUMP JUMPDEST PUSH1 0x0 DUP1 PUSH1 0x0 DUP1 PUSH1 0x80 DUP6 DUP8 SUB SLT ISZERO PUSH2 0x1FB4 JUMPI PUSH2 0x1FB3 PUSH2 0x1BBA JUMP JUMPDEST JUMPDEST PUSH1 0x0 PUSH2 0x1FC2 DUP8 DUP3 DUP9 ADD PUSH2 0x1E10 JUMP JUMPDEST SWAP5 POP POP PUSH1 0x20 PUSH2 0x1FD3 DUP8 DUP3 DUP9 ADD PUSH2 0x1E10 JUMP JUMPDEST SWAP4 POP POP PUSH1 0x40 PUSH2 0x1FE4 DUP8 DUP3 DUP9 ADD PUSH2 0x1D5B JUMP JUMPDEST SWAP3 POP POP PUSH1 0x60 DUP6 ADD CALLDATALOAD PUSH8 0xFFFFFFFFFFFFFFFF DUP2 GT ISZERO PUSH2 0x2005 JUMPI PUSH2 0x2004 PUSH2 0x1BBF JUMP JUMPDEST JUMPDEST PUSH2 0x2011 DUP8 DUP3 DUP9 ADD PUSH2 0x1F6C JUMP JUMPDEST SWAP2 POP POP SWAP3 SWAP6 SWAP2 SWAP5 POP SWAP3 POP JUMP JUMPDEST PUSH2 0x2026 DUP2 PUSH2 0x1BC4 JUMP JUMPDEST DUP3 MSTORE POP POP JUMP JUMPDEST PUSH1 0x0 PUSH1 0x20 DUP3 ADD SWAP1 POP PUSH2 0x2041 PUSH1 0x0 DUP4 ADD DUP5 PUSH2 0x201D JUMP JUMPDEST SWAP3 SWAP2 POP POP JUMP JUMPDEST PUSH1 0x0 DUP1 PUSH1 0x0 PUSH1 0x60 DUP5 DUP7 SUB SLT ISZERO PUSH2 0x2060 JUMPI PUSH2 0x205F PUSH2 0x1BBA JUMP JUMPDEST JUMPDEST PUSH1 0x0 PUSH2 0x206E DUP7 DUP3 DUP8 ADD PUSH2 0x1E10 JUMP JUMPDEST SWAP4 POP POP PUSH1 0x20 PUSH2 0x207F DUP7 DUP3 DUP8 ADD PUSH2 0x1E10 JUMP JUMPDEST SWAP3 POP POP PUSH1 0x40 PUSH2 0x2090 DUP7 DUP3 DUP8 ADD PUSH2 0x1D5B JUMP JUMPDEST SWAP2 POP POP SWAP3 POP SWAP3 POP SWAP3 JUMP JUMPDEST PUSH1 0x0 PUSH1 0x20 DUP3 DUP5 SUB SLT ISZERO PUSH2 0x20B0 JUMPI PUSH2 0x20AF PUSH2 0x1BBA JUMP JUMPDEST JUMPDEST PUSH1 0x0 PUSH2 0x20BE DUP5 DUP3 DUP6 ADD PUSH2 0x1E10 JUMP JUMPDEST SWAP2 POP POP SWAP3 SWAP2 POP POP JUMP JUMPDEST PUSH2 0x20D0 DUP2 PUSH2 0x1D3A JUMP JUMPDEST DUP3 MSTORE POP POP JUMP JUMPDEST PUSH1 0x0 PUSH1 0x20 DUP3 ADD SWAP1 POP PUSH2 0x20EB PUSH1 0x0 DUP4 ADD DUP5 PUSH2 0x20C7 JUMP JUMPDEST SWAP3 SWAP2 POP POP JUMP JUMPDEST PUSH2 0x20FA DUP2 PUSH2 0x1C49 JUMP JUMPDEST DUP2 EQ PUSH2 0x2105 JUMPI PUSH1 0x0 DUP1 REVERT JUMPDEST POP JUMP JUMPDEST PUSH1 0x0 DUP2 CALLDATALOAD SWAP1 POP PUSH2 0x2117 DUP2 PUSH2 0x20F1 JUMP JUMPDEST SWAP3 SWAP2 POP POP JUMP JUMPDEST PUSH1 0x0 DUP1 PUSH1 0x40 DUP4 DUP6 SUB SLT ISZERO PUSH2 0x2134 JUMPI PUSH2 0x2133 PUSH2 0x1BBA JUMP JUMPDEST JUMPDEST PUSH1 0x0 PUSH2 0x2142 DUP6 DUP3 DUP7 ADD PUSH2 0x1E10 JUMP JUMPDEST SWAP3 POP POP PUSH1 0x20 PUSH2 0x2153 DUP6 DUP3 DUP7 ADD PUSH2 0x2108 JUMP JUMPDEST SWAP2 POP POP SWAP3 POP SWAP3 SWAP1 POP JUMP JUMPDEST PUSH1 0x0 PUSH8 0xFFFFFFFFFFFFFFFF DUP3 GT ISZERO PUSH2 0x2178 JUMPI PUSH2 0x2177 PUSH2 0x1E6F JUMP JUMPDEST JUMPDEST PUSH2 0x2181 DUP3 PUSH2 0x1CCE JUMP JUMPDEST SWAP1 POP PUSH1 0x20 DUP2 ADD SWAP1 POP SWAP2 SWAP1 POP JUMP JUMPDEST PUSH1 0x0 PUSH2 0x21A1 PUSH2 0x219C DUP5 PUSH2 0x215D JUMP JUMPDEST PUSH2 0x1ECF JUMP JUMPDEST SWAP1 POP DUP3 DUP2 MSTORE PUSH1 0x20 DUP2 ADD DUP5 DUP5 DUP5 ADD GT ISZERO PUSH2 0x21BD JUMPI PUSH2 0x21BC PUSH2 0x1E6A JUMP JUMPDEST JUMPDEST PUSH2 0x21C8 DUP5 DUP3 DUP6 PUSH2 0x1F1B JUMP JUMPDEST POP SWAP4 SWAP3 POP POP POP JUMP JUMPDEST PUSH1 0x0 DUP3 PUSH1 0x1F DUP4 ADD SLT PUSH2 0x21E5 JUMPI PUSH2 0x21E4 PUSH2 0x1E65 JUMP JUMPDEST JUMPDEST DUP2 CALLDATALOAD PUSH2 0x21F5 DUP5 DUP3 PUSH1 0x20 DUP7 ADD PUSH2 0x218E JUMP JUMPDEST SWAP2 POP POP SWAP3 SWAP2 POP POP JUMP JUMPDEST PUSH1 0x0 DUP1 PUSH1 0x40 DUP4 DUP6 SUB SLT ISZERO PUSH2 0x2215 JUMPI PUSH2 0x2214 PUSH2 0x1BBA JUMP JUMPDEST JUMPDEST PUSH1 0x0 PUSH2 0x2223 DUP6 DUP3 DUP7 ADD PUSH2 0x1E10 JUMP JUMPDEST SWAP3 POP POP PUSH1 0x20 DUP4 ADD CALLDATALOAD PUSH8 0xFFFFFFFFFFFFFFFF DUP2 GT ISZERO PUSH2 0x2244 JUMPI PUSH2 0x2243 PUSH2 0x1BBF JUMP JUMPDEST JUMPDEST PUSH2 0x2250 DUP6 DUP3 DUP7 ADD PUSH2 0x21D0 JUMP JUMPDEST SWAP2 POP POP SWAP3 POP SWAP3 SWAP1 POP JUMP JUMPDEST PUSH1 0x0 DUP1 PUSH1 0x40 DUP4 DUP6 SUB SLT ISZERO PUSH2 0x2271 JUMPI PUSH2 0x2270 PUSH2 0x1BBA JUMP JUMPDEST JUMPDEST PUSH1 0x0 PUSH2 0x227F DUP6 DUP3 DUP7 ADD PUSH2 0x1E10 JUMP JUMPDEST SWAP3 POP POP PUSH1 0x20 PUSH2 0x2290 DUP6 DUP3 DUP7 ADD PUSH2 0x1E10 JUMP JUMPDEST SWAP2 POP POP SWAP3 POP SWAP3 SWAP1 POP JUMP JUMPDEST PUSH32 0x4E487B7100000000000000000000000000000000000000000000000000000000 PUSH1 0x0 MSTORE PUSH1 0x22 PUSH1 0x4 MSTORE PUSH1 0x24 PUSH1 0x0 REVERT JUMPDEST PUSH1 0x0 PUSH1 0x2 DUP3 DIV SWAP1 POP PUSH1 0x1 DUP3 AND DUP1 PUSH2 0x22E1 JUMPI PUSH1 0x7F DUP3 AND SWAP2 POP JUMPDEST PUSH1 0x20 DUP3 LT DUP2 SUB PUSH2 0x22F4 JUMPI PUSH2 0x22F3 PUSH2 0x229A JUMP JUMPDEST JUMPDEST POP SWAP2 SWAP1 POP JUMP JUMPDEST PUSH32 0x4552433732313A20617070726F76656420717565727920666F72206E6F6E6578 PUSH1 0x0 DUP3 ADD MSTORE PUSH32 0x697374656E7420746F6B656E0000000000000000000000000000000000000000 PUSH1 0x20 DUP3 ADD MSTORE POP JUMP JUMPDEST PUSH1 0x0 PUSH2 0x2356 PUSH1 0x2C DUP4 PUSH2 0x1C8A JUMP JUMPDEST SWAP2 POP PUSH2 0x2361 DUP3 PUSH2 0x22FA JUMP JUMPDEST PUSH1 0x40 DUP3 ADD SWAP1 POP SWAP2 SWAP1 POP JUMP JUMPDEST PUSH1 0x0 PUSH1 0x20 DUP3 ADD SWAP1 POP DUP2 DUP2 SUB PUSH1 0x0 DUP4 ADD MSTORE PUSH2 0x2385 DUP2 PUSH2 0x2349 JUMP JUMPDEST SWAP1 POP SWAP2 SWAP1 POP JUMP JUMPDEST PUSH32 0x4552433732313A20617070726F76616C20746F2063757272656E74206F776E65 PUSH1 0x0 DUP3 ADD MSTORE PUSH32 0x7200000000000000000000000000000000000000000000000000000000000000 PUSH1 0x20 DUP3 ADD MSTORE POP JUMP JUMPDEST PUSH1 0x0 PUSH2 0x23E8 PUSH1 0x21 DUP4 PUSH2 0x1C8A JUMP JUMPDEST SWAP2 POP PUSH2 0x23F3 DUP3 PUSH2 0x238C JUMP JUMPDEST PUSH1 0x40 DUP3 ADD SWAP1 POP SWAP2 SWAP1 POP JUMP JUMPDEST PUSH1 0x0 PUSH1 0x20 DUP3 ADD SWAP1 POP DUP2 DUP2 SUB PUSH1 0x0 DUP4 ADD MSTORE PUSH2 0x2417 DUP2 PUSH2 0x23DB JUMP JUMPDEST SWAP1 POP SWAP2 SWAP1 POP JUMP JUMPDEST PUSH32 0x4552433732313A20617070726F76652063616C6C6572206973206E6F74206F77 PUSH1 0x0 DUP3 ADD MSTORE PUSH32 0x6E6572206E6F7220617070726F76656420666F7220616C6C0000000000000000 PUSH1 0x20 DUP3 ADD MSTORE POP JUMP JUMPDEST PUSH1 0x0 PUSH2 0x247A PUSH1 0x38 DUP4 PUSH2 0x1C8A JUMP JUMPDEST SWAP2 POP PUSH2 0x2485 DUP3 PUSH2 0x241E JUMP JUMPDEST PUSH1 0x40 DUP3 ADD SWAP1 POP SWAP2 SWAP1 POP JUMP JUMPDEST PUSH1 0x0 PUSH1 0x20 DUP3 ADD SWAP1 POP DUP2 DUP2 SUB PUSH1 0x0 DUP4 ADD MSTORE PUSH2 0x24A9 DUP2 PUSH2 0x246D JUMP JUMPDEST SWAP1 POP SWAP2 SWAP1 POP JUMP JUMPDEST PUSH1 0x0 DUP2 MLOAD SWAP1 POP SWAP2 SWAP1 POP JUMP JUMPDEST PUSH1 0x0 DUP3 DUP3 MSTORE PUSH1 0x20 DUP3 ADD SWAP1 POP SWAP3 SWAP2 POP POP JUMP JUMPDEST PUSH1 0x0 PUSH2 0x24D7 DUP3 PUSH2 0x24B0 JUMP JUMPDEST PUSH2 0x24E1 DUP2 DUP6 PUSH2 0x24BB JUMP JUMPDEST SWAP4 POP PUSH2 0x24F1 DUP2 DUP6 PUSH1 0x20 DUP7 ADD PUSH2 0x1C9B JUMP JUMPDEST PUSH2 0x24FA DUP2 PUSH2 0x1CCE JUMP JUMPDEST DUP5 ADD SWAP2 POP POP SWAP3 SWAP2 POP POP JUMP JUMPDEST PUSH1 0x0 PUSH1 0x80 DUP3 ADD SWAP1 POP PUSH2 0x251A PUSH1 0x0 DUP4 ADD DUP8 PUSH2 0x1DCF JUMP JUMPDEST PUSH2 0x2527 PUSH1 0x20 DUP4 ADD DUP7 PUSH2 0x1DCF JUMP JUMPDEST PUSH2 0x2534 PUSH1 0x40 DUP4 ADD DUP6 PUSH2 0x20C7 JUMP JUMPDEST DUP2 DUP2 SUB PUSH1 0x60 DUP4 ADD MSTORE PUSH2 0x2546 DUP2 DUP5 PUSH2 0x24CC JUMP JUMPDEST SWAP1 POP SWAP6 SWAP5 POP POP POP POP POP JUMP JUMPDEST PUSH32 0x4552433732313A207472616E736665722063616C6C6572206973206E6F74206F PUSH1 0x0 DUP3 ADD MSTORE PUSH32 0x776E6572206E6F7220617070726F766564000000000000000000000000000000 PUSH1 0x20 DUP3 ADD MSTORE POP JUMP JUMPDEST PUSH1 0x0 PUSH2 0x25AD PUSH1 0x31 DUP4 PUSH2 0x1C8A JUMP JUMPDEST SWAP2 POP PUSH2 0x25B8 DUP3 PUSH2 0x2551 JUMP JUMPDEST PUSH1 0x40 DUP3 ADD SWAP1 POP SWAP2 SWAP1 POP JUMP JUMPDEST PUSH1 0x0 PUSH1 0x20 DUP3 ADD SWAP1 POP DUP2 DUP2 SUB PUSH1 0x0 DUP4 ADD MSTORE PUSH2 0x25DC DUP2 PUSH2 0x25A0 JUMP JUMPDEST SWAP1 POP SWAP2 SWAP1 POP JUMP JUMPDEST PUSH32 0x4552433732313A206F776E657220717565727920666F72206E6F6E6578697374 PUSH1 0x0 DUP3 ADD MSTORE PUSH32 0x656E7420746F6B656E0000000000000000000000000000000000000000000000 PUSH1 0x20 DUP3 ADD MSTORE POP JUMP JUMPDEST PUSH1 0x0 PUSH2 0x263F PUSH1 0x29 DUP4 PUSH2 0x1C8A JUMP JUMPDEST SWAP2 POP PUSH2 0x264A DUP3 PUSH2 0x25E3 JUMP JUMPDEST PUSH1 0x40 DUP3 ADD SWAP1 POP SWAP2 SWAP1 POP JUMP JUMPDEST PUSH1 0x0 PUSH1 0x20 DUP3 ADD SWAP1 POP DUP2 DUP2 SUB PUSH1 0x0 DUP4 ADD MSTORE PUSH2 0x266E DUP2 PUSH2 0x2632 JUMP JUMPDEST SWAP1 POP SWAP2 SWAP1 POP JUMP JUMPDEST PUSH32 0x4552433732313A2062616C616E636520717565727920666F7220746865207A65 PUSH1 0x0 DUP3 ADD MSTORE PUSH32 0x726F206164647265737300000000000000000000000000000000000000000000 PUSH1 0x20 DUP3 ADD MSTORE POP JUMP JUMPDEST PUSH1 0x0 PUSH2 0x26D1 PUSH1 0x2A DUP4 PUSH2 0x1C8A JUMP JUMPDEST SWAP2 POP PUSH2 0x26DC DUP3 PUSH2 0x2675 JUMP JUMPDEST PUSH1 0x40 DUP3 ADD SWAP1 POP SWAP2 SWAP1 POP JUMP JUMPDEST PUSH1 0x0 PUSH1 0x20 DUP3 ADD SWAP1 POP DUP2 DUP2 SUB PUSH1 0x0 DUP4 ADD MSTORE PUSH2 0x2700 DUP2 PUSH2 0x26C4 JUMP JUMPDEST SWAP1 POP SWAP2 SWAP1 POP JUMP JUMPDEST PUSH32 0x45524337323155524953746F726167653A2055524920717565727920666F7220 PUSH1 0x0 DUP3 ADD MSTORE PUSH32 0x6E6F6E6578697374656E7420746F6B656E000000000000000000000000000000 PUSH1 0x20 DUP3 ADD MSTORE POP JUMP JUMPDEST PUSH1 0x0 PUSH2 0x2763 PUSH1 0x31 DUP4 PUSH2 0x1C8A JUMP JUMPDEST SWAP2 POP PUSH2 0x276E DUP3 PUSH2 0x2707 JUMP JUMPDEST PUSH1 0x40 DUP3 ADD SWAP1 POP SWAP2 SWAP1 POP JUMP JUMPDEST PUSH1 0x0 PUSH1 0x20 DUP3 ADD SWAP1 POP DUP2 DUP2 SUB PUSH1 0x0 DUP4 ADD MSTORE PUSH2 0x2792 DUP2 PUSH2 0x2756 JUMP JUMPDEST SWAP1 POP SWAP2 SWAP1 POP JUMP JUMPDEST PUSH1 0x0 DUP2 SWAP1 POP SWAP3 SWAP2 POP POP JUMP JUMPDEST PUSH1 0x0 PUSH2 0x27AF DUP3 PUSH2 0x1C7F JUMP JUMPDEST PUSH2 0x27B9 DUP2 DUP6 PUSH2 0x2799 JUMP JUMPDEST SWAP4 POP PUSH2 0x27C9 DUP2 DUP6 PUSH1 0x20 DUP7 ADD PUSH2 0x1C9B JUMP JUMPDEST DUP1 DUP5 ADD SWAP2 POP POP SWAP3 SWAP2 POP POP JUMP JUMPDEST PUSH1 0x0 PUSH2 0x27E1 DUP3 DUP6 PUSH2 0x27A4 JUMP JUMPDEST SWAP2 POP PUSH2 0x27ED DUP3 DUP5 PUSH2 0x27A4 JUMP JUMPDEST SWAP2 POP DUP2 SWAP1 POP SWAP4 SWAP3 POP POP POP JUMP JUMPDEST PUSH32 0x4552433732313A206F70657261746F7220717565727920666F72206E6F6E6578 PUSH1 0x0 DUP3 ADD MSTORE PUSH32 0x697374656E7420746F6B656E0000000000000000000000000000000000000000 PUSH1 0x20 DUP3 ADD MSTORE POP JUMP JUMPDEST PUSH1 0x0 PUSH2 0x2855 PUSH1 0x2C DUP4 PUSH2 0x1C8A JUMP JUMPDEST SWAP2 POP PUSH2 0x2860 DUP3 PUSH2 0x27F9 JUMP JUMPDEST PUSH1 0x40 DUP3 ADD SWAP1 POP SWAP2 SWAP1 POP JUMP JUMPDEST PUSH1 0x0 PUSH1 0x20 DUP3 ADD SWAP1 POP DUP2 DUP2 SUB PUSH1 0x0 DUP4 ADD MSTORE PUSH2 0x2884 DUP2 PUSH2 0x2848 JUMP JUMPDEST SWAP1 POP SWAP2 SWAP1 POP JUMP JUMPDEST PUSH32 0x4552433732313A207472616E736665722066726F6D20696E636F727265637420 PUSH1 0x0 DUP3 ADD MSTORE PUSH32 0x6F776E6572000000000000000000000000000000000000000000000000000000 PUSH1 0x20 DUP3 ADD MSTORE POP JUMP JUMPDEST PUSH1 0x0 PUSH2 0x28E7 PUSH1 0x25 DUP4 PUSH2 0x1C8A JUMP JUMPDEST SWAP2 POP PUSH2 0x28F2 DUP3 PUSH2 0x288B JUMP JUMPDEST PUSH1 0x40 DUP3 ADD SWAP1 POP SWAP2 SWAP1 POP JUMP JUMPDEST PUSH1 0x0 PUSH1 0x20 DUP3 ADD SWAP1 POP DUP2 DUP2 SUB PUSH1 0x0 DUP4 ADD MSTORE PUSH2 0x2916 DUP2 PUSH2 0x28DA JUMP JUMPDEST SWAP1 POP SWAP2 SWAP1 POP JUMP JUMPDEST PUSH32 0x4552433732313A207472616E7366657220746F20746865207A65726F20616464 PUSH1 0x0 DUP3 ADD MSTORE PUSH32 0x7265737300000000000000000000000000000000000000000000000000000000 PUSH1 0x20 DUP3 ADD MSTORE POP JUMP JUMPDEST PUSH1 0x0 PUSH2 0x2979 PUSH1 0x24 DUP4 PUSH2 0x1C8A JUMP JUMPDEST SWAP2 POP PUSH2 0x2984 DUP3 PUSH2 0x291D JUMP JUMPDEST PUSH1 0x40 DUP3 ADD SWAP1 POP SWAP2 SWAP1 POP JUMP JUMPDEST PUSH1 0x0 PUSH1 0x20 DUP3 ADD SWAP1 POP DUP2 DUP2 SUB PUSH1 0x0 DUP4 ADD MSTORE PUSH2 0x29A8 DUP2 PUSH2 0x296C JUMP JUMPDEST SWAP1 POP SWAP2 SWAP1 POP JUMP JUMPDEST PUSH32 0x4E487B7100000000000000000000000000000000000000000000000000000000 PUSH1 0x0 MSTORE PUSH1 0x11 PUSH1 0x4 MSTORE PUSH1 0x24 PUSH1 0x0 REVERT JUMPDEST PUSH1 0x0 PUSH2 0x29E9 DUP3 PUSH2 0x1D3A JUMP JUMPDEST SWAP2 POP PUSH2 0x29F4 DUP4 PUSH2 0x1D3A JUMP JUMPDEST SWAP3 POP DUP3 DUP3 LT ISZERO PUSH2 0x2A07 JUMPI PUSH2 0x2A06 PUSH2 0x29AF JUMP JUMPDEST JUMPDEST DUP3 DUP3 SUB SWAP1 POP SWAP3 SWAP2 POP POP JUMP JUMPDEST PUSH1 0x0 PUSH2 0x2A1D DUP3 PUSH2 0x1D3A JUMP JUMPDEST SWAP2 POP PUSH2 0x2A28 DUP4 PUSH2 0x1D3A JUMP JUMPDEST SWAP3 POP DUP3 PUSH32 0xFFFFFFFFFFFFFFFFFFFFFFFFFFFFFFFFFFFFFFFFFFFFFFFFFFFFFFFFFFFFFFFF SUB DUP3 GT ISZERO PUSH2 0x2A5D JUMPI PUSH2 0x2A5C PUSH2 0x29AF JUMP JUMPDEST JUMPDEST DUP3 DUP3 ADD SWAP1 POP SWAP3 SWAP2 POP POP JUMP JUMPDEST PUSH32 0x4552433732313A20617070726F766520746F2063616C6C657200000000000000 PUSH1 0x0 DUP3 ADD MSTORE POP JUMP JUMPDEST PUSH1 0x0 PUSH2 0x2A9E PUSH1 0x19 DUP4 PUSH2 0x1C8A JUMP JUMPDEST SWAP2 POP PUSH2 0x2AA9 DUP3 PUSH2 0x2A68 JUMP JUMPDEST PUSH1 0x20 DUP3 ADD SWAP1 POP SWAP2 SWAP1 POP JUMP JUMPDEST PUSH1 0x0 PUSH1 0x20 DUP3 ADD SWAP1 POP DUP2 DUP2 SUB PUSH1 0x0 DUP4 ADD MSTORE PUSH2 0x2ACD DUP2 PUSH2 0x2A91 JUMP JUMPDEST SWAP1 POP SWAP2 SWAP1 POP JUMP JUMPDEST PUSH32 0x4552433732313A207472616E7366657220746F206E6F6E204552433732315265 PUSH1 0x0 DUP3 ADD MSTORE PUSH32 0x63656976657220696D706C656D656E7465720000000000000000000000000000 PUSH1 0x20 DUP3 ADD MSTORE POP JUMP JUMPDEST PUSH1 0x0 PUSH2 0x2B30 PUSH1 0x32 DUP4 PUSH2 0x1C8A JUMP JUMPDEST SWAP2 POP PUSH2 0x2B3B DUP3 PUSH2 0x2AD4 JUMP JUMPDEST PUSH1 0x40 DUP3 ADD SWAP1 POP SWAP2 SWAP1 POP JUMP JUMPDEST PUSH1 0x0 PUSH1 0x20 DUP3 ADD SWAP1 POP DUP2 DUP2 SUB PUSH1 0x0 DUP4 ADD MSTORE PUSH2 0x2B5F DUP2 PUSH2 0x2B23 JUMP JUMPDEST SWAP1 POP SWAP2 SWAP1 POP JUMP JUMPDEST PUSH32 0x4552433732314D657461646174613A2055524920717565727920666F72206E6F PUSH1 0x0 DUP3 ADD MSTORE PUSH32 0x6E6578697374656E7420746F6B656E0000000000000000000000000000000000 PUSH1 0x20 DUP3 ADD MSTORE POP JUMP JUMPDEST PUSH1 0x0 PUSH2 0x2BC2 PUSH1 0x2F DUP4 PUSH2 0x1C8A JUMP JUMPDEST SWAP2 POP PUSH2 0x2BCD DUP3 PUSH2 0x2B66 JUMP JUMPDEST PUSH1 0x40 DUP3 ADD SWAP1 POP SWAP2 SWAP1 POP JUMP JUMPDEST PUSH1 0x0 PUSH1 0x20 DUP3 ADD SWAP1 POP DUP2 DUP2 SUB PUSH1 0x0 DUP4 ADD MSTORE PUSH2 0x2BF1 DUP2 PUSH2 0x2BB5 JUMP JUMPDEST SWAP1 POP SWAP2 SWAP1 POP JUMP JUMPDEST PUSH32 0x45524337323155524953746F726167653A2055524920736574206F66206E6F6E PUSH1 0x0 DUP3 ADD MSTORE PUSH32 0x6578697374656E7420746F6B656E000000000000000000000000000000000000 PUSH1 0x20 DUP3 ADD MSTORE POP JUMP JUMPDEST PUSH1 0x0 PUSH2 0x2C54 PUSH1 0x2E DUP4 PUSH2 0x1C8A JUMP JUMPDEST SWAP2 POP PUSH2 0x2C5F DUP3 PUSH2 0x2BF8 JUMP JUMPDEST PUSH1 0x40 DUP3 ADD SWAP1 POP SWAP2 SWAP1 POP JUMP JUMPDEST PUSH1 0x0 PUSH1 0x20 DUP3 ADD SWAP1 POP DUP2 DUP2 SUB PUSH1 0x0 DUP4 ADD MSTORE PUSH2 0x2C83 DUP2 PUSH2 0x2C47 JUMP JUMPDEST SWAP1 POP SWAP2 SWAP1 POP JUMP JUMPDEST PUSH1 0x0 DUP2 MLOAD SWAP1 POP PUSH2 0x2C99 DUP2 PUSH2 0x1BF0 JUMP JUMPDEST SWAP3 SWAP2 POP POP JUMP JUMPDEST PUSH1 0x0 PUSH1 0x20 DUP3 DUP5 SUB SLT ISZERO PUSH2 0x2CB5 JUMPI PUSH2 0x2CB4 PUSH2 0x1BBA JUMP JUMPDEST JUMPDEST PUSH1 0x0 PUSH2 0x2CC3 DUP5 DUP3 DUP6 ADD PUSH2 0x2C8A JUMP JUMPDEST SWAP2 POP POP SWAP3 SWAP2 POP POP JUMP JUMPDEST PUSH1 0x0 PUSH2 0x2CD7 DUP3 PUSH2 0x1D3A JUMP JUMPDEST SWAP2 POP PUSH32 0xFFFFFFFFFFFFFFFFFFFFFFFFFFFFFFFFFFFFFFFFFFFFFFFFFFFFFFFFFFFFFFFF DUP3 SUB PUSH2 0x2D09 JUMPI PUSH2 0x2D08 PUSH2 0x29AF JUMP JUMPDEST JUMPDEST PUSH1 0x1 DUP3 ADD SWAP1 POP SWAP2 SWAP1 POP JUMP JUMPDEST PUSH32 0x4E487B7100000000000000000000000000000000000000000000000000000000 PUSH1 0x0 MSTORE PUSH1 0x12 PUSH1 0x4 MSTORE PUSH1 0x24 PUSH1 0x0 REVERT JUMPDEST PUSH1 0x0 PUSH2 0x2D4E DUP3 PUSH2 0x1D3A JUMP JUMPDEST SWAP2 POP PUSH2 0x2D59 DUP4 PUSH2 0x1D3A JUMP JUMPDEST SWAP3 POP DUP3 PUSH2 0x2D69 JUMPI PUSH2 0x2D68 PUSH2 0x2D14 JUMP JUMPDEST JUMPDEST DUP3 DUP3 DIV SWAP1 POP SWAP3 SWAP2 POP POP JUMP JUMPDEST PUSH1 0x0 PUSH2 0x2D7F DUP3 PUSH2 0x1D3A JUMP JUMPDEST SWAP2 POP PUSH2 0x2D8A DUP4 PUSH2 0x1D3A JUMP JUMPDEST SWAP3 POP DUP3 PUSH2 0x2D9A JUMPI PUSH2 0x2D99 PUSH2 0x2D14 JUMP JUMPDEST JUMPDEST DUP3 DUP3 MOD SWAP1 POP SWAP3 SWAP2 POP POP JUMP JUMPDEST PUSH32 0x4E487B7100000000000000000000000000000000000000000000000000000000 PUSH1 0x0 MSTORE PUSH1 0x32 PUSH1 0x4 MSTORE PUSH1 0x24 PUSH1 0x0 REVERT JUMPDEST PUSH32 0x4552433732313A206D696E7420746F20746865207A65726F2061646472657373 PUSH1 0x0 DUP3 ADD MSTORE POP JUMP JUMPDEST PUSH1 0x0 PUSH2 0x2E0A PUSH1 0x20 DUP4 PUSH2 0x1C8A JUMP JUMPDEST SWAP2 POP PUSH2 0x2E15 DUP3 PUSH2 0x2DD4 JUMP JUMPDEST PUSH1 0x20 DUP3 ADD SWAP1 POP SWAP2 SWAP1 POP JUMP JUMPDEST PUSH1 0x0 PUSH1 0x20 DUP3 ADD SWAP1 POP DUP2 DUP2 SUB PUSH1 0x0 DUP4 ADD MSTORE PUSH2 0x2E39 DUP2 PUSH2 0x2DFD JUMP JUMPDEST SWAP1 POP SWAP2 SWAP1 POP JUMP JUMPDEST PUSH32 0x4552433732313A20746F6B656E20616C7265616479206D696E74656400000000 PUSH1 0x0 DUP3 ADD MSTORE POP JUMP JUMPDEST PUSH1 0x0 PUSH2 0x2E76 PUSH1 0x1C DUP4 PUSH2 0x1C8A JUMP JUMPDEST SWAP2 POP PUSH2 0x2E81 DUP3 PUSH2 0x2E40 JUMP JUMPDEST PUSH1 0x20 DUP3 ADD SWAP1 POP SWAP2 SWAP1 POP JUMP JUMPDEST PUSH1 0x0 PUSH1 0x20 DUP3 ADD SWAP1 POP DUP2 DUP2 SUB PUSH1 0x0 DUP4 ADD MSTORE PUSH2 0x2EA5 DUP2 PUSH2 0x2E69 JUMP JUMPDEST SWAP1 POP SWAP2 SWAP1 POP JUMP INVALID LOG2 PUSH5 0x6970667358 0x22 SLT KECCAK256 SAR 0x49 0xBF 0xEF SWAP10 NOT PUSH21 0x5AF018CDA5FE32B6C9C3D953AB7EDA250FD30BC831 MULMOD 0xE3 SUB 0xFC PUSH5 0x736F6C6343 STOP ADDMOD 0xD STOP CALLER "},"gasEstimates":{"creation":{"codeDepositCost":"2400400","executionCost":"infinite","totalCost":"infinite"},"external":{"approve(address,uint256)":"infinite","balanceOf(address)":"2921","burn(uint256)":"infinite","getApproved(uint256)":"5228","isApprovedForAll(address,address)":"infinite","mint(address,string)":"infinite","name()":"infinite","onERC721Received(address,address,uint256,bytes)":"infinite","ownerOf(uint256)":"2997","safeTransferFrom(address,address,uint256)":"infinite","safeTransferFrom(address,address,uint256,bytes)":"infinite","setApprovalForAll(address,bool)":"infinite","supportsInterface(bytes4)":"797","symbol()":"infinite","tokenURI(uint256)":"infinite","transferFrom(address,address,uint256)":"infinite"}},"methodIdentifiers":{"approve(address,uint256)":"095ea7b3","balanceOf(address)":"70a08231","burn(uint256)":"42966c68","getApproved(uint256)":"081812fc","isApprovedForAll(address,address)":"e985e9c5","mint(address,string)":"d0def521","name()":"06fdde03","onERC721Received(address,address,uint256,bytes)":"150b7a02","ownerOf(uint256)":"6352211e","safeTransferFrom(address,address,uint256)":"42842e0e","safeTransferFrom(address,address,uint256,bytes)":"b88d4fde","setApprovalForAll(address,bool)":"a22cb465","supportsInterface(bytes4)":"01ffc9a7","symbol()":"95d89b41","tokenURI(uint256)":"c87b56dd","transferFrom(address,address,uint256)":"23b872dd"}},"storageLayout":{"storage":[{"astId":352,"contract":"MeterNft721.sol:MeterNft721","label":"_name","offset":0,"slot":"0","type":"t_string_storage"},{"astId":354,"contract":"MeterNft721.sol:MeterNft721","label":"_symbol","offset":0,"slot":"1","type":"t_string_storage"},{"astId":358,"contract":"MeterNft721.sol:MeterNft721","label":"_owners","offset":0,"slot":"2","type":"t_mapping(t_uint256,t_address)"},{"astId":362,"contract":"MeterNft721.sol:MeterNft721","label":"_balances","offset":0,"slot":"3","type":"t_mapping(t_address,t_uint256)"},{"astId":366,"contract":"MeterNft721.sol:MeterNft721","label":"_tokenApprovals","offset":0,"slot":"4","type":"t_mapping(t_uint256,t_address)"},{"astId":372,"contract":"MeterNft721.sol:MeterNft721","label":"_operatorApprovals","offset":0,"slot":"5","type":"t_mapping(t_address,t_mapping(t_address,t_bool))"},{"astId":137,"contract":"MeterNft721.sol:MeterNft721","label":"_tokenURIs","offset":0,"slot":"6","type":"t_mapping(t_uint256,t_string_storage)"},{"astId":15,"contract":"MeterNft721.sol:MeterNft721","label":"currentTokenId","offset":0,"slot":"7","type":"t_struct(Counter)258_storage"}],"types":{"t_address":{"encoding":"inplace","label":"address","numberOfBytes":"20"},"t_bool":{"encoding":"inplace","label":"bool","numberOfBytes":"1"},"t_mapping(t_address,t_bool)":{"encoding":"mapping","key":"t_address","label":"mapping(address => bool)","numberOfBytes":"32","value":"t_bool"},"t_mapping(t_address,t_mapping(t_address,t_bool))":{"encoding":"mapping","key":"t_address","label":"mapping(address => mapping(address => bool))","numberOfBytes":"32","value":"t_mapping(t_address,t_bool)"},"t_mapping(t_address,t_uint256)":{"encoding":"mapping","key":"t_address","label":"mapping(address => uint256)","numberOfBytes":"32","value":"t_uint256"},"t_mapping(t_uint256,t_address)":{"encoding":"mapping","key":"t_uint256","label":"mapping(uint256 => address)","numberOfBytes":"32","value":"t_address"},"t_mapping(t_uint256,t_string_storage)":{"encoding":"mapping","key":"t_uint256","label":"mapping(uint256 => string)","numberOfBytes":"32","value":"t_string_storage"},"t_string_storage":{"encoding":"bytes","label":"string","numberOfBytes":"32"},"t_struct(Counter)258_storage":{"encoding":"inplace","label":"struct Counters.Counter","members":[{"astId":257,"contract":"MeterNft721.sol:MeterNft721","label":"_value","offset":0,"slot":"0","type":"t_uint256"}],"numberOfBytes":"32"},"t_uint256":{"encoding":"inplace","label":"uint256","numberOfBytes":"32"}}},"userdoc":{"kind":"user","methods":{},"version":1}}